{
  "contractName": "BasicToken",
  "abi": [
    {
      "constant": true,
      "inputs": [],
      "name": "totalSupply",
      "outputs": [
        {
          "name": "",
          "type": "uint256"
        }
      ],
      "payable": false,
      "stateMutability": "view",
      "type": "function"
    },
    {
      "anonymous": false,
      "inputs": [
        {
          "indexed": true,
          "name": "from",
          "type": "address"
        },
        {
          "indexed": true,
          "name": "to",
          "type": "address"
        },
        {
          "indexed": false,
          "name": "value",
          "type": "uint256"
        }
      ],
      "name": "Transfer",
      "type": "event"
    },
    {
      "constant": false,
      "inputs": [
        {
          "name": "_to",
          "type": "address"
        },
        {
          "name": "_value",
          "type": "uint256"
        }
      ],
      "name": "transfer",
      "outputs": [
        {
          "name": "",
          "type": "bool"
        }
      ],
      "payable": false,
      "stateMutability": "nonpayable",
      "type": "function"
    },
    {
      "constant": true,
      "inputs": [
        {
          "name": "_owner",
          "type": "address"
        }
      ],
      "name": "balanceOf",
      "outputs": [
        {
          "name": "balance",
          "type": "uint256"
        }
      ],
      "payable": false,
      "stateMutability": "view",
      "type": "function"
    }
  ],
  "bytecode": "0x608060405234801561001057600080fd5b506103b8806100206000396000f3fe608060405260043610610057576000357c0100000000000000000000000000000000000000000000000000000000900463ffffffff16806318160ddd1461005c57806370a0823114610087578063a9059cbb146100ec575b600080fd5b34801561006857600080fd5b5061007161015f565b6040518082815260200191505060405180910390f35b34801561009357600080fd5b506100d6600480360360208110156100aa57600080fd5b81019080803573ffffffffffffffffffffffffffffffffffffffff169060200190929190505050610165565b6040518082815260200191505060405180910390f35b3480156100f857600080fd5b506101456004803603604081101561010f57600080fd5b81019080803573ffffffffffffffffffffffffffffffffffffffff169060200190929190803590602001909291905050506101ae565b604051808215151515815260200191505060405180910390f35b60005481565b6000600160008373ffffffffffffffffffffffffffffffffffffffff1673ffffffffffffffffffffffffffffffffffffffff168152602001908152602001600020549050919050565b600061020282600160003373ffffffffffffffffffffffffffffffffffffffff1673ffffffffffffffffffffffffffffffffffffffff1681526020019081526020016000205461034990919063ffffffff16565b600160003373ffffffffffffffffffffffffffffffffffffffff1673ffffffffffffffffffffffffffffffffffffffff1681526020019081526020016000208190555061029782600160008673ffffffffffffffffffffffffffffffffffffffff1673ffffffffffffffffffffffffffffffffffffffff1681526020019081526020016000205461036b90919063ffffffff16565b600160008573ffffffffffffffffffffffffffffffffffffffff1673ffffffffffffffffffffffffffffffffffffffff168152602001908152602001600020819055508273ffffffffffffffffffffffffffffffffffffffff163373ffffffffffffffffffffffffffffffffffffffff167fddf252ad1be2c89b69c2b068fc378daa952ba7f163c4a11628f55a4df523b3ef846040518082815260200191505060405180910390a36001905092915050565b600082821115151561035a57600080fd5b600082840390508091505092915050565b600080828401905083811015151561038257600080fd5b809150509291505056fea165627a7a72305820fb425fb4208a5ed4fbde83323348516d7d82e16efed3cc4fee4a008e0c82a8410029",
  "source": "pragma solidity >=0.4.22 <0.6.0;\n\nimport \"openzeppelin-solidity/contracts/ownership/Ownable.sol\";\nimport \"openzeppelin-solidity/contracts/lifecycle/Pausable.sol\";\nimport \"openzeppelin-solidity/contracts/cryptography/ECDSA.sol\";\nimport \"bytes/BytesLib.sol\";\nimport \"./lib/ERC20.sol\";\nimport \"./lib/ERC20Basic.sol\";\nimport \"./lib/SafeMath.sol\";\nimport \"./ChainpointRegistry.sol\";\nimport \"./ChainpointMigration.sol\";\n\n/**\n * @title Basic token\n * @dev Basic version of StandardToken, with no allowances. \n */\ncontract BasicToken is ERC20Basic {\n  using SafeMath for uint256;\n\n  mapping(address => uint256) balances;\n\n  /**\n   * @dev transfer token for a specified address\n   * @param _to The address to transfer to.\n   * @param _value The amount to be transferred.\n   */\n  function transfer(address _to, uint256 _value) public returns(bool) {\n    balances[msg.sender] = balances[msg.sender].sub(_value);\n    balances[_to] = balances[_to].add(_value);\n    emit Transfer(msg.sender, _to, _value);\n    return true;\n  }\n\n  /**\n   * @dev Gets the balance of the specified address.\n   * @param _owner The address to query the the balance of. \n   * @return An uint256 representing the amount owned by the passed address.\n   */\n  function balanceOf(address _owner) public view returns(uint256 balance) {\n    return balances[_owner];\n  }\n\n}\n\n/**\n * @title Standard ERC20 token\n *\n * @dev Implementation of the basic standard token.\n * @dev https://github.com/ethereum/EIPs/issues/20\n * @dev Based on code by FirstBlood: https://github.com/Firstbloodio/token/blob/master/smart_contract/FirstBloodToken.sol\n */\ncontract StandardToken is ERC20, BasicToken {\n  using SafeMath for uint256;\n\n  mapping(address => mapping(address => uint256)) public allowed;\n\n\n  /**\n   * @dev Transfer tokens from one address to another\n   * @param _from address The address which you want to send tokens from\n   * @param _to address The address which you want to transfer to\n   * @param _value uint256 the amout of tokens to be transfered\n   */\n  function transferFrom(address _from, address _to, uint256 _value) public returns(bool) {\n    // Check is not needed because sub(_allowance, _value) will already throw if this condition is not met\n    // require (_value <= _allowance);\n    \n    balances[_from] = balances[_from].sub(_value);\n    allowed[_from][msg.sender] = allowed[_from][msg.sender].sub(_value);\n    balances[_to] = balances[_to].add(_value);\n\n    emit Transfer(_from, _to, _value);\n    \n    return true;\n  }\n\n  /**\n   * @dev Aprove the passed address to spend the specified amount of tokens on behalf of msg.sender.\n   * @param _spender The address which will spend the funds.\n   * @param _value The amount of tokens to be spent.\n   */\n  function approve(address _spender, uint256 _value) public returns(bool) {\n\n    // To change the approve amount you first have to reduce the addresses`\n    //  allowance to zero by calling `approve(_spender, 0)` if it is not\n    //  already 0 to mitigate the race condition described here:\n    //  https://github.com/ethereum/EIPs/issues/20#issuecomment-263524729\n    require((_value == 0) || (allowed[msg.sender][_spender] == 0));\n\n    allowed[msg.sender][_spender] = _value;\n    emit Approval(msg.sender, _spender, _value);\n    return true;\n  }\n\n  /**\n   * @dev Function to check the amount of tokens that an owner allowed to a spender.\n   * @param _owner address The address which owns the funds.\n   * @param _spender address The address which will spend the funds.\n   * @return A uint256 specifing the amount of tokens still avaible for the spender.\n   */\n  function allowance(address _owner, address _spender) public view returns(uint256 remaining) {\n    return allowed[_owner][_spender];\n  }\n\n}\n\n/**\n * @title Tierion Network Token\n * @dev ERC20 Tierion Network Token (TNT)\n *\n * TNT Tokens are divisible by 1e8 (100,000,000) base\n * units referred to as 'Grains'.\n *\n * TNT are displayed using 8 decimal places of precision.\n *\n * 1 TNT is equivalent to:\n *   100000000 == 1 * 10**8 == 1e8 == One Hundred Million Grains\n *\n * 1 Billion TNT (total supply) is equivalent to:\n *   100000000000000000 == 1000000000 * 10**8 == 1e17 == One Hundred Quadrillion Grains\n *\n * All initial TNT Grains are assigned to the creator of\n * this contract.\n *\n */\ncontract TierionNetworkToken is StandardToken, Ownable, Pausable {\n    using ECDSA for bytes32;\n    using BytesLib for bytes;\n    \n    string public name = 'Tierion Network Token'; // Set the token name for display\n    string public symbol = 'TNT'; // Set the token symbol for display\n    uint8 public decimals = 8; // Set the number of decimals for display\n    uint256 public INITIAL_SUPPLY = 1000000 * 10 ** uint256(decimals); // 1M TNT specified in Grains\n    uint256 public mintAmount = 2000 * 10 ** uint256(decimals); // 2000 TNT specified in Grains\n    \n    ///\n    /// Minting Parameters\n    ///\n    /// @title Minting Interval (in # of blocks)\n    uint256 public mintingInterval = 5760; // 86,400 (seconds in 1 day) / 15 (average block time in seconds)\n    /// @title Nodes Last Token Minting timestamp\n    uint256 public nodeLastMintedAt = 0;\n    /// @title Nodes Last Token Minting block height\n    uint256 public nodeLastMintedAtBlock = 0;\n    /// @title Cores Last Token Minting timestamp\n    uint256 coreLastMintedAt = 0;\n    /// @title Cores Last Token Minting block height\n    uint256 public coreLastMintedAtBlock = 0;\n    \n    /// @title Chainpoint Registry\n    /// @notice Chainpoint Registry Contract\n    ChainpointRegistry public chainpointRegistry;\n\n    /// @title Chainpoint Migration\n    /// @notice Chainpoint Migration Contract\n    ChainpointMigration public migrationContract;\n  \n    ///\n    /// MODIFIERS\n    ///\n    /// @notice only Staked Core Operators or Owner can call, otherwise throw\n    modifier onlyCoreOperator() {\n      require(chainpointRegistry.isHealthyCore(msg.sender), \"must be owner or an active core operator\");\n      _;\n    }\n\n    /// @notice only Staked Core Operators or Owner can call, otherwise throw\n    modifier onlyChainpointMigrationContract() {\n      require(msg.sender == address(migrationContract), \"only Migration Contract can invoke this method\");\n      _;\n    }\n\n  /**\n   * @dev TierionNetworkToken Constructor\n   * Runs only on initial contract creation.\n   */\n  constructor(address _faucetAddr, address _migrationAddr) public {\n    totalSupply = INITIAL_SUPPLY.mul(2); // Set the total supply\n    balances[_faucetAddr] = INITIAL_SUPPLY; // 1M $TKNs is minted to Chainpoint Faucet\n    balances[msg.sender] = INITIAL_SUPPLY; // 1M 1M $TKNs is minted to Chainpoint/Tierion for bootstrapping Network\n\n    migrationContract = ChainpointMigration(_migrationAddr); // Set CHP Migration Contract\n  }\n  \n  ///\n  /// EVENTS \n  ///\n  /// @notice emitted on successful token minting\n  /// @param _nodes number of Node Operators that were rewarded tokens\n  /// @param _mintAmount is the total number of tokens rewarded to each Node Operator\n  /// @param _blockHeight The block height in which token minting occurred\n  event Mint(\n      address[] _nodes,\n      uint256 _mintAmount,\n      uint256 _blockHeight\n  );\n  \n  /// @notice emitted on successful purchasing of usage\n  /// @param _buyer node operator that is purchasing network usage\n  /// @param _value amount of TNT being spent on future network usage\n  event UsagePurchased(\n      address _buyer,\n      uint256 _value\n  );\n\n  /**\n   * @dev Transfer token for a specified address when not paused\n   * @param _to The address to transfer to.\n   * @param _value The amount to be transferred.\n   */\n  function transfer(address _to, uint256 _value) public whenNotPaused returns(bool) {\n    require(_to != address(0));\n    return super.transfer(_to, _value);\n  }\n\n  /**\n   * @dev Transfer tokens from one address to another when not paused\n   * @param _from address The address which you want to send tokens from\n   * @param _to address The address which you want to transfer to\n   * @param _value uint256 the amount of tokens to be transferred\n   */\n  function transferFrom(address _from, address _to, uint256 _value) public whenNotPaused returns(bool) {\n    require(_to != address(0));\n    return super.transferFrom(_from, _to, _value);\n  }\n\n  /**\n   * @dev Aprove the passed address to spend the specified amount of tokens on behalf of msg.sender when not paused.\n   * @param _spender The address which will spend the funds.\n   * @param _value The amount of tokens to be spent.\n   */\n  function approve(address _spender, uint256 _value) public whenNotPaused returns(bool) {\n    return super.approve(_spender, _value);\n  }\n  \n  /**\n   * @dev Mint tokens and send to the address provided\n   * @param _nodes The addresses of Nodes which will receive the funds.\n   * @dev only Chainpoint Core Operators can invoke this method\n   */\n  function mint(address[] memory _nodes, bytes32 _hash, bytes memory signature1, bytes memory signature2, bytes memory signature3, bytes memory signature4, bytes memory signature5, bytes memory signature6) public whenNotPaused onlyCoreOperator returns(bool) {\n      require(nodeLastMintedAtBlock == 0 || block.number >= nodeLastMintedAtBlock.add(mintingInterval), \"minting occurs at the specified minting interval\");\n      require(_nodes.length <= 72, \"list of 72 or fewer nodes is required\");\n      // Check signature uniqueness\n      require(!signature1.equal(signature2) && !signature1.equal(signature3) && !signature1.equal(signature4) && !signature1.equal(signature5) && !signature1.equal(signature6), 'Signatures must be signed by different Cores');\n      require(!signature2.equal(signature3) && !signature2.equal(signature4) && !signature2.equal(signature5) && !signature2.equal(signature6), 'Signatures must be signed by different Cores');\n      require(!signature3.equal(signature4) && !signature3.equal(signature5) && !signature3.equal(signature6), 'Signatures must be signed by different Cores');\n      require(!signature4.equal(signature5) && !signature4.equal(signature6), 'Signatures must be signed by different Cores');\n      require(!signature5.equal(signature6), 'Signatures must be signed by different Cores');\n\n      // Validate parameters provided\n      bytes32 nodesHash = keccak256(abi.encodePacked(_nodes));\n      require(nodesHash.toEthSignedMessageHash() == _hash, \"supplied toEthSignedMessageHash does not equal value calculated\");\n      \n      // Recover Signer addresses and verify they are staked Core Operators\n      bytes[6] memory signatures = [signature1, signature2, signature3, signature4, signature5, signature6];\n      for(uint8 i=0; i < signatures.length; i++) {\n          require(chainpointRegistry.isHealthyCore(_hash.recover(signatures[i])), \"signer is not a staked core operator\");\n      }\n\n      // Update LastMintedAt block & time\n      nodeLastMintedAtBlock = block.number;\n      nodeLastMintedAt = now;\n      \n      // Iterate through list of Nodes and award tokens\n      for(uint8 i=0; i < _nodes.length; i++) {\n          _mint(_nodes[i], mintAmount);\n      }\n      \n      emit Mint(_nodes, mintAmount, block.number);\n      \n      return true;\n  }\n\n  /**\n   * @dev Purchase Usage tokens, will burn tokens and emit a UsagePurchased & Transfer event\n   * @param _value The amount of tokens to be spent.\n   * @dev Chainpoint Nodes will be invoking this method to purchase access to the Network\n   * @return Boolean indicating result of method execution\n   */\n  function purchaseUsage(uint256 _value) public returns (bool) {\n      _burn(msg.sender, _value);\n      \n      emit UsagePurchased(msg.sender, _value);\n      \n      return true;\n  }\n\n  /**\n   * @dev Token Migration Mint new tokens for migrator\n   * @param _amount The amount of tokens to be minted as a result of a migration.\n   * @dev TNT token holders will be invoking during token migration process\n   * @return Boolean indicating result of method execution\n   */\n  function mintForExchange(address _to, uint256 _amount) public returns (bool) {\n    _mint(_to, _amount);\n\n    // TODO: emit TokensMigrated Event\n\n    return true;\n  }\n\n  /**\n   * @dev Sets the contract address for the Chainpoint Registry\n   * @param _addr The contract address of the Chainpoint Registry\n   * @dev Can only be invoked by contract owner\n   * @return Boolean indicating result of method execution\n   */\n  function setChainpointRegistry(address _addr) public onlyOwner returns(bool) {\n      require(_addr != address(0));\n      \n      chainpointRegistry = ChainpointRegistry(_addr);\n      \n      return true;\n  }\n\n  /**\n   * @dev Gets the balance of the specified address.\n   * @param _account The account which is burning tokens\n   * @param _value The number of tokens to burn\n   * @dev Internal function that is called within - purchaseUsage()\n   */\n  function _burn(address _account, uint256 _value) internal {\n    require(_account != address(0));\n\n    totalSupply = totalSupply.sub(_value);\n    balances[_account] = balances[_account].sub(_value);\n    \n    emit Transfer(_account, address(0), _value);\n  }\n\n  /**\n    * @dev Internal function that mints an amount of the token and credits the account provided\n    * @param _account The account that will receive the created tokens.\n    * @param _value The amount of tokens minted\n    */\n  function _mint(address _account, uint256 _value) internal {\n    require(_account != address(0));\n\n    totalSupply = totalSupply.add(_value);\n    balances[_account] = balances[_account].add(_value);\n    emit Transfer(address(0), _account, _value);\n  }\n  \n  function recover(bytes32 hash, bytes memory signature) public pure returns (address) {\n    return hash.recover(signature);\n  }\n\n  function toEthSignedMessageHash(bytes32 hash) public pure returns (bytes32) {\n    return hash.toEthSignedMessageHash();\n  }\n\n  function isMigrationContract() public view returns (bool) {\n    return (msg.sender == address(migrationContract));\n  }\n}\n",
  "sourcePath": "/Users/michaeliglesias/zDevelopment/Tierion/Hydra/node-registration-research/v1/contracts/TierionNetworkToken.sol",
  "compiler": {
    "name": "solc",
    "version": "0.5.0+commit.1d4f565a.Emscripten.clang"
  },
  "schemaVersion": "3.0.1",
  "updatedAt": "2019-05-15T14:22:09.297Z",
  "devdoc": {
    "details": "Basic version of StandardToken, with no allowances. ",
    "methods": {
      "balanceOf(address)": {
        "details": "Gets the balance of the specified address.",
        "params": {
          "_owner": "The address to query the the balance of. "
        },
        "return": "An uint256 representing the amount owned by the passed address."
      },
      "transfer(address,uint256)": {
        "details": "transfer token for a specified address",
        "params": {
          "_to": "The address to transfer to.",
          "_value": "The amount to be transferred."
        }
      }
    },
    "title": "Basic token"
  },
  "userdoc": {
    "methods": {}
  }
}