{
  "contractName": "ChainpointRegistry",
  "abi": [
    {
      "constant": true,
      "inputs": [],
      "name": "name",
      "outputs": [
        {
          "name": "",
          "type": "string"
        }
      ],
      "payable": false,
      "stateMutability": "view",
      "type": "function",
      "signature": "0x06fdde03"
    },
    {
      "constant": true,
      "inputs": [
        {
          "name": "",
          "type": "address"
        }
      ],
      "name": "nodes",
      "outputs": [
        {
          "name": "nodeIp",
          "type": "uint32"
        },
        {
          "name": "nodePublicKey",
          "type": "bytes32"
        },
        {
          "name": "isStaked",
          "type": "bool"
        },
        {
          "name": "amountStaked",
          "type": "uint256"
        },
        {
          "name": "stakeLockedUntil",
          "type": "uint256"
        }
      ],
      "payable": false,
      "stateMutability": "view",
      "type": "function",
      "signature": "0x189a5a17"
    },
    {
      "constant": false,
      "inputs": [],
      "name": "unpause",
      "outputs": [],
      "payable": false,
      "stateMutability": "nonpayable",
      "type": "function",
      "signature": "0x3f4ba83a"
    },
    {
      "constant": true,
      "inputs": [
        {
          "name": "account",
          "type": "address"
        }
      ],
      "name": "isPauser",
      "outputs": [
        {
          "name": "",
          "type": "bool"
        }
      ],
      "payable": false,
      "stateMutability": "view",
      "type": "function",
      "signature": "0x46fbf68e"
    },
    {
      "constant": true,
      "inputs": [
        {
          "name": "",
          "type": "uint32"
        }
      ],
      "name": "allocatedIps",
      "outputs": [
        {
          "name": "",
          "type": "bool"
        }
      ],
      "payable": false,
      "stateMutability": "view",
      "type": "function",
      "signature": "0x4b0624bb"
    },
    {
      "constant": true,
      "inputs": [],
      "name": "paused",
      "outputs": [
        {
          "name": "",
          "type": "bool"
        }
      ],
      "payable": false,
      "stateMutability": "view",
      "type": "function",
      "signature": "0x5c975abb"
    },
    {
      "constant": false,
      "inputs": [],
      "name": "renouncePauser",
      "outputs": [],
      "payable": false,
      "stateMutability": "nonpayable",
      "type": "function",
      "signature": "0x6ef8d66d"
    },
    {
      "constant": false,
      "inputs": [],
      "name": "renounceOwnership",
      "outputs": [],
      "payable": false,
      "stateMutability": "nonpayable",
      "type": "function",
      "signature": "0x715018a6"
    },
    {
      "constant": true,
      "inputs": [
        {
          "name": "",
          "type": "uint256"
        }
      ],
      "name": "whitelistedCoresArr",
      "outputs": [
        {
          "name": "",
          "type": "address"
        }
      ],
      "payable": false,
      "stateMutability": "view",
      "type": "function",
      "signature": "0x79a382fe"
    },
    {
      "constant": true,
      "inputs": [],
      "name": "CORE_STAKING_DURATION",
      "outputs": [
        {
          "name": "",
          "type": "uint256"
        }
      ],
      "payable": false,
      "stateMutability": "view",
      "type": "function",
      "signature": "0x7c8f3840"
    },
    {
      "constant": false,
      "inputs": [
        {
          "name": "account",
          "type": "address"
        }
      ],
      "name": "addPauser",
      "outputs": [],
      "payable": false,
      "stateMutability": "nonpayable",
      "type": "function",
      "signature": "0x82dc1ec4"
    },
    {
      "constant": false,
      "inputs": [],
      "name": "pause",
      "outputs": [],
      "payable": false,
      "stateMutability": "nonpayable",
      "type": "function",
      "signature": "0x8456cb59"
    },
    {
      "constant": true,
      "inputs": [
        {
          "name": "",
          "type": "address"
        }
      ],
      "name": "cores",
      "outputs": [
        {
          "name": "coreIp",
          "type": "uint32"
        },
        {
          "name": "corePublicKey",
          "type": "bytes32"
        },
        {
          "name": "isStaked",
          "type": "bool"
        },
        {
          "name": "isHealthy",
          "type": "bool"
        },
        {
          "name": "amountStaked",
          "type": "uint256"
        },
        {
          "name": "stakeLockedUntil",
          "type": "uint256"
        }
      ],
      "payable": false,
      "stateMutability": "view",
      "type": "function",
      "signature": "0x85ad32c4"
    },
    {
      "constant": true,
      "inputs": [],
      "name": "owner",
      "outputs": [
        {
          "name": "",
          "type": "address"
        }
      ],
      "payable": false,
      "stateMutability": "view",
      "type": "function",
      "signature": "0x8da5cb5b"
    },
    {
      "constant": true,
      "inputs": [],
      "name": "isOwner",
      "outputs": [
        {
          "name": "",
          "type": "bool"
        }
      ],
      "payable": false,
      "stateMutability": "view",
      "type": "function",
      "signature": "0x8f32d59b"
    },
    {
      "constant": true,
      "inputs": [],
      "name": "NODE_STAKING_AMOUNT",
      "outputs": [
        {
          "name": "",
          "type": "uint256"
        }
      ],
      "payable": false,
      "stateMutability": "view",
      "type": "function",
      "signature": "0xcfc635d4"
    },
    {
      "constant": true,
      "inputs": [
        {
          "name": "",
          "type": "uint256"
        }
      ],
      "name": "coresArr",
      "outputs": [
        {
          "name": "",
          "type": "address"
        }
      ],
      "payable": false,
      "stateMutability": "view",
      "type": "function",
      "signature": "0xd2c27afc"
    },
    {
      "constant": true,
      "inputs": [],
      "name": "CORE_STAKING_AMOUNT",
      "outputs": [
        {
          "name": "",
          "type": "uint256"
        }
      ],
      "payable": false,
      "stateMutability": "view",
      "type": "function",
      "signature": "0xe5d0bf7d"
    },
    {
      "constant": true,
      "inputs": [],
      "name": "registryAddress",
      "outputs": [
        {
          "name": "",
          "type": "address"
        }
      ],
      "payable": false,
      "stateMutability": "view",
      "type": "function",
      "signature": "0xed9aab51"
    },
    {
      "constant": false,
      "inputs": [
        {
          "name": "newOwner",
          "type": "address"
        }
      ],
      "name": "transferOwnership",
      "outputs": [],
      "payable": false,
      "stateMutability": "nonpayable",
      "type": "function",
      "signature": "0xf2fde38b"
    },
    {
      "constant": true,
      "inputs": [],
      "name": "NODE_STAKING_DURATION",
      "outputs": [
        {
          "name": "",
          "type": "uint256"
        }
      ],
      "payable": false,
      "stateMutability": "view",
      "type": "function",
      "signature": "0xf353e749"
    },
    {
      "constant": true,
      "inputs": [],
      "name": "token",
      "outputs": [
        {
          "name": "",
          "type": "address"
        }
      ],
      "payable": false,
      "stateMutability": "view",
      "type": "function",
      "signature": "0xfc0c546a"
    },
    {
      "inputs": [
        {
          "name": "_token",
          "type": "address"
        }
      ],
      "payable": false,
      "stateMutability": "nonpayable",
      "type": "constructor",
      "signature": "constructor"
    },
    {
      "anonymous": false,
      "inputs": [
        {
          "indexed": true,
          "name": "_sender",
          "type": "address"
        },
        {
          "indexed": false,
          "name": "_nodeIp",
          "type": "uint32"
        },
        {
          "indexed": false,
          "name": "_nodePublicKey",
          "type": "bytes32"
        },
        {
          "indexed": false,
          "name": "_amountStaked",
          "type": "uint256"
        },
        {
          "indexed": false,
          "name": "_duration",
          "type": "uint256"
        }
      ],
      "name": "NodeStaked",
      "type": "event",
      "signature": "0x6ee9d3f125e9b75fa08097b5127a413fdf38d61d26d24a0ba85cad76d4b1034d"
    },
    {
      "anonymous": false,
      "inputs": [
        {
          "indexed": true,
          "name": "_sender",
          "type": "address"
        },
        {
          "indexed": false,
          "name": "_nodeIp",
          "type": "uint32"
        },
        {
          "indexed": false,
          "name": "_publicKey",
          "type": "bytes32"
        },
        {
          "indexed": false,
          "name": "_amountStaked",
          "type": "uint256"
        },
        {
          "indexed": false,
          "name": "_duration",
          "type": "uint256"
        }
      ],
      "name": "NodeStakeUpdated",
      "type": "event",
      "signature": "0x57d3f3c2bfc2821bf567c972a631d55e2067c8b6d496e49d03418537434b55a7"
    },
    {
      "anonymous": false,
      "inputs": [
        {
          "indexed": true,
          "name": "_sender",
          "type": "address"
        },
        {
          "indexed": false,
          "name": "_coreIp",
          "type": "uint32"
        },
        {
          "indexed": false,
          "name": "_corePublicKey",
          "type": "bytes32"
        },
        {
          "indexed": false,
          "name": "_isHealthy",
          "type": "bool"
        },
        {
          "indexed": false,
          "name": "_amountStaked",
          "type": "uint256"
        },
        {
          "indexed": false,
          "name": "_duration",
          "type": "uint256"
        }
      ],
      "name": "CoreStaked",
      "type": "event",
      "signature": "0x4516970003eefba0d49ed47be7613fff7206777adebf8662c7e1e5d1c4377d25"
    },
    {
      "anonymous": false,
      "inputs": [
        {
          "indexed": true,
          "name": "_sender",
          "type": "address"
        },
        {
          "indexed": false,
          "name": "_coreIp",
          "type": "uint32"
        },
        {
          "indexed": false,
          "name": "_corePublicKey",
          "type": "bytes32"
        },
        {
          "indexed": false,
          "name": "_isHealthy",
          "type": "bool"
        },
        {
          "indexed": false,
          "name": "_amountStaked",
          "type": "uint256"
        },
        {
          "indexed": false,
          "name": "_duration",
          "type": "uint256"
        }
      ],
      "name": "CoreStakeUpdated",
      "type": "event",
      "signature": "0xbc22aa0c966480499a6de434ae62991e3a2454d693e4da34f79c7801378f50e0"
    },
    {
      "anonymous": false,
      "inputs": [
        {
          "indexed": false,
          "name": "account",
          "type": "address"
        }
      ],
      "name": "Paused",
      "type": "event",
      "signature": "0x62e78cea01bee320cd4e420270b5ea74000d11b0c9f74754ebdbfc544b05a258"
    },
    {
      "anonymous": false,
      "inputs": [
        {
          "indexed": false,
          "name": "account",
          "type": "address"
        }
      ],
      "name": "Unpaused",
      "type": "event",
      "signature": "0x5db9ee0a495bf2e6ff9c91a7834c1ba4fdd244a5e8aa4e537bd38aeae4b073aa"
    },
    {
      "anonymous": false,
      "inputs": [
        {
          "indexed": true,
          "name": "account",
          "type": "address"
        }
      ],
      "name": "PauserAdded",
      "type": "event",
      "signature": "0x6719d08c1888103bea251a4ed56406bd0c3e69723c8a1686e017e7bbe159b6f8"
    },
    {
      "anonymous": false,
      "inputs": [
        {
          "indexed": true,
          "name": "account",
          "type": "address"
        }
      ],
      "name": "PauserRemoved",
      "type": "event",
      "signature": "0xcd265ebaf09df2871cc7bd4133404a235ba12eff2041bb89d9c714a2621c7c7e"
    },
    {
      "anonymous": false,
      "inputs": [
        {
          "indexed": true,
          "name": "previousOwner",
          "type": "address"
        },
        {
          "indexed": true,
          "name": "newOwner",
          "type": "address"
        }
      ],
      "name": "OwnershipTransferred",
      "type": "event",
      "signature": "0x8be0079c531659141344cd1fd0a4f28419497f9722a3daafe3b4186f6b6457e0"
    },
    {
      "constant": false,
      "inputs": [
        {
          "name": "_nodeIp",
          "type": "uint32"
        },
        {
          "name": "_nodePublicKey",
          "type": "bytes32"
        }
      ],
      "name": "stake",
      "outputs": [
        {
          "name": "",
          "type": "bool"
        }
      ],
      "payable": false,
      "stateMutability": "nonpayable",
      "type": "function",
      "signature": "0x5cc3ba0f"
    },
    {
      "constant": false,
      "inputs": [
        {
          "name": "_coreIp",
          "type": "uint32"
        },
        {
          "name": "_corePublicKey",
          "type": "bytes32"
        }
      ],
      "name": "stakeCore",
      "outputs": [
        {
          "name": "",
          "type": "bool"
        }
      ],
      "payable": false,
      "stateMutability": "nonpayable",
      "type": "function",
      "signature": "0x00a843b0"
    },
    {
      "constant": false,
      "inputs": [
        {
          "name": "_nodeIp",
          "type": "uint32"
        }
      ],
      "name": "updateStake",
      "outputs": [
        {
          "name": "",
          "type": "bool"
        }
      ],
      "payable": false,
      "stateMutability": "nonpayable",
      "type": "function",
      "signature": "0x8689baf2"
    },
    {
      "constant": false,
      "inputs": [
        {
          "name": "_coreIp",
          "type": "uint32"
        }
      ],
      "name": "updateStakeCore",
      "outputs": [
        {
          "name": "",
          "type": "bool"
        }
      ],
      "payable": false,
      "stateMutability": "nonpayable",
      "type": "function",
      "signature": "0xd2f05a51"
    },
    {
      "constant": false,
      "inputs": [],
      "name": "unStake",
      "outputs": [
        {
          "name": "",
          "type": "bool"
        }
      ],
      "payable": false,
      "stateMutability": "nonpayable",
      "type": "function",
      "signature": "0x73cf575a"
    },
    {
      "constant": false,
      "inputs": [],
      "name": "unStakeCore",
      "outputs": [
        {
          "name": "",
          "type": "bool"
        }
      ],
      "payable": false,
      "stateMutability": "nonpayable",
      "type": "function",
      "signature": "0xdc964893"
    },
    {
      "constant": true,
      "inputs": [],
      "name": "reward",
      "outputs": [
        {
          "name": "",
          "type": "bool"
        }
      ],
      "payable": false,
      "stateMutability": "view",
      "type": "function",
      "signature": "0x228cb733"
    },
    {
      "constant": true,
      "inputs": [
        {
          "name": "addr",
          "type": "address"
        }
      ],
      "name": "totalStakedFor",
      "outputs": [
        {
          "name": "amount",
          "type": "uint256"
        },
        {
          "name": "unlocks_at",
          "type": "uint256"
        }
      ],
      "payable": false,
      "stateMutability": "view",
      "type": "function",
      "signature": "0x4b341aed"
    },
    {
      "constant": true,
      "inputs": [],
      "name": "getCoreCount",
      "outputs": [
        {
          "name": "",
          "type": "uint256"
        }
      ],
      "payable": false,
      "stateMutability": "view",
      "type": "function",
      "signature": "0xf1730874"
    },
    {
      "constant": true,
      "inputs": [
        {
          "name": "_address",
          "type": "address"
        }
      ],
      "name": "isHealthyCore",
      "outputs": [
        {
          "name": "",
          "type": "bool"
        }
      ],
      "payable": false,
      "stateMutability": "view",
      "type": "function",
      "signature": "0x9273cce8"
    },
    {
      "constant": false,
      "inputs": [
        {
          "name": "_address",
          "type": "address"
        }
      ],
      "name": "whitelistCore",
      "outputs": [
        {
          "name": "",
          "type": "bool"
        }
      ],
      "payable": false,
      "stateMutability": "nonpayable",
      "type": "function",
      "signature": "0xd8a8788d"
    }
  ],
  "bytecode": "0x60806040526040805190810160405280601381526020017f436861696e706f696e7420526567697374727900000000000000000000000000815250600390805190602001906200005192919062000491565b5030600460006101000a81548173ffffffffffffffffffffffffffffffffffffffff021916908373ffffffffffffffffffffffffffffffffffffffff16021790555064746a5288006007556078600855650246139ca8006009556078600a55348015620000bd57600080fd5b5060405160208062003b6d83398101806040526020811015620000df57600080fd5b8101908080519060200190929190505050336000806101000a81548173ffffffffffffffffffffffffffffffffffffffff021916908373ffffffffffffffffffffffffffffffffffffffff1602179055506000809054906101000a900473ffffffffffffffffffffffffffffffffffffffff1673ffffffffffffffffffffffffffffffffffffffff16600073ffffffffffffffffffffffffffffffffffffffff167f8be0079c531659141344cd1fd0a4f28419497f9722a3daafe3b4186f6b6457e060405160405180910390a3620001c633620002cf640100000000026401000000009004565b6000600260006101000a81548160ff021916908315150217905550600073ffffffffffffffffffffffffffffffffffffffff168173ffffffffffffffffffffffffffffffffffffffff161415151562000287576040517f08c379a000000000000000000000000000000000000000000000000000000000815260040180806020018281038252601b8152602001807f746f6b656e20616464726573732063616e6e6f7420626520307830000000000081525060200191505060405180910390fd5b80600560006101000a81548173ffffffffffffffffffffffffffffffffffffffff021916908373ffffffffffffffffffffffffffffffffffffffff1602179055505062000540565b620002f3816001620003396401000000000262003541179091906401000000009004565b8073ffffffffffffffffffffffffffffffffffffffff167f6719d08c1888103bea251a4ed56406bd0c3e69723c8a1686e017e7bbe159b6f860405160405180910390a250565b600073ffffffffffffffffffffffffffffffffffffffff168173ffffffffffffffffffffffffffffffffffffffff16141515156200037657600080fd5b620003918282620003fc640100000000026401000000009004565b1515156200039e57600080fd5b60018260000160008373ffffffffffffffffffffffffffffffffffffffff1673ffffffffffffffffffffffffffffffffffffffff16815260200190815260200160002060006101000a81548160ff0219169083151502179055505050565b60008073ffffffffffffffffffffffffffffffffffffffff168273ffffffffffffffffffffffffffffffffffffffff16141515156200043a57600080fd5b8260000160008373ffffffffffffffffffffffffffffffffffffffff1673ffffffffffffffffffffffffffffffffffffffff16815260200190815260200160002060009054906101000a900460ff16905092915050565b828054600181600116156101000203166002900490600052602060002090601f016020900481019282601f10620004d457805160ff191683800117855562000505565b8280016001018555821562000505579182015b8281111562000504578251825591602001919060010190620004e7565b5b50905062000514919062000518565b5090565b6200053d91905b80821115620005395760008160009055506001016200051f565b5090565b90565b61361d80620005506000396000f3fe6080604052600436106101a0576000357c0100000000000000000000000000000000000000000000000000000000900463ffffffff168062a843b0146101a557806306fdde0314610208578063189a5a1714610298578063228cb733146103295780633f4ba83a1461035857806346fbf68e1461036f5780634b0624bb146103d85780634b341aed146104315780635c975abb1461049d5780635cc3ba0f146104cc5780636ef8d66d1461052f578063715018a61461054657806373cf575a1461055d57806379a382fe1461058c5780637c8f38401461060757806382dc1ec4146106325780638456cb591461068357806385ad32c41461069a5780638689baf2146107365780638da5cb5b1461078f5780638f32d59b146107e65780639273cce814610815578063cfc635d41461087e578063d2c27afc146108a9578063d2f05a5114610924578063d8a8788d1461097d578063dc964893146109e6578063e5d0bf7d14610a15578063ed9aab5114610a40578063f173087414610a97578063f2fde38b14610ac2578063f353e74914610b13578063fc0c546a14610b3e575b600080fd5b3480156101b157600080fd5b506101ee600480360360408110156101c857600080fd5b81019080803563ffffffff16906020019092919080359060200190929190505050610b95565b604051808215151515815260200191505060405180910390f35b34801561021457600080fd5b5061021d610e8e565b6040518080602001828103825283818151815260200191508051906020019080838360005b8381101561025d578082015181840152602081019050610242565b50505050905090810190601f16801561028a5780820380516001836020036101000a031916815260200191505b509250505060405180910390f35b3480156102a457600080fd5b506102e7600480360360208110156102bb57600080fd5b81019080803573ffffffffffffffffffffffffffffffffffffffff169060200190929190505050610f2c565b604051808663ffffffff1663ffffffff168152602001858152602001841515151581526020018381526020018281526020019550505050505060405180910390f35b34801561033557600080fd5b5061033e610f7f565b604051808215151515815260200191505060405180910390f35b34801561036457600080fd5b5061036d611068565b005b34801561037b57600080fd5b506103be6004803603602081101561039257600080fd5b81019080803573ffffffffffffffffffffffffffffffffffffffff169060200190929190505050611117565b604051808215151515815260200191505060405180910390f35b3480156103e457600080fd5b50610417600480360360208110156103fb57600080fd5b81019080803563ffffffff169060200190929190505050611134565b604051808215151515815260200191505060405180910390f35b34801561043d57600080fd5b506104806004803603602081101561045457600080fd5b81019080803573ffffffffffffffffffffffffffffffffffffffff169060200190929190505050611154565b604051808381526020018281526020019250505060405180910390f35b3480156104a957600080fd5b506104b26112d0565b604051808215151515815260200191505060405180910390f35b3480156104d857600080fd5b50610515600480360360408110156104ef57600080fd5b81019080803563ffffffff169060200190929190803590602001909291905050506112e7565b604051808215151515815260200191505060405180910390f35b34801561053b57600080fd5b506105446115d3565b005b34801561055257600080fd5b5061055b6115de565b005b34801561056957600080fd5b506105726116b0565b604051808215151515815260200191505060405180910390f35b34801561059857600080fd5b506105c5600480360360208110156105af57600080fd5b8101908080359060200190929190505050611abb565b604051808273ffffffffffffffffffffffffffffffffffffffff1673ffffffffffffffffffffffffffffffffffffffff16815260200191505060405180910390f35b34801561061357600080fd5b5061061c611af9565b6040518082815260200191505060405180910390f35b34801561063e57600080fd5b506106816004803603602081101561065557600080fd5b81019080803573ffffffffffffffffffffffffffffffffffffffff169060200190929190505050611aff565b005b34801561068f57600080fd5b50610698611b1f565b005b3480156106a657600080fd5b506106e9600480360360208110156106bd57600080fd5b81019080803573ffffffffffffffffffffffffffffffffffffffff169060200190929190505050611bcf565b604051808763ffffffff1663ffffffff1681526020018681526020018515151515815260200184151515158152602001838152602001828152602001965050505050505060405180910390f35b34801561074257600080fd5b506107756004803603602081101561075957600080fd5b81019080803563ffffffff169060200190929190505050611c35565b604051808215151515815260200191505060405180910390f35b34801561079b57600080fd5b506107a4611fb6565b604051808273ffffffffffffffffffffffffffffffffffffffff1673ffffffffffffffffffffffffffffffffffffffff16815260200191505060405180910390f35b3480156107f257600080fd5b506107fb611fdf565b604051808215151515815260200191505060405180910390f35b34801561082157600080fd5b506108646004803603602081101561083857600080fd5b81019080803573ffffffffffffffffffffffffffffffffffffffff169060200190929190505050612036565b604051808215151515815260200191505060405180910390f35b34801561088a57600080fd5b5061089361208f565b6040518082815260200191505060405180910390f35b3480156108b557600080fd5b506108e2600480360360208110156108cc57600080fd5b8101908080359060200190929190505050612095565b604051808273ffffffffffffffffffffffffffffffffffffffff1673ffffffffffffffffffffffffffffffffffffffff16815260200191505060405180910390f35b34801561093057600080fd5b506109636004803603602081101561094757600080fd5b81019080803563ffffffff1690602001909291905050506120d3565b604051808215151515815260200191505060405180910390f35b34801561098957600080fd5b506109cc600480360360208110156109a057600080fd5b81019080803573ffffffffffffffffffffffffffffffffffffffff169060200190929190505050612471565b604051808215151515815260200191505060405180910390f35b3480156109f257600080fd5b506109fb612645565b604051808215151515815260200191505060405180910390f35b348015610a2157600080fd5b50610a2a612a5d565b6040518082815260200191505060405180910390f35b348015610a4c57600080fd5b50610a55612a63565b604051808273ffffffffffffffffffffffffffffffffffffffff1673ffffffffffffffffffffffffffffffffffffffff16815260200191505060405180910390f35b348015610aa357600080fd5b50610aac612a89565b6040518082815260200191505060405180910390f35b348015610ace57600080fd5b50610b1160048036036020811015610ae557600080fd5b81019080803573ffffffffffffffffffffffffffffffffffffffff169060200190929190505050612a96565b005b348015610b1f57600080fd5b50610b28612ab5565b6040518082815260200191505060405180910390f35b348015610b4a57600080fd5b50610b53612abb565b604051808273ffffffffffffffffffffffffffffffffffffffff1673ffffffffffffffffffffffffffffffffffffffff16815260200191505060405180910390f35b6000600260009054906101000a900460ff16151515610bb357600080fd5b610bbd8383612ae1565b1515610c57576040517f08c379a000000000000000000000000000000000000000000000000000000000815260040180806020018281038252602e8152602001807f6e6f646520646964206e6f74207374616b6520696e746f20746865206368616981526020017f6e706f696e74206e6574776f726b00000000000000000000000000000000000081525060400191505060405180910390fd5b3373ffffffffffffffffffffffffffffffffffffffff167f4516970003eefba0d49ed47be7613fff7206777adebf8662c7e1e5d1c4377d2584846001600954600a54604051808663ffffffff1663ffffffff168152602001858152602001841515151581526020018381526020018281526020019550505050505060405180910390a2600560009054906101000a900473ffffffffffffffffffffffffffffffffffffffff1673ffffffffffffffffffffffffffffffffffffffff166323b872dd33306009546040518463ffffffff167c0100000000000000000000000000000000000000000000000000000000028152600401808473ffffffffffffffffffffffffffffffffffffffff1673ffffffffffffffffffffffffffffffffffffffff1681526020018373ffffffffffffffffffffffffffffffffffffffff1673ffffffffffffffffffffffffffffffffffffffff1681526020018281526020019350505050602060405180830381600087803b158015610dd557600080fd5b505af1158015610de9573d6000803e3d6000fd5b505050506040513d6020811015610dff57600080fd5b81019080805190602001909291905050501515610e84576040517f08c379a00000000000000000000000000000000000000000000000000000000081526004018080602001828103825260138152602001807f7472616e7366657246726f6d206661696c65640000000000000000000000000081525060200191505060405180910390fd5b6001905092915050565b60038054600181600116156101000203166002900480601f016020809104026020016040519081016040528092919081815260200182805460018160011615610100020316600290048015610f245780601f10610ef957610100808354040283529160200191610f24565b820191906000526020600020905b815481529060010190602001808311610f0757829003601f168201915b505050505081565b600b6020528060005260406000206000915090508060000160009054906101000a900463ffffffff16908060010154908060020160009054906101000a900460ff16908060030154908060040154905085565b6000600260009054906101000a900460ff16151515610f9d57600080fd5b600c60003373ffffffffffffffffffffffffffffffffffffffff1673ffffffffffffffffffffffffffffffffffffffff16815260200190815260200160002060020160019054906101000a900460ff161515611061576040517f08c379a00000000000000000000000000000000000000000000000000000000081526004018080602001828103825260158152602001807f6d75737420626520636f7265206f70657261746f72000000000000000000000081525060200191505060405180910390fd5b6001905090565b61107133611117565b151561107c57600080fd5b600260009054906101000a900460ff16151561109757600080fd5b6000600260006101000a81548160ff0219169083151502179055507f5db9ee0a495bf2e6ff9c91a7834c1ba4fdd244a5e8aa4e537bd38aeae4b073aa33604051808273ffffffffffffffffffffffffffffffffffffffff1673ffffffffffffffffffffffffffffffffffffffff16815260200191505060405180910390a1565b600061112d826001612ea790919063ffffffff16565b9050919050565b600d6020528060005260406000206000915054906101000a900460ff1681565b600080600b60008473ffffffffffffffffffffffffffffffffffffffff1673ffffffffffffffffffffffffffffffffffffffff16815260200190815260200160002060020160009054906101000a900460ff161515611241576040517f08c379a000000000000000000000000000000000000000000000000000000000815260040180806020018281038252602f8152602001807f6e6f646520686173206e6f74207374616b656420696e746f207468652043686181526020017f696e706f696e74206e6574776f726b000000000000000000000000000000000081525060400191505060405180910390fd5b600b60008473ffffffffffffffffffffffffffffffffffffffff1673ffffffffffffffffffffffffffffffffffffffff16815260200190815260200160002060030154600b60008573ffffffffffffffffffffffffffffffffffffffff1673ffffffffffffffffffffffffffffffffffffffff1681526020019081526020016000206004015491509150915091565b6000600260009054906101000a900460ff16905090565b6000600260009054906101000a900460ff1615151561130557600080fd5b61130f8383612f3b565b15156113a9576040517f08c379a000000000000000000000000000000000000000000000000000000000815260040180806020018281038252602e8152602001807f6e6f646520646964206e6f74207374616b6520696e746f20746865206368616981526020017f6e706f696e74206e6574776f726b00000000000000000000000000000000000081525060400191505060405180910390fd5b3373ffffffffffffffffffffffffffffffffffffffff167f6ee9d3f125e9b75fa08097b5127a413fdf38d61d26d24a0ba85cad76d4b1034d8484600754600854604051808563ffffffff1663ffffffff16815260200184815260200183815260200182815260200194505050505060405180910390a2600560009054906101000a900473ffffffffffffffffffffffffffffffffffffffff1673ffffffffffffffffffffffffffffffffffffffff166323b872dd33306007546040518463ffffffff167c0100000000000000000000000000000000000000000000000000000000028152600401808473ffffffffffffffffffffffffffffffffffffffff1673ffffffffffffffffffffffffffffffffffffffff1681526020018373ffffffffffffffffffffffffffffffffffffffff1673ffffffffffffffffffffffffffffffffffffffff1681526020018281526020019350505050602060405180830381600087803b15801561151a57600080fd5b505af115801561152e573d6000803e3d6000fd5b505050506040513d602081101561154457600080fd5b810190808051906020019092919050505015156115c9576040517f08c379a00000000000000000000000000000000000000000000000000000000081526004018080602001828103825260138152602001807f7472616e7366657246726f6d206661696c65640000000000000000000000000081525060200191505060405180910390fd5b6001905092915050565b6115dc336132e4565b565b6115e6611fdf565b15156115f157600080fd5b600073ffffffffffffffffffffffffffffffffffffffff166000809054906101000a900473ffffffffffffffffffffffffffffffffffffffff1673ffffffffffffffffffffffffffffffffffffffff167f8be0079c531659141344cd1fd0a4f28419497f9722a3daafe3b4186f6b6457e060405160405180910390a360008060006101000a81548173ffffffffffffffffffffffffffffffffffffffff021916908373ffffffffffffffffffffffffffffffffffffffff160217905550565b6000600260009054906101000a900460ff161515156116ce57600080fd5b60011515600b60003373ffffffffffffffffffffffffffffffffffffffff1673ffffffffffffffffffffffffffffffffffffffff16815260200190815260200160002060020160009054906101000a900460ff1615151415156117bf576040517f08c379a000000000000000000000000000000000000000000000000000000000815260040180806020018281038252602f8152602001807f6e6f646520686173206e6f74207374616b656420696e746f207468652043686181526020017f696e706f696e74206e6574776f726b000000000000000000000000000000000081525060400191505060405180910390fd5b600b60003373ffffffffffffffffffffffffffffffffffffffff1673ffffffffffffffffffffffffffffffffffffffff168152602001908152602001600020600401544210151515611879576040517f08c379a00000000000000000000000000000000000000000000000000000000081526004018080602001828103825260158152602001807f746f6b656e73206172652074696d656c6f636b6564000000000000000000000081525060200191505060405180910390fd5b600560009054906101000a900473ffffffffffffffffffffffffffffffffffffffff1673ffffffffffffffffffffffffffffffffffffffff1663a9059cbb33600b60003373ffffffffffffffffffffffffffffffffffffffff1673ffffffffffffffffffffffffffffffffffffffff168152602001908152602001600020600301546040518363ffffffff167c0100000000000000000000000000000000000000000000000000000000028152600401808373ffffffffffffffffffffffffffffffffffffffff1673ffffffffffffffffffffffffffffffffffffffff16815260200182815260200192505050602060405180830381600087803b15801561198057600080fd5b505af1158015611994573d6000803e3d6000fd5b505050506040513d60208110156119aa57600080fd5b81019080805190602001909291905050501515611a2f576040517f08c379a00000000000000000000000000000000000000000000000000000000081526004018080602001828103825260138152602001807f7472616e7366657246726f6d206661696c65640000000000000000000000000081525060200191505060405180910390fd5b600b60003373ffffffffffffffffffffffffffffffffffffffff1673ffffffffffffffffffffffffffffffffffffffff168152602001908152602001600020600080820160006101000a81549063ffffffff021916905560018201600090556002820160006101000a81549060ff02191690556003820160009055600482016000905550506001905090565b600f81815481101515611aca57fe5b906000526020600020016000915054906101000a900473ffffffffffffffffffffffffffffffffffffffff1681565b600a5481565b611b0833611117565b1515611b1357600080fd5b611b1c8161333e565b50565b611b2833611117565b1515611b3357600080fd5b600260009054906101000a900460ff16151515611b4f57600080fd5b6001600260006101000a81548160ff0219169083151502179055507f62e78cea01bee320cd4e420270b5ea74000d11b0c9f74754ebdbfc544b05a25833604051808273ffffffffffffffffffffffffffffffffffffffff1673ffffffffffffffffffffffffffffffffffffffff16815260200191505060405180910390a1565b600c6020528060005260406000206000915090508060000160009054906101000a900463ffffffff16908060010154908060020160009054906101000a900460ff16908060020160019054906101000a900460ff16908060030154908060040154905086565b6000600260009054906101000a900460ff16151515611c5357600080fd5b600b60003373ffffffffffffffffffffffffffffffffffffffff1673ffffffffffffffffffffffffffffffffffffffff16815260200190815260200160002060020160009054906101000a900460ff161515611d3d576040517f08c379a000000000000000000000000000000000000000000000000000000000815260040180806020018281038252602f8152602001807f6e6f646520686173206e6f74207374616b656420696e746f207468652043686181526020017f696e706f696e74206e6574776f726b000000000000000000000000000000000081525060400191505060405180910390fd5b60008263ffffffff1614151515611dbc576040517f08c379a000000000000000000000000000000000000000000000000000000000815260040180806020018281038252601b8152602001807f6e6f64652049502061646472657373206973207265717569726564000000000081525060200191505060405180910390fd5b6000600b60003373ffffffffffffffffffffffffffffffffffffffff1673ffffffffffffffffffffffffffffffffffffffff16815260200190815260200160002090508263ffffffff168160000160009054906101000a900463ffffffff1663ffffffff16141515611fac5760001515600d60008563ffffffff1663ffffffff16815260200190815260200160002060009054906101000a900460ff161515141515611ef6576040517f08c379a00000000000000000000000000000000000000000000000000000000081526004018080602001828103825260238152602001807f5075626c6963204950204164647265737320697320616c726561647920696e2081526020017f757365000000000000000000000000000000000000000000000000000000000081525060400191505060405180910390fd5b828160000160006101000a81548163ffffffff021916908363ffffffff1602179055503373ffffffffffffffffffffffffffffffffffffffff167f57d3f3c2bfc2821bf567c972a631d55e2067c8b6d496e49d03418537434b55a78260000160009054906101000a900463ffffffff16836001015484600301548560040154604051808563ffffffff1663ffffffff16815260200184815260200183815260200182815260200194505050505060405180910390a25b6001915050919050565b60008060009054906101000a900473ffffffffffffffffffffffffffffffffffffffff16905090565b60008060009054906101000a900473ffffffffffffffffffffffffffffffffffffffff1673ffffffffffffffffffffffffffffffffffffffff163373ffffffffffffffffffffffffffffffffffffffff1614905090565b6000600c60008373ffffffffffffffffffffffffffffffffffffffff1673ffffffffffffffffffffffffffffffffffffffff16815260200190815260200160002060020160019054906101000a900460ff169050919050565b60075481565b600e818154811015156120a457fe5b906000526020600020016000915054906101000a900473ffffffffffffffffffffffffffffffffffffffff1681565b6000600260009054906101000a900460ff161515156120f157600080fd5b600c60003373ffffffffffffffffffffffffffffffffffffffff1673ffffffffffffffffffffffffffffffffffffffff16815260200190815260200160002060020160009054906101000a900460ff1615156121db576040517f08c379a000000000000000000000000000000000000000000000000000000000815260040180806020018281038252602f8152602001807f636f726520686173206e6f74207374616b656420696e746f207468652043686181526020017f696e706f696e74206e6574776f726b000000000000000000000000000000000081525060400191505060405180910390fd5b60008263ffffffff161415151561225a576040517f08c379a000000000000000000000000000000000000000000000000000000000815260040180806020018281038252601b8152602001807f636f72652049502061646472657373206973207265717569726564000000000081525060200191505060405180910390fd5b6000600c60003373ffffffffffffffffffffffffffffffffffffffff1673ffffffffffffffffffffffffffffffffffffffff16815260200190815260200160002090508263ffffffff168160000160009054906101000a900463ffffffff1663ffffffff161415156124675760001515600d60008563ffffffff1663ffffffff16815260200190815260200160002060009054906101000a900460ff161515141515612394576040517f08c379a00000000000000000000000000000000000000000000000000000000081526004018080602001828103825260238152602001807f5075626c6963204950204164647265737320697320616c726561647920696e2081526020017f757365000000000000000000000000000000000000000000000000000000000081525060400191505060405180910390fd5b828160000160006101000a81548163ffffffff021916908363ffffffff1602179055503373ffffffffffffffffffffffffffffffffffffffff167fbc22aa0c966480499a6de434ae62991e3a2454d693e4da34f79c7801378f50e08260000160009054906101000a900463ffffffff1683600101548460020160019054906101000a900460ff1685600301548660040154604051808663ffffffff1663ffffffff168152602001858152602001841515151581526020018381526020018281526020019550505050505060405180910390a25b6001915050919050565b600061247b611fb6565b73ffffffffffffffffffffffffffffffffffffffff163373ffffffffffffffffffffffffffffffffffffffff1614806125005750600c60003373ffffffffffffffffffffffffffffffffffffffff1673ffffffffffffffffffffffffffffffffffffffff16815260200190815260200160002060020160019054906101000a900460ff165b151561259a576040517f08c379a00000000000000000000000000000000000000000000000000000000081526004018080602001828103825260288152602001807f6d757374206265206f776e6572206f7220616e2061637469766520636f72652081526020017f6f70657261746f7200000000000000000000000000000000000000000000000081525060400191505060405180910390fd5b600073ffffffffffffffffffffffffffffffffffffffff168273ffffffffffffffffffffffffffffffffffffffff16141515156125d657600080fd5b600f8290806001815401808255809150509060018203906000526020600020016000909192909190916101000a81548173ffffffffffffffffffffffffffffffffffffffff021916908373ffffffffffffffffffffffffffffffffffffffff1602179055505060019050919050565b6000600260009054906101000a900460ff1615151561266357600080fd5b600c60003373ffffffffffffffffffffffffffffffffffffffff1673ffffffffffffffffffffffffffffffffffffffff16815260200190815260200160002060020160009054906101000a900460ff16151561274d576040517f08c379a000000000000000000000000000000000000000000000000000000000815260040180806020018281038252602f8152602001807f636f726520686173206e6f74207374616b656420696e746f207468652043686181526020017f696e706f696e74206e6574776f726b000000000000000000000000000000000081525060400191505060405180910390fd5b600c60003373ffffffffffffffffffffffffffffffffffffffff1673ffffffffffffffffffffffffffffffffffffffff168152602001908152602001600020600401544210151515612807576040517f08c379a00000000000000000000000000000000000000000000000000000000081526004018080602001828103825260158152602001807f746f6b656e73206172652074696d656c6f636b6564000000000000000000000081525060200191505060405180910390fd5b600560009054906101000a900473ffffffffffffffffffffffffffffffffffffffff1673ffffffffffffffffffffffffffffffffffffffff1663a9059cbb33600c60003373ffffffffffffffffffffffffffffffffffffffff1673ffffffffffffffffffffffffffffffffffffffff168152602001908152602001600020600301546040518363ffffffff167c0100000000000000000000000000000000000000000000000000000000028152600401808373ffffffffffffffffffffffffffffffffffffffff1673ffffffffffffffffffffffffffffffffffffffff16815260200182815260200192505050602060405180830381600087803b15801561290e57600080fd5b505af1158015612922573d6000803e3d6000fd5b505050506040513d602081101561293857600080fd5b810190808051906020019092919050505015156129bd576040517f08c379a00000000000000000000000000000000000000000000000000000000081526004018080602001828103825260138152602001807f7472616e7366657246726f6d206661696c65640000000000000000000000000081525060200191505060405180910390fd5b600c60003373ffffffffffffffffffffffffffffffffffffffff1673ffffffffffffffffffffffffffffffffffffffff168152602001908152602001600020600080820160006101000a81549063ffffffff021916905560018201600090556002820160006101000a81549060ff02191690556002820160016101000a81549060ff02191690556003820160009055600482016000905550506001905090565b60095481565b600460009054906101000a900473ffffffffffffffffffffffffffffffffffffffff1681565b6000600e80549050905090565b612a9e611fdf565b1515612aa957600080fd5b612ab281613398565b50565b60085481565b600560009054906101000a900473ffffffffffffffffffffffffffffffffffffffff1681565b6000600c60003373ffffffffffffffffffffffffffffffffffffffff1673ffffffffffffffffffffffffffffffffffffffff16815260200190815260200160002060020160009054906101000a900460ff16151515612bce576040517f08c379a000000000000000000000000000000000000000000000000000000000815260040180806020018281038252603e8152602001807f636f72652068617320616c7265616479207374616b65642e20696e766f6b652081526020017f7570646174655374616b652829206d6574686f6420746f20757064617465000081525060400191505060405180910390fd5b60008363ffffffff1614158015612c15575060001515600d60008563ffffffff1663ffffffff16815260200190815260200160002060009054906101000a900460ff161515145b1515612c89576040517f08c379a000000000000000000000000000000000000000000000000000000000815260040180806020018281038252601b8152602001807f6e6f64652049502061646472657373206973207265717569726564000000000081525060200191505060405180910390fd5b60007f010000000000000000000000000000000000000000000000000000000000000002826000602081101515612cbc57fe5b1a7f0100000000000000000000000000000000000000000000000000000000000000027effffffffffffffffffffffffffffffffffffffffffffffffffffffffffffff191614151515612d9d576040517f08c379a00000000000000000000000000000000000000000000000000000000081526004018080602001828103825260278152602001807f6e6f6465207075626c6963206b6579206973207265717569726564206973207281526020017f657175697265640000000000000000000000000000000000000000000000000081525060400191505060405180910390fd5b6000600a54420190506000600c60003373ffffffffffffffffffffffffffffffffffffffff1673ffffffffffffffffffffffffffffffffffffffff1681526020019081526020016000209050848160000160006101000a81548163ffffffff021916908363ffffffff16021790555083816001018190555060018160020160006101000a81548160ff02191690831515021790555060018160020160016101000a81548160ff02191690831515021790555060095481600301819055508181600401819055506001600d60008763ffffffff1663ffffffff16815260200190815260200160002060006101000a81548160ff02191690831515021790555060019250505092915050565b60008073ffffffffffffffffffffffffffffffffffffffff168273ffffffffffffffffffffffffffffffffffffffff1614151515612ee457600080fd5b8260000160008373ffffffffffffffffffffffffffffffffffffffff1673ffffffffffffffffffffffffffffffffffffffff16815260200190815260200160002060009054906101000a900460ff16905092915050565b6000600b60003373ffffffffffffffffffffffffffffffffffffffff1673ffffffffffffffffffffffffffffffffffffffff16815260200190815260200160002060020160009054906101000a900460ff16151515613028576040517f08c379a000000000000000000000000000000000000000000000000000000000815260040180806020018281038252603c8152602001807f6e6f64652068617320616c7265616479207374616b65642e20696e766f6b652081526020017f72656e65775374616b652829206d6574686f6420746f2072656e65770000000081525060400191505060405180910390fd5b60008363ffffffff161415801561306f575060001515600d60008563ffffffff1663ffffffff16815260200190815260200160002060009054906101000a900460ff161515145b15156130e3576040517f08c379a000000000000000000000000000000000000000000000000000000000815260040180806020018281038252601b8152602001807f6e6f64652049502061646472657373206973207265717569726564000000000081525060200191505060405180910390fd5b60007f01000000000000000000000000000000000000000000000000000000000000000282600060208110151561311657fe5b1a7f0100000000000000000000000000000000000000000000000000000000000000027effffffffffffffffffffffffffffffffffffffffffffffffffffffffffffff1916141515156131f7576040517f08c379a00000000000000000000000000000000000000000000000000000000081526004018080602001828103825260278152602001807f6e6f6465207075626c6963206b6579206973207265717569726564206973207281526020017f657175697265640000000000000000000000000000000000000000000000000081525060400191505060405180910390fd5b6000600854420190506000600b60003373ffffffffffffffffffffffffffffffffffffffff1673ffffffffffffffffffffffffffffffffffffffff1681526020019081526020016000209050848160000160006101000a81548163ffffffff021916908363ffffffff16021790555083816001018190555060018160020160006101000a81548160ff02191690831515021790555060075481600301819055508181600401819055506001600d60008763ffffffff1663ffffffff16815260200190815260200160002060006101000a81548160ff02191690831515021790555060019250505092915050565b6132f881600161349290919063ffffffff16565b8073ffffffffffffffffffffffffffffffffffffffff167fcd265ebaf09df2871cc7bd4133404a235ba12eff2041bb89d9c714a2621c7c7e60405160405180910390a250565b61335281600161354190919063ffffffff16565b8073ffffffffffffffffffffffffffffffffffffffff167f6719d08c1888103bea251a4ed56406bd0c3e69723c8a1686e017e7bbe159b6f860405160405180910390a250565b600073ffffffffffffffffffffffffffffffffffffffff168173ffffffffffffffffffffffffffffffffffffffff16141515156133d457600080fd5b8073ffffffffffffffffffffffffffffffffffffffff166000809054906101000a900473ffffffffffffffffffffffffffffffffffffffff1673ffffffffffffffffffffffffffffffffffffffff167f8be0079c531659141344cd1fd0a4f28419497f9722a3daafe3b4186f6b6457e060405160405180910390a3806000806101000a81548173ffffffffffffffffffffffffffffffffffffffff021916908373ffffffffffffffffffffffffffffffffffffffff16021790555050565b600073ffffffffffffffffffffffffffffffffffffffff168173ffffffffffffffffffffffffffffffffffffffff16141515156134ce57600080fd5b6134d88282612ea7565b15156134e357600080fd5b60008260000160008373ffffffffffffffffffffffffffffffffffffffff1673ffffffffffffffffffffffffffffffffffffffff16815260200190815260200160002060006101000a81548160ff0219169083151502179055505050565b600073ffffffffffffffffffffffffffffffffffffffff168173ffffffffffffffffffffffffffffffffffffffff161415151561357d57600080fd5b6135878282612ea7565b15151561359357600080fd5b60018260000160008373ffffffffffffffffffffffffffffffffffffffff1673ffffffffffffffffffffffffffffffffffffffff16815260200190815260200160002060006101000a81548160ff021916908315150217905550505056fea165627a7a72305820170f3867dd27b27b6bdb2c9994cbaa1b1309b4410a746ae1c90faf2b1bf270b30029",
  "source": "pragma solidity >=0.4.22 <0.6.0;\n\nimport \"openzeppelin-solidity/contracts/ownership/Ownable.sol\";\nimport \"openzeppelin-solidity/contracts/lifecycle/Pausable.sol\";\n\nimport \"./lib/ERC20.sol\";\nimport \"./lib/SafeMath.sol\";\n\n\ncontract ChainpointRegistry is Ownable, Pausable {\n    using SafeMath for uint256;\n    \n    /// @title TNT Token Contract\n    string public name = \"Chainpoint Registry\";\n    \n    address public registryAddress = address(this);\n    \n    /// @title TNT Token Contract\n    /// @notice Standard ERC20 Token\n    ERC20 public token;\n    \n    // @title Chainpoint Quorum Smart Contract address\n    address quorumContractAddress;\n\n    uint256 public NODE_STAKING_AMOUNT = 500000000000; // 5000 TNT specified in grains\n    uint256 public NODE_STAKING_DURATION = 120; // 2mins specified in seconds TODO: fix for PROD\n    \n    uint256 public CORE_STAKING_AMOUNT = 2500000000000; // 25,000 TNT specified in grains\n    uint256 public CORE_STAKING_DURATION = 120; // 10mins specified in seconds TODO: fix for PROD\n    \n    ///\n    /// MAPPINGS\n    ///\n    /// @title Registered Chainpoint Nodes\n    /// @notice Contains all Chainpoint Nodes that have staked and are participating in the Chainpoint Network\n    /// @dev Key is ethereum account for Chainpoint Node owner\n    /// @dev Value is struct representing Node attributes\n    mapping (address => Node) public nodes;\n    \n    /// @title Registered Chainpoint Cores\n    /// @notice Contains all Chainpoint Core Operators that have staked and are running the Chainpoint Network\n    /// @dev Key is ethereum account for Chainpoint Node owner\n    /// @dev Value is struct representing Node attributes\n    mapping (address => Core) public cores;\n    \n    /// @title Registered Node IP Addresses\n    /// @notice Contains all the Public IP Addresses corresponding to Staked Nodes\n    /// @dev Key is the sum of the public IP address\n    /// @dev Value is a boolean (defaults to false) which informs whether or not the IP address is being used\n    mapping (uint32 => bool) public allocatedIps;\n    \n    /// @title Registered Chainpoint Cores Array\n    /// @notice Convenient iterable data structure containing a list of Core Operators\n    /// @dev Value Address of the registered Core\n    address[] public coresArr;\n    \n    /// @title White-listed Chainpoint Cores Array\n    /// @notice List of white-listed Cores that are able to stake, but have not done so\n    /// @dev Value Address of the white-listed Core\n    address[] public whitelistedCoresArr;\n    \n    ///\n    /// TYPES \n    ///\n    /// @title Chainpoint Node\n    /// @notice Contains the Node state on the Chainpoint network\n    /// @dev nodeIp is the IPV4 address of the Node\n    /// @dev nodePublicKey is the public key of the Node\n    /// @dev amountStaked is the amount of TNT the node has staked\n    struct Node {\n      uint32 nodeIp;\n      bytes32 nodePublicKey;\n      bool isStaked;\n      uint256 amountStaked;\n      uint256 stakeLockedUntil;\n    }\n    \n    /// @title Chainpoint Core Operator\n    /// @notice Contains the Core Operator state on the Chainpoint network\n    /// @dev coreIp is the IPV4 address of the Node\n    /// @dev corePublicKey is the public key of the Node\n    /// @dev staked Node is actively staked\n    /// @dev isHealthy Will always be true unless a Core is acting in bad faith and is therefore being punished by the rest of the Network\n    /// @dev amountStaked is the amount of TNT the node has staked\n    /// @dev stakeLockedUntil is the epoch timestamp up to when the Node is staked into the Chainpoint Network\n    struct Core {\n      uint32 coreIp;\n      bytes32 corePublicKey;\n      bool isStaked;\n      bool isHealthy;\n      uint256 amountStaked;\n      uint256 stakeLockedUntil;\n    }\n    \n    ///\n    /// MODIFIERS\n    ///\n    /// @notice only Staked Core Operators or Owner can call, otherwise throw\n    modifier onlyOwnerOrCoreOperator() {\n        require(msg.sender == owner() || cores[msg.sender].isHealthy, \"must be owner or an active core operator\");\n        _;\n    }\n    \n    modifier onlyOwnerOrQuorum() {\n        require(msg.sender == owner() || msg.sender == quorumContractAddress, \"must be owner or quorum contract\");\n        _;\n    }\n\n    /// @notice only Core Operators can call, otherwise throw\n    modifier onlyCoreOperator() {\n        require(cores[msg.sender].isHealthy, \"must be core operator\");\n        _;\n    }\n    \n    /// @notice Constructor sets the ERC Token contract and initial values for network fees\n    /// @param _token is the Atonomi Token contract address (must be ERC20)\n    constructor (address _token) public {\n        require(_token != address(0), \"token address cannot be 0x0\");\n        token = ERC20(_token);\n    }\n    \n    ///\n    /// EVENTS \n    ///\n    /// @notice emitted on successful Node staking\n    /// @param _sender Node Operator staking a node\n    /// @param _amountStaked is the total amount of TNT the Node has staked\n    /// @param _duration is the epoch timestamp up to when the Node is staked into the Chainpoint Network\n    event NodeStaked(\n        address indexed _sender,\n        uint32 _nodeIp,\n        bytes32 _nodePublicKey,\n        uint256 _amountStaked,\n        uint256 _duration\n    );\n    \n    /// @notice emitted on successful staking renewal\n    /// @param _sender Node Operator staking a node\n    /// @param _nodeIp is the Node's IP Address\n    /// @param _nodeIp is the Node's Public Key\n    /// @param _amountStaked is the amount the Node has staked\n    /// @param _duration is the epoch timestamp up to when the Node is staked into the Chainpoint Network\n    event NodeStakeUpdated(\n        address indexed _sender,\n        uint32 _nodeIp,\n        bytes32 _publicKey,\n        uint256 _amountStaked,\n        uint256 _duration\n    );\n    \n    /// @notice emitted on successful Node staking\n    /// @param _sender Core Operator staking a node\n    /// @param _coreIp IP address of Core Node\n    /// @param _corePublicKey Core Operator public key\n    /// @param _isHealthy Is Core Operator currently Active\n    /// @param _amountStaked is the total amount of TNT the Node has staked\n    /// @param _duration is the epoch timestamp up to when the Node is staked into the Chainpoint Network\n    event CoreStaked(\n        address indexed _sender,\n        uint32 _coreIp,\n        bytes32 _corePublicKey,\n        bool _isHealthy,\n        uint256 _amountStaked,\n        uint256 _duration\n    );\n    \n    /// @notice emitted on successful Node staking\n    /// @param _sender Core Operator staking a node\n    /// @param _coreIp IP address of Core Node\n    /// @param _corePublicKey Core Operator public key\n    /// @param _isHealthy Is Core Operator currently Active\n    /// @param _amountStaked is the total amount of TNT the Node has staked\n    /// @param _duration is the epoch timestamp up to when the Node is staked into the Chainpoint Network\n    event CoreStakeUpdated(\n        address indexed _sender,\n        uint32 _coreIp,\n        bytes32 _corePublicKey,\n        bool _isHealthy,\n        uint256 _amountStaked,\n        uint256 _duration\n    );\n    \n    ///\n    /// Chainpoint Node staking\n    ///\n    /// @notice Allows a Node to stake into the Chainpoint Network\n    /// @param _nodeIp is the IPV4 address of the Node\n    /// @param _nodePublicKey is the public key of the Node\n    /// @return true if successful, otherwise false\n    function stake(uint32 _nodeIp, bytes32 _nodePublicKey) public whenNotPaused returns (bool) {\n        require(_addNodeToRegistry(_nodeIp, _nodePublicKey), \"node did not stake into the chainpoint network\");\n        \n        emit NodeStaked(\n            msg.sender,\n            _nodeIp,\n            _nodePublicKey,\n            NODE_STAKING_AMOUNT,\n            NODE_STAKING_DURATION\n        );\n        \n        require(token.transferFrom(msg.sender, address(this), NODE_STAKING_AMOUNT), \"transferFrom failed\");\n\n        return true;\n    }\n    \n    ///\n    /// Chainpoint Core staking overloaded function definitions\n    ///\n    /// @notice Allows a Node to stake into the Chainpoint Network\n    /// @param _coreIp is the IPV4 address of the Node\n    /// @param _corePublicKey is the public key of the Node\n    /// @return true if successful, otherwise false\n    function stakeCore(uint32 _coreIp, bytes32 _corePublicKey) public whenNotPaused returns (bool) {\n        require(_addCoreToRegistry(_coreIp, _corePublicKey), \"node did not stake into the chainpoint network\");\n        \n        emit CoreStaked(\n            msg.sender,\n            _coreIp,\n            _corePublicKey,\n            true,\n            CORE_STAKING_AMOUNT,\n            CORE_STAKING_DURATION\n        );\n        \n        require(token.transferFrom(msg.sender, address(this), CORE_STAKING_AMOUNT), \"transferFrom failed\");\n\n        return true;\n    }\n    \n    ///\n    /// Update Node Information\n    ///\n    /// @notice Allows a Node renew their stake into the Chainpoint Network\n    /// @param _nodeIp is the new IP address of the staked Chainpoint Node\n    /// @return true if successful, otherwise false\n    /// @dev msg.sender is expected to be the Node Operator\n    /// @dev tokens will be deducted from the Node Operator and added to the balance of the ChainpointRegistry Address\n    /// @dev owner has ability to pause this operation\n    function updateStake(uint32 _nodeIp) public whenNotPaused returns (bool) {\n        require(nodes[msg.sender].isStaked, \"node has not staked into the Chainpoint network\");\n        require(_nodeIp != 0, \"node IP address is required\");\n        \n        Node storage n = nodes[msg.sender];\n        if (n.nodeIp != _nodeIp) {\n            require(allocatedIps[_nodeIp] == false, \"Public IP Address is already in use\");\n            n.nodeIp = _nodeIp;\n\n            emit NodeStakeUpdated(\n                msg.sender,\n                n.nodeIp,\n                n.nodePublicKey,\n                n.amountStaked,\n                n.stakeLockedUntil\n            );\n        }\n\n        return true;\n    }\n    \n    ///\n    /// Update Core Information\n    ///\n    /// @notice Allows a Core to update their metadata\n    /// @param _coreIp is the new IP address of the staked Core Operator\n    /// @return true if successful, otherwise false\n    /// @dev msg.sender is expected to be the Node Operator\n    /// @dev tokens will be deducted from the Node Operator and added to the balance of the ChainpointRegistry Address\n    /// @dev owner has ability to pause this operation\n    function updateStakeCore(uint32 _coreIp) public whenNotPaused returns (bool) {\n        require(cores[msg.sender].isStaked, \"core has not staked into the Chainpoint network\");\n        require(_coreIp != 0, \"core IP address is required\");\n        \n        Core storage c = cores[msg.sender];\n        // If updating public IP Address, ensure that it is unique\n        if (c.coreIp != _coreIp) {\n            require(allocatedIps[_coreIp] == false, \"Public IP Address is already in use\");\n            c.coreIp = _coreIp;\n\n            emit CoreStakeUpdated(\n                msg.sender,\n                c.coreIp,\n                c.corePublicKey,\n                c.isHealthy,\n                c.amountStaked,\n                c.stakeLockedUntil\n            );\n        }\n\n        return true;\n    }\n    \n    ///\n    /// Un-Stake a Node, tokens must no longer be timelocked\n    ///\n    /// @notice Allows a Node un-stake from the Chainpoint Network given that stakeLockedUntil duration has elapsed\n    /// @return true if successful, otherwise false\n    /// @dev msg.sender is expected to be the Node Operator\n    /// @dev tokens that were previously timelocked will be transferred back to the Node Operator\n    /// @dev owner has ability to pause this operation\n    function unStake() public whenNotPaused returns (bool) {\n        require(nodes[msg.sender].isStaked == true, \"node has not staked into the Chainpoint network\");\n        require(now >= nodes[msg.sender].stakeLockedUntil, \"tokens are timelocked\");\n        \n        require(token.transfer(msg.sender, nodes[msg.sender].amountStaked), \"transferFrom failed\");\n        delete nodes[msg.sender];\n        \n        return true;\n    }\n    \n    ///\n    /// Un-Stake a Core, tokens must no longer be timelocked\n    ///\n    /// @notice Allows a Core to un-stake from the Chainpoint Network given that stakeLockedUntil duration has elapsed\n    /// @return true if successful, otherwise false\n    /// @dev msg.sender is expected to be the Node Operator\n    /// @dev tokens that were previously timelocked will be transferred back to the Core Operator\n    /// @dev owner has ability to pause this operation\n    function unStakeCore() public whenNotPaused returns (bool) {\n        require(cores[msg.sender].isStaked, \"core has not staked into the Chainpoint network\");\n        require(now >= cores[msg.sender].stakeLockedUntil, \"tokens are timelocked\");\n        \n        require(token.transfer(msg.sender, cores[msg.sender].amountStaked), \"transferFrom failed\");\n        delete cores[msg.sender];\n        \n        return true;\n    }\n    \n    ///\n    /// Reward\n    ///\n    /// @notice Invoked by a Core on a set interval, will then invoke mint() method on ERC20 token contract\n    /// @return true if successful, otherwise false\n    /// @dev msg.sender is expected to be the Node Operator\n    /// @dev Only core Operators can call method\n    /// @dev owner has ability to pause this operation\n    function reward() public view whenNotPaused onlyCoreOperator returns (bool) {\n        // Construct list of staked and healthy Nodes\n        \n        return true;\n    }\n    \n    ///\n    /// Get tokens staked\n    ///\n    /// @param addr Address of Node Operator\n    /// @notice Returns the amount of tokens that a Node Operator has staked and the timestamp as to when the tokens are locked\n    /// @return true if successful, otherwise false\n    /// @dev msg.sender is expected to be the Node Operator\n    /// @dev owner has ability to pause this operation\n    function totalStakedFor(address addr) public view returns (uint256 amount, uint256 unlocks_at) {\n        require(nodes[addr].isStaked, \"node has not staked into the Chainpoint network\");\n        \n        return (nodes[addr].amountStaked, nodes[addr].stakeLockedUntil);\n    }\n    \n    ///\n    /// Get Count of staked Core Operators\n    ///\n    /// @notice Returns length of coresArr\n    /// @return uint256 of the length of coresArr\n    function getCoreCount() public view returns (uint256) {\n        return coresArr.length;\n    }\n    \n    ///\n    /// Is Core healthy?\n    ///\n    /// @notice Returns whether or not a Core is healthy\n    /// @return bool if successful, otherwise false\n    /// @dev msg.sender is expected to be the Node Operator\n    /// @dev owner has ability to pause this operation\n    function isHealthyCore(address _address) public view returns (bool) {\n        return cores[_address].isHealthy;\n    }\n    \n    ///\n    /// Get White-listed Core Operators\n    ///\n    /// @notice Will return true if _address is pushed to whitelistedCoresArr, else if the _address is already included in the list return false\n    /// @return bool if successful, otherwise false\n    /// @dev msg.sender is expected to be the Node Operator\n    /// @dev owner has ability to pause this operation\n    function whitelistCore(address _address) public onlyOwnerOrCoreOperator returns (bool) {\n        require(_address != address(0));\n        \n        whitelistedCoresArr.push(_address);\n        \n        return true;\n    }\n    \n    ///\n    /// Add node to registry \n    ///\n    /// @notice Adds a Node to the staking registry\n    /// @param _nodeIp is the IPV4 address of the Node\n    /// @param _nodePublicKey is the public key of the Node\n    /// @return Node\n    /// @dev msg.sender is expected to be the Node Operator\n    /// @dev tokens will be deducted from the Node Operator and added to the balance of the ChainpointRegistry Address\n    /// @dev owner has ability to pause this operation\n    function _addNodeToRegistry(uint32 _nodeIp, bytes32 _nodePublicKey) internal returns (bool) {\n        require(!nodes[msg.sender].isStaked, \"node has already staked. invoke renewStake() method to renew\");\n        require(_nodeIp != 0 && allocatedIps[_nodeIp] == false, \"node IP address is required\");\n        require(_nodePublicKey[0] != 0, \"node public key is required is required\");\n        \n        uint256 stakeLockedUntil = now + NODE_STAKING_DURATION;\n        \n        Node storage n = nodes[msg.sender];\n        \n        n.nodeIp = _nodeIp;\n        n.nodePublicKey = _nodePublicKey;\n        n.isStaked = true;\n        n.amountStaked = NODE_STAKING_AMOUNT;\n        n.stakeLockedUntil = stakeLockedUntil;\n\n        // Allocate IP Address to ensure uniqueness\n        allocatedIps[_nodeIp] = true;\n        \n        return true;\n    }\n    \n    ///\n    /// Add Core to Registry \n    ///\n    /// @notice Adds a Core to the staking registry\n    /// @param _coreIp is the IPV4 address of the Core\n    /// @param _corePublicKey is the public key of the Core Operator\n    /// @return Core\n    /// @dev msg.sender is expected to be the Core Operator\n    /// @dev tokens will be deducted from the Core Operator and added to the balance of the ChainpointRegistry Address\n    /// @dev owner has ability to pause this operation indirectly\n    function _addCoreToRegistry(uint32 _coreIp, bytes32 _corePublicKey) internal returns (bool) {\n        require(!cores[msg.sender].isStaked, \"core has already staked. invoke updateStake() method to update\");\n        require(_coreIp != 0 && allocatedIps[_coreIp] == false, \"node IP address is required\");\n        require(_corePublicKey[0] != 0, \"node public key is required is required\");\n        \n        uint256 stakeLockedUntil = now + CORE_STAKING_DURATION;\n        \n        Core storage c = cores[msg.sender];\n        \n        c.coreIp = _coreIp;\n        c.corePublicKey = _corePublicKey;\n        c.isStaked = true;\n        c.isHealthy = true;\n        c.amountStaked = CORE_STAKING_AMOUNT;\n        c.stakeLockedUntil = stakeLockedUntil;\n\n        // Allocate IP to ensure uniqueness\n        allocatedIps[_coreIp] = true;\n        \n        return true;\n    }\n}\n",
  "sourcePath": "/Users/michaeliglesias/zDevelopment/Tierion/Hydra/node-registration-research/v1/contracts/ChainpointRegistry.sol",
  "compiler": {
    "name": "solc",
    "version": "0.5.0+commit.1d4f565a.Emscripten.clang"
  },
  "schemaVersion": "3.0.1",
  "updatedAt": "2019-04-05T18:35:01.803Z",
  "devdoc": {
    "methods": {
      "constructor": {
        "params": {
          "_token": "is the Atonomi Token contract address (must be ERC20)"
        }
      },
      "getCoreCount()": {
        "return": "uint256 of the length of coresArr"
      },
      "isHealthyCore(address)": {
        "details": "msg.sender is expected to be the Node Operatorowner has ability to pause this operation",
        "return": "bool if successful, otherwise false"
      },
      "isOwner()": {
        "return": "true if `msg.sender` is the owner of the contract."
      },
      "owner()": {
        "return": "the address of the owner."
      },
      "pause()": {
        "details": "called by the owner to pause, triggers stopped state"
      },
      "paused()": {
        "return": "true if the contract is paused, false otherwise."
      },
      "renounceOwnership()": {
        "details": "Allows the current owner to relinquish control of the contract."
      },
      "reward()": {
        "details": "msg.sender is expected to be the Node OperatorOnly core Operators can call methodowner has ability to pause this operation",
        "return": "true if successful, otherwise false"
      },
      "stake(uint32,bytes32)": {
        "params": {
          "_nodeIp": "is the IPV4 address of the Node",
          "_nodePublicKey": "is the public key of the Node"
        },
        "return": "true if successful, otherwise false"
      },
      "stakeCore(uint32,bytes32)": {
        "params": {
          "_coreIp": "is the IPV4 address of the Node",
          "_corePublicKey": "is the public key of the Node"
        },
        "return": "true if successful, otherwise false"
      },
      "totalStakedFor(address)": {
        "details": "msg.sender is expected to be the Node Operatorowner has ability to pause this operation",
        "params": {
          "addr": "Address of Node Operator"
        },
        "return": "true if successful, otherwise false"
      },
      "transferOwnership(address)": {
        "details": "Allows the current owner to transfer control of the contract to a newOwner.",
        "params": {
          "newOwner": "The address to transfer ownership to."
        }
      },
      "unStake()": {
        "details": "msg.sender is expected to be the Node Operatortokens that were previously timelocked will be transferred back to the Node Operatorowner has ability to pause this operation",
        "return": "true if successful, otherwise false"
      },
      "unStakeCore()": {
        "details": "msg.sender is expected to be the Node Operatortokens that were previously timelocked will be transferred back to the Core Operatorowner has ability to pause this operation",
        "return": "true if successful, otherwise false"
      },
      "unpause()": {
        "details": "called by the owner to unpause, returns to normal state"
      },
      "updateStake(uint32)": {
        "details": "msg.sender is expected to be the Node Operatortokens will be deducted from the Node Operator and added to the balance of the ChainpointRegistry Addressowner has ability to pause this operation",
        "params": {
          "_nodeIp": "is the new IP address of the staked Chainpoint Node"
        },
        "return": "true if successful, otherwise false"
      },
      "updateStakeCore(uint32)": {
        "details": "msg.sender is expected to be the Node Operatortokens will be deducted from the Node Operator and added to the balance of the ChainpointRegistry Addressowner has ability to pause this operation",
        "params": {
          "_coreIp": "is the new IP address of the staked Core Operator"
        },
        "return": "true if successful, otherwise false"
      },
      "whitelistCore(address)": {
        "details": "msg.sender is expected to be the Node Operatorowner has ability to pause this operation",
        "return": "bool if successful, otherwise false"
      }
    }
  },
  "userdoc": {
    "methods": {
      "constructor": "Constructor sets the ERC Token contract and initial values for network fees",
      "getCoreCount()": {
        "notice": " Get Count of staked Core Operators Returns length of coresArr"
      },
      "isHealthyCore(address)": {
        "notice": " Is Core healthy? Returns whether or not a Core is healthy"
      },
      "renounceOwnership()": {
        "notice": "Renouncing to ownership will leave the contract without an owner. It will not be possible to call the functions with the `onlyOwner` modifier anymore."
      },
      "reward()": {
        "notice": " Reward Invoked by a Core on a set interval, will then invoke mint() method on ERC20 token contract"
      },
      "stake(uint32,bytes32)": {
        "notice": " Chainpoint Node staking Allows a Node to stake into the Chainpoint Network"
      },
      "stakeCore(uint32,bytes32)": {
        "notice": " Chainpoint Core staking overloaded function definitions Allows a Node to stake into the Chainpoint Network"
      },
      "totalStakedFor(address)": {
        "notice": " Get tokens staked Returns the amount of tokens that a Node Operator has staked and the timestamp as to when the tokens are locked"
      },
      "unStake()": {
        "notice": " Un-Stake a Node, tokens must no longer be timelocked Allows a Node un-stake from the Chainpoint Network given that stakeLockedUntil duration has elapsed"
      },
      "unStakeCore()": {
        "notice": " Un-Stake a Core, tokens must no longer be timelocked Allows a Core to un-stake from the Chainpoint Network given that stakeLockedUntil duration has elapsed"
      },
      "updateStake(uint32)": {
        "notice": " Update Node Information Allows a Node renew their stake into the Chainpoint Network"
      },
      "updateStakeCore(uint32)": {
        "notice": " Update Core Information Allows a Core to update their metadata"
      },
      "whitelistCore(address)": {
        "notice": " Get White-listed Core Operators Will return true if _address is pushed to whitelistedCoresArr, else if the _address is already included in the list return false"
      }
    }
  }
}