{
  "contractName": "ChainpointQuorum",
  "abi": [
    {
      "constant": true,
      "inputs": [],
      "name": "name",
      "outputs": [
        {
          "name": "",
          "type": "string"
        }
      ],
      "payable": false,
      "stateMutability": "view",
      "type": "function",
      "signature": "0x06fdde03"
    },
    {
      "constant": true,
      "inputs": [
        {
          "name": "",
          "type": "bytes32"
        }
      ],
      "name": "registeredBallots",
      "outputs": [
        {
          "name": "methodHash",
          "type": "bytes32"
        },
        {
          "name": "ballotType",
          "type": "uint8"
        },
        {
          "name": "threshold",
          "type": "uint256"
        },
        {
          "name": "votingWindow",
          "type": "uint256"
        },
        {
          "name": "startBlock",
          "type": "uint256"
        },
        {
          "name": "isActive",
          "type": "bool"
        }
      ],
      "payable": false,
      "stateMutability": "view",
      "type": "function",
      "signature": "0x1f1887b4"
    },
    {
      "constant": true,
      "inputs": [
        {
          "name": "",
          "type": "uint256"
        }
      ],
      "name": "registeredBallotsArr",
      "outputs": [
        {
          "name": "",
          "type": "bytes32"
        }
      ],
      "payable": false,
      "stateMutability": "view",
      "type": "function",
      "signature": "0x3024f536"
    },
    {
      "constant": false,
      "inputs": [],
      "name": "unpause",
      "outputs": [],
      "payable": false,
      "stateMutability": "nonpayable",
      "type": "function",
      "signature": "0x3f4ba83a"
    },
    {
      "constant": true,
      "inputs": [
        {
          "name": "account",
          "type": "address"
        }
      ],
      "name": "isPauser",
      "outputs": [
        {
          "name": "",
          "type": "bool"
        }
      ],
      "payable": false,
      "stateMutability": "view",
      "type": "function",
      "signature": "0x46fbf68e"
    },
    {
      "constant": true,
      "inputs": [],
      "name": "paused",
      "outputs": [
        {
          "name": "",
          "type": "bool"
        }
      ],
      "payable": false,
      "stateMutability": "view",
      "type": "function",
      "signature": "0x5c975abb"
    },
    {
      "constant": false,
      "inputs": [],
      "name": "renouncePauser",
      "outputs": [],
      "payable": false,
      "stateMutability": "nonpayable",
      "type": "function",
      "signature": "0x6ef8d66d"
    },
    {
      "constant": false,
      "inputs": [],
      "name": "renounceOwnership",
      "outputs": [],
      "payable": false,
      "stateMutability": "nonpayable",
      "type": "function",
      "signature": "0x715018a6"
    },
    {
      "constant": false,
      "inputs": [
        {
          "name": "account",
          "type": "address"
        }
      ],
      "name": "addPauser",
      "outputs": [],
      "payable": false,
      "stateMutability": "nonpayable",
      "type": "function",
      "signature": "0x82dc1ec4"
    },
    {
      "constant": false,
      "inputs": [],
      "name": "pause",
      "outputs": [],
      "payable": false,
      "stateMutability": "nonpayable",
      "type": "function",
      "signature": "0x8456cb59"
    },
    {
      "constant": true,
      "inputs": [],
      "name": "owner",
      "outputs": [
        {
          "name": "",
          "type": "address"
        }
      ],
      "payable": false,
      "stateMutability": "view",
      "type": "function",
      "signature": "0x8da5cb5b"
    },
    {
      "constant": true,
      "inputs": [],
      "name": "isOwner",
      "outputs": [
        {
          "name": "",
          "type": "bool"
        }
      ],
      "payable": false,
      "stateMutability": "view",
      "type": "function",
      "signature": "0x8f32d59b"
    },
    {
      "constant": false,
      "inputs": [
        {
          "name": "newOwner",
          "type": "address"
        }
      ],
      "name": "transferOwnership",
      "outputs": [],
      "payable": false,
      "stateMutability": "nonpayable",
      "type": "function",
      "signature": "0xf2fde38b"
    },
    {
      "inputs": [
        {
          "name": "_token",
          "type": "address"
        },
        {
          "name": "_registry",
          "type": "address"
        }
      ],
      "payable": false,
      "stateMutability": "nonpayable",
      "type": "constructor",
      "signature": "constructor"
    },
    {
      "anonymous": false,
      "inputs": [
        {
          "indexed": false,
          "name": "_voter",
          "type": "address"
        },
        {
          "indexed": false,
          "name": "_method",
          "type": "bytes32"
        },
        {
          "indexed": false,
          "name": "_hash",
          "type": "bytes32"
        },
        {
          "indexed": false,
          "name": "_blockHeight",
          "type": "uint256"
        },
        {
          "indexed": false,
          "name": "_votingRoundClosesAt",
          "type": "uint256"
        }
      ],
      "name": "Voted",
      "type": "event",
      "signature": "0x05987a2b626fa210628eb3170312f920ed716f57961b6865031faefe37ba86d7"
    },
    {
      "anonymous": false,
      "inputs": [
        {
          "indexed": false,
          "name": "_method",
          "type": "bytes32"
        },
        {
          "indexed": false,
          "name": "_hash",
          "type": "bytes32"
        },
        {
          "indexed": false,
          "name": "_hasConsensus",
          "type": "bool"
        },
        {
          "indexed": false,
          "name": "_votes",
          "type": "uint256"
        },
        {
          "indexed": false,
          "name": "_expired",
          "type": "bool"
        },
        {
          "indexed": false,
          "name": "_pruned",
          "type": "bool"
        }
      ],
      "name": "VotingRoundClosed",
      "type": "event",
      "signature": "0x47ecfadce57ceda0959a4b2fb2e87453afbaa6275de4132acbfd06adf52197a5"
    },
    {
      "anonymous": false,
      "inputs": [
        {
          "indexed": false,
          "name": "account",
          "type": "address"
        }
      ],
      "name": "Paused",
      "type": "event",
      "signature": "0x62e78cea01bee320cd4e420270b5ea74000d11b0c9f74754ebdbfc544b05a258"
    },
    {
      "anonymous": false,
      "inputs": [
        {
          "indexed": false,
          "name": "account",
          "type": "address"
        }
      ],
      "name": "Unpaused",
      "type": "event",
      "signature": "0x5db9ee0a495bf2e6ff9c91a7834c1ba4fdd244a5e8aa4e537bd38aeae4b073aa"
    },
    {
      "anonymous": false,
      "inputs": [
        {
          "indexed": true,
          "name": "account",
          "type": "address"
        }
      ],
      "name": "PauserAdded",
      "type": "event",
      "signature": "0x6719d08c1888103bea251a4ed56406bd0c3e69723c8a1686e017e7bbe159b6f8"
    },
    {
      "anonymous": false,
      "inputs": [
        {
          "indexed": true,
          "name": "account",
          "type": "address"
        }
      ],
      "name": "PauserRemoved",
      "type": "event",
      "signature": "0xcd265ebaf09df2871cc7bd4133404a235ba12eff2041bb89d9c714a2621c7c7e"
    },
    {
      "anonymous": false,
      "inputs": [
        {
          "indexed": true,
          "name": "previousOwner",
          "type": "address"
        },
        {
          "indexed": true,
          "name": "newOwner",
          "type": "address"
        }
      ],
      "name": "OwnershipTransferred",
      "type": "event",
      "signature": "0x8be0079c531659141344cd1fd0a4f28419497f9722a3daafe3b4186f6b6457e0"
    },
    {
      "constant": false,
      "inputs": [
        {
          "name": "_method",
          "type": "bytes32"
        },
        {
          "name": "_ballotType",
          "type": "string"
        },
        {
          "name": "_threshold",
          "type": "uint256"
        },
        {
          "name": "_votingWindow",
          "type": "uint256"
        }
      ],
      "name": "registerBallot",
      "outputs": [
        {
          "name": "",
          "type": "bool"
        }
      ],
      "payable": false,
      "stateMutability": "nonpayable",
      "type": "function",
      "signature": "0x14923d76"
    },
    {
      "constant": false,
      "inputs": [
        {
          "name": "_method",
          "type": "bytes32"
        },
        {
          "name": "_threshold",
          "type": "uint256"
        },
        {
          "name": "_votingWindow",
          "type": "uint256"
        }
      ],
      "name": "updateBallot",
      "outputs": [
        {
          "name": "",
          "type": "bool"
        }
      ],
      "payable": false,
      "stateMutability": "nonpayable",
      "type": "function",
      "signature": "0x27e3f0d6"
    },
    {
      "constant": false,
      "inputs": [
        {
          "name": "_method",
          "type": "bytes32"
        }
      ],
      "name": "deleteBallot",
      "outputs": [
        {
          "name": "",
          "type": "bool"
        }
      ],
      "payable": false,
      "stateMutability": "nonpayable",
      "type": "function",
      "signature": "0xcf48cfb7"
    },
    {
      "constant": false,
      "inputs": [
        {
          "name": "_voter",
          "type": "address"
        },
        {
          "name": "_method",
          "type": "bytes32"
        },
        {
          "name": "_hash",
          "type": "bytes32"
        }
      ],
      "name": "vote",
      "outputs": [
        {
          "name": "",
          "type": "bool"
        },
        {
          "name": "",
          "type": "bool"
        }
      ],
      "payable": false,
      "stateMutability": "nonpayable",
      "type": "function",
      "signature": "0xb83a82ac"
    },
    {
      "constant": false,
      "inputs": [],
      "name": "pruneBallots",
      "outputs": [
        {
          "name": "",
          "type": "bool"
        }
      ],
      "payable": false,
      "stateMutability": "nonpayable",
      "type": "function",
      "signature": "0x35fd7f99"
    }
  ],
  "bytecode": "0x60806040526040805190810160405280601181526020017f436861696e706f696e742051756f72756d000000000000000000000000000000815250600390805190602001906200005192919062000501565b503480156200005f57600080fd5b5060405160408062002729833981018060405260408110156200008157600080fd5b810190808051906020019092919080519060200190929190505050336000806101000a81548173ffffffffffffffffffffffffffffffffffffffff021916908373ffffffffffffffffffffffffffffffffffffffff1602179055506000809054906101000a900473ffffffffffffffffffffffffffffffffffffffff1673ffffffffffffffffffffffffffffffffffffffff16600073ffffffffffffffffffffffffffffffffffffffff167f8be0079c531659141344cd1fd0a4f28419497f9722a3daafe3b4186f6b6457e060405160405180910390a362000172336200033f640100000000026401000000009004565b6000600260006101000a81548160ff021916908315150217905550600073ffffffffffffffffffffffffffffffffffffffff168273ffffffffffffffffffffffffffffffffffffffff161415151562000233576040517f08c379a000000000000000000000000000000000000000000000000000000000815260040180806020018281038252601b8152602001807f746f6b656e20616464726573732063616e6e6f7420626520307830000000000081525060200191505060405180910390fd5b81600460006101000a81548173ffffffffffffffffffffffffffffffffffffffff021916908373ffffffffffffffffffffffffffffffffffffffff16021790555081600560006101000a81548173ffffffffffffffffffffffffffffffffffffffff021916908373ffffffffffffffffffffffffffffffffffffffff16021790555080600660006101000a81548173ffffffffffffffffffffffffffffffffffffffff021916908373ffffffffffffffffffffffffffffffffffffffff16021790555080600760006101000a81548173ffffffffffffffffffffffffffffffffffffffff021916908373ffffffffffffffffffffffffffffffffffffffff1602179055505050620005b0565b62000363816001620003a96401000000000262001fd5179091906401000000009004565b8073ffffffffffffffffffffffffffffffffffffffff167f6719d08c1888103bea251a4ed56406bd0c3e69723c8a1686e017e7bbe159b6f860405160405180910390a250565b600073ffffffffffffffffffffffffffffffffffffffff168173ffffffffffffffffffffffffffffffffffffffff1614151515620003e657600080fd5b6200040182826200046c640100000000026401000000009004565b1515156200040e57600080fd5b60018260000160008373ffffffffffffffffffffffffffffffffffffffff1673ffffffffffffffffffffffffffffffffffffffff16815260200190815260200160002060006101000a81548160ff0219169083151502179055505050565b60008073ffffffffffffffffffffffffffffffffffffffff168273ffffffffffffffffffffffffffffffffffffffff1614151515620004aa57600080fd5b8260000160008373ffffffffffffffffffffffffffffffffffffffff1673ffffffffffffffffffffffffffffffffffffffff16815260200190815260200160002060009054906101000a900460ff16905092915050565b828054600181600116156101000203166002900490600052602060002090601f016020900481019282601f106200054457805160ff191683800117855562000575565b8280016001018555821562000575579182015b828111156200057457825182559160200191906001019062000557565b5b50905062000584919062000588565b5090565b620005ad91905b80821115620005a95760008160009055506001016200058f565b5090565b90565b61216980620005c06000396000f3fe6080604052600436106100fc576000357c0100000000000000000000000000000000000000000000000000000000900463ffffffff16806306fdde031461010157806314923d76146101915780631f1887b41461028f57806327e3f0d6146103135780633024f5361461037a57806335fd7f99146103c95780633f4ba83a146103f857806346fbf68e1461040f5780635c975abb146104785780636ef8d66d146104a7578063715018a6146104be57806382dc1ec4146104d55780638456cb59146105265780638da5cb5b1461053d5780638f32d59b14610594578063b83a82ac146105c3578063cf48cfb71461064b578063f2fde38b1461069e575b600080fd5b34801561010d57600080fd5b506101166106ef565b6040518080602001828103825283818151815260200191508051906020019080838360005b8381101561015657808201518184015260208101905061013b565b50505050905090810190601f1680156101835780820380516001836020036101000a031916815260200191505b509250505060405180910390f35b34801561019d57600080fd5b50610275600480360360808110156101b457600080fd5b8101908080359060200190929190803590602001906401000000008111156101db57600080fd5b8201836020820111156101ed57600080fd5b8035906020019184600183028401116401000000008311171561020f57600080fd5b91908080601f016020809104026020016040519081016040528093929190818152602001838380828437600081840152601f19601f820116905080830192505050505050509192919290803590602001909291908035906020019092919050505061078d565b604051808215151515815260200191505060405180910390f35b34801561029b57600080fd5b506102c8600480360360208110156102b257600080fd5b8101908080359060200190929190505050610fa1565b604051808781526020018660018111156102de57fe5b60ff16815260200185815260200184815260200183815260200182151515158152602001965050505050505060405180910390f35b34801561031f57600080fd5b506103606004803603606081101561033657600080fd5b81019080803590602001909291908035906020019092919080359060200190929190505050610ff7565b604051808215151515815260200191505060405180910390f35b34801561038657600080fd5b506103b36004803603602081101561039d57600080fd5b81019080803590602001909291905050506112eb565b6040518082815260200191505060405180910390f35b3480156103d557600080fd5b506103de61130e565b604051808215151515815260200191505060405180910390f35b34801561040457600080fd5b5061040d611604565b005b34801561041b57600080fd5b5061045e6004803603602081101561043257600080fd5b81019080803573ffffffffffffffffffffffffffffffffffffffff1690602001909291905050506116b3565b604051808215151515815260200191505060405180910390f35b34801561048457600080fd5b5061048d6116d0565b604051808215151515815260200191505060405180910390f35b3480156104b357600080fd5b506104bc6116e7565b005b3480156104ca57600080fd5b506104d36116f2565b005b3480156104e157600080fd5b50610524600480360360208110156104f857600080fd5b81019080803573ffffffffffffffffffffffffffffffffffffffff1690602001909291905050506117c4565b005b34801561053257600080fd5b5061053b6117e4565b005b34801561054957600080fd5b50610552611894565b604051808273ffffffffffffffffffffffffffffffffffffffff1673ffffffffffffffffffffffffffffffffffffffff16815260200191505060405180910390f35b3480156105a057600080fd5b506105a96118bd565b604051808215151515815260200191505060405180910390f35b3480156105cf57600080fd5b50610626600480360360608110156105e657600080fd5b81019080803573ffffffffffffffffffffffffffffffffffffffff1690602001909291908035906020019092919080359060200190929190505050611914565b6040518083151515158152602001821515151581526020019250505060405180910390f35b34801561065757600080fd5b506106846004803603602081101561066e57600080fd5b8101908080359060200190929190505050611b28565b604051808215151515815260200191505060405180910390f35b3480156106aa57600080fd5b506106ed600480360360208110156106c157600080fd5b81019080803573ffffffffffffffffffffffffffffffffffffffff169060200190929190505050611c72565b005b60038054600181600116156101000203166002900480601f0160208091040260200160405190810160405280929190818152602001828054600181600116156101000203166002900480156107855780601f1061075a57610100808354040283529160200191610785565b820191906000526020600020905b81548152906001019060200180831161076857829003601f168201915b505050505081565b6000600560009054906101000a900473ffffffffffffffffffffffffffffffffffffffff1673ffffffffffffffffffffffffffffffffffffffff163373ffffffffffffffffffffffffffffffffffffffff1614806108385750600760009054906101000a900473ffffffffffffffffffffffffffffffffffffffff1673ffffffffffffffffffffffffffffffffffffffff163373ffffffffffffffffffffffffffffffffffffffff16145b15156108d2576040517f08c379a00000000000000000000000000000000000000000000000000000000081526004018080602001828103825260288152602001807f6d757374206265206f776e6572206f7220616e2061637469766520636f72652081526020017f6f70657261746f7200000000000000000000000000000000000000000000000081525060400191505060405180910390fd5b6008600086815260200190815260200160002060050160009054906101000a900460ff16151515610991576040517f08c379a00000000000000000000000000000000000000000000000000000000081526004018080602001828103825260268152602001807f6d6574686f642068617320612062616c6c6f742072656769737465726564206181526020017f6c7265616479000000000000000000000000000000000000000000000000000081525060400191505060405180910390fd5b60007f0100000000000000000000000000000000000000000000000000000000000000028560006020811015156109c457fe5b1a7f0100000000000000000000000000000000000000000000000000000000000000027effffffffffffffffffffffffffffffffffffffffffffffffffffffffffffff191614151515610aa5576040517f08c379a00000000000000000000000000000000000000000000000000000000081526004018080602001828103825260268152602001807f736d61727420636f6e7472616374206d6574686f64206e616d6520697320726581526020017f717569726564000000000000000000000000000000000000000000000000000081525060400191505060405180910390fd5b600082111515610b43576040517f08c379a00000000000000000000000000000000000000000000000000000000081526004018080602001828103825260248152602001807f766f74696e672077696e646f77206d757374206265206772656174657220746881526020017f616e20300000000000000000000000000000000000000000000000000000000081525060400191505060405180910390fd5b60006040516020018080602001828103825260088152602001807f6d616a6f7269747900000000000000000000000000000000000000000000000081525060200191505060405160208183030381529060405280519060200120856040516020018080602001828103825283818151815260200191508051906020019080838360005b83811015610be1578082015181840152602081019050610bc6565b50505050905090810190601f168015610c0e5780820380516001836020036101000a031916815260200191505b50925050506040516020818303038152906040528051906020012014905060006040516020018080602001828103825260098152602001807f7468726573686f6c64000000000000000000000000000000000000000000000081525060200191505060405160208183030381529060405280519060200120866040516020018080602001828103825283818151815260200191508051906020019080838360005b83811015610cca578082015181840152602081019050610caf565b50505050905090810190601f168015610cf75780820380516001836020036101000a031916815260200191505b5092505050604051602081830303815290604052805190602001201490508180610d1e5750805b1515610dde576040517f08c379a000000000000000000000000000000000000000000000000000000000815260040180806020018281038252604a8152602001807f6d6574686f642074797065206d757374206265206f6e65206f6620746865206681526020017f6f6c6c6f77696e672076616c7565733a203129206d616a6f726974792c20322981526020017f207468726573686f6c640000000000000000000000000000000000000000000081525060600191505060405180910390fd5b8015610ea957600085111515610ea8576040517f08c379a00000000000000000000000000000000000000000000000000000000081526004018080602001828103825260488152602001807f7768656e2042616c6c6f7420547970652069732073657420746f20746872657381526020017f686f6c642c20612076616c75652067726561746572207468616e20302069732081526020017f726571756972656400000000000000000000000000000000000000000000000081525060600191505060405180910390fd5b5b60006008600089815260200190815260200160002090508781600001819055508215610efa5760008160010160006101000a81548160ff02191690836001811115610ef057fe5b0217905550610f21565b60018160010160006101000a81548160ff02191690836001811115610f1b57fe5b02179055505b81610f2d576000610f2f565b855b816002018190555084816003018190555043816004018190555060018160050160006101000a81548160ff021916908315150217905550600a88908060018154018082558091505090600182039060005260206000200160009091929091909150555060019350505050949350505050565b60086020528060005260406000206000915090508060000154908060010160009054906101000a900460ff16908060020154908060030154908060040154908060050160009054906101000a900460ff16905086565b60006110016118bd565b151561100c57600080fd5b6008600085815260200190815260200160002060050160009054906101000a900460ff1615156110ca576040517f08c379a00000000000000000000000000000000000000000000000000000000081526004018080602001828103825260378152602001807f62616c6c6f7420686173206e6f74206265656e2072656769737465726564206681526020017f6f722074686520737065636966696564206d6574686f6400000000000000000081525060400191505060405180910390fd5b600082111515611168576040517f08c379a00000000000000000000000000000000000000000000000000000000081526004018080602001828103825260248152602001807f766f74696e672077696e646f77206d757374206265206772656174657220746881526020017f616e20300000000000000000000000000000000000000000000000000000000081525060400191505060405180910390fd5b60018081111561117457fe5b6008600086815260200190815260200160002060010160009054906101000a900460ff1660018111156111a357fe5b141561126e5760008311151561126d576040517f08c379a00000000000000000000000000000000000000000000000000000000081526004018080602001828103825260488152602001807f7768656e2042616c6c6f7420547970652069732073657420746f20746872657381526020017f686f6c642c20612076616c75652067726561746572207468616e20302069732081526020017f726571756972656400000000000000000000000000000000000000000000000081525060600191505060405180910390fd5b5b600060086000868152602001908152602001600020905060018081111561129157fe5b6008600087815260200190815260200160002060010160009054906101000a900460ff1660018111156112c057fe5b146112cc5760006112ce565b835b816002018190555082816003018190555060019150509392505050565b600a818154811015156112fa57fe5b906000526020600020016000915090505481565b6000611318611894565b73ffffffffffffffffffffffffffffffffffffffff163373ffffffffffffffffffffffffffffffffffffffff1614806114455750600660009054906101000a900473ffffffffffffffffffffffffffffffffffffffff1673ffffffffffffffffffffffffffffffffffffffff16639273cce8336040518263ffffffff167c0100000000000000000000000000000000000000000000000000000000028152600401808273ffffffffffffffffffffffffffffffffffffffff1673ffffffffffffffffffffffffffffffffffffffff168152602001915050602060405180830381600087803b15801561140957600080fd5b505af115801561141d573d6000803e3d6000fd5b505050506040513d602081101561143357600080fd5b81019080805190602001909291905050505b15156114df576040517f08c379a00000000000000000000000000000000000000000000000000000000081526004018080602001828103825260288152602001807f6d757374206265206f776e6572206f7220616e2061637469766520636f72652081526020017f6f70657261746f7200000000000000000000000000000000000000000000000081525060400191505060405180910390fd5b60008090505b600a805490508110156115fc57600060086000600a8481548110151561150757fe5b90600052602060002001548152602001908152602001600020905060008090505b81600601805490508110156115ed57600060096000600a8681548110151561154c57fe5b906000526020600020015481526020019081526020016000206000846006018481548110151561157857fe5b90600052602060002001548152602001908152602001600020905080600101544311156115df576115dd600a858154811015156115b157fe5b906000526020600020015484600601848154811015156115cd57fe5b9060005260206000200154611c91565b505b508080600101915050611528565b505080806001019150506114e5565b506001905090565b61160d336116b3565b151561161857600080fd5b600260009054906101000a900460ff16151561163357600080fd5b6000600260006101000a81548160ff0219169083151502179055507f5db9ee0a495bf2e6ff9c91a7834c1ba4fdd244a5e8aa4e537bd38aeae4b073aa33604051808273ffffffffffffffffffffffffffffffffffffffff1673ffffffffffffffffffffffffffffffffffffffff16815260200191505060405180910390a1565b60006116c9826001611ce490919063ffffffff16565b9050919050565b6000600260009054906101000a900460ff16905090565b6116f033611d78565b565b6116fa6118bd565b151561170557600080fd5b600073ffffffffffffffffffffffffffffffffffffffff166000809054906101000a900473ffffffffffffffffffffffffffffffffffffffff1673ffffffffffffffffffffffffffffffffffffffff167f8be0079c531659141344cd1fd0a4f28419497f9722a3daafe3b4186f6b6457e060405160405180910390a360008060006101000a81548173ffffffffffffffffffffffffffffffffffffffff021916908373ffffffffffffffffffffffffffffffffffffffff160217905550565b6117cd336116b3565b15156117d857600080fd5b6117e181611dd2565b50565b6117ed336116b3565b15156117f857600080fd5b600260009054906101000a900460ff1615151561181457600080fd5b6001600260006101000a81548160ff0219169083151502179055507f62e78cea01bee320cd4e420270b5ea74000d11b0c9f74754ebdbfc544b05a25833604051808273ffffffffffffffffffffffffffffffffffffffff1673ffffffffffffffffffffffffffffffffffffffff16815260200191505060405180910390a1565b60008060009054906101000a900473ffffffffffffffffffffffffffffffffffffffff16905090565b60008060009054906101000a900473ffffffffffffffffffffffffffffffffffffffff1673ffffffffffffffffffffffffffffffffffffffff163373ffffffffffffffffffffffffffffffffffffffff1614905090565b600080600560009054906101000a900473ffffffffffffffffffffffffffffffffffffffff1673ffffffffffffffffffffffffffffffffffffffff163373ffffffffffffffffffffffffffffffffffffffff1614806119c05750600760009054906101000a900473ffffffffffffffffffffffffffffffffffffffff1673ffffffffffffffffffffffffffffffffffffffff163373ffffffffffffffffffffffffffffffffffffffff16145b1515611a5a576040517f08c379a00000000000000000000000000000000000000000000000000000000081526004018080602001828103825260288152602001807f6d757374206265206f776e6572206f7220616e2061637469766520636f72652081526020017f6f70657261746f7200000000000000000000000000000000000000000000000081525060400191505060405180910390fd5b6008600085815260200190815260200160002060050160009054906101000a900460ff161515611b18576040517f08c379a00000000000000000000000000000000000000000000000000000000081526004018080602001828103825260378152602001807f62616c6c6f7420686173206e6f74206265656e2072656769737465726564206681526020017f6f722074686520737065636966696564206d6574686f6400000000000000000081525060400191505060405180910390fd5b6001600091509150935093915050565b6000611b326118bd565b1515611b3d57600080fd5b6008600083815260200190815260200160002060050160009054906101000a900460ff161515611bfb576040517f08c379a00000000000000000000000000000000000000000000000000000000081526004018080602001828103825260378152602001807f62616c6c6f7420686173206e6f74206265656e2072656769737465726564206681526020017f6f722074686520737065636966696564206d6574686f6400000000000000000081525060400191505060405180910390fd5b600860008381526020019081526020016000206000808201600090556001820160006101000a81549060ff02191690556002820160009055600382016000905560048201600090556005820160006101000a81549060ff0219169055600682016000611c679190612085565b505060019050919050565b611c7a6118bd565b1515611c8557600080fd5b611c8e81611e2c565b50565b60006009600084815260200190815260200160002060008381526020019081526020016000206000808201600090556001820160009055600382016000611cd891906120a6565b50506001905092915050565b60008073ffffffffffffffffffffffffffffffffffffffff168273ffffffffffffffffffffffffffffffffffffffff1614151515611d2157600080fd5b8260000160008373ffffffffffffffffffffffffffffffffffffffff1673ffffffffffffffffffffffffffffffffffffffff16815260200190815260200160002060009054906101000a900460ff16905092915050565b611d8c816001611f2690919063ffffffff16565b8073ffffffffffffffffffffffffffffffffffffffff167fcd265ebaf09df2871cc7bd4133404a235ba12eff2041bb89d9c714a2621c7c7e60405160405180910390a250565b611de6816001611fd590919063ffffffff16565b8073ffffffffffffffffffffffffffffffffffffffff167f6719d08c1888103bea251a4ed56406bd0c3e69723c8a1686e017e7bbe159b6f860405160405180910390a250565b600073ffffffffffffffffffffffffffffffffffffffff168173ffffffffffffffffffffffffffffffffffffffff1614151515611e6857600080fd5b8073ffffffffffffffffffffffffffffffffffffffff166000809054906101000a900473ffffffffffffffffffffffffffffffffffffffff1673ffffffffffffffffffffffffffffffffffffffff167f8be0079c531659141344cd1fd0a4f28419497f9722a3daafe3b4186f6b6457e060405160405180910390a3806000806101000a81548173ffffffffffffffffffffffffffffffffffffffff021916908373ffffffffffffffffffffffffffffffffffffffff16021790555050565b600073ffffffffffffffffffffffffffffffffffffffff168173ffffffffffffffffffffffffffffffffffffffff1614151515611f6257600080fd5b611f6c8282611ce4565b1515611f7757600080fd5b60008260000160008373ffffffffffffffffffffffffffffffffffffffff1673ffffffffffffffffffffffffffffffffffffffff16815260200190815260200160002060006101000a81548160ff0219169083151502179055505050565b600073ffffffffffffffffffffffffffffffffffffffff168173ffffffffffffffffffffffffffffffffffffffff161415151561201157600080fd5b61201b8282611ce4565b15151561202757600080fd5b60018260000160008373ffffffffffffffffffffffffffffffffffffffff1673ffffffffffffffffffffffffffffffffffffffff16815260200190815260200160002060006101000a81548160ff0219169083151502179055505050565b50805460008255906000526020600020908101906120a391906120ca565b50565b50805460008255600202906000526020600020908101906120c791906120ef565b50565b6120ec91905b808211156120e85760008160009055506001016120d0565b5090565b90565b61213a91905b8082111561213657600080820160006101000a81549073ffffffffffffffffffffffffffffffffffffffff02191690556001820160009055506002016120f5565b5090565b9056fea165627a7a7230582012bb1920813d976243247c034bfed398a443c48541c5867023b76fbcbc88eff00029",
  "source": "pragma solidity >=0.4.22 <0.6.0;\n\nimport \"openzeppelin-solidity/contracts/ownership/Ownable.sol\";\nimport \"openzeppelin-solidity/contracts/lifecycle/Pausable.sol\";\n\nimport \"./ChainpointRegistry.sol\";\nimport \"./lib/ChainpointRegistryInterface.sol\";\nimport \"./lib/SafeMath.sol\";\nimport \"./lib/ERC20.sol\";\n\ncontract ChainpointQuorum is Ownable, Pausable {\n    using SafeMath for uint256;\n  \n    /// @title TNT Token Contract\n    string public name = \"Chainpoint Quorum\";\n    \n    /// @title TNT Token Contract\n    /// @notice Standard ERC20 Token\n    ERC20 private token;\n    address tokenAddress;\n    \n    /// @title Chainpoint Registry\n    /// @notice Chainpoint Registry Contract\n    ChainpointRegistryInterface private chainpointRegistry;\n    address chainpointRegistryAddress;\n    \n    ///\n    /// MAPPINGS\n    ///\n    /// @title Registered Ballots\n    /// @notice Contains all registered ballots\n    /// @dev Key is hash representation of the contract address + method name\n    /// @dev Value is struct representing Ballot\n    mapping (bytes32 => Ballot) public registeredBallots;\n    \n    /// @title Methods Voting Rounds\n    /// @notice Contains all of the Voting Rounds that have been triggered as a result of invoking vote() with a method hash and a unique arguments hash\n    /// @dev Key is hash representation of the method name\n    /// @dev Value is struct representing VotingRound\n    mapping (bytes32 => mapping(bytes32 => VotingRound)) methodVotingRounds;\n    \n    ///\n    /// ARRAYS\n    ///\n    /// @title List of Registered Ballots\n    /// @notice Convenient list of registered ballots for iteration\n    bytes32[] public registeredBallotsArr;\n    \n    ///\n    /// TYPES \n    ///\n    /// @title BallotType\n    /// @notice BallotType is an enum that only supports two values: majority or threshold\n    enum BallotType {majority, threshold}\n    \n    /// @title Ballot\n    /// @notice Ballot struct which contains all relevant ballot parameters\n    /// @dev method name of the method that needs Quorum capability\n    /// @dev ballotType Enum (majority|threshold)\n    /// @dev votingWindow Number of blocks that the voting round is open for\n    /// @dev startBlock Block height in which voting window begins\n    struct Ballot {\n        bytes32 methodHash;\n        BallotType ballotType;\n        uint256 threshold;\n        uint256 votingWindow;\n        uint256 startBlock;\n        bool isActive;\n        bytes32[] votingRoundHashes;\n    }\n    \n    struct VotingRound {\n        uint256 startBlock;\n        uint256 endBlock;\n        mapping(address => bool) voters;\n        CapturedVote[] votes;\n    }\n    \n    /// @title Vote\n    /// @notice Ballot struct which contains all relevant ballot parameters\n    /// @dev voter Address of the party submitting a vote\n    /// @dev block Block height at which the vote was registered\n    struct CapturedVote {\n        address voter;\n        uint256 blockHeight;\n    }\n    \n    ///\n    /// MODIFIERS\n    ///\n    /// @notice only Staked Core Operators or Owner can call, otherwise throw\n    modifier onlyOwnerOrCoreOperator() {\n        require(msg.sender == owner() || chainpointRegistry.isHealthyCore(msg.sender), \"must be owner or an active core operator\");\n        _;\n    }\n    \n    /// @notice only Chainpoint Registory or Token contracts can call, otherwise throw\n    modifier onlyTokenOrRegistry() {\n        require(msg.sender == tokenAddress || msg.sender == chainpointRegistryAddress, \"must be owner or an active core operator\");\n        _;\n    }\n    \n    constructor (address _token, address _registry) public {\n        require(_token != address(0), \"token address cannot be 0x0\");\n        token = ERC20(_token);\n        tokenAddress = _token;\n        chainpointRegistry = ChainpointRegistryInterface(_registry);\n        chainpointRegistryAddress = _registry;\n    }\n    \n    ///\n    /// EVENTS \n    ///\n    /// @notice emitted when a Voting Round is closed\n    /// @param _voter address of the voter\n    /// @param _method Hash of the smart contract method\n    /// @param _hash Hash of the function arguments being voted on\n    /// @param _blockHeight did vote pass as a result of consensus being achieved\n    event Voted(\n        address _voter,\n        bytes32 _method,\n        bytes32 _hash,\n        uint256 _blockHeight,\n        uint256 _votingRoundClosesAt\n    );\n\n    ///\n    /// @notice emitted when a Voting Round is closed\n    /// @param _method Hash of the smart contract method\n    /// @param _hash Hash of the function arguments being voted on\n    /// @param _hasConsensus did vote pass as a result of consensus being achieved\n    /// @param _votes number of votes for particular method + hash combo\n    /// @param _expired did the Voting Round expire\n    /// @param _pruned did the Voting Round get pruned from storage\n    event VotingRoundClosed(\n        bytes32 _method,\n        bytes32 _hash,\n        bool _hasConsensus,\n        uint256 _votes,\n        bool _expired,\n        bool _pruned\n    );\n    \n    ///\n    /// Register Ballot for method\n    ///\n    /// @notice Creates a Ballot for a smart contract method\n    /// @param _method Name of the smart contract method\n    /// @param _ballotType Enum (majority|threshold)\n    /// @param _threshold Min. number of votes required for consesnsus\n    /// @param _votingWindow Duration of voting windows expressed in number of blocks\n    /// @return bool\n    /// @dev msg.sender is expected to be the Core Operator\n    /// @dev owner has ability to pause this operation indirectly\n    function registerBallot(bytes32 _method, string memory _ballotType, uint256 _threshold, uint256 _votingWindow) public onlyTokenOrRegistry returns (bool) {\n        require(!registeredBallots[_method].isActive, 'method has a ballot registered already');\n        require(_method[0] != 0, \"smart contract method name is required\");\n        require(_votingWindow > 0, \"voting window must be greater than 0\");\n        \n        bool majorityBallot = keccak256(abi.encode(_ballotType)) == keccak256(abi.encode(\"majority\"));\n        bool thresholdBallot = keccak256(abi.encode(_ballotType)) == keccak256(abi.encode(\"threshold\"));\n        \n        require(majorityBallot || thresholdBallot, \"method type must be one of the following values: 1) majority, 2) threshold\");\n        \n        if(thresholdBallot) {\n            require(_threshold > 0, \"when Ballot Type is set to threshold, a value greater than 0 is required\");\n        }\n        \n        Ballot storage b = registeredBallots[_method];\n        \n        b.methodHash = _method;\n        if (majorityBallot) {\n            b.ballotType = BallotType.majority;\n        } else {\n            b.ballotType = BallotType.threshold;\n        }\n        \n        b.threshold = (thresholdBallot) ? _threshold : 0;\n        b.votingWindow = _votingWindow;\n        b.startBlock = block.number;\n        b.isActive = true;\n        \n        registeredBallotsArr.push(_method);\n        \n        return true;\n    }\n  \n    ///\n    /// Update Ballot for specified method\n    ///\n    /// @notice Updates a Ballot for a smart contract method\n    /// @param _method Name of the smart contract method\n    /// @param _threshold Min. number of votes required for consesnsus\n    /// @param _votingWindow Duration of voting windows expressed in number of blocks\n    /// @return bool\n    /// @dev msg.sender is expected to be the Core Operator\n    /// @dev owner has ability to pause this operation indirectly\n    function updateBallot(bytes32 _method, uint256 _threshold, uint256 _votingWindow) public onlyOwner returns (bool) {\n        require(registeredBallots[_method].isActive, 'ballot has not been registered for the specified method');\n        require(_votingWindow > 0, \"voting window must be greater than 0\");\n        if (registeredBallots[_method].ballotType == BallotType.threshold) {\n            require(_threshold > 0, \"when Ballot Type is set to threshold, a value greater than 0 is required\");\n        }\n        \n        Ballot storage b = registeredBallots[_method];\n        \n        b.threshold = (registeredBallots[_method].ballotType == BallotType.threshold) ? _threshold : 0;\n        b.votingWindow = _votingWindow;\n        \n        return true;\n    }\n\n    ///\n    /// Delete Ballot for specified method\n    ///\n    /// @notice Deletes a Ballot for a smart contract method\n    /// @param _method Name of the smart contract method\n    /// @return bool\n    /// @dev msg.sender is expected to be the Core Operator\n    /// @dev owner has ability to pause this operation indirectly\n    function deleteBallot(bytes32 _method) public onlyOwner returns (bool) {\n        require(registeredBallots[_method].isActive, 'ballot has not been registered for the specified method');\n        \n        delete registeredBallots[_method];\n        \n        return true;\n    }\n    \n    ///\n    /// Register a Vote\n    ///\n    /// @notice Submits a vote to be included in a voting round for the smart contract method specified\n    /// @param _method Name of the smart contract method\n    /// @param _hash Hash of the arguments the Core operator voting wants to invoke the specified method with\n    /// @return bool\n    /// @dev msg.sender is expected to be the Core Operator\n    /// @dev owner has ability to pause this operation indirectly\n    function vote(address _voter, bytes32 _method, bytes32 _hash) public onlyTokenOrRegistry returns (bool, bool) {\n        require(registeredBallots[_method].isActive, 'ballot has not been registered for the specified method');\n        \n        // VotingRound storage vr = methodVotingRounds[_method][_hash];\n        \n        // Check Voting Round exists based on the value of _hash, if it doesn't create a VotingRound and register a vote\n        // if (vr.startBlock > 0) {\n        //     // Voting Round exists, check to see if round is still open; if so, register the vote\n        //     if (block.number <= vr.endBlock) {\n        //         // If Voter has already votes, do not register a new vote\n        //         if (vr.voters[_voter] == false) {\n        //             vr.votes.push(CapturedVote(_voter, block.number));\n        //         }\n                \n        //         emit Voted(_voter, _method, _hash, block.number, vr.endBlock);\n        //     }\n        // } else {\n        //     // Voting Round does NOT exist, create a Voting Round and register a vote\n        //     registeredBallots[_method].votingRoundHashes.push(_hash);\n        //     vr.startBlock = block.number;\n        //     vr.endBlock = block.number.add(registeredBallots[_method].votingWindow);\n        //     vr.endBlock = registeredBallots[_method].votingWindow + block.number;\n        //     vr.votes.push(CapturedVote(_voter, block.number));\n            \n        //     emit Voted(_voter, _method, _hash, block.number, vr.endBlock);\n        // }\n        // return _hasConsensus(_method, _hash);\n        return (true, false);\n    }\n    \n    ///\n    /// Prune Ballots\n    ///\n    /// @notice This method must be explicitly invoked to prune Voting Rounds that have expired (aka timeout) and no longer to be persisted within the contract\n    /// @return bool\n    /// @dev msg.sender is expected to be the Core Operator or Owner, and can be called at the discretion of any authorized party\n    /// @dev owner has ability to pause this operation indirectly\n    function pruneBallots() public onlyOwnerOrCoreOperator returns (bool) {\n        for (uint i=0; i < registeredBallotsArr.length; i++) {\n            Ballot storage b = registeredBallots[registeredBallotsArr[i]];\n            \n            for (uint j=0; j < b.votingRoundHashes.length; j++) {\n                VotingRound storage vr = methodVotingRounds[registeredBallotsArr[i]][b.votingRoundHashes[j]];\n                \n                // Check to see if current block height > VotingRound.endBlock, if so, go ahead and prune the Voting Rounds for the registered ballot\n                if (block.number > vr.endBlock) {\n                    _pruneBallot(registeredBallotsArr[i], b.votingRoundHashes[j]);\n                }\n            }\n        }\n        \n        return true;\n    }\n    \n    ///\n    /// Has Voting Round for particular method reached consensus?\n    ///\n    /// @notice This method will determine if a Voting Round has successfully resolved with a consensus amongst Core Operators\n    /// @return (bool consensus, bool votingRoundExpired)\n    /// @dev msg.sender is expected to be the Core Operator\n    /// @dev owner has ability to pause this operation indirectly\n    function _hasConsensus(bytes32 _method, bytes32 _hash) private returns (bool _consensus, bool _votingRoundExpired) {\n        VotingRound storage vr = methodVotingRounds[_method][_hash];\n        // Check based on BallotType\n        if (registeredBallots[_method].ballotType == BallotType.threshold) {\n            bool consensus = (vr.votes.length >= registeredBallots[_method].threshold);\n            bool votingRoundExpired = (block.number <= vr.endBlock);\n            bool votingRoundPruned;\n            uint256 votes = vr.votes.length;\n            \n            if (consensus || votingRoundExpired) {\n                votingRoundPruned = true;\n                require(_pruneBallot(_method, _hash), \"failed to prune voting round\"); \n            }\n            emit VotingRoundClosed(_method, _hash, consensus, votes, votingRoundExpired, votingRoundPruned);\n            \n            return (consensus, votingRoundExpired);\n        } else { // BallotType == majority\n            bool consensus;\n            bool votingRoundExpired = (block.number <= vr.endBlock);\n            bool votingRoundPruned;\n            uint256 votes = vr.votes.length;\n            uint256 numOfCores = chainpointRegistry.getCoreCount();\n             \n            // Calculate consensus for \"majority\" Electoral System\n            if (numOfCores == 1) {\n                consensus = (votes == 1);\n            } else if (numOfCores == 2) {\n                consensus = (votes == 2);\n            } else {\n                uint256 majority = numOfCores.div(2).add(1);\n                consensus = (votes >= majority);\n            }\n            \n            if (consensus || votingRoundExpired) {\n                votingRoundPruned = true;\n                require(_pruneBallot(_method, _hash), \"failed to prune voting round\"); \n            }\n            \n            emit VotingRoundClosed(_method, _hash, consensus, votes, votingRoundExpired, votingRoundPruned);\n            \n            return (consensus, votingRoundExpired);\n        } // ***END {else}\n    }\n    \n    ///\n    /// Prune Ballot\n    ///\n    /// @notice Will prune Voting Rounds for the provided method and hash vote\n    /// @param _method Name of the smart contract method\n    /// @param _hash Hash of the arguments the Core operator voting wants to invoke the specified method with\n    /// @return bool\n    /// @dev msg.sender is expected to be the Core Operator\n    /// @dev owner has ability to pause this operation indirectly\n    function _pruneBallot(bytes32 _method, bytes32 _hash) private returns (bool) {\n        delete methodVotingRounds[_method][_hash];\n        \n        return true;\n    }\n}",
  "sourcePath": "/Users/michaeliglesias/zDevelopment/Tierion/Hydra/node-registration-research/v1/contracts/ChainpointQuorum.sol",
  "compiler": {
    "name": "solc",
    "version": "0.5.0+commit.1d4f565a.Emscripten.clang"
  },
  "schemaVersion": "3.0.1",
  "updatedAt": "2019-02-25T20:12:24.333Z",
  "devdoc": {
    "methods": {
      "deleteBallot(bytes32)": {
        "details": "msg.sender is expected to be the Core Operatorowner has ability to pause this operation indirectly",
        "params": {
          "_method": "Name of the smart contract method"
        },
        "return": "bool"
      },
      "isOwner()": {
        "return": "true if `msg.sender` is the owner of the contract."
      },
      "owner()": {
        "return": "the address of the owner."
      },
      "pause()": {
        "details": "called by the owner to pause, triggers stopped state"
      },
      "paused()": {
        "return": "true if the contract is paused, false otherwise."
      },
      "pruneBallots()": {
        "details": "msg.sender is expected to be the Core Operator or Owner, and can be called at the discretion of any authorized partyowner has ability to pause this operation indirectly",
        "return": "bool"
      },
      "registerBallot(bytes32,string,uint256,uint256)": {
        "details": "msg.sender is expected to be the Core Operatorowner has ability to pause this operation indirectly",
        "params": {
          "_ballotType": "Enum (majority|threshold)",
          "_method": "Name of the smart contract method",
          "_threshold": "Min. number of votes required for consesnsus",
          "_votingWindow": "Duration of voting windows expressed in number of blocks"
        },
        "return": "bool"
      },
      "renounceOwnership()": {
        "details": "Allows the current owner to relinquish control of the contract."
      },
      "transferOwnership(address)": {
        "details": "Allows the current owner to transfer control of the contract to a newOwner.",
        "params": {
          "newOwner": "The address to transfer ownership to."
        }
      },
      "unpause()": {
        "details": "called by the owner to unpause, returns to normal state"
      },
      "updateBallot(bytes32,uint256,uint256)": {
        "details": "msg.sender is expected to be the Core Operatorowner has ability to pause this operation indirectly",
        "params": {
          "_method": "Name of the smart contract method",
          "_threshold": "Min. number of votes required for consesnsus",
          "_votingWindow": "Duration of voting windows expressed in number of blocks"
        },
        "return": "bool"
      },
      "vote(address,bytes32,bytes32)": {
        "details": "msg.sender is expected to be the Core Operatorowner has ability to pause this operation indirectly",
        "params": {
          "_hash": "Hash of the arguments the Core operator voting wants to invoke the specified method with",
          "_method": "Name of the smart contract method"
        },
        "return": "bool"
      }
    }
  },
  "userdoc": {
    "methods": {
      "deleteBallot(bytes32)": {
        "notice": " Delete Ballot for specified method Deletes a Ballot for a smart contract method"
      },
      "pruneBallots()": {
        "notice": " Prune Ballots This method must be explicitly invoked to prune Voting Rounds that have expired (aka timeout) and no longer to be persisted within the contract"
      },
      "registerBallot(bytes32,string,uint256,uint256)": {
        "notice": " Register Ballot for method Creates a Ballot for a smart contract method"
      },
      "renounceOwnership()": {
        "notice": "Renouncing to ownership will leave the contract without an owner. It will not be possible to call the functions with the `onlyOwner` modifier anymore."
      },
      "updateBallot(bytes32,uint256,uint256)": {
        "notice": " Update Ballot for specified method Updates a Ballot for a smart contract method"
      },
      "vote(address,bytes32,bytes32)": {
        "notice": " Register a Vote Submits a vote to be included in a voting round for the smart contract method specified"
      }
    }
  }
}