{
  "contractName": "ChainpointMigration",
  "abi": [
    {
      "constant": true,
      "inputs": [],
      "name": "name",
      "outputs": [
        {
          "name": "",
          "type": "string"
        }
      ],
      "payable": false,
      "stateMutability": "view",
      "type": "function",
      "signature": "0x06fdde03"
    },
    {
      "constant": false,
      "inputs": [],
      "name": "unpause",
      "outputs": [],
      "payable": false,
      "stateMutability": "nonpayable",
      "type": "function",
      "signature": "0x3f4ba83a"
    },
    {
      "constant": true,
      "inputs": [
        {
          "name": "account",
          "type": "address"
        }
      ],
      "name": "isPauser",
      "outputs": [
        {
          "name": "",
          "type": "bool"
        }
      ],
      "payable": false,
      "stateMutability": "view",
      "type": "function",
      "signature": "0x46fbf68e"
    },
    {
      "constant": true,
      "inputs": [
        {
          "name": "",
          "type": "address"
        }
      ],
      "name": "subscribers",
      "outputs": [
        {
          "name": "",
          "type": "bool"
        }
      ],
      "payable": false,
      "stateMutability": "view",
      "type": "function",
      "signature": "0x5745ae28"
    },
    {
      "constant": true,
      "inputs": [],
      "name": "paused",
      "outputs": [
        {
          "name": "",
          "type": "bool"
        }
      ],
      "payable": false,
      "stateMutability": "view",
      "type": "function",
      "signature": "0x5c975abb"
    },
    {
      "constant": false,
      "inputs": [],
      "name": "renouncePauser",
      "outputs": [],
      "payable": false,
      "stateMutability": "nonpayable",
      "type": "function",
      "signature": "0x6ef8d66d"
    },
    {
      "constant": false,
      "inputs": [],
      "name": "renounceOwnership",
      "outputs": [],
      "payable": false,
      "stateMutability": "nonpayable",
      "type": "function",
      "signature": "0x715018a6"
    },
    {
      "constant": false,
      "inputs": [
        {
          "name": "account",
          "type": "address"
        }
      ],
      "name": "addPauser",
      "outputs": [],
      "payable": false,
      "stateMutability": "nonpayable",
      "type": "function",
      "signature": "0x82dc1ec4"
    },
    {
      "constant": false,
      "inputs": [],
      "name": "pause",
      "outputs": [],
      "payable": false,
      "stateMutability": "nonpayable",
      "type": "function",
      "signature": "0x8456cb59"
    },
    {
      "constant": true,
      "inputs": [],
      "name": "owner",
      "outputs": [
        {
          "name": "",
          "type": "address"
        }
      ],
      "payable": false,
      "stateMutability": "view",
      "type": "function",
      "signature": "0x8da5cb5b"
    },
    {
      "constant": true,
      "inputs": [],
      "name": "isOwner",
      "outputs": [
        {
          "name": "",
          "type": "bool"
        }
      ],
      "payable": false,
      "stateMutability": "view",
      "type": "function",
      "signature": "0x8f32d59b"
    },
    {
      "constant": false,
      "inputs": [
        {
          "name": "newOwner",
          "type": "address"
        }
      ],
      "name": "transferOwnership",
      "outputs": [],
      "payable": false,
      "stateMutability": "nonpayable",
      "type": "function",
      "signature": "0xf2fde38b"
    },
    {
      "inputs": [
        {
          "name": "_oldToken",
          "type": "address"
        }
      ],
      "payable": false,
      "stateMutability": "nonpayable",
      "type": "constructor",
      "signature": "constructor"
    },
    {
      "anonymous": false,
      "inputs": [
        {
          "indexed": true,
          "name": "_sender",
          "type": "address"
        },
        {
          "indexed": false,
          "name": "_amount",
          "type": "uint256"
        }
      ],
      "name": "Exchange",
      "type": "event",
      "signature": "0x5988e4c12f4844b895de0739f562558435dca9602fd8b970720ee3cf8dff39be"
    },
    {
      "anonymous": false,
      "inputs": [
        {
          "indexed": false,
          "name": "account",
          "type": "address"
        }
      ],
      "name": "Paused",
      "type": "event",
      "signature": "0x62e78cea01bee320cd4e420270b5ea74000d11b0c9f74754ebdbfc544b05a258"
    },
    {
      "anonymous": false,
      "inputs": [
        {
          "indexed": false,
          "name": "account",
          "type": "address"
        }
      ],
      "name": "Unpaused",
      "type": "event",
      "signature": "0x5db9ee0a495bf2e6ff9c91a7834c1ba4fdd244a5e8aa4e537bd38aeae4b073aa"
    },
    {
      "anonymous": false,
      "inputs": [
        {
          "indexed": true,
          "name": "account",
          "type": "address"
        }
      ],
      "name": "PauserAdded",
      "type": "event",
      "signature": "0x6719d08c1888103bea251a4ed56406bd0c3e69723c8a1686e017e7bbe159b6f8"
    },
    {
      "anonymous": false,
      "inputs": [
        {
          "indexed": true,
          "name": "account",
          "type": "address"
        }
      ],
      "name": "PauserRemoved",
      "type": "event",
      "signature": "0xcd265ebaf09df2871cc7bd4133404a235ba12eff2041bb89d9c714a2621c7c7e"
    },
    {
      "anonymous": false,
      "inputs": [
        {
          "indexed": true,
          "name": "previousOwner",
          "type": "address"
        },
        {
          "indexed": true,
          "name": "newOwner",
          "type": "address"
        }
      ],
      "name": "OwnershipTransferred",
      "type": "event",
      "signature": "0x8be0079c531659141344cd1fd0a4f28419497f9722a3daafe3b4186f6b6457e0"
    },
    {
      "constant": false,
      "inputs": [
        {
          "name": "_amount",
          "type": "uint256"
        }
      ],
      "name": "exchange",
      "outputs": [
        {
          "name": "",
          "type": "bool"
        }
      ],
      "payable": false,
      "stateMutability": "nonpayable",
      "type": "function",
      "signature": "0x53556559"
    },
    {
      "constant": true,
      "inputs": [
        {
          "name": "_addr",
          "type": "address"
        }
      ],
      "name": "oldTokenBalance",
      "outputs": [
        {
          "name": "balance",
          "type": "uint256"
        }
      ],
      "payable": false,
      "stateMutability": "view",
      "type": "function",
      "signature": "0xa879af45"
    },
    {
      "constant": true,
      "inputs": [
        {
          "name": "_addr",
          "type": "address"
        }
      ],
      "name": "newTokenBalance",
      "outputs": [
        {
          "name": "balance",
          "type": "uint256"
        }
      ],
      "payable": false,
      "stateMutability": "view",
      "type": "function",
      "signature": "0xd08baf83"
    },
    {
      "constant": false,
      "inputs": [
        {
          "name": "_tokenAddr",
          "type": "address"
        }
      ],
      "name": "setToken",
      "outputs": [
        {
          "name": "",
          "type": "bool"
        }
      ],
      "payable": false,
      "stateMutability": "nonpayable",
      "type": "function",
      "signature": "0x144fa6d7"
    }
  ],
  "bytecode": "0x60806040526040805190810160405280601481526020017f436861696e706f696e74204d6967726174696f6e000000000000000000000000815250600390805190602001906200005192919062000433565b503480156200005f57600080fd5b50604051602080620018d4833981018060405260208110156200008157600080fd5b8101908080519060200190929190505050336000806101000a81548173ffffffffffffffffffffffffffffffffffffffff021916908373ffffffffffffffffffffffffffffffffffffffff1602179055506000809054906101000a900473ffffffffffffffffffffffffffffffffffffffff1673ffffffffffffffffffffffffffffffffffffffff16600073ffffffffffffffffffffffffffffffffffffffff167f8be0079c531659141344cd1fd0a4f28419497f9722a3daafe3b4186f6b6457e060405160405180910390a3620001683362000271640100000000026401000000009004565b6000600260006101000a81548160ff021916908315150217905550600073ffffffffffffffffffffffffffffffffffffffff168173ffffffffffffffffffffffffffffffffffffffff161415151562000229576040517f08c379a000000000000000000000000000000000000000000000000000000000815260040180806020018281038252601b8152602001807f746f6b656e20616464726573732063616e6e6f7420626520307830000000000081525060200191505060405180910390fd5b80600460006101000a81548173ffffffffffffffffffffffffffffffffffffffff021916908373ffffffffffffffffffffffffffffffffffffffff16021790555050620004e2565b62000295816001620002db6401000000000262001306179091906401000000009004565b8073ffffffffffffffffffffffffffffffffffffffff167f6719d08c1888103bea251a4ed56406bd0c3e69723c8a1686e017e7bbe159b6f860405160405180910390a250565b600073ffffffffffffffffffffffffffffffffffffffff168173ffffffffffffffffffffffffffffffffffffffff16141515156200031857600080fd5b6200033382826200039e640100000000026401000000009004565b1515156200034057600080fd5b60018260000160008373ffffffffffffffffffffffffffffffffffffffff1673ffffffffffffffffffffffffffffffffffffffff16815260200190815260200160002060006101000a81548160ff0219169083151502179055505050565b60008073ffffffffffffffffffffffffffffffffffffffff168273ffffffffffffffffffffffffffffffffffffffff1614151515620003dc57600080fd5b8260000160008373ffffffffffffffffffffffffffffffffffffffff1673ffffffffffffffffffffffffffffffffffffffff16815260200190815260200160002060009054906101000a900460ff16905092915050565b828054600181600116156101000203166002900490600052602060002090601f016020900481019282601f106200047657805160ff1916838001178555620004a7565b82800160010185558215620004a7579182015b82811115620004a657825182559160200191906001019062000489565b5b509050620004b69190620004ba565b5090565b620004df91905b80821115620004db576000816000905550600101620004c1565b5090565b90565b6113e280620004f26000396000f3fe6080604052600436106100e6576000357c0100000000000000000000000000000000000000000000000000000000900463ffffffff16806306fdde03146100eb578063144fa6d71461017b5780633f4ba83a146101e457806346fbf68e146101fb57806353556559146102645780635745ae28146102b75780635c975abb146103205780636ef8d66d1461034f578063715018a61461036657806382dc1ec41461037d5780638456cb59146103ce5780638da5cb5b146103e55780638f32d59b1461043c578063a879af451461046b578063d08baf83146104d0578063f2fde38b14610535575b600080fd5b3480156100f757600080fd5b50610100610586565b6040518080602001828103825283818151815260200191508051906020019080838360005b83811015610140578082015181840152602081019050610125565b50505050905090810190601f16801561016d5780820380516001836020036101000a031916815260200191505b509250505060405180910390f35b34801561018757600080fd5b506101ca6004803603602081101561019e57600080fd5b81019080803573ffffffffffffffffffffffffffffffffffffffff169060200190929190505050610624565b604051808215151515815260200191505060405180910390f35b3480156101f057600080fd5b506101f96106bf565b005b34801561020757600080fd5b5061024a6004803603602081101561021e57600080fd5b81019080803573ffffffffffffffffffffffffffffffffffffffff16906020019092919050505061076e565b604051808215151515815260200191505060405180910390f35b34801561027057600080fd5b5061029d6004803603602081101561028757600080fd5b810190808035906020019092919050505061078b565b604051808215151515815260200191505060405180910390f35b3480156102c357600080fd5b50610306600480360360208110156102da57600080fd5b81019080803573ffffffffffffffffffffffffffffffffffffffff169060200190929190505050610b94565b604051808215151515815260200191505060405180910390f35b34801561032c57600080fd5b50610335610bb4565b604051808215151515815260200191505060405180910390f35b34801561035b57600080fd5b50610364610bcb565b005b34801561037257600080fd5b5061037b610bd6565b005b34801561038957600080fd5b506103cc600480360360208110156103a057600080fd5b81019080803573ffffffffffffffffffffffffffffffffffffffff169060200190929190505050610ca8565b005b3480156103da57600080fd5b506103e3610cc8565b005b3480156103f157600080fd5b506103fa610d78565b604051808273ffffffffffffffffffffffffffffffffffffffff1673ffffffffffffffffffffffffffffffffffffffff16815260200191505060405180910390f35b34801561044857600080fd5b50610451610da1565b604051808215151515815260200191505060405180910390f35b34801561047757600080fd5b506104ba6004803603602081101561048e57600080fd5b81019080803573ffffffffffffffffffffffffffffffffffffffff169060200190929190505050610df8565b6040518082815260200191505060405180910390f35b3480156104dc57600080fd5b5061051f600480360360208110156104f357600080fd5b81019080803573ffffffffffffffffffffffffffffffffffffffff169060200190929190505050610ef7565b6040518082815260200191505060405180910390f35b34801561054157600080fd5b506105846004803603602081101561055857600080fd5b81019080803573ffffffffffffffffffffffffffffffffffffffff169060200190929190505050610ff6565b005b60038054600181600116156101000203166002900480601f01602080910402602001604051908101604052809291908181526020018280546001816001161561010002031660029004801561061c5780601f106105f15761010080835404028352916020019161061c565b820191906000526020600020905b8154815290600101906020018083116105ff57829003601f168201915b505050505081565b600061062e610da1565b151561063957600080fd5b600073ffffffffffffffffffffffffffffffffffffffff168273ffffffffffffffffffffffffffffffffffffffff161415151561067557600080fd5b81600560006101000a81548173ffffffffffffffffffffffffffffffffffffffff021916908373ffffffffffffffffffffffffffffffffffffffff16021790555060019050919050565b6106c83361076e565b15156106d357600080fd5b600260009054906101000a900460ff1615156106ee57600080fd5b6000600260006101000a81548160ff0219169083151502179055507f5db9ee0a495bf2e6ff9c91a7834c1ba4fdd244a5e8aa4e537bd38aeae4b073aa33604051808273ffffffffffffffffffffffffffffffffffffffff1673ffffffffffffffffffffffffffffffffffffffff16815260200191505060405180910390a1565b600061078482600161101590919063ffffffff16565b9050919050565b6000600260009054906101000a900460ff161515156107a957600080fd5b600082111515610821576040517f08c379a000000000000000000000000000000000000000000000000000000000815260040180806020018281038252601f8152602001807f416d6f756e742068617320746f2062652067726561746572207468616e20300081525060200191505060405180910390fd5b600460009054906101000a900473ffffffffffffffffffffffffffffffffffffffff1673ffffffffffffffffffffffffffffffffffffffff166323b872dd3330856040518463ffffffff167c0100000000000000000000000000000000000000000000000000000000028152600401808473ffffffffffffffffffffffffffffffffffffffff1673ffffffffffffffffffffffffffffffffffffffff1681526020018373ffffffffffffffffffffffffffffffffffffffff1673ffffffffffffffffffffffffffffffffffffffff1681526020018281526020019350505050602060405180830381600087803b15801561091a57600080fd5b505af115801561092e573d6000803e3d6000fd5b505050506040513d602081101561094457600080fd5b810190808051906020019092919050505015156109c9576040517f08c379a00000000000000000000000000000000000000000000000000000000081526004018080602001828103825260138152602001807f7472616e7366657246726f6d206661696c65640000000000000000000000000081525060200191505060405180910390fd5b600560009054906101000a900473ffffffffffffffffffffffffffffffffffffffff1673ffffffffffffffffffffffffffffffffffffffff1663dcfd2b9f33846040518363ffffffff167c0100000000000000000000000000000000000000000000000000000000028152600401808373ffffffffffffffffffffffffffffffffffffffff1673ffffffffffffffffffffffffffffffffffffffff16815260200182815260200192505050602060405180830381600087803b158015610a8e57600080fd5b505af1158015610aa2573d6000803e3d6000fd5b505050506040513d6020811015610ab857600080fd5b81019080805190602001909291905050501515610b3d576040517f08c379a00000000000000000000000000000000000000000000000000000000081526004018080602001828103825260168152602001807f6d696e74466f7245786368616e6765206661696c65640000000000000000000081525060200191505060405180910390fd5b3373ffffffffffffffffffffffffffffffffffffffff167f5988e4c12f4844b895de0739f562558435dca9602fd8b970720ee3cf8dff39be836040518082815260200191505060405180910390a260019050919050565b60066020528060005260406000206000915054906101000a900460ff1681565b6000600260009054906101000a900460ff16905090565b610bd4336110a9565b565b610bde610da1565b1515610be957600080fd5b600073ffffffffffffffffffffffffffffffffffffffff166000809054906101000a900473ffffffffffffffffffffffffffffffffffffffff1673ffffffffffffffffffffffffffffffffffffffff167f8be0079c531659141344cd1fd0a4f28419497f9722a3daafe3b4186f6b6457e060405160405180910390a360008060006101000a81548173ffffffffffffffffffffffffffffffffffffffff021916908373ffffffffffffffffffffffffffffffffffffffff160217905550565b610cb13361076e565b1515610cbc57600080fd5b610cc581611103565b50565b610cd13361076e565b1515610cdc57600080fd5b600260009054906101000a900460ff16151515610cf857600080fd5b6001600260006101000a81548160ff0219169083151502179055507f62e78cea01bee320cd4e420270b5ea74000d11b0c9f74754ebdbfc544b05a25833604051808273ffffffffffffffffffffffffffffffffffffffff1673ffffffffffffffffffffffffffffffffffffffff16815260200191505060405180910390a1565b60008060009054906101000a900473ffffffffffffffffffffffffffffffffffffffff16905090565b60008060009054906101000a900473ffffffffffffffffffffffffffffffffffffffff1673ffffffffffffffffffffffffffffffffffffffff163373ffffffffffffffffffffffffffffffffffffffff1614905090565b6000600460009054906101000a900473ffffffffffffffffffffffffffffffffffffffff1673ffffffffffffffffffffffffffffffffffffffff166370a08231836040518263ffffffff167c0100000000000000000000000000000000000000000000000000000000028152600401808273ffffffffffffffffffffffffffffffffffffffff1673ffffffffffffffffffffffffffffffffffffffff16815260200191505060206040518083038186803b158015610eb557600080fd5b505afa158015610ec9573d6000803e3d6000fd5b505050506040513d6020811015610edf57600080fd5b81019080805190602001909291905050509050919050565b6000600560009054906101000a900473ffffffffffffffffffffffffffffffffffffffff1673ffffffffffffffffffffffffffffffffffffffff166370a08231836040518263ffffffff167c0100000000000000000000000000000000000000000000000000000000028152600401808273ffffffffffffffffffffffffffffffffffffffff1673ffffffffffffffffffffffffffffffffffffffff16815260200191505060206040518083038186803b158015610fb457600080fd5b505afa158015610fc8573d6000803e3d6000fd5b505050506040513d6020811015610fde57600080fd5b81019080805190602001909291905050509050919050565b610ffe610da1565b151561100957600080fd5b6110128161115d565b50565b60008073ffffffffffffffffffffffffffffffffffffffff168273ffffffffffffffffffffffffffffffffffffffff161415151561105257600080fd5b8260000160008373ffffffffffffffffffffffffffffffffffffffff1673ffffffffffffffffffffffffffffffffffffffff16815260200190815260200160002060009054906101000a900460ff16905092915050565b6110bd81600161125790919063ffffffff16565b8073ffffffffffffffffffffffffffffffffffffffff167fcd265ebaf09df2871cc7bd4133404a235ba12eff2041bb89d9c714a2621c7c7e60405160405180910390a250565b61111781600161130690919063ffffffff16565b8073ffffffffffffffffffffffffffffffffffffffff167f6719d08c1888103bea251a4ed56406bd0c3e69723c8a1686e017e7bbe159b6f860405160405180910390a250565b600073ffffffffffffffffffffffffffffffffffffffff168173ffffffffffffffffffffffffffffffffffffffff161415151561119957600080fd5b8073ffffffffffffffffffffffffffffffffffffffff166000809054906101000a900473ffffffffffffffffffffffffffffffffffffffff1673ffffffffffffffffffffffffffffffffffffffff167f8be0079c531659141344cd1fd0a4f28419497f9722a3daafe3b4186f6b6457e060405160405180910390a3806000806101000a81548173ffffffffffffffffffffffffffffffffffffffff021916908373ffffffffffffffffffffffffffffffffffffffff16021790555050565b600073ffffffffffffffffffffffffffffffffffffffff168173ffffffffffffffffffffffffffffffffffffffff161415151561129357600080fd5b61129d8282611015565b15156112a857600080fd5b60008260000160008373ffffffffffffffffffffffffffffffffffffffff1673ffffffffffffffffffffffffffffffffffffffff16815260200190815260200160002060006101000a81548160ff0219169083151502179055505050565b600073ffffffffffffffffffffffffffffffffffffffff168173ffffffffffffffffffffffffffffffffffffffff161415151561134257600080fd5b61134c8282611015565b15151561135857600080fd5b60018260000160008373ffffffffffffffffffffffffffffffffffffffff1673ffffffffffffffffffffffffffffffffffffffff16815260200190815260200160002060006101000a81548160ff021916908315150217905550505056fea165627a7a7230582021b5896c64f2a845b687724fafbfce4487a254fa1d9aff27f6e8f88ba5abd6860029",
  "source": "pragma solidity >=0.4.22 <0.6.0;\n\nimport \"openzeppelin-solidity/contracts/ownership/Ownable.sol\";\nimport \"openzeppelin-solidity/contracts/lifecycle/Pausable.sol\";\n\nimport \"./lib/ERC20.sol\";\nimport \"./lib/ERC20Mint.sol\";\nimport \"./lib/SafeMath.sol\";\n\n/**\n * @title Chainpoint Migration\n * @dev Faucet contract for $TKN & the Chainpoint Network\n *\n */\ncontract ChainpointMigration is Ownable, Pausable {\n  using SafeMath for uint256;\n\n  /// @title Chainpoint Migration Contract\n  string public name = \"Chainpoint Migration\";\n  \n  /// @title OLD TNT Token Contract\n  /// @notice Standard ERC20 Token\n  ERC20 private oldToken;\n  /// @title NEW $TKN Token Contract\n  /// @notice Standard ERC20 Token\n  ERC20Mint private newToken;\n\n  ///\n  /// MAPPINGS\n  ///\n  /// @title Growing list of Subscribers\n  /// @notice Contains all of the past Subscribers that have been dispersed $TKNs to register with the Chainpoint Network\n  /// @dev Key is ethereum account for Subscriber\n  /// @dev Value is bool indicating that a Subscriber has already been dispersed $TKNs, and can only subscribe once\n  mapping (address => bool) public subscribers;\n\n  /// @notice Constructor sets the finite totalSupply of the Faucet which has been minted to the Faucet Contract when the $TKN Contract was deployed\n  constructor (address _oldToken) public {\n      require(_oldToken != address(0), \"token address cannot be 0x0\");\n        oldToken = ERC20(_oldToken);\n  }\n\n  ///\n  /// EVENTS \n  ///\n  /// @notice emitted on successful Token Migration\n  /// @param _sender Node Operator staking a node\n  /// @param _amount is the epoch timestamp up to when the Node is staked into the Chainpoint Network\n  event Exchange(\n    address indexed _sender,\n    uint256 _amount\n  );\n\n  /**\n   * @dev Invoked by future Chainpoint Node Operators which disperses min. registration amount into Chainpoint Network\n   * @dev Can only be invoked by contract owner\n   * @return Boolean indicating result of method execution\n   */\n  function exchange(uint256 _amount) public whenNotPaused returns(bool) {\n    require(_amount > 0, \"Amount has to be greater than 0\");\n\n    // Burn Old Tokens by sending to 0x00...0\n    require(oldToken.transferFrom(msg.sender, address(this), _amount), \"transferFrom failed\");\n    // Mint corresponding amount of new $TKNs\n    require(newToken.mintForExchange(msg.sender, _amount), \"mintForExchange failed\");\n\n    emit Exchange(\n      msg.sender,\n      _amount\n    );\n    \n    return true;\n  }\n\n  /**\n   * @dev Return balance for account in grains\n   * @param _addr Address for which to check the balance of\n   * @return uint256\n   */\n  function oldTokenBalance(address _addr) public view returns (uint256 balance) {\n    return oldToken.balanceOf(_addr);\n  }\n\n  /**\n   * @dev Return balance for account\n   * @param _addr Address for which to check the balance of\n   * @return uint256\n   */\n  function newTokenBalance(address _addr) public view returns (uint256 balance) {\n    return newToken.balanceOf(_addr);\n  }\n\n  /**\n   * @dev Sets the contract address for the $TKN Contract\n   * @param _tokenAddr The contract address of the $TKN Contract\n   * @dev Can only be invoked by contract owner\n   * @return Boolean indicating result of method execution\n   */\n  function setToken(address _tokenAddr) public onlyOwner returns(bool) {\n    require(_tokenAddr != address(0));\n    \n    newToken = ERC20Mint(_tokenAddr);\n    \n    return true;\n  }\n}",
  "sourcePath": "/Users/michaeliglesias/zDevelopment/Tierion/Hydra/node-registration-research/v1/contracts/ChainpointMigration.sol",
  "compiler": {
    "name": "solc",
    "version": "0.5.0+commit.1d4f565a.Emscripten.clang"
  },
  "schemaVersion": "3.0.1",
  "updatedAt": "2019-05-24T18:18:51.066Z",
  "devdoc": {
    "details": "Faucet contract for $TKN & the Chainpoint Network ",
    "methods": {
      "exchange(uint256)": {
        "details": "Invoked by future Chainpoint Node Operators which disperses min. registration amount into Chainpoint NetworkCan only be invoked by contract owner",
        "return": "Boolean indicating result of method execution"
      },
      "isOwner()": {
        "return": "true if `msg.sender` is the owner of the contract."
      },
      "newTokenBalance(address)": {
        "details": "Return balance for account",
        "params": {
          "_addr": "Address for which to check the balance of"
        },
        "return": "uint256"
      },
      "oldTokenBalance(address)": {
        "details": "Return balance for account in grains",
        "params": {
          "_addr": "Address for which to check the balance of"
        },
        "return": "uint256"
      },
      "owner()": {
        "return": "the address of the owner."
      },
      "pause()": {
        "details": "called by the owner to pause, triggers stopped state"
      },
      "paused()": {
        "return": "true if the contract is paused, false otherwise."
      },
      "renounceOwnership()": {
        "details": "Allows the current owner to relinquish control of the contract."
      },
      "setToken(address)": {
        "details": "Sets the contract address for the $TKN ContractCan only be invoked by contract owner",
        "params": {
          "_tokenAddr": "The contract address of the $TKN Contract"
        },
        "return": "Boolean indicating result of method execution"
      },
      "transferOwnership(address)": {
        "details": "Allows the current owner to transfer control of the contract to a newOwner.",
        "params": {
          "newOwner": "The address to transfer ownership to."
        }
      },
      "unpause()": {
        "details": "called by the owner to unpause, returns to normal state"
      }
    },
    "title": "Chainpoint Migration"
  },
  "userdoc": {
    "methods": {
      "constructor": "Constructor sets the finite totalSupply of the Faucet which has been minted to the Faucet Contract when the $TKN Contract was deployed",
      "renounceOwnership()": {
        "notice": "Renouncing to ownership will leave the contract without an owner. It will not be possible to call the functions with the `onlyOwner` modifier anymore."
      }
    }
  }
}