{
  "contractName": "ChainpointRegistry",
  "abi": [
    {
      "constant": true,
      "inputs": [],
      "name": "name",
      "outputs": [
        {
          "name": "",
          "type": "string"
        }
      ],
      "payable": false,
      "stateMutability": "view",
      "type": "function",
      "signature": "0x06fdde03"
    },
    {
      "constant": true,
      "inputs": [
        {
          "name": "",
          "type": "address"
        }
      ],
      "name": "nodes",
      "outputs": [
        {
          "name": "nodeIp",
          "type": "bytes32"
        },
        {
          "name": "nodePublicKey",
          "type": "bytes32"
        },
        {
          "name": "isStaked",
          "type": "bool"
        },
        {
          "name": "amountStaked",
          "type": "uint256"
        },
        {
          "name": "stakeLockedUntil",
          "type": "uint256"
        }
      ],
      "payable": false,
      "stateMutability": "view",
      "type": "function",
      "signature": "0x189a5a17"
    },
    {
      "constant": false,
      "inputs": [],
      "name": "unpause",
      "outputs": [],
      "payable": false,
      "stateMutability": "nonpayable",
      "type": "function",
      "signature": "0x3f4ba83a"
    },
    {
      "constant": true,
      "inputs": [
        {
          "name": "account",
          "type": "address"
        }
      ],
      "name": "isPauser",
      "outputs": [
        {
          "name": "",
          "type": "bool"
        }
      ],
      "payable": false,
      "stateMutability": "view",
      "type": "function",
      "signature": "0x46fbf68e"
    },
    {
      "constant": true,
      "inputs": [],
      "name": "paused",
      "outputs": [
        {
          "name": "",
          "type": "bool"
        }
      ],
      "payable": false,
      "stateMutability": "view",
      "type": "function",
      "signature": "0x5c975abb"
    },
    {
      "constant": false,
      "inputs": [],
      "name": "renouncePauser",
      "outputs": [],
      "payable": false,
      "stateMutability": "nonpayable",
      "type": "function",
      "signature": "0x6ef8d66d"
    },
    {
      "constant": false,
      "inputs": [],
      "name": "renounceOwnership",
      "outputs": [],
      "payable": false,
      "stateMutability": "nonpayable",
      "type": "function",
      "signature": "0x715018a6"
    },
    {
      "constant": false,
      "inputs": [
        {
          "name": "account",
          "type": "address"
        }
      ],
      "name": "addPauser",
      "outputs": [],
      "payable": false,
      "stateMutability": "nonpayable",
      "type": "function",
      "signature": "0x82dc1ec4"
    },
    {
      "constant": false,
      "inputs": [],
      "name": "pause",
      "outputs": [],
      "payable": false,
      "stateMutability": "nonpayable",
      "type": "function",
      "signature": "0x8456cb59"
    },
    {
      "constant": true,
      "inputs": [
        {
          "name": "",
          "type": "address"
        }
      ],
      "name": "cores",
      "outputs": [
        {
          "name": "coreIp",
          "type": "bytes32"
        },
        {
          "name": "corePublicKey",
          "type": "bytes32"
        },
        {
          "name": "isStaked",
          "type": "bool"
        },
        {
          "name": "isHealthy",
          "type": "bool"
        },
        {
          "name": "amountStaked",
          "type": "uint256"
        },
        {
          "name": "stakeLockedUntil",
          "type": "uint256"
        }
      ],
      "payable": false,
      "stateMutability": "view",
      "type": "function",
      "signature": "0x85ad32c4"
    },
    {
      "constant": true,
      "inputs": [],
      "name": "owner",
      "outputs": [
        {
          "name": "",
          "type": "address"
        }
      ],
      "payable": false,
      "stateMutability": "view",
      "type": "function",
      "signature": "0x8da5cb5b"
    },
    {
      "constant": true,
      "inputs": [],
      "name": "isOwner",
      "outputs": [
        {
          "name": "",
          "type": "bool"
        }
      ],
      "payable": false,
      "stateMutability": "view",
      "type": "function",
      "signature": "0x8f32d59b"
    },
    {
      "constant": true,
      "inputs": [],
      "name": "MIN_STAKING_DURATION",
      "outputs": [
        {
          "name": "",
          "type": "uint256"
        }
      ],
      "payable": false,
      "stateMutability": "view",
      "type": "function",
      "signature": "0xabc4cc40"
    },
    {
      "constant": true,
      "inputs": [],
      "name": "MIN_STAKING_AMOUNT",
      "outputs": [
        {
          "name": "",
          "type": "uint256"
        }
      ],
      "payable": false,
      "stateMutability": "view",
      "type": "function",
      "signature": "0xac601474"
    },
    {
      "constant": true,
      "inputs": [
        {
          "name": "",
          "type": "uint256"
        }
      ],
      "name": "coresArr",
      "outputs": [
        {
          "name": "",
          "type": "address"
        }
      ],
      "payable": false,
      "stateMutability": "view",
      "type": "function",
      "signature": "0xd2c27afc"
    },
    {
      "constant": false,
      "inputs": [
        {
          "name": "newOwner",
          "type": "address"
        }
      ],
      "name": "transferOwnership",
      "outputs": [],
      "payable": false,
      "stateMutability": "nonpayable",
      "type": "function",
      "signature": "0xf2fde38b"
    },
    {
      "constant": true,
      "inputs": [],
      "name": "token",
      "outputs": [
        {
          "name": "",
          "type": "address"
        }
      ],
      "payable": false,
      "stateMutability": "view",
      "type": "function",
      "signature": "0xfc0c546a"
    },
    {
      "inputs": [
        {
          "name": "_token",
          "type": "address"
        }
      ],
      "payable": false,
      "stateMutability": "nonpayable",
      "type": "constructor",
      "signature": "constructor"
    },
    {
      "anonymous": false,
      "inputs": [
        {
          "indexed": true,
          "name": "_sender",
          "type": "address"
        },
        {
          "indexed": false,
          "name": "_nodeIp",
          "type": "bytes32"
        },
        {
          "indexed": false,
          "name": "_nodePublicKey",
          "type": "bytes32"
        },
        {
          "indexed": false,
          "name": "_amountStaked",
          "type": "uint256"
        },
        {
          "indexed": false,
          "name": "_duration",
          "type": "uint256"
        }
      ],
      "name": "NodeStaked",
      "type": "event",
      "signature": "0x8d0c0090f54cd42b9919624c7171a1a68ca1824fdf6ed7c7f1d618e89bf96713"
    },
    {
      "anonymous": false,
      "inputs": [
        {
          "indexed": true,
          "name": "_sender",
          "type": "address"
        },
        {
          "indexed": false,
          "name": "_nodeIp",
          "type": "bytes32"
        },
        {
          "indexed": false,
          "name": "_publicKey",
          "type": "bytes32"
        },
        {
          "indexed": false,
          "name": "_amountStaked",
          "type": "uint256"
        },
        {
          "indexed": false,
          "name": "_duration",
          "type": "uint256"
        }
      ],
      "name": "NodeStakeUpdated",
      "type": "event",
      "signature": "0xdee80d82aa175e7361ba064c7d854fd7d94a6b845747744eadd6231d89db8778"
    },
    {
      "anonymous": false,
      "inputs": [
        {
          "indexed": true,
          "name": "_sender",
          "type": "address"
        },
        {
          "indexed": false,
          "name": "_coreIp",
          "type": "bytes32"
        },
        {
          "indexed": false,
          "name": "_corePublicKey",
          "type": "bytes32"
        },
        {
          "indexed": false,
          "name": "_isHealthy",
          "type": "bool"
        },
        {
          "indexed": false,
          "name": "_amountStaked",
          "type": "uint256"
        },
        {
          "indexed": false,
          "name": "_duration",
          "type": "uint256"
        }
      ],
      "name": "CoreStaked",
      "type": "event",
      "signature": "0xe9d817a2e042dbb5a1e846f677db950e6146e460e01eed27fe04631480ac782f"
    },
    {
      "anonymous": false,
      "inputs": [
        {
          "indexed": true,
          "name": "_sender",
          "type": "address"
        },
        {
          "indexed": false,
          "name": "_coreIp",
          "type": "bytes32"
        },
        {
          "indexed": false,
          "name": "_corePublicKey",
          "type": "bytes32"
        },
        {
          "indexed": false,
          "name": "_isHealthy",
          "type": "bool"
        },
        {
          "indexed": false,
          "name": "_amountStaked",
          "type": "uint256"
        },
        {
          "indexed": false,
          "name": "_duration",
          "type": "uint256"
        }
      ],
      "name": "CoreStakeUpdated",
      "type": "event",
      "signature": "0x4459ca768ace1f4b62fc2885f066e940d9ebd0ceaf21bb1cf430576bd72c5bad"
    },
    {
      "anonymous": false,
      "inputs": [
        {
          "indexed": false,
          "name": "account",
          "type": "address"
        }
      ],
      "name": "Paused",
      "type": "event",
      "signature": "0x62e78cea01bee320cd4e420270b5ea74000d11b0c9f74754ebdbfc544b05a258"
    },
    {
      "anonymous": false,
      "inputs": [
        {
          "indexed": false,
          "name": "account",
          "type": "address"
        }
      ],
      "name": "Unpaused",
      "type": "event",
      "signature": "0x5db9ee0a495bf2e6ff9c91a7834c1ba4fdd244a5e8aa4e537bd38aeae4b073aa"
    },
    {
      "anonymous": false,
      "inputs": [
        {
          "indexed": true,
          "name": "account",
          "type": "address"
        }
      ],
      "name": "PauserAdded",
      "type": "event",
      "signature": "0x6719d08c1888103bea251a4ed56406bd0c3e69723c8a1686e017e7bbe159b6f8"
    },
    {
      "anonymous": false,
      "inputs": [
        {
          "indexed": true,
          "name": "account",
          "type": "address"
        }
      ],
      "name": "PauserRemoved",
      "type": "event",
      "signature": "0xcd265ebaf09df2871cc7bd4133404a235ba12eff2041bb89d9c714a2621c7c7e"
    },
    {
      "anonymous": false,
      "inputs": [
        {
          "indexed": true,
          "name": "previousOwner",
          "type": "address"
        },
        {
          "indexed": true,
          "name": "newOwner",
          "type": "address"
        }
      ],
      "name": "OwnershipTransferred",
      "type": "event",
      "signature": "0x8be0079c531659141344cd1fd0a4f28419497f9722a3daafe3b4186f6b6457e0"
    },
    {
      "constant": false,
      "inputs": [
        {
          "name": "_nodeIp",
          "type": "bytes32"
        },
        {
          "name": "_nodePublicKey",
          "type": "bytes32"
        },
        {
          "name": "_amount",
          "type": "uint256"
        }
      ],
      "name": "stake",
      "outputs": [
        {
          "name": "",
          "type": "bool"
        }
      ],
      "payable": false,
      "stateMutability": "nonpayable",
      "type": "function",
      "signature": "0x8535db37"
    },
    {
      "constant": false,
      "inputs": [
        {
          "name": "_coreIp",
          "type": "bytes32"
        },
        {
          "name": "_corePublicKey",
          "type": "bytes32"
        },
        {
          "name": "_amount",
          "type": "uint256"
        }
      ],
      "name": "stakeCore",
      "outputs": [
        {
          "name": "",
          "type": "bool"
        }
      ],
      "payable": false,
      "stateMutability": "nonpayable",
      "type": "function",
      "signature": "0x1f7dcfa3"
    },
    {
      "constant": false,
      "inputs": [
        {
          "name": "_nodeIp",
          "type": "bytes32"
        },
        {
          "name": "_nodePublicKey",
          "type": "bytes32"
        }
      ],
      "name": "updateStake",
      "outputs": [
        {
          "name": "",
          "type": "bool"
        }
      ],
      "payable": false,
      "stateMutability": "nonpayable",
      "type": "function",
      "signature": "0x85b2fa42"
    },
    {
      "constant": false,
      "inputs": [
        {
          "name": "_coreIp",
          "type": "bytes32"
        },
        {
          "name": "_corePublicKey",
          "type": "bytes32"
        },
        {
          "name": "_isCore",
          "type": "bool"
        }
      ],
      "name": "updateStakeCore",
      "outputs": [
        {
          "name": "",
          "type": "bool"
        }
      ],
      "payable": false,
      "stateMutability": "nonpayable",
      "type": "function",
      "signature": "0xa4869fd5"
    },
    {
      "constant": false,
      "inputs": [],
      "name": "unStake",
      "outputs": [
        {
          "name": "",
          "type": "bool"
        }
      ],
      "payable": false,
      "stateMutability": "nonpayable",
      "type": "function",
      "signature": "0x73cf575a"
    },
    {
      "constant": false,
      "inputs": [],
      "name": "unStakeCore",
      "outputs": [
        {
          "name": "",
          "type": "bool"
        }
      ],
      "payable": false,
      "stateMutability": "nonpayable",
      "type": "function",
      "signature": "0xdc964893"
    },
    {
      "constant": true,
      "inputs": [
        {
          "name": "addr",
          "type": "address"
        }
      ],
      "name": "totalStakedFor",
      "outputs": [
        {
          "name": "amount",
          "type": "uint256"
        },
        {
          "name": "unlocks_at",
          "type": "uint256"
        }
      ],
      "payable": false,
      "stateMutability": "view",
      "type": "function",
      "signature": "0x4b341aed"
    }
  ],
  "bytecode": "0x60806040526040805190810160405280601381526020017f436861696e706f696e7420526567697374727900000000000000000000000000815250600390805190602001906200005192919062000647565b506113886005556102586006553480156200006b57600080fd5b5060405160208062003663833981018060405260208110156200008d57600080fd5b8101908080519060200190929190505050336000806101000a81548173ffffffffffffffffffffffffffffffffffffffff021916908373ffffffffffffffffffffffffffffffffffffffff1602179055506000809054906101000a900473ffffffffffffffffffffffffffffffffffffffff1673ffffffffffffffffffffffffffffffffffffffff16600073ffffffffffffffffffffffffffffffffffffffff167f8be0079c531659141344cd1fd0a4f28419497f9722a3daafe3b4186f6b6457e060405160405180910390a3620001743362000485640100000000026401000000009004565b6000600260006101000a81548160ff021916908315150217905550600073ffffffffffffffffffffffffffffffffffffffff168173ffffffffffffffffffffffffffffffffffffffff161415151562000235576040517f08c379a000000000000000000000000000000000000000000000000000000000815260040180806020018281038252601b8152602001807f746f6b656e20616464726573732063616e6e6f7420626520307830000000000081525060200191505060405180910390fd5b80600460006101000a81548173ffffffffffffffffffffffffffffffffffffffff021916908373ffffffffffffffffffffffffffffffffffffffff160217905550611388600960405180807f64656661756c744e6f64655374616b650000000000000000000000000000000081525060100190509081526020016040518091039020600080815260200190815260200160002081905550610258600960405180807f64656661756c744e6f64654475726174696f6e0000000000000000000000000081525060130190509081526020016040518091039020600080815260200190815260200160002081905550612710600960405180807f64656661756c74436f72655374616b650000000000000000000000000000000081525060100190509081526020016040518091039020600080815260200190815260200160002081905550610258600960405180807f64656661756c74436f72654475726174696f6e0000000000000000000000000081525060130190509081526020016040518091039020600080815260200190815260200160002081905550610258600960405180807f6e6f646573000000000000000000000000000000000000000000000000000000815250600501905090815260200160405180910390206000611388815260200190815260200160002081905550610258600960405180807f636f72657300000000000000000000000000000000000000000000000000000081525060050190509081526020016040518091039020600061271081526020019081526020016000208190555050620006f6565b620004a9816001620004ef6401000000000262002e81179091906401000000009004565b8073ffffffffffffffffffffffffffffffffffffffff167f6719d08c1888103bea251a4ed56406bd0c3e69723c8a1686e017e7bbe159b6f860405160405180910390a250565b600073ffffffffffffffffffffffffffffffffffffffff168173ffffffffffffffffffffffffffffffffffffffff16141515156200052c57600080fd5b620005478282620005b2640100000000026401000000009004565b1515156200055457600080fd5b60018260000160008373ffffffffffffffffffffffffffffffffffffffff1673ffffffffffffffffffffffffffffffffffffffff16815260200190815260200160002060006101000a81548160ff0219169083151502179055505050565b60008073ffffffffffffffffffffffffffffffffffffffff168273ffffffffffffffffffffffffffffffffffffffff1614151515620005f057600080fd5b8260000160008373ffffffffffffffffffffffffffffffffffffffff1673ffffffffffffffffffffffffffffffffffffffff16815260200190815260200160002060009054906101000a900460ff16905092915050565b828054600181600116156101000203166002900490600052602060002090601f016020900481019282601f106200068a57805160ff1916838001178555620006bb565b82800160010185558215620006bb579182015b82811115620006ba5782518255916020019190600101906200069d565b5b509050620006ca9190620006ce565b5090565b620006f391905b80821115620006ef576000816000905550600101620006d5565b5090565b90565b612f5d80620007066000396000f3fe60806040526004361061013e576000357c0100000000000000000000000000000000000000000000000000000000900463ffffffff16806306fdde0314610143578063189a5a17146101d35780631f7dcfa3146102585780633f4ba83a146102bf57806346fbf68e146102d65780634b341aed1461033f5780635c975abb146103ab5780636ef8d66d146103da578063715018a6146103f157806373cf575a1461040857806382dc1ec4146104375780638456cb59146104885780638535db371461049f57806385ad32c41461050657806385b2fa42146105965780638da5cb5b146105f35780638f32d59b1461064a578063a4869fd514610679578063abc4cc40146106e2578063ac6014741461070d578063d2c27afc14610738578063dc964893146107b3578063f2fde38b146107e2578063fc0c546a14610833575b600080fd5b34801561014f57600080fd5b5061015861088a565b6040518080602001828103825283818151815260200191508051906020019080838360005b8381101561019857808201518184015260208101905061017d565b50505050905090810190601f1680156101c55780820380516001836020036101000a031916815260200191505b509250505060405180910390f35b3480156101df57600080fd5b50610222600480360360208110156101f657600080fd5b81019080803573ffffffffffffffffffffffffffffffffffffffff169060200190929190505050610928565b60405180868152602001858152602001841515151581526020018381526020018281526020019550505050505060405180910390f35b34801561026457600080fd5b506102a56004803603606081101561027b57600080fd5b8101908080359060200190929190803590602001909291908035906020019092919050505061096b565b604051808215151515815260200191505060405180910390f35b3480156102cb57600080fd5b506102d4610ca3565b005b3480156102e257600080fd5b50610325600480360360208110156102f957600080fd5b81019080803573ffffffffffffffffffffffffffffffffffffffff169060200190929190505050610d52565b604051808215151515815260200191505060405180910390f35b34801561034b57600080fd5b5061038e6004803603602081101561036257600080fd5b81019080803573ffffffffffffffffffffffffffffffffffffffff169060200190929190505050610d6f565b604051808381526020018281526020019250505060405180910390f35b3480156103b757600080fd5b506103c0610eeb565b604051808215151515815260200191505060405180910390f35b3480156103e657600080fd5b506103ef610f02565b005b3480156103fd57600080fd5b50610406610f0d565b005b34801561041457600080fd5b5061041d610fdf565b604051808215151515815260200191505060405180910390f35b34801561044357600080fd5b506104866004803603602081101561045a57600080fd5b81019080803573ffffffffffffffffffffffffffffffffffffffff1690602001909291905050506113d4565b005b34801561049457600080fd5b5061049d6113f4565b005b3480156104ab57600080fd5b506104ec600480360360608110156104c257600080fd5b810190808035906020019092919080359060200190929190803590602001909291905050506114a4565b604051808215151515815260200191505060405180910390f35b34801561051257600080fd5b506105556004803603602081101561052957600080fd5b81019080803573ffffffffffffffffffffffffffffffffffffffff1690602001909291905050506117cf565b604051808781526020018681526020018515151515815260200184151515158152602001838152602001828152602001965050505050505060405180910390f35b3480156105a257600080fd5b506105d9600480360360408110156105b957600080fd5b810190808035906020019092919080359060200190929190505050611825565b604051808215151515815260200191505060405180910390f35b3480156105ff57600080fd5b50610608611b21565b604051808273ffffffffffffffffffffffffffffffffffffffff1673ffffffffffffffffffffffffffffffffffffffff16815260200191505060405180910390f35b34801561065657600080fd5b5061065f611b4a565b604051808215151515815260200191505060405180910390f35b34801561068557600080fd5b506106c86004803603606081101561069c57600080fd5b810190808035906020019092919080359060200190929190803515159060200190929190505050611ba1565b604051808215151515815260200191505060405180910390f35b3480156106ee57600080fd5b506106f7611f0a565b6040518082815260200191505060405180910390f35b34801561071957600080fd5b50610722611f10565b6040518082815260200191505060405180910390f35b34801561074457600080fd5b506107716004803603602081101561075b57600080fd5b8101908080359060200190929190505050611f16565b604051808273ffffffffffffffffffffffffffffffffffffffff1673ffffffffffffffffffffffffffffffffffffffff16815260200191505060405180910390f35b3480156107bf57600080fd5b506107c8611f54565b604051808215151515815260200191505060405180910390f35b3480156107ee57600080fd5b506108316004803603602081101561080557600080fd5b81019080803573ffffffffffffffffffffffffffffffffffffffff16906020019092919050505061235d565b005b34801561083f57600080fd5b5061084861237c565b604051808273ffffffffffffffffffffffffffffffffffffffff1673ffffffffffffffffffffffffffffffffffffffff16815260200191505060405180910390f35b60038054600181600116156101000203166002900480601f0160208091040260200160405190810160405280929190818152602001828054600181600116156101000203166002900480156109205780601f106108f557610100808354040283529160200191610920565b820191906000526020600020905b81548152906001019060200180831161090357829003601f168201915b505050505081565b60076020528060005260406000206000915090508060000154908060010154908060020160009054906101000a900460ff16908060030154908060040154905085565b6000600260009054906101000a900460ff1615151561098957600080fd5b6109948484846123a2565b1515610a2e576040517f08c379a000000000000000000000000000000000000000000000000000000000815260040180806020018281038252602e8152602001807f6e6f646520646964206e6f74207374616b6520696e746f20746865206368616981526020017f6e706f696e74206e6574776f726b00000000000000000000000000000000000081525060400191505060405180910390fd5b3373ffffffffffffffffffffffffffffffffffffffff167fe9d817a2e042dbb5a1e846f677db950e6146e460e01eed27fe04631480ac782f8585600186600960405180807f636f7265730000000000000000000000000000000000000000000000000000008152506005019050908152602001604051809103902060008981526020019081526020016000205460405180868152602001858152602001841515151581526020018381526020018281526020019550505050505060405180910390a2600460009054906101000a900473ffffffffffffffffffffffffffffffffffffffff1673ffffffffffffffffffffffffffffffffffffffff166323b872dd3330856040518463ffffffff167c0100000000000000000000000000000000000000000000000000000000028152600401808473ffffffffffffffffffffffffffffffffffffffff1673ffffffffffffffffffffffffffffffffffffffff1681526020018373ffffffffffffffffffffffffffffffffffffffff1673ffffffffffffffffffffffffffffffffffffffff1681526020018281526020019350505050602060405180830381600087803b158015610be957600080fd5b505af1158015610bfd573d6000803e3d6000fd5b505050506040513d6020811015610c1357600080fd5b81019080805190602001909291905050501515610c98576040517f08c379a00000000000000000000000000000000000000000000000000000000081526004018080602001828103825260138152602001807f7472616e7366657246726f6d206661696c65640000000000000000000000000081525060200191505060405180910390fd5b600190509392505050565b610cac33610d52565b1515610cb757600080fd5b600260009054906101000a900460ff161515610cd257600080fd5b6000600260006101000a81548160ff0219169083151502179055507f5db9ee0a495bf2e6ff9c91a7834c1ba4fdd244a5e8aa4e537bd38aeae4b073aa33604051808273ffffffffffffffffffffffffffffffffffffffff1673ffffffffffffffffffffffffffffffffffffffff16815260200191505060405180910390a1565b6000610d6882600161277890919063ffffffff16565b9050919050565b600080600760008473ffffffffffffffffffffffffffffffffffffffff1673ffffffffffffffffffffffffffffffffffffffff16815260200190815260200160002060020160009054906101000a900460ff161515610e5c576040517f08c379a000000000000000000000000000000000000000000000000000000000815260040180806020018281038252602f8152602001807f6e6f646520686173206e6f74207374616b656420696e746f207468652043686181526020017f696e706f696e74206e6574776f726b000000000000000000000000000000000081525060400191505060405180910390fd5b600760008473ffffffffffffffffffffffffffffffffffffffff1673ffffffffffffffffffffffffffffffffffffffff16815260200190815260200160002060030154600760008573ffffffffffffffffffffffffffffffffffffffff1673ffffffffffffffffffffffffffffffffffffffff1681526020019081526020016000206004015491509150915091565b6000600260009054906101000a900460ff16905090565b610f0b3361280c565b565b610f15611b4a565b1515610f2057600080fd5b600073ffffffffffffffffffffffffffffffffffffffff166000809054906101000a900473ffffffffffffffffffffffffffffffffffffffff1673ffffffffffffffffffffffffffffffffffffffff167f8be0079c531659141344cd1fd0a4f28419497f9722a3daafe3b4186f6b6457e060405160405180910390a360008060006101000a81548173ffffffffffffffffffffffffffffffffffffffff021916908373ffffffffffffffffffffffffffffffffffffffff160217905550565b6000600260009054906101000a900460ff16151515610ffd57600080fd5b600760003373ffffffffffffffffffffffffffffffffffffffff1673ffffffffffffffffffffffffffffffffffffffff16815260200190815260200160002060020160009054906101000a900460ff1615156110e7576040517f08c379a000000000000000000000000000000000000000000000000000000000815260040180806020018281038252602f8152602001807f6e6f646520686173206e6f74207374616b656420696e746f207468652043686181526020017f696e706f696e74206e6574776f726b000000000000000000000000000000000081525060400191505060405180910390fd5b600760003373ffffffffffffffffffffffffffffffffffffffff1673ffffffffffffffffffffffffffffffffffffffff1681526020019081526020016000206004015442101515156111a1576040517f08c379a00000000000000000000000000000000000000000000000000000000081526004018080602001828103825260158152602001807f746f6b656e73206172652074696d656c6f636b6564000000000000000000000081525060200191505060405180910390fd5b600460009054906101000a900473ffffffffffffffffffffffffffffffffffffffff1673ffffffffffffffffffffffffffffffffffffffff1663a9059cbb33600760003373ffffffffffffffffffffffffffffffffffffffff1673ffffffffffffffffffffffffffffffffffffffff168152602001908152602001600020600301546040518363ffffffff167c0100000000000000000000000000000000000000000000000000000000028152600401808373ffffffffffffffffffffffffffffffffffffffff1673ffffffffffffffffffffffffffffffffffffffff16815260200182815260200192505050602060405180830381600087803b1580156112a857600080fd5b505af11580156112bc573d6000803e3d6000fd5b505050506040513d60208110156112d257600080fd5b81019080805190602001909291905050501515611357576040517f08c379a00000000000000000000000000000000000000000000000000000000081526004018080602001828103825260138152602001807f7472616e7366657246726f6d206661696c65640000000000000000000000000081525060200191505060405180910390fd5b600760003373ffffffffffffffffffffffffffffffffffffffff1673ffffffffffffffffffffffffffffffffffffffff16815260200190815260200160002060008082016000905560018201600090556002820160006101000a81549060ff02191690556003820160009055600482016000905550506001905090565b6113dd33610d52565b15156113e857600080fd5b6113f181612866565b50565b6113fd33610d52565b151561140857600080fd5b600260009054906101000a900460ff1615151561142457600080fd5b6001600260006101000a81548160ff0219169083151502179055507f62e78cea01bee320cd4e420270b5ea74000d11b0c9f74754ebdbfc544b05a25833604051808273ffffffffffffffffffffffffffffffffffffffff1673ffffffffffffffffffffffffffffffffffffffff16815260200191505060405180910390a1565b6000600260009054906101000a900460ff161515156114c257600080fd5b6114cd8484846128c0565b1515611567576040517f08c379a000000000000000000000000000000000000000000000000000000000815260040180806020018281038252602e8152602001807f6e6f646520646964206e6f74207374616b6520696e746f20746865206368616981526020017f6e706f696e74206e6574776f726b00000000000000000000000000000000000081525060400191505060405180910390fd5b3373ffffffffffffffffffffffffffffffffffffffff167f8d0c0090f54cd42b9919624c7171a1a68ca1824fdf6ed7c7f1d618e89bf96713858585600960405180807f6e6f646573000000000000000000000000000000000000000000000000000000815250600501905090815260200160405180910390206000888152602001908152602001600020546040518085815260200184815260200183815260200182815260200194505050505060405180910390a2600460009054906101000a900473ffffffffffffffffffffffffffffffffffffffff1673ffffffffffffffffffffffffffffffffffffffff166323b872dd3330856040518463ffffffff167c0100000000000000000000000000000000000000000000000000000000028152600401808473ffffffffffffffffffffffffffffffffffffffff1673ffffffffffffffffffffffffffffffffffffffff1681526020018373ffffffffffffffffffffffffffffffffffffffff1673ffffffffffffffffffffffffffffffffffffffff1681526020018281526020019350505050602060405180830381600087803b15801561171557600080fd5b505af1158015611729573d6000803e3d6000fd5b505050506040513d602081101561173f57600080fd5b810190808051906020019092919050505015156117c4576040517f08c379a00000000000000000000000000000000000000000000000000000000081526004018080602001828103825260138152602001807f7472616e7366657246726f6d206661696c65640000000000000000000000000081525060200191505060405180910390fd5b600190509392505050565b60086020528060005260406000206000915090508060000154908060010154908060020160009054906101000a900460ff16908060020160019054906101000a900460ff16908060030154908060040154905086565b6000600260009054906101000a900460ff1615151561184357600080fd5b600760003373ffffffffffffffffffffffffffffffffffffffff1673ffffffffffffffffffffffffffffffffffffffff16815260200190815260200160002060020160009054906101000a900460ff16151561192d576040517f08c379a000000000000000000000000000000000000000000000000000000000815260040180806020018281038252602f8152602001807f6e6f646520686173206e6f74207374616b656420696e746f207468652043686181526020017f696e706f696e74206e6574776f726b000000000000000000000000000000000081525060400191505060405180910390fd5b600060010283141515156119a9576040517f08c379a000000000000000000000000000000000000000000000000000000000815260040180806020018281038252601b8152602001807f6e6f64652049502061646472657373206973207265717569726564000000000081525060200191505060405180910390fd5b60006001028214151515611a4b576040517f08c379a00000000000000000000000000000000000000000000000000000000081526004018080602001828103825260278152602001807f6e6f6465207075626c6963206b6579206973207265717569726564206973207281526020017f657175697265640000000000000000000000000000000000000000000000000081525060400191505060405180910390fd5b6000600760003373ffffffffffffffffffffffffffffffffffffffff1673ffffffffffffffffffffffffffffffffffffffff16815260200190815260200160002090508381600001819055508281600101819055503373ffffffffffffffffffffffffffffffffffffffff167fdee80d82aa175e7361ba064c7d854fd7d94a6b845747744eadd6231d89db877882600001548360010154846003015485600401546040518085815260200184815260200183815260200182815260200194505050505060405180910390a2600191505092915050565b60008060009054906101000a900473ffffffffffffffffffffffffffffffffffffffff16905090565b60008060009054906101000a900473ffffffffffffffffffffffffffffffffffffffff1673ffffffffffffffffffffffffffffffffffffffff163373ffffffffffffffffffffffffffffffffffffffff1614905090565b6000600260009054906101000a900460ff16151515611bbf57600080fd5b811515611c34576040517f08c379a000000000000000000000000000000000000000000000000000000000815260040180806020018281038252601f8152602001807f636f726520706172616d6574657220776173206e6f742070726f76696465640081525060200191505060405180910390fd5b600860003373ffffffffffffffffffffffffffffffffffffffff1673ffffffffffffffffffffffffffffffffffffffff16815260200190815260200160002060020160009054906101000a900460ff161515611d1e576040517f08c379a000000000000000000000000000000000000000000000000000000000815260040180806020018281038252602f8152602001807f636f726520686173206e6f74207374616b656420696e746f207468652043686181526020017f696e706f696e74206e6574776f726b000000000000000000000000000000000081525060400191505060405180910390fd5b60006001028414151515611d9a576040517f08c379a000000000000000000000000000000000000000000000000000000000815260040180806020018281038252601b8152602001807f636f72652049502061646472657373206973207265717569726564000000000081525060200191505060405180910390fd5b60006001028314151515611e16576040517f08c379a000000000000000000000000000000000000000000000000000000000815260040180806020018281038252601b8152602001807f636f7265207075626c6963206b6579206973207265717569726564000000000081525060200191505060405180910390fd5b6000600860003373ffffffffffffffffffffffffffffffffffffffff1673ffffffffffffffffffffffffffffffffffffffff16815260200190815260200160002090508481600001819055508381600101819055503373ffffffffffffffffffffffffffffffffffffffff167f4459ca768ace1f4b62fc2885f066e940d9ebd0ceaf21bb1cf430576bd72c5bad826000015483600101548460020160019054906101000a900460ff168560030154866004015460405180868152602001858152602001841515151581526020018381526020018281526020019550505050505060405180910390a260019150509392505050565b60065481565b60055481565b600a81815481101515611f2557fe5b906000526020600020016000915054906101000a900473ffffffffffffffffffffffffffffffffffffffff1681565b6000600260009054906101000a900460ff16151515611f7257600080fd5b600860003373ffffffffffffffffffffffffffffffffffffffff1673ffffffffffffffffffffffffffffffffffffffff16815260200190815260200160002060020160009054906101000a900460ff16151561205c576040517f08c379a000000000000000000000000000000000000000000000000000000000815260040180806020018281038252602f8152602001807f636f726520686173206e6f74207374616b656420696e746f207468652043686181526020017f696e706f696e74206e6574776f726b000000000000000000000000000000000081525060400191505060405180910390fd5b600860003373ffffffffffffffffffffffffffffffffffffffff1673ffffffffffffffffffffffffffffffffffffffff168152602001908152602001600020600401544210151515612116576040517f08c379a00000000000000000000000000000000000000000000000000000000081526004018080602001828103825260158152602001807f746f6b656e73206172652074696d656c6f636b6564000000000000000000000081525060200191505060405180910390fd5b600460009054906101000a900473ffffffffffffffffffffffffffffffffffffffff1673ffffffffffffffffffffffffffffffffffffffff1663a9059cbb33600860003373ffffffffffffffffffffffffffffffffffffffff1673ffffffffffffffffffffffffffffffffffffffff168152602001908152602001600020600301546040518363ffffffff167c0100000000000000000000000000000000000000000000000000000000028152600401808373ffffffffffffffffffffffffffffffffffffffff1673ffffffffffffffffffffffffffffffffffffffff16815260200182815260200192505050602060405180830381600087803b15801561221d57600080fd5b505af1158015612231573d6000803e3d6000fd5b505050506040513d602081101561224757600080fd5b810190808051906020019092919050505015156122cc576040517f08c379a00000000000000000000000000000000000000000000000000000000081526004018080602001828103825260138152602001807f7472616e7366657246726f6d206661696c65640000000000000000000000000081525060200191505060405180910390fd5b600860003373ffffffffffffffffffffffffffffffffffffffff1673ffffffffffffffffffffffffffffffffffffffff16815260200190815260200160002060008082016000905560018201600090556002820160006101000a81549060ff02191690556002820160016101000a81549060ff02191690556003820160009055600482016000905550506001905090565b612365611b4a565b151561237057600080fd5b61237981612cd8565b50565b600460009054906101000a900473ffffffffffffffffffffffffffffffffffffffff1681565b6000600860003373ffffffffffffffffffffffffffffffffffffffff1673ffffffffffffffffffffffffffffffffffffffff16815260200190815260200160002060020160009054906101000a900460ff1615151561248f576040517f08c379a000000000000000000000000000000000000000000000000000000000815260040180806020018281038252603e8152602001807f636f72652068617320616c7265616479207374616b65642e20696e766f6b652081526020017f7570646174655374616b652829206d6574686f6420746f20757064617465000081525060400191505060405180910390fd5b6000600102841415151561250b576040517f08c379a000000000000000000000000000000000000000000000000000000000815260040180806020018281038252601b8152602001807f6e6f64652049502061646472657373206973207265717569726564000000000081525060200191505060405180910390fd5b600060010283141515156125ad576040517f08c379a00000000000000000000000000000000000000000000000000000000081526004018080602001828103825260278152602001807f6e6f6465207075626c6963206b6579206973207265717569726564206973207281526020017f657175697265640000000000000000000000000000000000000000000000000081525060400191505060405180910390fd5b600960405180807f64656661756c74436f72655374616b6500000000000000000000000000000000815250601001905090815260200160405180910390206000808152602001908152602001600020548210151515612674576040517f08c379a000000000000000000000000000000000000000000000000000000000815260040180806020018281038252601e8152602001807f6d696e696d756d207374616b696e6720616d6f756e74206e6f74206d6574000081525060200191505060405180910390fd5b6000600960405180807f64656661756c74436f72654475726174696f6e0000000000000000000000000081525060130190509081526020016040518091039020600080815260200190815260200160002054420190506000600860003373ffffffffffffffffffffffffffffffffffffffff1673ffffffffffffffffffffffffffffffffffffffff168152602001908152602001600020905085816000018190555084816001018190555060018160020160006101000a81548160ff02191690831515021790555060018160020160016101000a81548160ff0219169083151502179055508381600301819055508181600401819055506001925050509392505050565b60008073ffffffffffffffffffffffffffffffffffffffff168273ffffffffffffffffffffffffffffffffffffffff16141515156127b557600080fd5b8260000160008373ffffffffffffffffffffffffffffffffffffffff1673ffffffffffffffffffffffffffffffffffffffff16815260200190815260200160002060009054906101000a900460ff16905092915050565b612820816001612dd290919063ffffffff16565b8073ffffffffffffffffffffffffffffffffffffffff167fcd265ebaf09df2871cc7bd4133404a235ba12eff2041bb89d9c714a2621c7c7e60405160405180910390a250565b61287a816001612e8190919063ffffffff16565b8073ffffffffffffffffffffffffffffffffffffffff167f6719d08c1888103bea251a4ed56406bd0c3e69723c8a1686e017e7bbe159b6f860405160405180910390a250565b6000600760003373ffffffffffffffffffffffffffffffffffffffff1673ffffffffffffffffffffffffffffffffffffffff16815260200190815260200160002060020160009054906101000a900460ff161515156129ad576040517f08c379a000000000000000000000000000000000000000000000000000000000815260040180806020018281038252603c8152602001807f6e6f64652068617320616c7265616479207374616b65642e20696e766f6b652081526020017f72656e65775374616b652829206d6574686f6420746f2072656e65770000000081525060400191505060405180910390fd5b60006001028414151515612a29576040517f08c379a000000000000000000000000000000000000000000000000000000000815260040180806020018281038252601b8152602001807f6e6f64652049502061646472657373206973207265717569726564000000000081525060200191505060405180910390fd5b60006001028314151515612acb576040517f08c379a00000000000000000000000000000000000000000000000000000000081526004018080602001828103825260278152602001807f6e6f6465207075626c6963206b6579206973207265717569726564206973207281526020017f657175697265640000000000000000000000000000000000000000000000000081525060400191505060405180910390fd5b600960405180807f64656661756c744e6f64655374616b6500000000000000000000000000000000815250601001905090815260200160405180910390206000808152602001908152602001600020548210151515612b92576040517f08c379a000000000000000000000000000000000000000000000000000000000815260040180806020018281038252601e8152602001807f6d696e696d756d207374616b696e6720616d6f756e74206e6f74206d6574000081525060200191505060405180910390fd5b6000600960405180807f6e6f6465730000000000000000000000000000000000000000000000000000008152506005019050908152602001604051809103902060008481526020019081526020016000205414151515612bf157600080fd5b6000600960405180807f6e6f64657300000000000000000000000000000000000000000000000000000081525060050190509081526020016040518091039020600084815260200190815260200160002054420190506000600760003373ffffffffffffffffffffffffffffffffffffffff1673ffffffffffffffffffffffffffffffffffffffff168152602001908152602001600020905085816000018190555084816001018190555060018160020160006101000a81548160ff0219169083151502179055508381600301819055508181600401819055506001925050509392505050565b600073ffffffffffffffffffffffffffffffffffffffff168173ffffffffffffffffffffffffffffffffffffffff1614151515612d1457600080fd5b8073ffffffffffffffffffffffffffffffffffffffff166000809054906101000a900473ffffffffffffffffffffffffffffffffffffffff1673ffffffffffffffffffffffffffffffffffffffff167f8be0079c531659141344cd1fd0a4f28419497f9722a3daafe3b4186f6b6457e060405160405180910390a3806000806101000a81548173ffffffffffffffffffffffffffffffffffffffff021916908373ffffffffffffffffffffffffffffffffffffffff16021790555050565b600073ffffffffffffffffffffffffffffffffffffffff168173ffffffffffffffffffffffffffffffffffffffff1614151515612e0e57600080fd5b612e188282612778565b1515612e2357600080fd5b60008260000160008373ffffffffffffffffffffffffffffffffffffffff1673ffffffffffffffffffffffffffffffffffffffff16815260200190815260200160002060006101000a81548160ff0219169083151502179055505050565b600073ffffffffffffffffffffffffffffffffffffffff168173ffffffffffffffffffffffffffffffffffffffff1614151515612ebd57600080fd5b612ec78282612778565b151515612ed357600080fd5b60018260000160008373ffffffffffffffffffffffffffffffffffffffff1673ffffffffffffffffffffffffffffffffffffffff16815260200190815260200160002060006101000a81548160ff021916908315150217905550505056fea165627a7a723058201946b4da4559ed400ad26a0dd092aa72b0c3d16b5f30e2a20b639c293c27d1e30029",
  "source": "pragma solidity >=0.4.22 <0.6.0;\n\nimport \"openzeppelin-solidity/contracts/ownership/Ownable.sol\";\nimport \"openzeppelin-solidity/contracts/lifecycle/Pausable.sol\";\n\nimport \"./lib/ERC20.sol\";\nimport \"./lib/SafeMath.sol\";\n\n\ncontract ChainpointRegistry is Ownable, Pausable {\n    using SafeMath for uint256;\n    \n    /// @title TNT Token Contract\n    string public name = \"Chainpoint Registry\";\n    \n    /// @title TNT Token Contract\n    /// @notice Standard ERC20 Token\n    ERC20 public token;\n    \n    uint256 public MIN_STAKING_AMOUNT = 5000;\n    uint256 public MIN_STAKING_DURATION = 600;\n    \n    ///\n    /// MAPPINGS\n    ///\n    /// @title Registered Chainpoint Nodes\n    /// @notice Contains all Chainpoint Nodes that have staked and are participating in the Chainpoint Network\n    /// @dev Key is ethereum account for Chainpoint Node owner\n    /// @dev Value is struct representing Node attributes\n    mapping (address => Node) public nodes;\n    \n    /// @title Registered Chainpoint Cores\n    /// @notice Contains all Chainpoint Core Operators that have staked and are running the Chainpoint Network\n    /// @dev Key is ethereum account for Chainpoint Node owner\n    /// @dev Value is struct representing Node attributes\n    mapping (address => Core) public cores;\n    \n    /// @title Staking Rates\n    /// @notice Contains Staking rates and their corresponding time extension measure in seconds\n    /// @dev Key number of TNT tokens\n    /// @dev Value staking duration\n    mapping (string => mapping(uint256 => uint256)) stakingRates;\n    \n    /// @title Registered Chainpoint Cores Array\n    /// @notice Convenient iterable data structure containing a list of Core Operators\n    /// @dev Value Address of the registered Core\n    address[] public coresArr;\n    \n    ///\n    /// TYPES \n    ///\n    /// @title Chainpoint Node\n    /// @notice Contains the Node state on the Chainpoint network\n    /// @dev nodeIp is the IPV4 address of the Node\n    /// @dev nodePublicKey is the public key of the Node\n    /// @dev amountStaked is the amount of TNT the node has staked\n    struct Node {\n      bytes32 nodeIp;\n      bytes32 nodePublicKey;\n      bool isStaked;\n      uint256 amountStaked;\n      uint256 stakeLockedUntil;\n    }\n    \n    /// @title Chainpoint Core Operator\n    /// @notice Contains the Core Operator state on the Chainpoint network\n    /// @dev coreIp is the IPV4 address of the Node\n    /// @dev corePublicKey is the public key of the Node\n    /// @dev staked Node is actively staked\n    /// @dev isHealthy Will always be true unless a Core is acting in bad faith and is therefore being punished by the rest of the Network\n    /// @dev amountStaked is the amount of TNT the node has staked\n    /// @dev stakeLockedUntil is the epoch timestamp up to when the Node is staked into the Chainpoint Network\n    struct Core {\n      bytes32 coreIp;\n      bytes32 corePublicKey;\n      bool isStaked;\n      bool isHealthy;\n      uint256 amountStaked;\n      uint256 stakeLockedUntil;\n    }\n    \n    ///\n    /// MODIFIERS\n    ///\n    /// @notice only Staked Core Operators or Owner can call, otherwise throw\n    modifier onlyOwnerOrCoreOperator() {\n        require(msg.sender == owner() || cores[msg.sender].isHealthy, \"must be owner or an active core operator\");\n        _;\n    }\n\n    /// @notice only Core Operators can call, otherwise throw\n    modifier onlyCoreOperator() {\n        require(cores[msg.sender].isHealthy, \"must be core operator\");\n        _;\n    }\n    \n    /// @notice Constructor sets the ERC Token contract and initial values for network fees\n    /// @param _token is the Atonomi Token contract address (must be ERC20)\n    constructor (address _token) public {\n        require(_token != address(0), \"token address cannot be 0x0\");\n        token = ERC20(_token);\n        \n        // TODO: Replace hardcoded stakingRates initialization with values provided by SettingsInterface\n        stakingRates[\"defaultNodeStake\"][0] = 5000;\n        stakingRates[\"defaultNodeDuration\"][0] = 600; // (seconds)\n        stakingRates[\"defaultCoreStake\"][0] = 10000;\n        stakingRates[\"defaultCoreDuration\"][0] = 600; // (seconds)\n        \n        stakingRates[\"nodes\"][5000] = 600; // (seconds)\n        stakingRates[\"cores\"][10000] = 600; // (seconds)\n    }\n    \n    ///\n    /// EVENTS \n    ///\n    /// @notice emitted on successful Node staking\n    /// @param _sender Node Operator staking a node\n    /// @param _amountStaked is the total amount of TNT the Node has staked\n    /// @param _duration is the epoch timestamp up to when the Node is staked into the Chainpoint Network\n    event NodeStaked(\n        address indexed _sender,\n        bytes32 _nodeIp,\n        bytes32 _nodePublicKey,\n        uint256 _amountStaked,\n        uint256 _duration\n    );\n    \n    /// @notice emitted on successful staking renewal\n    /// @param _sender Node Operator staking a node\n    /// @param _nodeIp is the Node's IP Address\n    /// @param _nodeIp is the Node's Public Key\n    /// @param _amountStaked is the amount the Node has staked\n    /// @param _duration is the epoch timestamp up to when the Node is staked into the Chainpoint Network\n    event NodeStakeUpdated(\n        address indexed _sender,\n        bytes32 _nodeIp,\n        bytes32 _publicKey,\n        uint256 _amountStaked,\n        uint256 _duration\n    );\n    \n    /// @notice emitted on successful Node staking\n    /// @param _sender Core Operator staking a node\n    /// @param _coreIp IP address of Core Node\n    /// @param _corePublicKey Core Operator public key\n    /// @param _isHealthy Is Core Operator currently Active\n    /// @param _amountStaked is the total amount of TNT the Node has staked\n    /// @param _duration is the epoch timestamp up to when the Node is staked into the Chainpoint Network\n    event CoreStaked(\n        address indexed _sender,\n        bytes32 _coreIp,\n        bytes32 _corePublicKey,\n        bool _isHealthy,\n        uint256 _amountStaked,\n        uint256 _duration\n    );\n    \n    /// @notice emitted on successful Node staking\n    /// @param _sender Core Operator staking a node\n    /// @param _coreIp IP address of Core Node\n    /// @param _corePublicKey Core Operator public key\n    /// @param _isHealthy Is Core Operator currently Active\n    /// @param _amountStaked is the total amount of TNT the Node has staked\n    /// @param _duration is the epoch timestamp up to when the Node is staked into the Chainpoint Network\n    event CoreStakeUpdated(\n        address indexed _sender,\n        bytes32 _coreIp,\n        bytes32 _corePublicKey,\n        bool _isHealthy,\n        uint256 _amountStaked,\n        uint256 _duration\n    );\n    \n    ///\n    /// Chainpoint Node staking\n    ///\n    /// @notice Allows a Node to stake into the Chainpoint Network\n    /// @param _nodeIp is the IPV4 address of the Node\n    /// @param _nodePublicKey is the public key of the Node\n    /// @param _amount is the amount of TNT the node has staked\n    /// @return true if successful, otherwise false\n    function stake(bytes32 _nodeIp, bytes32 _nodePublicKey, uint256 _amount) public whenNotPaused returns (bool) {\n        require(_addNodeToRegistry(_nodeIp, _nodePublicKey, _amount), \"node did not stake into the chainpoint network\");\n        \n        emit NodeStaked(\n            msg.sender,\n            _nodeIp,\n            _nodePublicKey,\n            _amount,\n            stakingRates[\"nodes\"][_amount]\n        );\n        \n        require(token.transferFrom(msg.sender, address(this), _amount), \"transferFrom failed\");\n\n        return true;\n    }\n    \n    ///\n    /// Chainpoint Core staking overloaded function definitions\n    ///\n    /// @notice Allows a Node to stake into the Chainpoint Network\n    /// @param _coreIp is the IPV4 address of the Node\n    /// @param _corePublicKey is the public key of the Node\n    /// @param _amount is the amount of TNT the node has staked\n    /// @return true if successful, otherwise false\n    function stakeCore(bytes32 _coreIp, bytes32 _corePublicKey, uint256 _amount) public whenNotPaused returns (bool) {\n        require(_addCoreToRegistry(_coreIp, _corePublicKey, _amount), \"node did not stake into the chainpoint network\");\n        \n        emit CoreStaked(\n            msg.sender,\n            _coreIp,\n            _corePublicKey,\n            true,\n            _amount,\n            stakingRates[\"cores\"][_amount]\n        );\n        \n        require(token.transferFrom(msg.sender, address(this), _amount), \"transferFrom failed\");\n\n        return true;\n    }\n    \n    ///\n    /// Update Node Information\n    ///\n    /// @notice Allows a Node renew their stake into the Chainpoint Network\n    /// @param _nodeIp is the new IP address of the staked Chainpoint Node\n    /// @param _nodePublicKey the new Public Key of the staked Chainpoint Node\n    /// @return true if successful, otherwise false\n    /// @dev msg.sender is expected to be the Node Operator\n    /// @dev tokens will be deducted from the Node Operator and added to the balance of the ChainpointRegistry Address\n    /// @dev owner has ability to pause this operation\n    function updateStake(bytes32 _nodeIp, bytes32 _nodePublicKey) public whenNotPaused returns (bool) {\n        require(nodes[msg.sender].isStaked, \"node has not staked into the Chainpoint network\");\n        require(_nodeIp != 0, \"node IP address is required\");\n        require(_nodePublicKey != 0, \"node public key is required is required\");\n        \n        Node storage n = nodes[msg.sender];\n        n.nodeIp = _nodeIp;\n        n.nodePublicKey = _nodePublicKey;\n        \n        emit NodeStakeUpdated(\n            msg.sender,\n            n.nodeIp,\n            n.nodePublicKey,\n            n.amountStaked,\n            n.stakeLockedUntil\n        );\n\n        return true;\n    }\n    \n    ///\n    /// Update Core Information\n    ///\n    /// @notice Allows a Core to update their metadata\n    /// @param _coreIp is the new IP address of the staked Core Operator\n    /// @param _corePublicKey the new Public Key of the staked Chainpoint Node\n    /// @param _isCore Core Operator\n    /// @return true if successful, otherwise false\n    /// @dev msg.sender is expected to be the Node Operator\n    /// @dev tokens will be deducted from the Node Operator and added to the balance of the ChainpointRegistry Address\n    /// @dev owner has ability to pause this operation\n    function updateStakeCore(bytes32 _coreIp, bytes32 _corePublicKey, bool _isCore) public whenNotPaused returns (bool) {\n        require(_isCore, \"core parameter was not provided\");\n        require(cores[msg.sender].isStaked, \"core has not staked into the Chainpoint network\");\n        require(_coreIp != 0, \"core IP address is required\");\n        require(_corePublicKey != 0, \"core public key is required\");\n        \n        Core storage c = cores[msg.sender];\n        c.coreIp = _coreIp;\n        c.corePublicKey = _corePublicKey;\n        \n        emit CoreStakeUpdated(\n            msg.sender,\n            c.coreIp,\n            c.corePublicKey,\n            c.isHealthy,\n            c.amountStaked,\n            c.stakeLockedUntil\n        );\n\n        return true;\n    }\n    \n    ///\n    /// Un-Stake a Node, tokens must no longer be timelocked\n    ///\n    /// @notice Allows a Node un-stake from the Chainpoint Network given that stakeLockedUntil duration has elapsed\n    /// @return true if successful, otherwise false\n    /// @dev msg.sender is expected to be the Node Operator\n    /// @dev tokens that were previously timelocked will be transferred back to the Node Operator\n    /// @dev owner has ability to pause this operation\n    function unStake() public whenNotPaused returns (bool) {\n        require(nodes[msg.sender].isStaked, \"node has not staked into the Chainpoint network\");\n        require(now >= nodes[msg.sender].stakeLockedUntil, \"tokens are timelocked\");\n        \n        require(token.transfer(msg.sender, nodes[msg.sender].amountStaked), \"transferFrom failed\");\n        delete nodes[msg.sender];\n        \n        return true;\n    }\n    \n    ///\n    /// Un-Stake a Core, tokens must no longer be timelocked\n    ///\n    /// @notice Allows a Core to un-stake from the Chainpoint Network given that stakeLockedUntil duration has elapsed\n    /// @return true if successful, otherwise false\n    /// @dev msg.sender is expected to be the Node Operator\n    /// @dev tokens that were previously timelocked will be transferred back to the Core Operator\n    /// @dev owner has ability to pause this operation\n    function unStakeCore() public whenNotPaused returns (bool) {\n        require(cores[msg.sender].isStaked, \"core has not staked into the Chainpoint network\");\n        require(now >= cores[msg.sender].stakeLockedUntil, \"tokens are timelocked\");\n        \n        require(token.transfer(msg.sender, cores[msg.sender].amountStaked), \"transferFrom failed\");\n        delete cores[msg.sender];\n        \n        return true;\n    }\n    \n    ///\n    /// Get tokens staked\n    ///\n    /// @param addr Address of Node Operator\n    /// @notice Returns the amount of tokens that a Node Operator has staked and the timestamp as to when the tokens are locked\n    /// @return true if successful, otherwise false\n    /// @dev msg.sender is expected to be the Node Operator\n    /// @dev owner has ability to pause this operation\n    function totalStakedFor(address addr) public view returns (uint256 amount, uint256 unlocks_at) {\n        require(nodes[addr].isStaked, \"node has not staked into the Chainpoint network\");\n        \n        return (nodes[addr].amountStaked, nodes[addr].stakeLockedUntil);\n    }\n    \n    ///\n    /// Add node to registry \n    ///\n    /// @notice Adds a Node to the staking registry\n    /// @param _nodeIp is the IPV4 address of the Node\n    /// @param _nodePublicKey is the public key of the Node\n    /// @param _amount is the amount of TNT the node has staked\n    /// @return Node\n    /// @dev msg.sender is expected to be the Node Operator\n    /// @dev tokens will be deducted from the Node Operator and added to the balance of the ChainpointRegistry Address\n    /// @dev owner has ability to pause this operation\n    function _addNodeToRegistry(bytes32 _nodeIp, bytes32 _nodePublicKey, uint256 _amount) internal returns (bool) {\n        require(!nodes[msg.sender].isStaked, \"node has already staked. invoke renewStake() method to renew\");\n        require(_nodeIp != 0, \"node IP address is required\");\n        require(_nodePublicKey != 0, \"node public key is required is required\");\n        require(_amount >= stakingRates[\"defaultNodeStake\"][0], \"minimum staking amount not met\");\n        require(stakingRates[\"nodes\"][_amount] != 0);\n        \n        uint256 stakeLockedUntil = now + stakingRates[\"nodes\"][_amount];\n        \n        Node storage n = nodes[msg.sender];\n        \n        n.nodeIp = _nodeIp;\n        n.nodePublicKey = _nodePublicKey;\n        n.isStaked = true;\n        n.amountStaked = _amount;\n        n.stakeLockedUntil = stakeLockedUntil;\n        \n        return true;\n    }\n    \n    ///\n    /// Add Core to Registry \n    ///\n    /// @notice Adds a Core to the staking registry\n    /// @param _coreIp is the IPV4 address of the Core\n    /// @param _corePublicKey is the public key of the Core Operator\n    /// @param _amount is the amount of TNT the Core has staked\n    /// @return Core\n    /// @dev msg.sender is expected to be the Core Operator\n    /// @dev tokens will be deducted from the Core Operator and added to the balance of the ChainpointRegistry Address\n    /// @dev owner has ability to pause this operation indirectly\n    function _addCoreToRegistry(bytes32 _coreIp, bytes32 _corePublicKey, uint256 _amount) internal returns (bool) {\n        require(!cores[msg.sender].isStaked, \"core has already staked. invoke updateStake() method to update\");\n        require(_coreIp != 0, \"node IP address is required\");\n        require(_corePublicKey != 0, \"node public key is required is required\");\n        require(_amount >= stakingRates[\"defaultCoreStake\"][0], \"minimum staking amount not met\");\n        \n        uint256 stakeLockedUntil = now + stakingRates[\"defaultCoreDuration\"][0];\n        \n        Core storage c = cores[msg.sender];\n        \n        c.coreIp = _coreIp;\n        c.corePublicKey = _corePublicKey;\n        c.isStaked = true;\n        c.isHealthy = true;\n        c.amountStaked = _amount;\n        c.stakeLockedUntil = stakeLockedUntil;\n        \n        return true;\n    }\n}\n",
  "sourcePath": "/Users/michaeliglesias/zDevelopment/Tierion/Hydra/node-registration-research/v1/contracts/ChainpointRegistry.sol",
  "compiler": {
    "name": "solc",
    "version": "0.5.0+commit.1d4f565a.Emscripten.clang"
  },
  "schemaVersion": "3.0.1",
  "updatedAt": "2019-02-08T15:07:49.477Z",
  "devdoc": {
    "methods": {
      "constructor": {
        "params": {
          "_token": "is the Atonomi Token contract address (must be ERC20)"
        }
      },
      "isOwner()": {
        "return": "true if `msg.sender` is the owner of the contract."
      },
      "owner()": {
        "return": "the address of the owner."
      },
      "pause()": {
        "details": "called by the owner to pause, triggers stopped state"
      },
      "paused()": {
        "return": "true if the contract is paused, false otherwise."
      },
      "renounceOwnership()": {
        "details": "Allows the current owner to relinquish control of the contract."
      },
      "stake(bytes32,bytes32,uint256)": {
        "params": {
          "_amount": "is the amount of TNT the node has staked",
          "_nodeIp": "is the IPV4 address of the Node",
          "_nodePublicKey": "is the public key of the Node"
        },
        "return": "true if successful, otherwise false"
      },
      "stakeCore(bytes32,bytes32,uint256)": {
        "params": {
          "_amount": "is the amount of TNT the node has staked",
          "_coreIp": "is the IPV4 address of the Node",
          "_corePublicKey": "is the public key of the Node"
        },
        "return": "true if successful, otherwise false"
      },
      "totalStakedFor(address)": {
        "details": "msg.sender is expected to be the Node Operatorowner has ability to pause this operation",
        "params": {
          "addr": "Address of Node Operator"
        },
        "return": "true if successful, otherwise false"
      },
      "transferOwnership(address)": {
        "details": "Allows the current owner to transfer control of the contract to a newOwner.",
        "params": {
          "newOwner": "The address to transfer ownership to."
        }
      },
      "unStake()": {
        "details": "msg.sender is expected to be the Node Operatortokens that were previously timelocked will be transferred back to the Node Operatorowner has ability to pause this operation",
        "return": "true if successful, otherwise false"
      },
      "unStakeCore()": {
        "details": "msg.sender is expected to be the Node Operatortokens that were previously timelocked will be transferred back to the Core Operatorowner has ability to pause this operation",
        "return": "true if successful, otherwise false"
      },
      "unpause()": {
        "details": "called by the owner to unpause, returns to normal state"
      },
      "updateStake(bytes32,bytes32)": {
        "details": "msg.sender is expected to be the Node Operatortokens will be deducted from the Node Operator and added to the balance of the ChainpointRegistry Addressowner has ability to pause this operation",
        "params": {
          "_nodeIp": "is the new IP address of the staked Chainpoint Node",
          "_nodePublicKey": "the new Public Key of the staked Chainpoint Node"
        },
        "return": "true if successful, otherwise false"
      },
      "updateStakeCore(bytes32,bytes32,bool)": {
        "details": "msg.sender is expected to be the Node Operatortokens will be deducted from the Node Operator and added to the balance of the ChainpointRegistry Addressowner has ability to pause this operation",
        "params": {
          "_coreIp": "is the new IP address of the staked Core Operator",
          "_corePublicKey": "the new Public Key of the staked Chainpoint Node",
          "_isCore": "Core Operator"
        },
        "return": "true if successful, otherwise false"
      }
    }
  },
  "userdoc": {
    "methods": {
      "constructor": "Constructor sets the ERC Token contract and initial values for network fees",
      "renounceOwnership()": {
        "notice": "Renouncing to ownership will leave the contract without an owner. It will not be possible to call the functions with the `onlyOwner` modifier anymore."
      },
      "stake(bytes32,bytes32,uint256)": {
        "notice": " Chainpoint Node staking Allows a Node to stake into the Chainpoint Network"
      },
      "stakeCore(bytes32,bytes32,uint256)": {
        "notice": " Chainpoint Core staking overloaded function definitions Allows a Node to stake into the Chainpoint Network"
      },
      "totalStakedFor(address)": {
        "notice": " Get tokens staked Returns the amount of tokens that a Node Operator has staked and the timestamp as to when the tokens are locked"
      },
      "unStake()": {
        "notice": " Un-Stake a Node, tokens must no longer be timelocked Allows a Node un-stake from the Chainpoint Network given that stakeLockedUntil duration has elapsed"
      },
      "unStakeCore()": {
        "notice": " Un-Stake a Core, tokens must no longer be timelocked Allows a Core to un-stake from the Chainpoint Network given that stakeLockedUntil duration has elapsed"
      },
      "updateStake(bytes32,bytes32)": {
        "notice": " Update Node Information Allows a Node renew their stake into the Chainpoint Network"
      },
      "updateStakeCore(bytes32,bytes32,bool)": {
        "notice": " Update Core Information Allows a Core to update their metadata"
      }
    }
  }
}