{
  "contractName": "ChainpointQuorum",
  "abi": [
    {
      "constant": true,
      "inputs": [],
      "name": "name",
      "outputs": [
        {
          "name": "",
          "type": "string"
        }
      ],
      "payable": false,
      "stateMutability": "view",
      "type": "function"
    },
    {
      "constant": false,
      "inputs": [],
      "name": "unpause",
      "outputs": [],
      "payable": false,
      "stateMutability": "nonpayable",
      "type": "function"
    },
    {
      "constant": true,
      "inputs": [
        {
          "name": "account",
          "type": "address"
        }
      ],
      "name": "isPauser",
      "outputs": [
        {
          "name": "",
          "type": "bool"
        }
      ],
      "payable": false,
      "stateMutability": "view",
      "type": "function"
    },
    {
      "constant": true,
      "inputs": [],
      "name": "paused",
      "outputs": [
        {
          "name": "",
          "type": "bool"
        }
      ],
      "payable": false,
      "stateMutability": "view",
      "type": "function"
    },
    {
      "constant": false,
      "inputs": [],
      "name": "renouncePauser",
      "outputs": [],
      "payable": false,
      "stateMutability": "nonpayable",
      "type": "function"
    },
    {
      "constant": false,
      "inputs": [],
      "name": "renounceOwnership",
      "outputs": [],
      "payable": false,
      "stateMutability": "nonpayable",
      "type": "function"
    },
    {
      "constant": false,
      "inputs": [
        {
          "name": "account",
          "type": "address"
        }
      ],
      "name": "addPauser",
      "outputs": [],
      "payable": false,
      "stateMutability": "nonpayable",
      "type": "function"
    },
    {
      "constant": false,
      "inputs": [],
      "name": "pause",
      "outputs": [],
      "payable": false,
      "stateMutability": "nonpayable",
      "type": "function"
    },
    {
      "constant": true,
      "inputs": [],
      "name": "owner",
      "outputs": [
        {
          "name": "",
          "type": "address"
        }
      ],
      "payable": false,
      "stateMutability": "view",
      "type": "function"
    },
    {
      "constant": true,
      "inputs": [],
      "name": "isOwner",
      "outputs": [
        {
          "name": "",
          "type": "bool"
        }
      ],
      "payable": false,
      "stateMutability": "view",
      "type": "function"
    },
    {
      "constant": false,
      "inputs": [
        {
          "name": "newOwner",
          "type": "address"
        }
      ],
      "name": "transferOwnership",
      "outputs": [],
      "payable": false,
      "stateMutability": "nonpayable",
      "type": "function"
    },
    {
      "inputs": [
        {
          "name": "_token",
          "type": "address"
        },
        {
          "name": "_registry",
          "type": "address"
        }
      ],
      "payable": false,
      "stateMutability": "nonpayable",
      "type": "constructor"
    },
    {
      "anonymous": false,
      "inputs": [
        {
          "indexed": false,
          "name": "_voter",
          "type": "address"
        },
        {
          "indexed": false,
          "name": "_method",
          "type": "bytes32"
        },
        {
          "indexed": false,
          "name": "_hash",
          "type": "bytes32"
        },
        {
          "indexed": false,
          "name": "_blockHeight",
          "type": "uint256"
        },
        {
          "indexed": false,
          "name": "_votingRoundClosesAt",
          "type": "uint256"
        }
      ],
      "name": "Voted",
      "type": "event"
    },
    {
      "anonymous": false,
      "inputs": [
        {
          "indexed": false,
          "name": "_method",
          "type": "bytes32"
        },
        {
          "indexed": false,
          "name": "_hash",
          "type": "bytes32"
        },
        {
          "indexed": false,
          "name": "_hasConsensus",
          "type": "bool"
        },
        {
          "indexed": false,
          "name": "_votes",
          "type": "uint256"
        },
        {
          "indexed": false,
          "name": "_expired",
          "type": "bool"
        },
        {
          "indexed": false,
          "name": "_pruned",
          "type": "bool"
        }
      ],
      "name": "VotingRoundClosed",
      "type": "event"
    },
    {
      "anonymous": false,
      "inputs": [
        {
          "indexed": false,
          "name": "account",
          "type": "address"
        }
      ],
      "name": "Paused",
      "type": "event"
    },
    {
      "anonymous": false,
      "inputs": [
        {
          "indexed": false,
          "name": "account",
          "type": "address"
        }
      ],
      "name": "Unpaused",
      "type": "event"
    },
    {
      "anonymous": false,
      "inputs": [
        {
          "indexed": true,
          "name": "account",
          "type": "address"
        }
      ],
      "name": "PauserAdded",
      "type": "event"
    },
    {
      "anonymous": false,
      "inputs": [
        {
          "indexed": true,
          "name": "account",
          "type": "address"
        }
      ],
      "name": "PauserRemoved",
      "type": "event"
    },
    {
      "anonymous": false,
      "inputs": [
        {
          "indexed": true,
          "name": "previousOwner",
          "type": "address"
        },
        {
          "indexed": true,
          "name": "newOwner",
          "type": "address"
        }
      ],
      "name": "OwnershipTransferred",
      "type": "event"
    },
    {
      "constant": false,
      "inputs": [
        {
          "name": "_method",
          "type": "bytes32"
        },
        {
          "name": "_ballotType",
          "type": "string"
        },
        {
          "name": "_threshold",
          "type": "uint256"
        },
        {
          "name": "_votingWindow",
          "type": "uint256"
        }
      ],
      "name": "registerBallot",
      "outputs": [
        {
          "name": "",
          "type": "bool"
        }
      ],
      "payable": false,
      "stateMutability": "nonpayable",
      "type": "function"
    },
    {
      "constant": false,
      "inputs": [
        {
          "name": "_method",
          "type": "bytes32"
        },
        {
          "name": "_threshold",
          "type": "uint256"
        },
        {
          "name": "_votingWindow",
          "type": "uint256"
        }
      ],
      "name": "updateBallot",
      "outputs": [
        {
          "name": "",
          "type": "bool"
        }
      ],
      "payable": false,
      "stateMutability": "nonpayable",
      "type": "function"
    },
    {
      "constant": false,
      "inputs": [
        {
          "name": "_method",
          "type": "bytes32"
        }
      ],
      "name": "deleteBallot",
      "outputs": [
        {
          "name": "",
          "type": "bool"
        }
      ],
      "payable": false,
      "stateMutability": "nonpayable",
      "type": "function"
    },
    {
      "constant": false,
      "inputs": [
        {
          "name": "_method",
          "type": "bytes32"
        },
        {
          "name": "_hash",
          "type": "bytes32"
        }
      ],
      "name": "vote",
      "outputs": [
        {
          "name": "",
          "type": "bool"
        },
        {
          "name": "",
          "type": "bool"
        }
      ],
      "payable": false,
      "stateMutability": "nonpayable",
      "type": "function"
    },
    {
      "constant": false,
      "inputs": [],
      "name": "pruneBallots",
      "outputs": [
        {
          "name": "",
          "type": "bool"
        }
      ],
      "payable": false,
      "stateMutability": "nonpayable",
      "type": "function"
    }
  ],
  "bytecode": "0x60806040526040805190810160405280601381526020017f436861696e706f696e742052656769737472790000000000000000000000000081525060039080519060200190620000519291906200047f565b503480156200005f57600080fd5b5060405160408062002ee8833981018060405260408110156200008157600080fd5b810190808051906020019092919080519060200190929190505050336000806101000a81548173ffffffffffffffffffffffffffffffffffffffff021916908373ffffffffffffffffffffffffffffffffffffffff1602179055506000809054906101000a900473ffffffffffffffffffffffffffffffffffffffff1673ffffffffffffffffffffffffffffffffffffffff16600073ffffffffffffffffffffffffffffffffffffffff167f8be0079c531659141344cd1fd0a4f28419497f9722a3daafe3b4186f6b6457e060405160405180910390a36200017233620002bd640100000000026401000000009004565b6000600260006101000a81548160ff021916908315150217905550600073ffffffffffffffffffffffffffffffffffffffff168273ffffffffffffffffffffffffffffffffffffffff161415151562000233576040517f08c379a000000000000000000000000000000000000000000000000000000000815260040180806020018281038252601b8152602001807f746f6b656e20616464726573732063616e6e6f7420626520307830000000000081525060200191505060405180910390fd5b81600460006101000a81548173ffffffffffffffffffffffffffffffffffffffff021916908373ffffffffffffffffffffffffffffffffffffffff16021790555080600560006101000a81548173ffffffffffffffffffffffffffffffffffffffff021916908373ffffffffffffffffffffffffffffffffffffffff16021790555050506200052e565b620002e18160016200032764010000000002620027ec179091906401000000009004565b8073ffffffffffffffffffffffffffffffffffffffff167f6719d08c1888103bea251a4ed56406bd0c3e69723c8a1686e017e7bbe159b6f860405160405180910390a250565b600073ffffffffffffffffffffffffffffffffffffffff168173ffffffffffffffffffffffffffffffffffffffff16141515156200036457600080fd5b6200037f8282620003ea640100000000026401000000009004565b1515156200038c57600080fd5b60018260000160008373ffffffffffffffffffffffffffffffffffffffff1673ffffffffffffffffffffffffffffffffffffffff16815260200190815260200160002060006101000a81548160ff0219169083151502179055505050565b60008073ffffffffffffffffffffffffffffffffffffffff168273ffffffffffffffffffffffffffffffffffffffff16141515156200042857600080fd5b8260000160008373ffffffffffffffffffffffffffffffffffffffff1673ffffffffffffffffffffffffffffffffffffffff16815260200190815260200160002060009054906101000a900460ff16905092915050565b828054600181600116156101000203166002900490600052602060002090601f016020900481019282601f10620004c257805160ff1916838001178555620004f3565b82800160010185558215620004f3579182015b82811115620004f2578251825591602001919060010190620004d5565b5b50905062000502919062000506565b5090565b6200052b91905b80821115620005275760008160009055506001016200050d565b5090565b90565b6129aa806200053e6000396000f3fe6080604052600436106100e6576000357c0100000000000000000000000000000000000000000000000000000000900463ffffffff16806306fdde03146100eb57806314923d761461017b57806327e3f0d61461027957806335fd7f99146102e05780633f4ba83a1461030f57806346fbf68e146103265780635c975abb1461038f5780636ef8d66d146103be578063715018a6146103d557806382dc1ec4146103ec5780638456cb591461043d5780638da5cb5b146104545780638f32d59b146104ab578063cf48cfb7146104da578063eeaaf19d1461052d578063f2fde38b14610595575b600080fd5b3480156100f757600080fd5b506101006105e6565b6040518080602001828103825283818151815260200191508051906020019080838360005b83811015610140578082015181840152602081019050610125565b50505050905090810190601f16801561016d5780820380516001836020036101000a031916815260200191505b509250505060405180910390f35b34801561018757600080fd5b5061025f6004803603608081101561019e57600080fd5b8101908080359060200190929190803590602001906401000000008111156101c557600080fd5b8201836020820111156101d757600080fd5b803590602001918460018302840111640100000000831117156101f957600080fd5b91908080601f016020809104026020016040519081016040528093929190818152602001838380828437600081840152601f19601f8201169050808301925050505050505091929192908035906020019092919080359060200190929190505050610684565b604051808215151515815260200191505060405180910390f35b34801561028557600080fd5b506102c66004803603606081101561029c57600080fd5b81019080803590602001909291908035906020019092919080359060200190929190505050610cb4565b604051808215151515815260200191505060405180910390f35b3480156102ec57600080fd5b506102f5610fa8565b604051808215151515815260200191505060405180910390f35b34801561031b57600080fd5b5061032461129e565b005b34801561033257600080fd5b506103756004803603602081101561034957600080fd5b81019080803573ffffffffffffffffffffffffffffffffffffffff16906020019092919050505061134d565b604051808215151515815260200191505060405180910390f35b34801561039b57600080fd5b506103a461136a565b604051808215151515815260200191505060405180910390f35b3480156103ca57600080fd5b506103d3611381565b005b3480156103e157600080fd5b506103ea61138c565b005b3480156103f857600080fd5b5061043b6004803603602081101561040f57600080fd5b81019080803573ffffffffffffffffffffffffffffffffffffffff16906020019092919050505061145e565b005b34801561044957600080fd5b5061045261147e565b005b34801561046057600080fd5b5061046961152e565b604051808273ffffffffffffffffffffffffffffffffffffffff1673ffffffffffffffffffffffffffffffffffffffff16815260200191505060405180910390f35b3480156104b757600080fd5b506104c0611557565b604051808215151515815260200191505060405180910390f35b3480156104e657600080fd5b50610513600480360360208110156104fd57600080fd5b81019080803590602001909291905050506115ae565b604051808215151515815260200191505060405180910390f35b34801561053957600080fd5b506105706004803603604081101561055057600080fd5b8101908080359060200190929190803590602001909291905050506116f8565b6040518083151515158152602001821515151581526020019250505060405180910390f35b3480156105a157600080fd5b506105e4600480360360208110156105b857600080fd5b81019080803573ffffffffffffffffffffffffffffffffffffffff169060200190929190505050611ccb565b005b60038054600181600116156101000203166002900480601f01602080910402602001604051908101604052809291908181526020018280546001816001161561010002031660029004801561067c5780601f106106515761010080835404028352916020019161067c565b820191906000526020600020905b81548152906001019060200180831161065f57829003601f168201915b505050505081565b600061068e611557565b151561069957600080fd5b6006600086815260200190815260200160002060050160009054906101000a900460ff161515610757576040517f08c379a00000000000000000000000000000000000000000000000000000000081526004018080602001828103825260268152602001807f6d6574686f642068617320612062616c6c6f742072656769737465726564206181526020017f6c7265616479000000000000000000000000000000000000000000000000000081525060400191505060405180910390fd5b6000602060ff161115156107f9576040517f08c379a00000000000000000000000000000000000000000000000000000000081526004018080602001828103825260268152602001807f736d61727420636f6e7472616374206d6574686f64206e616d6520697320726581526020017f717569726564000000000000000000000000000000000000000000000000000081525060400191505060405180910390fd5b600082111515610897576040517f08c379a00000000000000000000000000000000000000000000000000000000081526004018080602001828103825260248152602001807f766f74696e672077696e646f77206d757374206265206772656174657220746881526020017f616e20300000000000000000000000000000000000000000000000000000000081525060400191505060405180910390fd5b600060405180807f6d616a6f7269747900000000000000000000000000000000000000000000000081525060080190506040518091039020856040516020018080602001828103825283818151815260200191508051906020019080838360005b838110156109135780820151818401526020810190506108f8565b50505050905090810190601f1680156109405780820380516001836020036101000a031916815260200191505b509250505060405160208183030381529060405280519060200120149050600060405180807f6d616a6f7269747900000000000000000000000000000000000000000000000081525060080190506040518091039020866040516020018080602001828103825283818151815260200191508051906020019080838360005b838110156109da5780820151818401526020810190506109bf565b50505050905090810190601f168015610a075780820380516001836020036101000a031916815260200191505b50925050506040516020818303038152906040528051906020012014905081158015610a31575080155b1515610af1576040517f08c379a000000000000000000000000000000000000000000000000000000000815260040180806020018281038252604a8152602001807f6d6574686f642074797065206d757374206265206f6e65206f6620746865206681526020017f6f6c6c6f77696e672076616c7565733a203129206d616a6f726974792c20322981526020017f207468726573686f6c640000000000000000000000000000000000000000000081525060600191505060405180910390fd5b8015610bbc57600085111515610bbb576040517f08c379a00000000000000000000000000000000000000000000000000000000081526004018080602001828103825260488152602001807f7768656e2042616c6c6f7420547970652069732073657420746f20746872657381526020017f686f6c642c20612076616c75652067726561746572207468616e20302069732081526020017f726571756972656400000000000000000000000000000000000000000000000081525060600191505060405180910390fd5b5b60006006600089815260200190815260200160002090508781600001819055508215610c0d5760008160010160006101000a81548160ff02191690836001811115610c0357fe5b0217905550610c34565b60018160010160006101000a81548160ff02191690836001811115610c2e57fe5b02179055505b81610c40576000610c42565b855b816002018190555084816003018190555043816004018190555060018160050160006101000a81548160ff021916908315150217905550600888908060018154018082558091505090600182039060005260206000200160009091929091909150555060019350505050949350505050565b6000610cbe611557565b1515610cc957600080fd5b6006600085815260200190815260200160002060050160009054906101000a900460ff161515610d87576040517f08c379a00000000000000000000000000000000000000000000000000000000081526004018080602001828103825260378152602001807f62616c6c6f7420686173206e6f74206265656e2072656769737465726564206681526020017f6f722074686520737065636966696564206d6574686f6400000000000000000081525060400191505060405180910390fd5b600082111515610e25576040517f08c379a00000000000000000000000000000000000000000000000000000000081526004018080602001828103825260248152602001807f766f74696e672077696e646f77206d757374206265206772656174657220746881526020017f616e20300000000000000000000000000000000000000000000000000000000081525060400191505060405180910390fd5b600180811115610e3157fe5b6006600086815260200190815260200160002060010160009054906101000a900460ff166001811115610e6057fe5b1415610f2b57600083111515610f2a576040517f08c379a00000000000000000000000000000000000000000000000000000000081526004018080602001828103825260488152602001807f7768656e2042616c6c6f7420547970652069732073657420746f20746872657381526020017f686f6c642c20612076616c75652067726561746572207468616e20302069732081526020017f726571756972656400000000000000000000000000000000000000000000000081525060600191505060405180910390fd5b5b6000600660008681526020019081526020016000209050600180811115610f4e57fe5b6006600087815260200190815260200160002060010160009054906101000a900460ff166001811115610f7d57fe5b14610f89576000610f8b565b835b816002018190555082816003018190555060019150509392505050565b6000610fb261152e565b73ffffffffffffffffffffffffffffffffffffffff163373ffffffffffffffffffffffffffffffffffffffff1614806110df5750600560009054906101000a900473ffffffffffffffffffffffffffffffffffffffff1673ffffffffffffffffffffffffffffffffffffffff16639273cce8336040518263ffffffff167c0100000000000000000000000000000000000000000000000000000000028152600401808273ffffffffffffffffffffffffffffffffffffffff1673ffffffffffffffffffffffffffffffffffffffff168152602001915050602060405180830381600087803b1580156110a357600080fd5b505af11580156110b7573d6000803e3d6000fd5b505050506040513d60208110156110cd57600080fd5b81019080805190602001909291905050505b1515611179576040517f08c379a00000000000000000000000000000000000000000000000000000000081526004018080602001828103825260288152602001807f6d757374206265206f776e6572206f7220616e2061637469766520636f72652081526020017f6f70657261746f7200000000000000000000000000000000000000000000000081525060400191505060405180910390fd5b60008090505b600880549050811015611296576000600660006008848154811015156111a157fe5b90600052602060002001548152602001908152602001600020905060008090505b8160060180549050811015611287576000600760006008868154811015156111e657fe5b906000526020600020015481526020019081526020016000206000846006018481548110151561121257fe5b90600052602060002001548152602001908152602001600020905080600101544311156112795761127760088581548110151561124b57fe5b9060005260206000200154846006018481548110151561126757fe5b9060005260206000200154611cea565b505b5080806001019150506111c2565b5050808060010191505061117f565b506001905090565b6112a73361134d565b15156112b257600080fd5b600260009054906101000a900460ff1615156112cd57600080fd5b6000600260006101000a81548160ff0219169083151502179055507f5db9ee0a495bf2e6ff9c91a7834c1ba4fdd244a5e8aa4e537bd38aeae4b073aa33604051808273ffffffffffffffffffffffffffffffffffffffff1673ffffffffffffffffffffffffffffffffffffffff16815260200191505060405180910390a1565b6000611363826001611f0c90919063ffffffff16565b9050919050565b6000600260009054906101000a900460ff16905090565b61138a33611fa0565b565b611394611557565b151561139f57600080fd5b600073ffffffffffffffffffffffffffffffffffffffff166000809054906101000a900473ffffffffffffffffffffffffffffffffffffffff1673ffffffffffffffffffffffffffffffffffffffff167f8be0079c531659141344cd1fd0a4f28419497f9722a3daafe3b4186f6b6457e060405160405180910390a360008060006101000a81548173ffffffffffffffffffffffffffffffffffffffff021916908373ffffffffffffffffffffffffffffffffffffffff160217905550565b6114673361134d565b151561147257600080fd5b61147b81611ffa565b50565b6114873361134d565b151561149257600080fd5b600260009054906101000a900460ff161515156114ae57600080fd5b6001600260006101000a81548160ff0219169083151502179055507f62e78cea01bee320cd4e420270b5ea74000d11b0c9f74754ebdbfc544b05a25833604051808273ffffffffffffffffffffffffffffffffffffffff1673ffffffffffffffffffffffffffffffffffffffff16815260200191505060405180910390a1565b60008060009054906101000a900473ffffffffffffffffffffffffffffffffffffffff16905090565b60008060009054906101000a900473ffffffffffffffffffffffffffffffffffffffff1673ffffffffffffffffffffffffffffffffffffffff163373ffffffffffffffffffffffffffffffffffffffff1614905090565b60006115b8611557565b15156115c357600080fd5b6006600083815260200190815260200160002060050160009054906101000a900460ff161515611681576040517f08c379a00000000000000000000000000000000000000000000000000000000081526004018080602001828103825260378152602001807f62616c6c6f7420686173206e6f74206265656e2072656769737465726564206681526020017f6f722074686520737065636966696564206d6574686f6400000000000000000081525060400191505060405180910390fd5b600660008381526020019081526020016000206000808201600090556001820160006101000a81549060ff02191690556002820160009055600382016000905560048201600090556005820160006101000a81549060ff02191690556006820160006116ed91906128c6565b505060019050919050565b60008061170361152e565b73ffffffffffffffffffffffffffffffffffffffff163373ffffffffffffffffffffffffffffffffffffffff1614806118305750600560009054906101000a900473ffffffffffffffffffffffffffffffffffffffff1673ffffffffffffffffffffffffffffffffffffffff16639273cce8336040518263ffffffff167c0100000000000000000000000000000000000000000000000000000000028152600401808273ffffffffffffffffffffffffffffffffffffffff1673ffffffffffffffffffffffffffffffffffffffff168152602001915050602060405180830381600087803b1580156117f457600080fd5b505af1158015611808573d6000803e3d6000fd5b505050506040513d602081101561181e57600080fd5b81019080805190602001909291905050505b15156118ca576040517f08c379a00000000000000000000000000000000000000000000000000000000081526004018080602001828103825260288152602001807f6d757374206265206f776e6572206f7220616e2061637469766520636f72652081526020017f6f70657261746f7200000000000000000000000000000000000000000000000081525060400191505060405180910390fd5b6006600085815260200190815260200160002060050160009054906101000a900460ff161515611988576040517f08c379a00000000000000000000000000000000000000000000000000000000081526004018080602001828103825260378152602001807f62616c6c6f7420686173206e6f74206265656e2072656769737465726564206681526020017f6f722074686520737065636966696564206d6574686f6400000000000000000081525060400191505060405180910390fd5b60006007600086815260200190815260200160002060008581526020019081526020016000209050600081600001541115611b0557806001015443111515611b00578060020160408051908101604052803373ffffffffffffffffffffffffffffffffffffffff168152602001438152509080600181540180825580915050906001820390600052602060002090600202016000909192909190915060008201518160000160006101000a81548173ffffffffffffffffffffffffffffffffffffffff021916908373ffffffffffffffffffffffffffffffffffffffff160217905550602082015181600101555050507f05987a2b626fa210628eb3170312f920ed716f57961b6865031faefe37ba86d7338686438560010154604051808673ffffffffffffffffffffffffffffffffffffffff1673ffffffffffffffffffffffffffffffffffffffff1681526020018581526020018481526020018381526020018281526020019550505050505060405180910390a15b611cb5565b60066000868152602001908152602001600020600601849080600181540180825580915050906001820390600052602060002001600090919290919091505550438160000181905550611b7760066000878152602001908152602001600020600301544361205490919063ffffffff16565b81600101819055508060020160408051908101604052803373ffffffffffffffffffffffffffffffffffffffff168152602001438152509080600181540180825580915050906001820390600052602060002090600202016000909192909190915060008201518160000160006101000a81548173ffffffffffffffffffffffffffffffffffffffff021916908373ffffffffffffffffffffffffffffffffffffffff160217905550602082015181600101555050507f05987a2b626fa210628eb3170312f920ed716f57961b6865031faefe37ba86d7338686438560010154604051808673ffffffffffffffffffffffffffffffffffffffff1673ffffffffffffffffffffffffffffffffffffffff1681526020018581526020018481526020018381526020018281526020019550505050505060405180910390a15b611cbf8585612075565b92509250509250929050565b611cd3611557565b1515611cde57600080fd5b611ce781612643565b50565b6000611cf461152e565b73ffffffffffffffffffffffffffffffffffffffff163373ffffffffffffffffffffffffffffffffffffffff161480611e215750600560009054906101000a900473ffffffffffffffffffffffffffffffffffffffff1673ffffffffffffffffffffffffffffffffffffffff16639273cce8336040518263ffffffff167c0100000000000000000000000000000000000000000000000000000000028152600401808273ffffffffffffffffffffffffffffffffffffffff1673ffffffffffffffffffffffffffffffffffffffff168152602001915050602060405180830381600087803b158015611de557600080fd5b505af1158015611df9573d6000803e3d6000fd5b505050506040513d6020811015611e0f57600080fd5b81019080805190602001909291905050505b1515611ebb576040517f08c379a00000000000000000000000000000000000000000000000000000000081526004018080602001828103825260288152602001807f6d757374206265206f776e6572206f7220616e2061637469766520636f72652081526020017f6f70657261746f7200000000000000000000000000000000000000000000000081525060400191505060405180910390fd5b6007600084815260200190815260200160002060008381526020019081526020016000206000808201600090556001820160009055600282016000611f0091906128e7565b50506001905092915050565b60008073ffffffffffffffffffffffffffffffffffffffff168273ffffffffffffffffffffffffffffffffffffffff1614151515611f4957600080fd5b8260000160008373ffffffffffffffffffffffffffffffffffffffff1673ffffffffffffffffffffffffffffffffffffffff16815260200190815260200160002060009054906101000a900460ff16905092915050565b611fb481600161273d90919063ffffffff16565b8073ffffffffffffffffffffffffffffffffffffffff167fcd265ebaf09df2871cc7bd4133404a235ba12eff2041bb89d9c714a2621c7c7e60405160405180910390a250565b61200e8160016127ec90919063ffffffff16565b8073ffffffffffffffffffffffffffffffffffffffff167f6719d08c1888103bea251a4ed56406bd0c3e69723c8a1686e017e7bbe159b6f860405160405180910390a250565b600080828401905083811015151561206b57600080fd5b8091505092915050565b60008061208061152e565b73ffffffffffffffffffffffffffffffffffffffff163373ffffffffffffffffffffffffffffffffffffffff1614806121ad5750600560009054906101000a900473ffffffffffffffffffffffffffffffffffffffff1673ffffffffffffffffffffffffffffffffffffffff16639273cce8336040518263ffffffff167c0100000000000000000000000000000000000000000000000000000000028152600401808273ffffffffffffffffffffffffffffffffffffffff1673ffffffffffffffffffffffffffffffffffffffff168152602001915050602060405180830381600087803b15801561217157600080fd5b505af1158015612185573d6000803e3d6000fd5b505050506040513d602081101561219b57600080fd5b81019080805190602001909291905050505b1515612247576040517f08c379a00000000000000000000000000000000000000000000000000000000081526004018080602001828103825260288152602001807f6d757374206265206f776e6572206f7220616e2061637469766520636f72652081526020017f6f70657261746f7200000000000000000000000000000000000000000000000081525060400191505060405180910390fd5b6000600760008681526020019081526020016000206000858152602001908152602001600020905060018081111561227b57fe5b6006600087815260200190815260200160002060010160009054906101000a900460ff1660018111156122aa57fe5b14156123fa57600060066000878152602001908152602001600020600201548260020180549050101590506000826001015443111590506000808460020180549050905083806122f75750825b1561237f576001915061230a8989611cea565b151561237e576040517f08c379a000000000000000000000000000000000000000000000000000000000815260040180806020018281038252601c8152602001807f6661696c656420746f207072756e6520766f74696e6720726f756e640000000081525060200191505060405180910390fd5b5b7f47ecfadce57ceda0959a4b2fb2e87453afbaa6275de4132acbfd06adf52197a589898684878760405180878152602001868152602001851515151581526020018481526020018315151515815260200182151515158152602001965050505050505060405180910390a1838396509650505050505061263c565b60008082600101544311159050600080846002018054905090506000600560009054906101000a900473ffffffffffffffffffffffffffffffffffffffff1673ffffffffffffffffffffffffffffffffffffffff1663f17308746040518163ffffffff167c010000000000000000000000000000000000000000000000000000000002815260040160206040518083038186803b15801561249a57600080fd5b505afa1580156124ae573d6000803e3d6000fd5b505050506040513d60208110156124c457600080fd5b8101908080519060200190929190505050905060018114156124eb57600182149450612533565b60028114156124ff57600282149450612532565b6000612528600161251a60028561289c90919063ffffffff16565b61205490919063ffffffff16565b9050808310159550505b5b848061253c5750835b156125c4576001925061254f8a8a611cea565b15156125c3576040517f08c379a000000000000000000000000000000000000000000000000000000000815260040180806020018281038252601c8152602001807f6661696c656420746f207072756e6520766f74696e6720726f756e640000000081525060200191505060405180910390fd5b5b7f47ecfadce57ceda0959a4b2fb2e87453afbaa6275de4132acbfd06adf52197a58a8a8785888860405180878152602001868152602001851515151581526020018481526020018315151515815260200182151515158152602001965050505050505060405180910390a18484975097505050505050505b9250929050565b600073ffffffffffffffffffffffffffffffffffffffff168173ffffffffffffffffffffffffffffffffffffffff161415151561267f57600080fd5b8073ffffffffffffffffffffffffffffffffffffffff166000809054906101000a900473ffffffffffffffffffffffffffffffffffffffff1673ffffffffffffffffffffffffffffffffffffffff167f8be0079c531659141344cd1fd0a4f28419497f9722a3daafe3b4186f6b6457e060405160405180910390a3806000806101000a81548173ffffffffffffffffffffffffffffffffffffffff021916908373ffffffffffffffffffffffffffffffffffffffff16021790555050565b600073ffffffffffffffffffffffffffffffffffffffff168173ffffffffffffffffffffffffffffffffffffffff161415151561277957600080fd5b6127838282611f0c565b151561278e57600080fd5b60008260000160008373ffffffffffffffffffffffffffffffffffffffff1673ffffffffffffffffffffffffffffffffffffffff16815260200190815260200160002060006101000a81548160ff0219169083151502179055505050565b600073ffffffffffffffffffffffffffffffffffffffff168173ffffffffffffffffffffffffffffffffffffffff161415151561282857600080fd5b6128328282611f0c565b15151561283e57600080fd5b60018260000160008373ffffffffffffffffffffffffffffffffffffffff1673ffffffffffffffffffffffffffffffffffffffff16815260200190815260200160002060006101000a81548160ff0219169083151502179055505050565b600080821115156128ac57600080fd5b600082848115156128b957fe5b0490508091505092915050565b50805460008255906000526020600020908101906128e4919061290b565b50565b50805460008255600202906000526020600020908101906129089190612930565b50565b61292d91905b80821115612929576000816000905550600101612911565b5090565b90565b61297b91905b8082111561297757600080820160006101000a81549073ffffffffffffffffffffffffffffffffffffffff0219169055600182016000905550600201612936565b5090565b9056fea165627a7a72305820e96606690e9cc326dc6329bf35c980e461d4a9c3f27186896303d9003fc55d7f0029",
  "source": "pragma solidity >=0.4.22 <0.6.0;\n\nimport \"openzeppelin-solidity/contracts/ownership/Ownable.sol\";\nimport \"openzeppelin-solidity/contracts/lifecycle/Pausable.sol\";\n\nimport \"./ChainpointRegistry.sol\";\nimport \"./lib/ChainpointRegistryInterface.sol\";\nimport \"./lib/SafeMath.sol\";\nimport \"./lib/ERC20.sol\";\n\ncontract ChainpointQuorum is Ownable, Pausable {\n    using SafeMath for uint256;\n  \n    /// @title TNT Token Contract\n    string public name = \"Chainpoint Registry\";\n    \n    /// @title TNT Token Contract\n    /// @notice Standard ERC20 Token\n    ERC20 private token;\n    \n    /// @title Chainpoint Registry\n    /// @notice Chainpoint Registry Contract\n    ChainpointRegistryInterface private chainpointRegistry;\n    \n    ///\n    /// MAPPINGS\n    ///\n    /// @title Registered Ballots\n    /// @notice Contains all registered ballots\n    /// @dev Key is hash representation of the method name\n    /// @dev Value is struct representing Ballot\n    mapping (bytes32 => Ballot) private registeredBallots;\n    \n    /// @title Methods Voting Rounds\n    /// @notice Contains all of the Voting Rounds that have been triggered as a result of invoking vote() with a method hash and a unique arguments hash\n    /// @dev Key is hash representation of the method name\n    /// @dev Value is struct representing VotingRound\n    mapping (bytes32 => mapping(bytes32 => VotingRound)) methodVotingRounds;\n    \n    ///\n    /// ARRAYS\n    ///\n    /// @title List of Registered Ballots\n    /// @notice Convenient list of registered ballots for iteration\n    bytes32[] registeredBallotsArr;\n    \n    ///\n    /// TYPES \n    ///\n    /// @title BallotType\n    /// @notice BallotType is an enum that only supports two values: majority or threshold\n    enum BallotType {majority, threshold}\n    \n    /// @title Ballot\n    /// @notice Ballot struct which contains all relevant ballot parameters\n    /// @dev method name of the method that needs Quorum capability\n    /// @dev ballotType Enum (majority|threshold)\n    /// @dev votingWindow Number of blocks that the voting round is open for\n    /// @dev startBlock Block height in which voting window begins\n    struct Ballot {\n        bytes32 methodHash;\n        BallotType ballotType;\n        uint256 threshold;\n        uint256 votingWindow;\n        uint256 startBlock;\n        bool isActive;\n        bytes32[] votingRoundHashes;\n    }\n    \n    struct VotingRound {\n        uint256 startBlock;\n        uint256 endBlock;\n        Vote[] votes;\n    }\n    \n    /// @title Vote\n    /// @notice Ballot struct which contains all relevant ballot parameters\n    /// @dev voter Address of the party submitting a vote\n    /// @dev block Block height at which the vote was registered\n    struct Vote {\n        address voter;\n        uint256 blockHeight;\n    }\n    \n    ///\n    /// MODIFIERS\n    ///\n    /// @notice only Staked Core Operators or Owner can call, otherwise throw\n    modifier onlyOwnerOrCoreOperator() {\n        require(msg.sender == owner() || chainpointRegistry.isHealthyCore(msg.sender), \"must be owner or an active core operator\");\n        _;\n    }\n    \n    constructor (address _token, address _registry) public {\n        require(_token != address(0), \"token address cannot be 0x0\");\n        token = ERC20(_token);\n        chainpointRegistry = ChainpointRegistryInterface(_registry);\n    }\n    \n    ///\n    /// EVENTS \n    ///\n    /// @notice emitted when a Voting Round is closed\n    /// @param _voter address of the voter\n    /// @param _method Hash of the smart contract method\n    /// @param _hash Hash of the function arguments being voted on\n    /// @param _blockHeight did vote pass as a result of consensus being achieved\n    event Voted(\n        address _voter,\n        bytes32 _method,\n        bytes32 _hash,\n        uint256 _blockHeight,\n        uint256 _votingRoundClosesAt\n    );\n\n    ///\n    /// @notice emitted when a Voting Round is closed\n    /// @param _method Hash of the smart contract method\n    /// @param _hash Hash of the function arguments being voted on\n    /// @param _hasConsensus did vote pass as a result of consensus being achieved\n    /// @param _votes number of votes for particular method + hash combo\n    /// @param _expired did the Voting Round expire\n    /// @param _pruned did the Voting Round get pruned from storage\n    event VotingRoundClosed(\n        bytes32 _method,\n        bytes32 _hash,\n        bool _hasConsensus,\n        uint256 _votes,\n        bool _expired,\n        bool _pruned\n    );\n    \n    ///\n    /// Register Ballot for method\n    ///\n    /// @notice Creates a Ballot for a smart contract method\n    /// @param _method Name of the smart contract method\n    /// @param _ballotType Enum (majority|threshold)\n    /// @param _threshold Min. number of votes required for consesnsus\n    /// @param _votingWindow Duration of voting windows expressed in number of blocks\n    /// @return bool\n    /// @dev msg.sender is expected to be the Core Operator\n    /// @dev owner has ability to pause this operation indirectly\n    function registerBallot(bytes32 _method, string memory _ballotType, uint256 _threshold, uint256 _votingWindow) public onlyOwner returns (bool) {\n        require(registeredBallots[_method].isActive, 'method has a ballot registered already');\n        require(_method.length > 0, \"smart contract method name is required\");\n        require(_votingWindow > 0, \"voting window must be greater than 0\");\n        \n        bool majorityBallot = keccak256(abi.encode(_ballotType)) == keccak256(\"majority\");\n        bool thresholdBallot = keccak256(abi.encode(_ballotType)) == keccak256(\"majority\");\n        \n        require(!majorityBallot && !thresholdBallot, \"method type must be one of the following values: 1) majority, 2) threshold\");\n        \n        if(thresholdBallot) {\n            require(_threshold > 0, \"when Ballot Type is set to threshold, a value greater than 0 is required\");\n        }\n        \n        Ballot storage b = registeredBallots[_method];\n        \n        b.methodHash = _method;\n        if (majorityBallot) {\n            b.ballotType = BallotType.majority;\n        } else {\n            b.ballotType = BallotType.threshold;\n        }\n        \n        b.threshold = (thresholdBallot) ? _threshold : 0;\n        b.votingWindow = _votingWindow;\n        b.startBlock = block.number;\n        b.isActive = true;\n        \n        registeredBallotsArr.push(_method);\n        \n        return true;\n    }\n  \n    ///\n    /// Update Ballot for specified method\n    ///\n    /// @notice Updates a Ballot for a smart contract method\n    /// @param _method Name of the smart contract method\n    /// @param _threshold Min. number of votes required for consesnsus\n    /// @param _votingWindow Duration of voting windows expressed in number of blocks\n    /// @return bool\n    /// @dev msg.sender is expected to be the Core Operator\n    /// @dev owner has ability to pause this operation indirectly\n    function updateBallot(bytes32 _method, uint256 _threshold, uint256 _votingWindow) public onlyOwner returns (bool) {\n        require(registeredBallots[_method].isActive, 'ballot has not been registered for the specified method');\n        require(_votingWindow > 0, \"voting window must be greater than 0\");\n        if (registeredBallots[_method].ballotType == BallotType.threshold) {\n            require(_threshold > 0, \"when Ballot Type is set to threshold, a value greater than 0 is required\");\n        }\n        \n        Ballot storage b = registeredBallots[_method];\n        \n        b.threshold = (registeredBallots[_method].ballotType == BallotType.threshold) ? _threshold : 0;\n        b.votingWindow = _votingWindow;\n        \n        return true;\n    }\n\n    ///\n    /// Delete Ballot for specified method\n    ///\n    /// @notice Deletes a Ballot for a smart contract method\n    /// @param _method Name of the smart contract method\n    /// @return bool\n    /// @dev msg.sender is expected to be the Core Operator\n    /// @dev owner has ability to pause this operation indirectly\n    function deleteBallot(bytes32 _method) public onlyOwner returns (bool) {\n        require(registeredBallots[_method].isActive, 'ballot has not been registered for the specified method');\n        \n        delete registeredBallots[_method];\n        \n        return true;\n    }\n    \n    ///\n    /// Register a Vote\n    ///\n    /// @notice Submits a vote to be included in a voting round for the smart contract method specified\n    /// @param _method Name of the smart contract method\n    /// @param _hash Hash of the arguments the Core operator voting wants to invoke the specified method with\n    /// @return bool\n    /// @dev msg.sender is expected to be the Core Operator\n    /// @dev owner has ability to pause this operation indirectly\n    function vote(bytes32 _method, bytes32 _hash) public onlyOwnerOrCoreOperator returns (bool, bool) {\n        require(registeredBallots[_method].isActive, 'ballot has not been registered for the specified method');\n        \n        VotingRound storage vr = methodVotingRounds[_method][_hash];\n        \n        // Check Voting Round exists based on the value of _hash, if it doesn't create a VotingRound and register a vote\n        if (vr.startBlock > 0) {\n            // Voting Round exists, check to see if round is still open; if so, register the vote\n            if (block.number <= vr.endBlock) {\n                vr.votes.push(Vote(msg.sender, block.number));\n                \n                emit Voted(msg.sender, _method, _hash, block.number, vr.endBlock);\n            }\n        } else {\n            // Voting Round does NOT exist, create a Voting Round and register a vote\n            registeredBallots[_method].votingRoundHashes.push(_hash);\n            vr.startBlock = block.number;\n            vr.endBlock = block.number.add(registeredBallots[_method].votingWindow);\n            vr.votes.push(Vote(msg.sender, block.number));\n            \n            emit Voted(msg.sender, _method, _hash, block.number, vr.endBlock);\n        }\n        \n        return _hasConsensus(_method, _hash);\n    }\n    \n    ///\n    /// Prune Ballots\n    ///\n    /// @notice This method must be explicitly invoked to prune Voting Rounds that have expired (aka timeout) and no longer to be persisted within the contract\n    /// @return bool\n    /// @dev msg.sender is expected to be the Core Operator or Owner, and can be called at the discretion of any authorized party\n    /// @dev owner has ability to pause this operation indirectly\n    function pruneBallots() public onlyOwnerOrCoreOperator returns (bool) {\n        for (uint i=0; i < registeredBallotsArr.length; i++) {\n            Ballot storage b = registeredBallots[registeredBallotsArr[i]];\n            \n            for (uint j=0; j < b.votingRoundHashes.length; j++) {\n                VotingRound storage vr = methodVotingRounds[registeredBallotsArr[i]][b.votingRoundHashes[j]];\n                \n                // Check to see if current block height > VotingRound.endBlock, if so, go ahead and prune the Voting Rounds for the registered ballot\n                if (block.number > vr.endBlock) {\n                    _pruneBallot(registeredBallotsArr[i], b.votingRoundHashes[j]);\n                }\n            }\n        }\n        \n        return true;\n    }\n    \n    ///\n    /// Has Voting Round for particular method reached consensus?\n    ///\n    /// @notice This method will determine if a Voting Round has successfully resolved with a consensus amongst Core Operators\n    /// @return (bool consensus, bool votingRoundExpired)\n    /// @dev msg.sender is expected to be the Core Operator\n    /// @dev owner has ability to pause this operation indirectly\n    function _hasConsensus(bytes32 _method, bytes32 _hash) private onlyOwnerOrCoreOperator returns (bool _consensus, bool _votingRoundExpired) {\n        VotingRound storage vr = methodVotingRounds[_method][_hash];\n        // Check based on BallotType\n        if (registeredBallots[_method].ballotType == BallotType.threshold) {\n            bool consensus = (vr.votes.length >= registeredBallots[_method].threshold);\n            bool votingRoundExpired = (block.number <= vr.endBlock);\n            bool votingRoundPruned;\n            uint256 votes = vr.votes.length;\n            \n            if (consensus || votingRoundExpired) {\n                votingRoundPruned = true;\n                require(_pruneBallot(_method, _hash), \"failed to prune voting round\"); \n            }\n            emit VotingRoundClosed(_method, _hash, consensus, votes, votingRoundExpired, votingRoundPruned);\n            \n            return (consensus, votingRoundExpired);\n        } else { // BallotType == majority\n            bool consensus;\n            bool votingRoundExpired = (block.number <= vr.endBlock);\n            bool votingRoundPruned;\n            uint256 votes = vr.votes.length;\n            uint256 numOfCores = chainpointRegistry.getCoreCount();\n             \n            // Calculate consensus for \"majority\" Electoral System\n            if (numOfCores == 1) {\n                consensus = (votes == 1);\n            } else if (numOfCores == 2) {\n                consensus = (votes == 2);\n            } else {\n                uint256 majority = numOfCores.div(2).add(1);\n                consensus = (votes >= majority);\n            }\n            \n            if (consensus || votingRoundExpired) {\n                votingRoundPruned = true;\n                require(_pruneBallot(_method, _hash), \"failed to prune voting round\"); \n            }\n            \n            emit VotingRoundClosed(_method, _hash, consensus, votes, votingRoundExpired, votingRoundPruned);\n            \n            return (consensus, votingRoundExpired);\n        } // ***END {else}\n    }\n    \n    ///\n    /// Prune Ballot\n    ///\n    /// @notice Will prune Voting Rounds for the provided method and hash vote\n    /// @param _method Name of the smart contract method\n    /// @param _hash Hash of the arguments the Core operator voting wants to invoke the specified method with\n    /// @return bool\n    /// @dev msg.sender is expected to be the Core Operator\n    /// @dev owner has ability to pause this operation indirectly\n    function _pruneBallot(bytes32 _method, bytes32 _hash) private onlyOwnerOrCoreOperator returns (bool) {\n        delete methodVotingRounds[_method][_hash];\n        \n        return true;\n    }\n}",
  "sourcePath": "/Users/michaeliglesias/zDevelopment/Tierion/Hydra/node-registration-research/v1/contracts/ChainpointQuorum.sol",
  "compiler": {
    "name": "solc",
    "version": "0.5.0+commit.1d4f565a.Emscripten.clang"
  },
  "schemaVersion": "3.0.1",
  "updatedAt": "2019-02-21T19:43:43.608Z",
  "devdoc": {
    "methods": {
      "deleteBallot(bytes32)": {
        "details": "msg.sender is expected to be the Core Operatorowner has ability to pause this operation indirectly",
        "params": {
          "_method": "Name of the smart contract method"
        },
        "return": "bool"
      },
      "isOwner()": {
        "return": "true if `msg.sender` is the owner of the contract."
      },
      "owner()": {
        "return": "the address of the owner."
      },
      "pause()": {
        "details": "called by the owner to pause, triggers stopped state"
      },
      "paused()": {
        "return": "true if the contract is paused, false otherwise."
      },
      "pruneBallots()": {
        "details": "msg.sender is expected to be the Core Operator or Owner, and can be called at the discretion of any authorized partyowner has ability to pause this operation indirectly",
        "return": "bool"
      },
      "registerBallot(bytes32,string,uint256,uint256)": {
        "details": "msg.sender is expected to be the Core Operatorowner has ability to pause this operation indirectly",
        "params": {
          "_ballotType": "Enum (majority|threshold)",
          "_method": "Name of the smart contract method",
          "_threshold": "Min. number of votes required for consesnsus",
          "_votingWindow": "Duration of voting windows expressed in number of blocks"
        },
        "return": "bool"
      },
      "renounceOwnership()": {
        "details": "Allows the current owner to relinquish control of the contract."
      },
      "transferOwnership(address)": {
        "details": "Allows the current owner to transfer control of the contract to a newOwner.",
        "params": {
          "newOwner": "The address to transfer ownership to."
        }
      },
      "unpause()": {
        "details": "called by the owner to unpause, returns to normal state"
      },
      "updateBallot(bytes32,uint256,uint256)": {
        "details": "msg.sender is expected to be the Core Operatorowner has ability to pause this operation indirectly",
        "params": {
          "_method": "Name of the smart contract method",
          "_threshold": "Min. number of votes required for consesnsus",
          "_votingWindow": "Duration of voting windows expressed in number of blocks"
        },
        "return": "bool"
      },
      "vote(bytes32,bytes32)": {
        "details": "msg.sender is expected to be the Core Operatorowner has ability to pause this operation indirectly",
        "params": {
          "_hash": "Hash of the arguments the Core operator voting wants to invoke the specified method with",
          "_method": "Name of the smart contract method"
        },
        "return": "bool"
      }
    }
  },
  "userdoc": {
    "methods": {
      "deleteBallot(bytes32)": {
        "notice": " Delete Ballot for specified method Deletes a Ballot for a smart contract method"
      },
      "pruneBallots()": {
        "notice": " Prune Ballots This method must be explicitly invoked to prune Voting Rounds that have expired (aka timeout) and no longer to be persisted within the contract"
      },
      "registerBallot(bytes32,string,uint256,uint256)": {
        "notice": " Register Ballot for method Creates a Ballot for a smart contract method"
      },
      "renounceOwnership()": {
        "notice": "Renouncing to ownership will leave the contract without an owner. It will not be possible to call the functions with the `onlyOwner` modifier anymore."
      },
      "updateBallot(bytes32,uint256,uint256)": {
        "notice": " Update Ballot for specified method Updates a Ballot for a smart contract method"
      },
      "vote(bytes32,bytes32)": {
        "notice": " Register a Vote Submits a vote to be included in a voting round for the smart contract method specified"
      }
    }
  }
}