{
  "contractName": "ChainpointFaucet",
  "abi": [
    {
      "constant": true,
      "inputs": [],
      "name": "name",
      "outputs": [
        {
          "name": "",
          "type": "string"
        }
      ],
      "payable": false,
      "stateMutability": "view",
      "type": "function",
      "signature": "0x06fdde03"
    },
    {
      "constant": true,
      "inputs": [],
      "name": "INITIAL_SUPPLY",
      "outputs": [
        {
          "name": "",
          "type": "uint256"
        }
      ],
      "payable": false,
      "stateMutability": "view",
      "type": "function",
      "signature": "0x2ff2e9dc"
    },
    {
      "constant": true,
      "inputs": [],
      "name": "subscriptionInterval",
      "outputs": [
        {
          "name": "",
          "type": "uint256"
        }
      ],
      "payable": false,
      "stateMutability": "view",
      "type": "function",
      "signature": "0x35e4a104"
    },
    {
      "constant": false,
      "inputs": [],
      "name": "unpause",
      "outputs": [],
      "payable": false,
      "stateMutability": "nonpayable",
      "type": "function",
      "signature": "0x3f4ba83a"
    },
    {
      "constant": true,
      "inputs": [
        {
          "name": "account",
          "type": "address"
        }
      ],
      "name": "isPauser",
      "outputs": [
        {
          "name": "",
          "type": "bool"
        }
      ],
      "payable": false,
      "stateMutability": "view",
      "type": "function",
      "signature": "0x46fbf68e"
    },
    {
      "constant": true,
      "inputs": [
        {
          "name": "",
          "type": "address"
        }
      ],
      "name": "subscribers",
      "outputs": [
        {
          "name": "",
          "type": "bool"
        }
      ],
      "payable": false,
      "stateMutability": "view",
      "type": "function",
      "signature": "0x5745ae28"
    },
    {
      "constant": true,
      "inputs": [],
      "name": "paused",
      "outputs": [
        {
          "name": "",
          "type": "bool"
        }
      ],
      "payable": false,
      "stateMutability": "view",
      "type": "function",
      "signature": "0x5c975abb"
    },
    {
      "constant": false,
      "inputs": [],
      "name": "renouncePauser",
      "outputs": [],
      "payable": false,
      "stateMutability": "nonpayable",
      "type": "function",
      "signature": "0x6ef8d66d"
    },
    {
      "constant": false,
      "inputs": [],
      "name": "renounceOwnership",
      "outputs": [],
      "payable": false,
      "stateMutability": "nonpayable",
      "type": "function",
      "signature": "0x715018a6"
    },
    {
      "constant": false,
      "inputs": [
        {
          "name": "account",
          "type": "address"
        }
      ],
      "name": "addPauser",
      "outputs": [],
      "payable": false,
      "stateMutability": "nonpayable",
      "type": "function",
      "signature": "0x82dc1ec4"
    },
    {
      "constant": false,
      "inputs": [],
      "name": "pause",
      "outputs": [],
      "payable": false,
      "stateMutability": "nonpayable",
      "type": "function",
      "signature": "0x8456cb59"
    },
    {
      "constant": true,
      "inputs": [],
      "name": "owner",
      "outputs": [
        {
          "name": "",
          "type": "address"
        }
      ],
      "payable": false,
      "stateMutability": "view",
      "type": "function",
      "signature": "0x8da5cb5b"
    },
    {
      "constant": true,
      "inputs": [],
      "name": "isOwner",
      "outputs": [
        {
          "name": "",
          "type": "bool"
        }
      ],
      "payable": false,
      "stateMutability": "view",
      "type": "function",
      "signature": "0x8f32d59b"
    },
    {
      "constant": true,
      "inputs": [],
      "name": "DISPERSEMENT_AMOUNT",
      "outputs": [
        {
          "name": "",
          "type": "uint256"
        }
      ],
      "payable": false,
      "stateMutability": "view",
      "type": "function",
      "signature": "0xa03f9bd8"
    },
    {
      "constant": false,
      "inputs": [
        {
          "name": "newOwner",
          "type": "address"
        }
      ],
      "name": "transferOwnership",
      "outputs": [],
      "payable": false,
      "stateMutability": "nonpayable",
      "type": "function",
      "signature": "0xf2fde38b"
    },
    {
      "inputs": [],
      "payable": false,
      "stateMutability": "nonpayable",
      "type": "constructor",
      "signature": "constructor"
    },
    {
      "anonymous": false,
      "inputs": [
        {
          "indexed": false,
          "name": "account",
          "type": "address"
        }
      ],
      "name": "Paused",
      "type": "event",
      "signature": "0x62e78cea01bee320cd4e420270b5ea74000d11b0c9f74754ebdbfc544b05a258"
    },
    {
      "anonymous": false,
      "inputs": [
        {
          "indexed": false,
          "name": "account",
          "type": "address"
        }
      ],
      "name": "Unpaused",
      "type": "event",
      "signature": "0x5db9ee0a495bf2e6ff9c91a7834c1ba4fdd244a5e8aa4e537bd38aeae4b073aa"
    },
    {
      "anonymous": false,
      "inputs": [
        {
          "indexed": true,
          "name": "account",
          "type": "address"
        }
      ],
      "name": "PauserAdded",
      "type": "event",
      "signature": "0x6719d08c1888103bea251a4ed56406bd0c3e69723c8a1686e017e7bbe159b6f8"
    },
    {
      "anonymous": false,
      "inputs": [
        {
          "indexed": true,
          "name": "account",
          "type": "address"
        }
      ],
      "name": "PauserRemoved",
      "type": "event",
      "signature": "0xcd265ebaf09df2871cc7bd4133404a235ba12eff2041bb89d9c714a2621c7c7e"
    },
    {
      "anonymous": false,
      "inputs": [
        {
          "indexed": true,
          "name": "previousOwner",
          "type": "address"
        },
        {
          "indexed": true,
          "name": "newOwner",
          "type": "address"
        }
      ],
      "name": "OwnershipTransferred",
      "type": "event",
      "signature": "0x8be0079c531659141344cd1fd0a4f28419497f9722a3daafe3b4186f6b6457e0"
    },
    {
      "constant": false,
      "inputs": [],
      "name": "subscribe",
      "outputs": [
        {
          "name": "",
          "type": "bool"
        }
      ],
      "payable": false,
      "stateMutability": "nonpayable",
      "type": "function",
      "signature": "0x8f449a05"
    },
    {
      "constant": true,
      "inputs": [],
      "name": "getTotalSupply",
      "outputs": [
        {
          "name": "",
          "type": "uint256"
        }
      ],
      "payable": false,
      "stateMutability": "view",
      "type": "function",
      "signature": "0xc4e41b22"
    },
    {
      "constant": true,
      "inputs": [],
      "name": "getLastSubscribedAtBlock",
      "outputs": [
        {
          "name": "",
          "type": "uint256"
        }
      ],
      "payable": false,
      "stateMutability": "view",
      "type": "function",
      "signature": "0x7ae9594b"
    },
    {
      "constant": true,
      "inputs": [
        {
          "name": "_addr",
          "type": "address"
        }
      ],
      "name": "isSubscribed",
      "outputs": [
        {
          "name": "",
          "type": "bool"
        }
      ],
      "payable": false,
      "stateMutability": "view",
      "type": "function",
      "signature": "0xb92ae87c"
    },
    {
      "constant": false,
      "inputs": [
        {
          "name": "_tokenAddr",
          "type": "address"
        }
      ],
      "name": "setToken",
      "outputs": [
        {
          "name": "",
          "type": "bool"
        }
      ],
      "payable": false,
      "stateMutability": "nonpayable",
      "type": "function",
      "signature": "0x144fa6d7"
    }
  ],
  "bytecode": "0x60806040526040805190810160405280601181526020017f436861696e706f696e742046617563657400000000000000000000000000000081525060039080519060200190620000519291906200033f565b50655af3107a4000600555603c600655600060075564800e8dfc006008553480156200007c57600080fd5b50336000806101000a81548173ffffffffffffffffffffffffffffffffffffffff021916908373ffffffffffffffffffffffffffffffffffffffff1602179055506000809054906101000a900473ffffffffffffffffffffffffffffffffffffffff1673ffffffffffffffffffffffffffffffffffffffff16600073ffffffffffffffffffffffffffffffffffffffff167f8be0079c531659141344cd1fd0a4f28419497f9722a3daafe3b4186f6b6457e060405160405180910390a362000153336200017d640100000000026401000000009004565b6000600260006101000a81548160ff021916908315150217905550600554600481905550620003ee565b620001a1816001620001e764010000000002620010ab179091906401000000009004565b8073ffffffffffffffffffffffffffffffffffffffff167f6719d08c1888103bea251a4ed56406bd0c3e69723c8a1686e017e7bbe159b6f860405160405180910390a250565b600073ffffffffffffffffffffffffffffffffffffffff168173ffffffffffffffffffffffffffffffffffffffff16141515156200022457600080fd5b6200023f8282620002aa640100000000026401000000009004565b1515156200024c57600080fd5b60018260000160008373ffffffffffffffffffffffffffffffffffffffff1673ffffffffffffffffffffffffffffffffffffffff16815260200190815260200160002060006101000a81548160ff0219169083151502179055505050565b60008073ffffffffffffffffffffffffffffffffffffffff168273ffffffffffffffffffffffffffffffffffffffff1614151515620002e857600080fd5b8260000160008373ffffffffffffffffffffffffffffffffffffffff1673ffffffffffffffffffffffffffffffffffffffff16815260200190815260200160002060009054906101000a900460ff16905092915050565b828054600181600116156101000203166002900490600052602060002090601f016020900481019282601f106200038257805160ff1916838001178555620003b3565b82800160010185558215620003b3579182015b82811115620003b257825182559160200191906001019062000395565b5b509050620003c29190620003c6565b5090565b620003eb91905b80821115620003e7576000816000905550600101620003cd565b5090565b90565b61118780620003fe6000396000f3fe608060405260043610610112576000357c0100000000000000000000000000000000000000000000000000000000900463ffffffff16806306fdde0314610117578063144fa6d7146101a75780632ff2e9dc1461021057806335e4a1041461023b5780633f4ba83a1461026657806346fbf68e1461027d5780635745ae28146102e65780635c975abb1461034f5780636ef8d66d1461037e578063715018a6146103955780637ae9594b146103ac57806382dc1ec4146103d75780638456cb59146104285780638da5cb5b1461043f5780638f32d59b146104965780638f449a05146104c5578063a03f9bd8146104f4578063b92ae87c1461051f578063c4e41b2214610588578063f2fde38b146105b3575b600080fd5b34801561012357600080fd5b5061012c610604565b6040518080602001828103825283818151815260200191508051906020019080838360005b8381101561016c578082015181840152602081019050610151565b50505050905090810190601f1680156101995780820380516001836020036101000a031916815260200191505b509250505060405180910390f35b3480156101b357600080fd5b506101f6600480360360208110156101ca57600080fd5b81019080803573ffffffffffffffffffffffffffffffffffffffff1690602001909291905050506106a2565b604051808215151515815260200191505060405180910390f35b34801561021c57600080fd5b5061022561073d565b6040518082815260200191505060405180910390f35b34801561024757600080fd5b50610250610743565b6040518082815260200191505060405180910390f35b34801561027257600080fd5b5061027b610749565b005b34801561028957600080fd5b506102cc600480360360208110156102a057600080fd5b81019080803573ffffffffffffffffffffffffffffffffffffffff1690602001909291905050506107f8565b604051808215151515815260200191505060405180910390f35b3480156102f257600080fd5b506103356004803603602081101561030957600080fd5b81019080803573ffffffffffffffffffffffffffffffffffffffff169060200190929190505050610815565b604051808215151515815260200191505060405180910390f35b34801561035b57600080fd5b50610364610835565b604051808215151515815260200191505060405180910390f35b34801561038a57600080fd5b5061039361084c565b005b3480156103a157600080fd5b506103aa610857565b005b3480156103b857600080fd5b506103c1610929565b6040518082815260200191505060405180910390f35b3480156103e357600080fd5b50610426600480360360208110156103fa57600080fd5b81019080803573ffffffffffffffffffffffffffffffffffffffff169060200190929190505050610933565b005b34801561043457600080fd5b5061043d610953565b005b34801561044b57600080fd5b50610454610a03565b604051808273ffffffffffffffffffffffffffffffffffffffff1673ffffffffffffffffffffffffffffffffffffffff16815260200191505060405180910390f35b3480156104a257600080fd5b506104ab610a2c565b604051808215151515815260200191505060405180910390f35b3480156104d157600080fd5b506104da610a83565b604051808215151515815260200191505060405180910390f35b34801561050057600080fd5b50610509610cf2565b6040518082815260200191505060405180910390f35b34801561052b57600080fd5b5061056e6004803603602081101561054257600080fd5b81019080803573ffffffffffffffffffffffffffffffffffffffff169060200190929190505050610cf8565b604051808215151515815260200191505060405180910390f35b34801561059457600080fd5b5061059d610d4e565b6040518082815260200191505060405180910390f35b3480156105bf57600080fd5b50610602600480360360208110156105d657600080fd5b81019080803573ffffffffffffffffffffffffffffffffffffffff169060200190929190505050610d58565b005b60038054600181600116156101000203166002900480601f01602080910402602001604051908101604052809291908181526020018280546001816001161561010002031660029004801561069a5780601f1061066f5761010080835404028352916020019161069a565b820191906000526020600020905b81548152906001019060200180831161067d57829003601f168201915b505050505081565b60006106ac610a2c565b15156106b757600080fd5b600073ffffffffffffffffffffffffffffffffffffffff168273ffffffffffffffffffffffffffffffffffffffff16141515156106f357600080fd5b81600960006101000a81548173ffffffffffffffffffffffffffffffffffffffff021916908373ffffffffffffffffffffffffffffffffffffffff16021790555060019050919050565b60055481565b60065481565b610752336107f8565b151561075d57600080fd5b600260009054906101000a900460ff16151561077857600080fd5b6000600260006101000a81548160ff0219169083151502179055507f5db9ee0a495bf2e6ff9c91a7834c1ba4fdd244a5e8aa4e537bd38aeae4b073aa33604051808273ffffffffffffffffffffffffffffffffffffffff1673ffffffffffffffffffffffffffffffffffffffff16815260200191505060405180910390a1565b600061080e826001610d7790919063ffffffff16565b9050919050565b600a6020528060005260406000206000915054906101000a900460ff1681565b6000600260009054906101000a900460ff16905090565b61085533610e0b565b565b61085f610a2c565b151561086a57600080fd5b600073ffffffffffffffffffffffffffffffffffffffff166000809054906101000a900473ffffffffffffffffffffffffffffffffffffffff1673ffffffffffffffffffffffffffffffffffffffff167f8be0079c531659141344cd1fd0a4f28419497f9722a3daafe3b4186f6b6457e060405160405180910390a360008060006101000a81548173ffffffffffffffffffffffffffffffffffffffff021916908373ffffffffffffffffffffffffffffffffffffffff160217905550565b6000600754905090565b61093c336107f8565b151561094757600080fd5b61095081610e65565b50565b61095c336107f8565b151561096757600080fd5b600260009054906101000a900460ff1615151561098357600080fd5b6001600260006101000a81548160ff0219169083151502179055507f62e78cea01bee320cd4e420270b5ea74000d11b0c9f74754ebdbfc544b05a25833604051808273ffffffffffffffffffffffffffffffffffffffff1673ffffffffffffffffffffffffffffffffffffffff16815260200191505060405180910390a1565b60008060009054906101000a900473ffffffffffffffffffffffffffffffffffffffff16905090565b60008060009054906101000a900473ffffffffffffffffffffffffffffffffffffffff1673ffffffffffffffffffffffffffffffffffffffff163373ffffffffffffffffffffffffffffffffffffffff1614905090565b6000600260009054906101000a900460ff16151515610aa157600080fd5b60006007541480610ac85750610ac4600654600754610ebf90919063ffffffff16565b4310155b1515610b62576040517f08c379a000000000000000000000000000000000000000000000000000000000815260040180806020018281038252603d8152602001807f737562736372697074696f6e732061726520697373756564206f6e206120736581526020017f7420696e74657276616c206f6620657665727920363020626c6f636b7300000081525060400191505060405180910390fd5b610b79600854600454610ee090919063ffffffff16565b6004819055506001600a60003373ffffffffffffffffffffffffffffffffffffffff1673ffffffffffffffffffffffffffffffffffffffff16815260200190815260200160002060006101000a81548160ff02191690831515021790555043600781905550600960009054906101000a900473ffffffffffffffffffffffffffffffffffffffff1673ffffffffffffffffffffffffffffffffffffffff1663a9059cbb336008546040518363ffffffff167c0100000000000000000000000000000000000000000000000000000000028152600401808373ffffffffffffffffffffffffffffffffffffffff1673ffffffffffffffffffffffffffffffffffffffff16815260200182815260200192505050602060405180830381600087803b158015610ca557600080fd5b505af1158015610cb9573d6000803e3d6000fd5b505050506040513d6020811015610ccf57600080fd5b81019080805190602001909291905050501515610ceb57600080fd5b6001905090565b60085481565b6000600a60008373ffffffffffffffffffffffffffffffffffffffff1673ffffffffffffffffffffffffffffffffffffffff16815260200190815260200160002060009054906101000a900460ff169050919050565b6000600454905090565b610d60610a2c565b1515610d6b57600080fd5b610d7481610f02565b50565b60008073ffffffffffffffffffffffffffffffffffffffff168273ffffffffffffffffffffffffffffffffffffffff1614151515610db457600080fd5b8260000160008373ffffffffffffffffffffffffffffffffffffffff1673ffffffffffffffffffffffffffffffffffffffff16815260200190815260200160002060009054906101000a900460ff16905092915050565b610e1f816001610ffc90919063ffffffff16565b8073ffffffffffffffffffffffffffffffffffffffff167fcd265ebaf09df2871cc7bd4133404a235ba12eff2041bb89d9c714a2621c7c7e60405160405180910390a250565b610e798160016110ab90919063ffffffff16565b8073ffffffffffffffffffffffffffffffffffffffff167f6719d08c1888103bea251a4ed56406bd0c3e69723c8a1686e017e7bbe159b6f860405160405180910390a250565b6000808284019050838110151515610ed657600080fd5b8091505092915050565b6000828211151515610ef157600080fd5b600082840390508091505092915050565b600073ffffffffffffffffffffffffffffffffffffffff168173ffffffffffffffffffffffffffffffffffffffff1614151515610f3e57600080fd5b8073ffffffffffffffffffffffffffffffffffffffff166000809054906101000a900473ffffffffffffffffffffffffffffffffffffffff1673ffffffffffffffffffffffffffffffffffffffff167f8be0079c531659141344cd1fd0a4f28419497f9722a3daafe3b4186f6b6457e060405160405180910390a3806000806101000a81548173ffffffffffffffffffffffffffffffffffffffff021916908373ffffffffffffffffffffffffffffffffffffffff16021790555050565b600073ffffffffffffffffffffffffffffffffffffffff168173ffffffffffffffffffffffffffffffffffffffff161415151561103857600080fd5b6110428282610d77565b151561104d57600080fd5b60008260000160008373ffffffffffffffffffffffffffffffffffffffff1673ffffffffffffffffffffffffffffffffffffffff16815260200190815260200160002060006101000a81548160ff0219169083151502179055505050565b600073ffffffffffffffffffffffffffffffffffffffff168173ffffffffffffffffffffffffffffffffffffffff16141515156110e757600080fd5b6110f18282610d77565b1515156110fd57600080fd5b60018260000160008373ffffffffffffffffffffffffffffffffffffffff1673ffffffffffffffffffffffffffffffffffffffff16815260200190815260200160002060006101000a81548160ff021916908315150217905550505056fea165627a7a72305820f11c8df11328d1d457832b5e0129243f9334c2feaecb6da1599e9b8cc0c8547b0029",
  "source": "pragma solidity >=0.4.22 <0.6.0;\n\nimport \"openzeppelin-solidity/contracts/ownership/Ownable.sol\";\nimport \"openzeppelin-solidity/contracts/lifecycle/Pausable.sol\";\n\nimport \"./lib/ERC20.sol\";\nimport \"./lib/SafeMath.sol\";\n\n/**\n * @title Chainpoint Faucet\n * @dev Faucet contract for $TKN & the Chainpoint Network\n *\n */\ncontract ChainpointFaucet is Ownable, Pausable {\n  using SafeMath for uint256;\n\n  /// @title Chainpoint Faucet Contract\n  string public name = \"Chainpoint Faucet\";\n  /// @title Total supply\n  uint256 totalSupply;\n  /// @title INITIAL_SUPPLY\n  uint256 public INITIAL_SUPPLY = 100000000000000; // 1M TNT specified in Grains\n  /// @title Minting Interval (in # of blocks)\n  uint256 public subscriptionInterval = 60; // 60(blocks) should take ~15mins\n  /// @title Nodes Last Subscription Issued in block height\n  uint256 lastSubscribedAtBlock = 0;\n  /// @title The Dispersement amount for each call to subscribe()\n  /// @notice Standard ERC20 Token\n  uint256 public DISPERSEMENT_AMOUNT = 550000000000; // 5500 TNT specified in grains (enough TNT for min. stake + usage token)\n  \n  /// @title TNT Token Contract\n  /// @notice Standard ERC20 Token\n  ERC20 private token;\n\n  ///\n  /// MAPPINGS\n  ///\n  /// @title Growing list of Subscribers\n  /// @notice Contains all of the past Subscribers that have been dispersed $TKNs to register with the Chainpoint Network\n  /// @dev Key is ethereum account for Subscriber\n  /// @dev Value is bool indicating that a Subscriber has already been dispersed $TKNs, and can only subscribe once\n  mapping (address => bool) public subscribers;\n\n  /// @notice Constructor sets the finite totalSupply of the Faucet which has been minted to the Faucet Contract when the $TKN Contract was deployed\n  constructor () public {\n      totalSupply = INITIAL_SUPPLY;\n  }\n\n  /**\n   * @dev Invoked by future Chainpoint Node Operators which disperses min. registration amount into Chainpoint Network\n   * @dev Can only be invoked by contract owner\n   * @return Boolean indicating result of method execution\n   */\n  function subscribe() public whenNotPaused returns(bool) {\n    require(lastSubscribedAtBlock == 0 || block.number >= lastSubscribedAtBlock.add(subscriptionInterval), \"subscriptions are issued on a set interval of every 60 blocks\");\n\n    totalSupply = totalSupply.sub(DISPERSEMENT_AMOUNT);\n    subscribers[msg.sender] = true; // Blacklist msg.sender to only allow one subscription per EOA\n\n    // Update LastMintedAt block & time\n    lastSubscribedAtBlock = block.number;\n\n    require(token.transfer(msg.sender, DISPERSEMENT_AMOUNT));\n    \n    return true;\n  }\n\n  /**\n   * @dev Returns remaining totalSupply available for dispersement\n   * @return uint256 remaining totalSupply\n   */\n  function getTotalSupply() public view returns(uint256) {\n    return totalSupply;\n  }\n\n  // lastSubscribedAtBlock\n  /**\n   * @dev Returns the block in which a successful dispersement took place\n   * @return uint256 lastSubscribedAtBlock\n   */\n  function getLastSubscribedAtBlock() public view returns(uint256) {\n    return lastSubscribedAtBlock;\n  }\n\n  /**\n   * @dev Returns whether or not the ETH Address has already subscribed to the Faucet\n   * @param _addr The address to check subscription status of\n   * @return bool Subscription status\n   */\n  function isSubscribed(address _addr) public view returns(bool) {\n    return subscribers[_addr];\n  }\n\n  /**\n   * @dev Sets the contract address for the $TKN Contract\n   * @param _tokenAddr The contract address of the $TKN Contract\n   * @dev Can only be invoked by contract owner\n   * @return Boolean indicating result of method execution\n   */\n  function setToken(address _tokenAddr) public onlyOwner returns(bool) {\n    require(_tokenAddr != address(0));\n    \n    token = ERC20(_tokenAddr);\n    \n    return true;\n  }\n}",
  "sourcePath": "/Users/michaeliglesias/zDevelopment/Tierion/Hydra/node-registration-research/v1/contracts/ChainpointFaucet.sol",
  "compiler": {
    "name": "solc",
    "version": "0.5.0+commit.1d4f565a.Emscripten.clang"
  },
  "schemaVersion": "3.0.1",
  "updatedAt": "2019-05-23T20:38:37.059Z",
  "devdoc": {
    "details": "Faucet contract for $TKN & the Chainpoint Network ",
    "methods": {
      "getLastSubscribedAtBlock()": {
        "details": "Returns the block in which a successful dispersement took place",
        "return": "uint256 lastSubscribedAtBlock"
      },
      "getTotalSupply()": {
        "details": "Returns remaining totalSupply available for dispersement",
        "return": "uint256 remaining totalSupply"
      },
      "isOwner()": {
        "return": "true if `msg.sender` is the owner of the contract."
      },
      "isSubscribed(address)": {
        "details": "Returns whether or not the ETH Address has already subscribed to the Faucet",
        "params": {
          "_addr": "The address to check subscription status of"
        },
        "return": "bool Subscription status"
      },
      "owner()": {
        "return": "the address of the owner."
      },
      "pause()": {
        "details": "called by the owner to pause, triggers stopped state"
      },
      "paused()": {
        "return": "true if the contract is paused, false otherwise."
      },
      "renounceOwnership()": {
        "details": "Allows the current owner to relinquish control of the contract."
      },
      "setToken(address)": {
        "details": "Sets the contract address for the $TKN ContractCan only be invoked by contract owner",
        "params": {
          "_tokenAddr": "The contract address of the $TKN Contract"
        },
        "return": "Boolean indicating result of method execution"
      },
      "subscribe()": {
        "details": "Invoked by future Chainpoint Node Operators which disperses min. registration amount into Chainpoint NetworkCan only be invoked by contract owner",
        "return": "Boolean indicating result of method execution"
      },
      "transferOwnership(address)": {
        "details": "Allows the current owner to transfer control of the contract to a newOwner.",
        "params": {
          "newOwner": "The address to transfer ownership to."
        }
      },
      "unpause()": {
        "details": "called by the owner to unpause, returns to normal state"
      }
    },
    "title": "Chainpoint Faucet"
  },
  "userdoc": {
    "methods": {
      "constructor": "Constructor sets the finite totalSupply of the Faucet which has been minted to the Faucet Contract when the $TKN Contract was deployed",
      "renounceOwnership()": {
        "notice": "Renouncing to ownership will leave the contract without an owner. It will not be possible to call the functions with the `onlyOwner` modifier anymore."
      }
    }
  }
}