{
  "contractName": "ChainpointQuorum",
  "abi": [
    {
      "constant": true,
      "inputs": [],
      "name": "name",
      "outputs": [
        {
          "name": "",
          "type": "string"
        }
      ],
      "payable": false,
      "stateMutability": "view",
      "type": "function"
    },
    {
      "constant": true,
      "inputs": [
        {
          "name": "",
          "type": "bytes32"
        }
      ],
      "name": "registeredBallots",
      "outputs": [
        {
          "name": "methodHash",
          "type": "bytes32"
        },
        {
          "name": "ballotType",
          "type": "uint8"
        },
        {
          "name": "threshold",
          "type": "uint256"
        },
        {
          "name": "votingWindow",
          "type": "uint256"
        },
        {
          "name": "startBlock",
          "type": "uint256"
        },
        {
          "name": "isActive",
          "type": "bool"
        }
      ],
      "payable": false,
      "stateMutability": "view",
      "type": "function"
    },
    {
      "constant": true,
      "inputs": [
        {
          "name": "",
          "type": "uint256"
        }
      ],
      "name": "registeredBallotsArr",
      "outputs": [
        {
          "name": "",
          "type": "bytes32"
        }
      ],
      "payable": false,
      "stateMutability": "view",
      "type": "function"
    },
    {
      "constant": false,
      "inputs": [],
      "name": "unpause",
      "outputs": [],
      "payable": false,
      "stateMutability": "nonpayable",
      "type": "function"
    },
    {
      "constant": true,
      "inputs": [
        {
          "name": "account",
          "type": "address"
        }
      ],
      "name": "isPauser",
      "outputs": [
        {
          "name": "",
          "type": "bool"
        }
      ],
      "payable": false,
      "stateMutability": "view",
      "type": "function"
    },
    {
      "constant": true,
      "inputs": [],
      "name": "paused",
      "outputs": [
        {
          "name": "",
          "type": "bool"
        }
      ],
      "payable": false,
      "stateMutability": "view",
      "type": "function"
    },
    {
      "constant": false,
      "inputs": [],
      "name": "renouncePauser",
      "outputs": [],
      "payable": false,
      "stateMutability": "nonpayable",
      "type": "function"
    },
    {
      "constant": false,
      "inputs": [],
      "name": "renounceOwnership",
      "outputs": [],
      "payable": false,
      "stateMutability": "nonpayable",
      "type": "function"
    },
    {
      "constant": false,
      "inputs": [
        {
          "name": "account",
          "type": "address"
        }
      ],
      "name": "addPauser",
      "outputs": [],
      "payable": false,
      "stateMutability": "nonpayable",
      "type": "function"
    },
    {
      "constant": false,
      "inputs": [],
      "name": "pause",
      "outputs": [],
      "payable": false,
      "stateMutability": "nonpayable",
      "type": "function"
    },
    {
      "constant": true,
      "inputs": [],
      "name": "owner",
      "outputs": [
        {
          "name": "",
          "type": "address"
        }
      ],
      "payable": false,
      "stateMutability": "view",
      "type": "function"
    },
    {
      "constant": true,
      "inputs": [],
      "name": "isOwner",
      "outputs": [
        {
          "name": "",
          "type": "bool"
        }
      ],
      "payable": false,
      "stateMutability": "view",
      "type": "function"
    },
    {
      "constant": true,
      "inputs": [
        {
          "name": "",
          "type": "bytes32"
        },
        {
          "name": "",
          "type": "bytes32"
        }
      ],
      "name": "methodVotingRounds",
      "outputs": [
        {
          "name": "startBlock",
          "type": "uint256"
        },
        {
          "name": "endBlock",
          "type": "uint256"
        }
      ],
      "payable": false,
      "stateMutability": "view",
      "type": "function"
    },
    {
      "constant": false,
      "inputs": [
        {
          "name": "newOwner",
          "type": "address"
        }
      ],
      "name": "transferOwnership",
      "outputs": [],
      "payable": false,
      "stateMutability": "nonpayable",
      "type": "function"
    },
    {
      "inputs": [
        {
          "name": "_token",
          "type": "address"
        },
        {
          "name": "_registry",
          "type": "address"
        }
      ],
      "payable": false,
      "stateMutability": "nonpayable",
      "type": "constructor"
    },
    {
      "anonymous": false,
      "inputs": [
        {
          "indexed": false,
          "name": "_voter",
          "type": "address"
        },
        {
          "indexed": false,
          "name": "_method",
          "type": "bytes32"
        },
        {
          "indexed": false,
          "name": "_hash",
          "type": "bytes32"
        },
        {
          "indexed": false,
          "name": "_blockHeight",
          "type": "uint256"
        },
        {
          "indexed": false,
          "name": "_votingRoundClosesAt",
          "type": "uint256"
        }
      ],
      "name": "Voted",
      "type": "event"
    },
    {
      "anonymous": false,
      "inputs": [
        {
          "indexed": false,
          "name": "_method",
          "type": "bytes32"
        },
        {
          "indexed": false,
          "name": "_hash",
          "type": "bytes32"
        },
        {
          "indexed": false,
          "name": "_consensus",
          "type": "bool"
        },
        {
          "indexed": false,
          "name": "_votes",
          "type": "uint256"
        },
        {
          "indexed": false,
          "name": "_expired",
          "type": "bool"
        },
        {
          "indexed": false,
          "name": "_pruned",
          "type": "bool"
        }
      ],
      "name": "VotingRoundClosed",
      "type": "event"
    },
    {
      "anonymous": false,
      "inputs": [
        {
          "indexed": false,
          "name": "account",
          "type": "address"
        }
      ],
      "name": "Paused",
      "type": "event"
    },
    {
      "anonymous": false,
      "inputs": [
        {
          "indexed": false,
          "name": "account",
          "type": "address"
        }
      ],
      "name": "Unpaused",
      "type": "event"
    },
    {
      "anonymous": false,
      "inputs": [
        {
          "indexed": true,
          "name": "account",
          "type": "address"
        }
      ],
      "name": "PauserAdded",
      "type": "event"
    },
    {
      "anonymous": false,
      "inputs": [
        {
          "indexed": true,
          "name": "account",
          "type": "address"
        }
      ],
      "name": "PauserRemoved",
      "type": "event"
    },
    {
      "anonymous": false,
      "inputs": [
        {
          "indexed": true,
          "name": "previousOwner",
          "type": "address"
        },
        {
          "indexed": true,
          "name": "newOwner",
          "type": "address"
        }
      ],
      "name": "OwnershipTransferred",
      "type": "event"
    },
    {
      "constant": false,
      "inputs": [
        {
          "name": "_method",
          "type": "bytes32"
        },
        {
          "name": "_ballotType",
          "type": "string"
        },
        {
          "name": "_threshold",
          "type": "uint256"
        },
        {
          "name": "_votingWindow",
          "type": "uint256"
        }
      ],
      "name": "registerBallot",
      "outputs": [
        {
          "name": "",
          "type": "bool"
        }
      ],
      "payable": false,
      "stateMutability": "nonpayable",
      "type": "function"
    },
    {
      "constant": false,
      "inputs": [
        {
          "name": "_method",
          "type": "bytes32"
        },
        {
          "name": "_threshold",
          "type": "uint256"
        },
        {
          "name": "_votingWindow",
          "type": "uint256"
        }
      ],
      "name": "updateBallot",
      "outputs": [
        {
          "name": "",
          "type": "bool"
        }
      ],
      "payable": false,
      "stateMutability": "nonpayable",
      "type": "function"
    },
    {
      "constant": false,
      "inputs": [
        {
          "name": "_method",
          "type": "bytes32"
        }
      ],
      "name": "deleteBallot",
      "outputs": [
        {
          "name": "",
          "type": "bool"
        }
      ],
      "payable": false,
      "stateMutability": "nonpayable",
      "type": "function"
    },
    {
      "constant": false,
      "inputs": [
        {
          "name": "_voter",
          "type": "address"
        },
        {
          "name": "_method",
          "type": "bytes32"
        },
        {
          "name": "_hash",
          "type": "bytes32"
        }
      ],
      "name": "vote",
      "outputs": [
        {
          "name": "",
          "type": "bool"
        },
        {
          "name": "",
          "type": "bool"
        }
      ],
      "payable": false,
      "stateMutability": "nonpayable",
      "type": "function"
    },
    {
      "constant": false,
      "inputs": [],
      "name": "pruneBallots",
      "outputs": [
        {
          "name": "",
          "type": "bool"
        }
      ],
      "payable": false,
      "stateMutability": "nonpayable",
      "type": "function"
    },
    {
      "constant": true,
      "inputs": [
        {
          "name": "_method",
          "type": "bytes32"
        },
        {
          "name": "_hash",
          "type": "bytes32"
        }
      ],
      "name": "votingRoundInfo",
      "outputs": [
        {
          "name": "",
          "type": "uint256"
        }
      ],
      "payable": false,
      "stateMutability": "view",
      "type": "function"
    }
  ],
  "bytecode": "0x60806040526040805190810160405280601181526020017f436861696e706f696e742051756f72756d000000000000000000000000000000815250600390805190602001906200005192919062000501565b503480156200005f57600080fd5b5060405160408062003058833981018060405260408110156200008157600080fd5b810190808051906020019092919080519060200190929190505050336000806101000a81548173ffffffffffffffffffffffffffffffffffffffff021916908373ffffffffffffffffffffffffffffffffffffffff1602179055506000809054906101000a900473ffffffffffffffffffffffffffffffffffffffff1673ffffffffffffffffffffffffffffffffffffffff16600073ffffffffffffffffffffffffffffffffffffffff167f8be0079c531659141344cd1fd0a4f28419497f9722a3daafe3b4186f6b6457e060405160405180910390a362000172336200033f640100000000026401000000009004565b6000600260006101000a81548160ff021916908315150217905550600073ffffffffffffffffffffffffffffffffffffffff168273ffffffffffffffffffffffffffffffffffffffff161415151562000233576040517f08c379a000000000000000000000000000000000000000000000000000000000815260040180806020018281038252601b8152602001807f746f6b656e20616464726573732063616e6e6f7420626520307830000000000081525060200191505060405180910390fd5b81600460006101000a81548173ffffffffffffffffffffffffffffffffffffffff021916908373ffffffffffffffffffffffffffffffffffffffff16021790555081600560006101000a81548173ffffffffffffffffffffffffffffffffffffffff021916908373ffffffffffffffffffffffffffffffffffffffff16021790555080600660006101000a81548173ffffffffffffffffffffffffffffffffffffffff021916908373ffffffffffffffffffffffffffffffffffffffff16021790555080600760006101000a81548173ffffffffffffffffffffffffffffffffffffffff021916908373ffffffffffffffffffffffffffffffffffffffff1602179055505050620005b0565b62000363816001620003a964010000000002620028da179091906401000000009004565b8073ffffffffffffffffffffffffffffffffffffffff167f6719d08c1888103bea251a4ed56406bd0c3e69723c8a1686e017e7bbe159b6f860405160405180910390a250565b600073ffffffffffffffffffffffffffffffffffffffff168173ffffffffffffffffffffffffffffffffffffffff1614151515620003e657600080fd5b6200040182826200046c640100000000026401000000009004565b1515156200040e57600080fd5b60018260000160008373ffffffffffffffffffffffffffffffffffffffff1673ffffffffffffffffffffffffffffffffffffffff16815260200190815260200160002060006101000a81548160ff0219169083151502179055505050565b60008073ffffffffffffffffffffffffffffffffffffffff168273ffffffffffffffffffffffffffffffffffffffff1614151515620004aa57600080fd5b8260000160008373ffffffffffffffffffffffffffffffffffffffff1673ffffffffffffffffffffffffffffffffffffffff16815260200190815260200160002060009054906101000a900460ff16905092915050565b828054600181600116156101000203166002900490600052602060002090601f016020900481019282601f106200054457805160ff191683800117855562000575565b8280016001018555821562000575579182015b828111156200057457825182559160200191906001019062000557565b5b50905062000584919062000588565b5090565b620005ad91905b80821115620005a95760008160009055506001016200058f565b5090565b90565b612a9880620005c06000396000f3fe608060405260043610610112576000357c0100000000000000000000000000000000000000000000000000000000900463ffffffff16806306fdde031461011757806314923d76146101a75780631e903298146102a55780631f1887b4146102fe57806327e3f0d6146103825780633024f536146103e957806335fd7f99146104385780633f4ba83a1461046757806346fbf68e1461047e5780635c975abb146104e75780636ef8d66d14610516578063715018a61461052d57806382dc1ec4146105445780638456cb59146105955780638da5cb5b146105ac5780638f32d59b14610603578063b83a82ac14610632578063cf48cfb7146106ba578063d45d716d1461070d578063f2fde38b1461076d575b600080fd5b34801561012357600080fd5b5061012c6107be565b6040518080602001828103825283818151815260200191508051906020019080838360005b8381101561016c578082015181840152602081019050610151565b50505050905090810190601f1680156101995780820380516001836020036101000a031916815260200191505b509250505060405180910390f35b3480156101b357600080fd5b5061028b600480360360808110156101ca57600080fd5b8101908080359060200190929190803590602001906401000000008111156101f157600080fd5b82018360208201111561020357600080fd5b8035906020019184600183028401116401000000008311171561022557600080fd5b91908080601f016020809104026020016040519081016040528093929190818152602001838380828437600081840152601f19601f820116905080830192505050505050509192919290803590602001909291908035906020019092919050505061085c565b604051808215151515815260200191505060405180910390f35b3480156102b157600080fd5b506102e8600480360360408110156102c857600080fd5b810190808035906020019092919080359060200190929190505050611070565b6040518082815260200191505060405180910390f35b34801561030a57600080fd5b506103376004803603602081101561032157600080fd5b81019080803590602001909291905050506110a5565b6040518087815260200186600181111561034d57fe5b60ff16815260200185815260200184815260200183815260200182151515158152602001965050505050505060405180910390f35b34801561038e57600080fd5b506103cf600480360360608110156103a557600080fd5b810190808035906020019092919080359060200190929190803590602001909291905050506110fb565b604051808215151515815260200191505060405180910390f35b3480156103f557600080fd5b506104226004803603602081101561040c57600080fd5b81019080803590602001909291905050506113ef565b6040518082815260200191505060405180910390f35b34801561044457600080fd5b5061044d611412565b604051808215151515815260200191505060405180910390f35b34801561047357600080fd5b5061047c611708565b005b34801561048a57600080fd5b506104cd600480360360208110156104a157600080fd5b81019080803573ffffffffffffffffffffffffffffffffffffffff1690602001909291905050506117b7565b604051808215151515815260200191505060405180910390f35b3480156104f357600080fd5b506104fc6117d4565b604051808215151515815260200191505060405180910390f35b34801561052257600080fd5b5061052b6117eb565b005b34801561053957600080fd5b506105426117f6565b005b34801561055057600080fd5b506105936004803603602081101561056757600080fd5b81019080803573ffffffffffffffffffffffffffffffffffffffff1690602001909291905050506118c8565b005b3480156105a157600080fd5b506105aa6118e8565b005b3480156105b857600080fd5b506105c1611998565b604051808273ffffffffffffffffffffffffffffffffffffffff1673ffffffffffffffffffffffffffffffffffffffff16815260200191505060405180910390f35b34801561060f57600080fd5b506106186119c1565b604051808215151515815260200191505060405180910390f35b34801561063e57600080fd5b506106956004803603606081101561065557600080fd5b81019080803573ffffffffffffffffffffffffffffffffffffffff1690602001909291908035906020019092919080359060200190929190505050611a18565b6040518083151515158152602001821515151581526020019250505060405180910390f35b3480156106c657600080fd5b506106f3600480360360208110156106dd57600080fd5b8101908080359060200190929190505050611fdd565b604051808215151515815260200191505060405180910390f35b34801561071957600080fd5b506107506004803603604081101561073057600080fd5b810190808035906020019092919080359060200190929190505050612127565b604051808381526020018281526020019250505060405180910390f35b34801561077957600080fd5b506107bc6004803603602081101561079057600080fd5b81019080803573ffffffffffffffffffffffffffffffffffffffff169060200190929190505050612158565b005b60038054600181600116156101000203166002900480601f0160208091040260200160405190810160405280929190818152602001828054600181600116156101000203166002900480156108545780601f1061082957610100808354040283529160200191610854565b820191906000526020600020905b81548152906001019060200180831161083757829003601f168201915b505050505081565b6000600560009054906101000a900473ffffffffffffffffffffffffffffffffffffffff1673ffffffffffffffffffffffffffffffffffffffff163373ffffffffffffffffffffffffffffffffffffffff1614806109075750600760009054906101000a900473ffffffffffffffffffffffffffffffffffffffff1673ffffffffffffffffffffffffffffffffffffffff163373ffffffffffffffffffffffffffffffffffffffff16145b15156109a1576040517f08c379a00000000000000000000000000000000000000000000000000000000081526004018080602001828103825260288152602001807f6d757374206265206f776e6572206f7220616e2061637469766520636f72652081526020017f6f70657261746f7200000000000000000000000000000000000000000000000081525060400191505060405180910390fd5b6008600086815260200190815260200160002060050160009054906101000a900460ff16151515610a60576040517f08c379a00000000000000000000000000000000000000000000000000000000081526004018080602001828103825260268152602001807f6d6574686f642068617320612062616c6c6f742072656769737465726564206181526020017f6c7265616479000000000000000000000000000000000000000000000000000081525060400191505060405180910390fd5b60007f010000000000000000000000000000000000000000000000000000000000000002856000602081101515610a9357fe5b1a7f0100000000000000000000000000000000000000000000000000000000000000027effffffffffffffffffffffffffffffffffffffffffffffffffffffffffffff191614151515610b74576040517f08c379a00000000000000000000000000000000000000000000000000000000081526004018080602001828103825260268152602001807f736d61727420636f6e7472616374206d6574686f64206e616d6520697320726581526020017f717569726564000000000000000000000000000000000000000000000000000081525060400191505060405180910390fd5b600082111515610c12576040517f08c379a00000000000000000000000000000000000000000000000000000000081526004018080602001828103825260248152602001807f766f74696e672077696e646f77206d757374206265206772656174657220746881526020017f616e20300000000000000000000000000000000000000000000000000000000081525060400191505060405180910390fd5b60006040516020018080602001828103825260088152602001807f6d616a6f7269747900000000000000000000000000000000000000000000000081525060200191505060405160208183030381529060405280519060200120856040516020018080602001828103825283818151815260200191508051906020019080838360005b83811015610cb0578082015181840152602081019050610c95565b50505050905090810190601f168015610cdd5780820380516001836020036101000a031916815260200191505b50925050506040516020818303038152906040528051906020012014905060006040516020018080602001828103825260098152602001807f7468726573686f6c64000000000000000000000000000000000000000000000081525060200191505060405160208183030381529060405280519060200120866040516020018080602001828103825283818151815260200191508051906020019080838360005b83811015610d99578082015181840152602081019050610d7e565b50505050905090810190601f168015610dc65780820380516001836020036101000a031916815260200191505b5092505050604051602081830303815290604052805190602001201490508180610ded5750805b1515610ead576040517f08c379a000000000000000000000000000000000000000000000000000000000815260040180806020018281038252604a8152602001807f6d6574686f642074797065206d757374206265206f6e65206f6620746865206681526020017f6f6c6c6f77696e672076616c7565733a203129206d616a6f726974792c20322981526020017f207468726573686f6c640000000000000000000000000000000000000000000081525060600191505060405180910390fd5b8015610f7857600085111515610f77576040517f08c379a00000000000000000000000000000000000000000000000000000000081526004018080602001828103825260488152602001807f7768656e2042616c6c6f7420547970652069732073657420746f20746872657381526020017f686f6c642c20612076616c75652067726561746572207468616e20302069732081526020017f726571756972656400000000000000000000000000000000000000000000000081525060600191505060405180910390fd5b5b60006008600089815260200190815260200160002090508781600001819055508215610fc95760008160010160006101000a81548160ff02191690836001811115610fbf57fe5b0217905550610ff0565b60018160010160006101000a81548160ff02191690836001811115610fea57fe5b02179055505b81610ffc576000610ffe565b855b816002018190555084816003018190555043816004018190555060018160050160006101000a81548160ff021916908315150217905550600a88908060018154018082558091505090600182039060005260206000200160009091929091909150555060019350505050949350505050565b600060096000848152602001908152602001600020600083815260200190815260200160002060030180549050905092915050565b60086020528060005260406000206000915090508060000154908060010160009054906101000a900460ff16908060020154908060030154908060040154908060050160009054906101000a900460ff16905086565b60006111056119c1565b151561111057600080fd5b6008600085815260200190815260200160002060050160009054906101000a900460ff1615156111ce576040517f08c379a00000000000000000000000000000000000000000000000000000000081526004018080602001828103825260378152602001807f62616c6c6f7420686173206e6f74206265656e2072656769737465726564206681526020017f6f722074686520737065636966696564206d6574686f6400000000000000000081525060400191505060405180910390fd5b60008211151561126c576040517f08c379a00000000000000000000000000000000000000000000000000000000081526004018080602001828103825260248152602001807f766f74696e672077696e646f77206d757374206265206772656174657220746881526020017f616e20300000000000000000000000000000000000000000000000000000000081525060400191505060405180910390fd5b60018081111561127857fe5b6008600086815260200190815260200160002060010160009054906101000a900460ff1660018111156112a757fe5b141561137257600083111515611371576040517f08c379a00000000000000000000000000000000000000000000000000000000081526004018080602001828103825260488152602001807f7768656e2042616c6c6f7420547970652069732073657420746f20746872657381526020017f686f6c642c20612076616c75652067726561746572207468616e20302069732081526020017f726571756972656400000000000000000000000000000000000000000000000081525060600191505060405180910390fd5b5b600060086000868152602001908152602001600020905060018081111561139557fe5b6008600087815260200190815260200160002060010160009054906101000a900460ff1660018111156113c457fe5b146113d05760006113d2565b835b816002018190555082816003018190555060019150509392505050565b600a818154811015156113fe57fe5b906000526020600020016000915090505481565b600061141c611998565b73ffffffffffffffffffffffffffffffffffffffff163373ffffffffffffffffffffffffffffffffffffffff1614806115495750600660009054906101000a900473ffffffffffffffffffffffffffffffffffffffff1673ffffffffffffffffffffffffffffffffffffffff16639273cce8336040518263ffffffff167c0100000000000000000000000000000000000000000000000000000000028152600401808273ffffffffffffffffffffffffffffffffffffffff1673ffffffffffffffffffffffffffffffffffffffff168152602001915050602060405180830381600087803b15801561150d57600080fd5b505af1158015611521573d6000803e3d6000fd5b505050506040513d602081101561153757600080fd5b81019080805190602001909291905050505b15156115e3576040517f08c379a00000000000000000000000000000000000000000000000000000000081526004018080602001828103825260288152602001807f6d757374206265206f776e6572206f7220616e2061637469766520636f72652081526020017f6f70657261746f7200000000000000000000000000000000000000000000000081525060400191505060405180910390fd5b60008090505b600a8054905081101561170057600060086000600a8481548110151561160b57fe5b90600052602060002001548152602001908152602001600020905060008090505b81600601805490508110156116f157600060096000600a8681548110151561165057fe5b906000526020600020015481526020019081526020016000206000846006018481548110151561167c57fe5b90600052602060002001548152602001908152602001600020905080600101544311156116e3576116e1600a858154811015156116b557fe5b906000526020600020015484600601848154811015156116d157fe5b9060005260206000200154612177565b505b50808060010191505061162c565b505080806001019150506115e9565b506001905090565b611711336117b7565b151561171c57600080fd5b600260009054906101000a900460ff16151561173757600080fd5b6000600260006101000a81548160ff0219169083151502179055507f5db9ee0a495bf2e6ff9c91a7834c1ba4fdd244a5e8aa4e537bd38aeae4b073aa33604051808273ffffffffffffffffffffffffffffffffffffffff1673ffffffffffffffffffffffffffffffffffffffff16815260200191505060405180910390a1565b60006117cd8260016121ca90919063ffffffff16565b9050919050565b6000600260009054906101000a900460ff16905090565b6117f43361225e565b565b6117fe6119c1565b151561180957600080fd5b600073ffffffffffffffffffffffffffffffffffffffff166000809054906101000a900473ffffffffffffffffffffffffffffffffffffffff1673ffffffffffffffffffffffffffffffffffffffff167f8be0079c531659141344cd1fd0a4f28419497f9722a3daafe3b4186f6b6457e060405160405180910390a360008060006101000a81548173ffffffffffffffffffffffffffffffffffffffff021916908373ffffffffffffffffffffffffffffffffffffffff160217905550565b6118d1336117b7565b15156118dc57600080fd5b6118e5816122b8565b50565b6118f1336117b7565b15156118fc57600080fd5b600260009054906101000a900460ff1615151561191857600080fd5b6001600260006101000a81548160ff0219169083151502179055507f62e78cea01bee320cd4e420270b5ea74000d11b0c9f74754ebdbfc544b05a25833604051808273ffffffffffffffffffffffffffffffffffffffff1673ffffffffffffffffffffffffffffffffffffffff16815260200191505060405180910390a1565b60008060009054906101000a900473ffffffffffffffffffffffffffffffffffffffff16905090565b60008060009054906101000a900473ffffffffffffffffffffffffffffffffffffffff1673ffffffffffffffffffffffffffffffffffffffff163373ffffffffffffffffffffffffffffffffffffffff1614905090565b600080600560009054906101000a900473ffffffffffffffffffffffffffffffffffffffff1673ffffffffffffffffffffffffffffffffffffffff163373ffffffffffffffffffffffffffffffffffffffff161480611ac45750600760009054906101000a900473ffffffffffffffffffffffffffffffffffffffff1673ffffffffffffffffffffffffffffffffffffffff163373ffffffffffffffffffffffffffffffffffffffff16145b1515611b5e576040517f08c379a00000000000000000000000000000000000000000000000000000000081526004018080602001828103825260288152602001807f6d757374206265206f776e6572206f7220616e2061637469766520636f72652081526020017f6f70657261746f7200000000000000000000000000000000000000000000000081525060400191505060405180910390fd5b6008600085815260200190815260200160002060050160009054906101000a900460ff161515611c1c576040517f08c379a00000000000000000000000000000000000000000000000000000000081526004018080602001828103825260378152602001807f62616c6c6f7420686173206e6f74206265656e2072656769737465726564206681526020017f6f722074686520737065636966696564206d6574686f6400000000000000000081525060400191505060405180910390fd5b60006009600086815260200190815260200160002060008581526020019081526020016000209050600081600001541115611df557806001015443111515611df057600015158160020160008873ffffffffffffffffffffffffffffffffffffffff1673ffffffffffffffffffffffffffffffffffffffff16815260200190815260200160002060009054906101000a900460ff1615151415611d68578060030160408051908101604052808873ffffffffffffffffffffffffffffffffffffffff168152602001438152509080600181540180825580915050906001820390600052602060002090600202016000909192909190915060008201518160000160006101000a81548173ffffffffffffffffffffffffffffffffffffffff021916908373ffffffffffffffffffffffffffffffffffffffff160217905550602082015181600101555050505b7f05987a2b626fa210628eb3170312f920ed716f57961b6865031faefe37ba86d7868686438560010154604051808673ffffffffffffffffffffffffffffffffffffffff1673ffffffffffffffffffffffffffffffffffffffff1681526020018581526020018481526020018381526020018281526020019550505050505060405180910390a15b611fc6565b60086000868152602001908152602001600020600601849080600181540180825580915050906001820390600052602060002001600090919290919091505550438160000181905550611e6760086000878152602001908152602001600020600301544361231290919063ffffffff16565b81600101819055504360086000878152602001908152602001600020600301540181600101819055508060030160408051908101604052808873ffffffffffffffffffffffffffffffffffffffff168152602001438152509080600181540180825580915050906001820390600052602060002090600202016000909192909190915060008201518160000160006101000a81548173ffffffffffffffffffffffffffffffffffffffff021916908373ffffffffffffffffffffffffffffffffffffffff160217905550602082015181600101555050507f05987a2b626fa210628eb3170312f920ed716f57961b6865031faefe37ba86d7868686438560010154604051808673ffffffffffffffffffffffffffffffffffffffff1673ffffffffffffffffffffffffffffffffffffffff1681526020018581526020018481526020018381526020018281526020019550505050505060405180910390a15b611fd08585612333565b9250925050935093915050565b6000611fe76119c1565b1515611ff257600080fd5b6008600083815260200190815260200160002060050160009054906101000a900460ff1615156120b0576040517f08c379a00000000000000000000000000000000000000000000000000000000081526004018080602001828103825260378152602001807f62616c6c6f7420686173206e6f74206265656e2072656769737465726564206681526020017f6f722074686520737065636966696564206d6574686f6400000000000000000081525060400191505060405180910390fd5b600860008381526020019081526020016000206000808201600090556001820160006101000a81549060ff02191690556002820160009055600382016000905560048201600090556005820160006101000a81549060ff021916905560068201600061211c91906129b4565b505060019050919050565b6009602052816000526040600020602052806000526040600020600091509150508060000154908060010154905082565b6121606119c1565b151561216b57600080fd5b61217481612731565b50565b600060096000848152602001908152602001600020600083815260200190815260200160002060008082016000905560018201600090556003820160006121be91906129d5565b50506001905092915050565b60008073ffffffffffffffffffffffffffffffffffffffff168273ffffffffffffffffffffffffffffffffffffffff161415151561220757600080fd5b8260000160008373ffffffffffffffffffffffffffffffffffffffff1673ffffffffffffffffffffffffffffffffffffffff16815260200190815260200160002060009054906101000a900460ff16905092915050565b61227281600161282b90919063ffffffff16565b8073ffffffffffffffffffffffffffffffffffffffff167fcd265ebaf09df2871cc7bd4133404a235ba12eff2041bb89d9c714a2621c7c7e60405160405180910390a250565b6122cc8160016128da90919063ffffffff16565b8073ffffffffffffffffffffffffffffffffffffffff167f6719d08c1888103bea251a4ed56406bd0c3e69723c8a1686e017e7bbe159b6f860405160405180910390a250565b600080828401905083811015151561232957600080fd5b8091505092915050565b6000806000600960008681526020019081526020016000206000858152602001908152602001600020905060018081111561236a57fe5b6008600087815260200190815260200160002060010160009054906101000a900460ff16600181111561239957fe5b14156124e8576000600860008781526020019081526020016000206002015482600301805490501015905060008260010154431190506000808460030180549050905083806123e55750825b1561246d57600191506123f88989612177565b151561246c576040517f08c379a000000000000000000000000000000000000000000000000000000000815260040180806020018281038252601c8152602001807f6661696c656420746f207072756e6520766f74696e6720726f756e640000000081525060200191505060405180910390fd5b5b7f47ecfadce57ceda0959a4b2fb2e87453afbaa6275de4132acbfd06adf52197a589898684878760405180878152602001868152602001851515151581526020018481526020018315151515815260200182151515158152602001965050505050505060405180910390a1838396509650505050505061272a565b60008082600101544311159050600080846003018054905090506000600660009054906101000a900473ffffffffffffffffffffffffffffffffffffffff1673ffffffffffffffffffffffffffffffffffffffff1663f17308746040518163ffffffff167c010000000000000000000000000000000000000000000000000000000002815260040160206040518083038186803b15801561258857600080fd5b505afa15801561259c573d6000803e3d6000fd5b505050506040513d60208110156125b257600080fd5b8101908080519060200190929190505050905060018114156125d957600182149450612621565b60028114156125ed57600282149450612620565b6000612616600161260860028561298a90919063ffffffff16565b61231290919063ffffffff16565b9050808310159550505b5b848061262a5750835b156126b2576001925061263d8a8a612177565b15156126b1576040517f08c379a000000000000000000000000000000000000000000000000000000000815260040180806020018281038252601c8152602001807f6661696c656420746f207072756e6520766f74696e6720726f756e640000000081525060200191505060405180910390fd5b5b7f47ecfadce57ceda0959a4b2fb2e87453afbaa6275de4132acbfd06adf52197a58a8a8785888860405180878152602001868152602001851515151581526020018481526020018315151515815260200182151515158152602001965050505050505060405180910390a18484975097505050505050505b9250929050565b600073ffffffffffffffffffffffffffffffffffffffff168173ffffffffffffffffffffffffffffffffffffffff161415151561276d57600080fd5b8073ffffffffffffffffffffffffffffffffffffffff166000809054906101000a900473ffffffffffffffffffffffffffffffffffffffff1673ffffffffffffffffffffffffffffffffffffffff167f8be0079c531659141344cd1fd0a4f28419497f9722a3daafe3b4186f6b6457e060405160405180910390a3806000806101000a81548173ffffffffffffffffffffffffffffffffffffffff021916908373ffffffffffffffffffffffffffffffffffffffff16021790555050565b600073ffffffffffffffffffffffffffffffffffffffff168173ffffffffffffffffffffffffffffffffffffffff161415151561286757600080fd5b61287182826121ca565b151561287c57600080fd5b60008260000160008373ffffffffffffffffffffffffffffffffffffffff1673ffffffffffffffffffffffffffffffffffffffff16815260200190815260200160002060006101000a81548160ff0219169083151502179055505050565b600073ffffffffffffffffffffffffffffffffffffffff168173ffffffffffffffffffffffffffffffffffffffff161415151561291657600080fd5b61292082826121ca565b15151561292c57600080fd5b60018260000160008373ffffffffffffffffffffffffffffffffffffffff1673ffffffffffffffffffffffffffffffffffffffff16815260200190815260200160002060006101000a81548160ff0219169083151502179055505050565b6000808211151561299a57600080fd5b600082848115156129a757fe5b0490508091505092915050565b50805460008255906000526020600020908101906129d291906129f9565b50565b50805460008255600202906000526020600020908101906129f69190612a1e565b50565b612a1b91905b80821115612a175760008160009055506001016129ff565b5090565b90565b612a6991905b80821115612a6557600080820160006101000a81549073ffffffffffffffffffffffffffffffffffffffff0219169055600182016000905550600201612a24565b5090565b9056fea165627a7a72305820a19367aa7c4c9eeb4acd21668b1b9c37899ce5000e18f429e2fc98c827a76d6f0029",
  "source": "pragma solidity >=0.4.22 <0.6.0;\n\nimport \"openzeppelin-solidity/contracts/ownership/Ownable.sol\";\nimport \"openzeppelin-solidity/contracts/lifecycle/Pausable.sol\";\n\nimport \"./ChainpointRegistry.sol\";\nimport \"./lib/ChainpointRegistryInterface.sol\";\nimport \"./lib/SafeMath.sol\";\nimport \"./lib/ERC20.sol\";\n\ncontract ChainpointQuorum is Ownable, Pausable {\n    using SafeMath for uint256;\n  \n    /// @title TNT Token Contract\n    string public name = \"Chainpoint Quorum\";\n    \n    /// @title TNT Token Contract\n    /// @notice Standard ERC20 Token\n    ERC20 private token;\n    address tokenAddress;\n    \n    /// @title Chainpoint Registry\n    /// @notice Chainpoint Registry Contract\n    ChainpointRegistryInterface private chainpointRegistry;\n    address chainpointRegistryAddress;\n    \n    ///\n    /// MAPPINGS\n    ///\n    /// @title Registered Ballots\n    /// @notice Contains all registered ballots\n    /// @dev Key is hash representation of the contract address + method name\n    /// @dev Value is struct representing Ballot\n    mapping (bytes32 => Ballot) public registeredBallots;\n    \n    /// @title Methods Voting Rounds\n    /// @notice Contains all of the Voting Rounds that have been triggered as a result of invoking vote() with a method hash and a unique arguments hash\n    /// @dev Key is hash representation of the method name\n    /// @dev Value is struct representing VotingRound\n    mapping (bytes32 => mapping(bytes32 => VotingRound)) public methodVotingRounds;\n    \n    ///\n    /// ARRAYS\n    ///\n    /// @title List of Registered Ballots\n    /// @notice Convenient list of registered ballots for iteration\n    bytes32[] public registeredBallotsArr;\n    \n    ///\n    /// TYPES \n    ///\n    /// @title BallotType\n    /// @notice BallotType is an enum that only supports two values: majority or threshold\n    enum BallotType {majority, threshold}\n    \n    /// @title Ballot\n    /// @notice Ballot struct which contains all relevant ballot parameters\n    /// @dev method name of the method that needs Quorum capability\n    /// @dev ballotType Enum (majority|threshold)\n    /// @dev votingWindow Number of blocks that the voting round is open for\n    /// @dev startBlock Block height in which voting window begins\n    struct Ballot {\n        bytes32 methodHash;\n        BallotType ballotType;\n        uint256 threshold;\n        uint256 votingWindow;\n        uint256 startBlock;\n        bool isActive;\n        bytes32[] votingRoundHashes;\n    }\n    \n    struct VotingRound {\n        uint256 startBlock;\n        uint256 endBlock;\n        mapping(address => bool) voters;\n        CapturedVote[] votes;\n    }\n    \n    /// @title Vote\n    /// @notice Ballot struct which contains all relevant ballot parameters\n    /// @dev voter Address of the party submitting a vote\n    /// @dev block Block height at which the vote was registered\n    struct CapturedVote {\n        address voter;\n        uint256 blockHeight;\n    }\n    \n    ///\n    /// MODIFIERS\n    ///\n    /// @notice only Staked Core Operators or Owner can call, otherwise throw\n    modifier onlyOwnerOrCoreOperator() {\n        require(msg.sender == owner() || chainpointRegistry.isHealthyCore(msg.sender), \"must be owner or an active core operator\");\n        _;\n    }\n    \n    /// @notice only Chainpoint Registory or Token contracts can call, otherwise throw\n    modifier onlyTokenOrRegistry() {\n        require(msg.sender == tokenAddress || msg.sender == chainpointRegistryAddress, \"must be owner or an active core operator\");\n        _;\n    }\n    \n    constructor (address _token, address _registry) public {\n        require(_token != address(0), \"token address cannot be 0x0\");\n        token = ERC20(_token);\n        tokenAddress = _token;\n        chainpointRegistry = ChainpointRegistryInterface(_registry);\n        chainpointRegistryAddress = _registry;\n    }\n    \n    ///\n    /// EVENTS \n    ///\n    /// @notice emitted when a Voting Round is closed\n    /// @param _voter address of the voter\n    /// @param _method Hash of the smart contract method\n    /// @param _hash Hash of the function arguments being voted on\n    /// @param _blockHeight did vote pass as a result of consensus being achieved\n    event Voted(\n        address _voter,\n        bytes32 _method,\n        bytes32 _hash,\n        uint256 _blockHeight,\n        uint256 _votingRoundClosesAt\n    );\n\n    ///\n    /// @notice emitted when a Voting Round is closed\n    /// @param _method Hash of the smart contract method\n    /// @param _hash Hash of the function arguments being voted on\n    /// @param _consensus did vote pass as a result of consensus being achieved\n    /// @param _votes number of votes for particular method + hash combo\n    /// @param _expired did the Voting Round expire\n    /// @param _pruned did the Voting Round get pruned from storage\n    event VotingRoundClosed(\n        bytes32 _method,\n        bytes32 _hash,\n        bool _consensus,\n        uint256 _votes,\n        bool _expired,\n        bool _pruned\n    );\n    \n    ///\n    /// Register Ballot for method\n    ///\n    /// @notice Creates a Ballot for a smart contract method\n    /// @param _method Name of the smart contract method\n    /// @param _ballotType Enum (majority|threshold)\n    /// @param _threshold Min. number of votes required for consesnsus\n    /// @param _votingWindow Duration of voting windows expressed in number of blocks\n    /// @return bool\n    /// @dev msg.sender is expected to be the Core Operator\n    /// @dev owner has ability to pause this operation indirectly\n    function registerBallot(bytes32 _method, string memory _ballotType, uint256 _threshold, uint256 _votingWindow) public onlyTokenOrRegistry returns (bool) {\n        require(!registeredBallots[_method].isActive, 'method has a ballot registered already');\n        require(_method[0] != 0, \"smart contract method name is required\");\n        require(_votingWindow > 0, \"voting window must be greater than 0\");\n        \n        bool majorityBallot = keccak256(abi.encode(_ballotType)) == keccak256(abi.encode(\"majority\"));\n        bool thresholdBallot = keccak256(abi.encode(_ballotType)) == keccak256(abi.encode(\"threshold\"));\n        \n        require(majorityBallot || thresholdBallot, \"method type must be one of the following values: 1) majority, 2) threshold\");\n        \n        if(thresholdBallot) {\n            require(_threshold > 0, \"when Ballot Type is set to threshold, a value greater than 0 is required\");\n        }\n        \n        Ballot storage b = registeredBallots[_method];\n        \n        b.methodHash = _method;\n        if (majorityBallot) {\n            b.ballotType = BallotType.majority;\n        } else {\n            b.ballotType = BallotType.threshold;\n        }\n        \n        b.threshold = (thresholdBallot) ? _threshold : 0;\n        b.votingWindow = _votingWindow;\n        b.startBlock = block.number;\n        b.isActive = true;\n        \n        registeredBallotsArr.push(_method);\n        \n        return true;\n    }\n  \n    ///\n    /// Update Ballot for specified method\n    ///\n    /// @notice Updates a Ballot for a smart contract method\n    /// @param _method Name of the smart contract method\n    /// @param _threshold Min. number of votes required for consesnsus\n    /// @param _votingWindow Duration of voting windows expressed in number of blocks\n    /// @return bool\n    /// @dev msg.sender is expected to be the Core Operator\n    /// @dev owner has ability to pause this operation indirectly\n    function updateBallot(bytes32 _method, uint256 _threshold, uint256 _votingWindow) public onlyOwner returns (bool) {\n        require(registeredBallots[_method].isActive, 'ballot has not been registered for the specified method');\n        require(_votingWindow > 0, \"voting window must be greater than 0\");\n        if (registeredBallots[_method].ballotType == BallotType.threshold) {\n            require(_threshold > 0, \"when Ballot Type is set to threshold, a value greater than 0 is required\");\n        }\n        \n        Ballot storage b = registeredBallots[_method];\n        \n        b.threshold = (registeredBallots[_method].ballotType == BallotType.threshold) ? _threshold : 0;\n        b.votingWindow = _votingWindow;\n        \n        return true;\n    }\n\n    ///\n    /// Delete Ballot for specified method\n    ///\n    /// @notice Deletes a Ballot for a smart contract method\n    /// @param _method Name of the smart contract method\n    /// @return bool\n    /// @dev msg.sender is expected to be the Core Operator\n    /// @dev owner has ability to pause this operation indirectly\n    function deleteBallot(bytes32 _method) public onlyOwner returns (bool) {\n        require(registeredBallots[_method].isActive, 'ballot has not been registered for the specified method');\n        \n        delete registeredBallots[_method];\n        \n        return true;\n    }\n    \n    ///\n    /// Register a Vote\n    ///\n    /// @notice Submits a vote to be included in a voting round for the smart contract method specified\n    /// @param _method Name of the smart contract method\n    /// @param _hash Hash of the arguments the Core operator voting wants to invoke the specified method with\n    /// @return bool\n    /// @dev msg.sender is expected to be the Core Operator\n    /// @dev owner has ability to pause this operation indirectly\n    function vote(address _voter, bytes32 _method, bytes32 _hash) public onlyTokenOrRegistry returns (bool, bool) {\n        require(registeredBallots[_method].isActive, 'ballot has not been registered for the specified method');\n        \n        VotingRound storage vr = methodVotingRounds[_method][_hash];\n        \n        // Check Voting Round exists based on the value of _hash, if it doesn't create a VotingRound and register a vote\n        if (vr.startBlock > 0) {\n            // Voting Round exists, check to see if round is still open; if so, register the vote\n            if (block.number <= vr.endBlock) {\n                // If Voter has already votes, do not register a new vote\n                if (vr.voters[_voter] == false) {\n                    vr.votes.push(CapturedVote(_voter, block.number));\n                }\n                \n                emit Voted(_voter, _method, _hash, block.number, vr.endBlock);\n            }\n        } else {\n            // Voting Round does NOT exist, create a Voting Round and register a vote\n            registeredBallots[_method].votingRoundHashes.push(_hash);\n            vr.startBlock = block.number;\n            vr.endBlock = block.number.add(registeredBallots[_method].votingWindow);\n            vr.endBlock = registeredBallots[_method].votingWindow + block.number;\n            vr.votes.push(CapturedVote(_voter, block.number));\n            \n            emit Voted(_voter, _method, _hash, block.number, vr.endBlock);\n        }\n        return _hasConsensus(_method, _hash);\n    }\n    \n    ///\n    /// Prune Ballots\n    ///\n    /// @notice This method must be explicitly invoked to prune Voting Rounds that have expired (aka timeout) and no longer to be persisted within the contract\n    /// @return bool\n    /// @dev msg.sender is expected to be the Core Operator or Owner, and can be called at the discretion of any authorized party\n    /// @dev owner has ability to pause this operation indirectly\n    function pruneBallots() public onlyOwnerOrCoreOperator returns (bool) {\n        for (uint i=0; i < registeredBallotsArr.length; i++) {\n            Ballot storage b = registeredBallots[registeredBallotsArr[i]];\n            \n            for (uint j=0; j < b.votingRoundHashes.length; j++) {\n                VotingRound storage vr = methodVotingRounds[registeredBallotsArr[i]][b.votingRoundHashes[j]];\n                \n                // Check to see if current block height > VotingRound.endBlock, if so, go ahead and prune the Voting Rounds for the registered ballot\n                if (block.number > vr.endBlock) {\n                    _pruneBallot(registeredBallotsArr[i], b.votingRoundHashes[j]);\n                }\n            }\n        }\n        \n        return true;\n    }\n    \n    ///\n    /// Has Voting Round for particular method reached consensus?\n    ///\n    /// @notice This method will determine if a Voting Round has successfully resolved with a consensus amongst Core Operators\n    /// @return (bool consensus, bool votingRoundExpired)\n    /// @dev msg.sender is expected to be the Core Operator\n    /// @dev owner has ability to pause this operation indirectly\n    function _hasConsensus(bytes32 _method, bytes32 _hash) private returns (bool _consensus, bool _votingRoundExpired) {\n        VotingRound storage vr = methodVotingRounds[_method][_hash];\n        // Check based on BallotType\n        if (registeredBallots[_method].ballotType == BallotType.threshold) {\n            bool consensus = (vr.votes.length >= registeredBallots[_method].threshold);\n            bool votingRoundExpired = (block.number > vr.endBlock);\n            bool votingRoundPruned;\n            uint256 votes = vr.votes.length;\n            \n            if (consensus || votingRoundExpired) {\n                votingRoundPruned = true;\n                require(_pruneBallot(_method, _hash), \"failed to prune voting round\"); \n            }\n            emit VotingRoundClosed(_method, _hash, consensus, votes, votingRoundExpired, votingRoundPruned);\n            \n            return (consensus, votingRoundExpired);\n        } else { // BallotType == majority\n            bool consensus;\n            bool votingRoundExpired = (block.number <= vr.endBlock);\n            bool votingRoundPruned;\n            uint256 votes = vr.votes.length;\n            uint256 numOfCores = chainpointRegistry.getCoreCount();\n             \n            // Calculate consensus for \"majority\" Electoral System\n            if (numOfCores == 1) {\n                consensus = (votes == 1);\n            } else if (numOfCores == 2) {\n                consensus = (votes == 2);\n            } else {\n                uint256 majority = numOfCores.div(2).add(1);\n                consensus = (votes >= majority);\n            }\n            \n            if (consensus || votingRoundExpired) {\n                votingRoundPruned = true;\n                require(_pruneBallot(_method, _hash), \"failed to prune voting round\"); \n            }\n            \n            emit VotingRoundClosed(_method, _hash, consensus, votes, votingRoundExpired, votingRoundPruned);\n            \n            return (consensus, votingRoundExpired);\n        } // ***END {else}\n    }\n    \n    ///\n    /// Prune Ballot\n    ///\n    /// @notice Will prune Voting Rounds for the provided method and hash vote\n    /// @param _method Name of the smart contract method\n    /// @param _hash Hash of the arguments the Core operator voting wants to invoke the specified method with\n    /// @return bool\n    /// @dev msg.sender is expected to be the Core Operator\n    /// @dev owner has ability to pause this operation indirectly\n    function _pruneBallot(bytes32 _method, bytes32 _hash) private returns (bool) {\n        delete methodVotingRounds[_method][_hash];\n        \n        return true;\n    }\n    \n    function votingRoundInfo(bytes32 _method, bytes32 _hash) public view returns(uint256) {\n        return methodVotingRounds[_method][_hash].votes.length;\n    }\n}",
  "sourcePath": "/Users/michaeliglesias/zDevelopment/Tierion/Hydra/node-registration-research/v1/contracts/ChainpointQuorum.sol",
  "compiler": {
    "name": "solc",
    "version": "0.5.0+commit.1d4f565a.Emscripten.clang"
  },
  "schemaVersion": "3.0.1",
  "updatedAt": "2019-03-12T04:00:53.172Z",
  "devdoc": {
    "methods": {
      "deleteBallot(bytes32)": {
        "details": "msg.sender is expected to be the Core Operatorowner has ability to pause this operation indirectly",
        "params": {
          "_method": "Name of the smart contract method"
        },
        "return": "bool"
      },
      "isOwner()": {
        "return": "true if `msg.sender` is the owner of the contract."
      },
      "owner()": {
        "return": "the address of the owner."
      },
      "pause()": {
        "details": "called by the owner to pause, triggers stopped state"
      },
      "paused()": {
        "return": "true if the contract is paused, false otherwise."
      },
      "pruneBallots()": {
        "details": "msg.sender is expected to be the Core Operator or Owner, and can be called at the discretion of any authorized partyowner has ability to pause this operation indirectly",
        "return": "bool"
      },
      "registerBallot(bytes32,string,uint256,uint256)": {
        "details": "msg.sender is expected to be the Core Operatorowner has ability to pause this operation indirectly",
        "params": {
          "_ballotType": "Enum (majority|threshold)",
          "_method": "Name of the smart contract method",
          "_threshold": "Min. number of votes required for consesnsus",
          "_votingWindow": "Duration of voting windows expressed in number of blocks"
        },
        "return": "bool"
      },
      "renounceOwnership()": {
        "details": "Allows the current owner to relinquish control of the contract."
      },
      "transferOwnership(address)": {
        "details": "Allows the current owner to transfer control of the contract to a newOwner.",
        "params": {
          "newOwner": "The address to transfer ownership to."
        }
      },
      "unpause()": {
        "details": "called by the owner to unpause, returns to normal state"
      },
      "updateBallot(bytes32,uint256,uint256)": {
        "details": "msg.sender is expected to be the Core Operatorowner has ability to pause this operation indirectly",
        "params": {
          "_method": "Name of the smart contract method",
          "_threshold": "Min. number of votes required for consesnsus",
          "_votingWindow": "Duration of voting windows expressed in number of blocks"
        },
        "return": "bool"
      },
      "vote(address,bytes32,bytes32)": {
        "details": "msg.sender is expected to be the Core Operatorowner has ability to pause this operation indirectly",
        "params": {
          "_hash": "Hash of the arguments the Core operator voting wants to invoke the specified method with",
          "_method": "Name of the smart contract method"
        },
        "return": "bool"
      }
    }
  },
  "userdoc": {
    "methods": {
      "deleteBallot(bytes32)": {
        "notice": " Delete Ballot for specified method Deletes a Ballot for a smart contract method"
      },
      "pruneBallots()": {
        "notice": " Prune Ballots This method must be explicitly invoked to prune Voting Rounds that have expired (aka timeout) and no longer to be persisted within the contract"
      },
      "registerBallot(bytes32,string,uint256,uint256)": {
        "notice": " Register Ballot for method Creates a Ballot for a smart contract method"
      },
      "renounceOwnership()": {
        "notice": "Renouncing to ownership will leave the contract without an owner. It will not be possible to call the functions with the `onlyOwner` modifier anymore."
      },
      "updateBallot(bytes32,uint256,uint256)": {
        "notice": " Update Ballot for specified method Updates a Ballot for a smart contract method"
      },
      "vote(address,bytes32,bytes32)": {
        "notice": " Register a Vote Submits a vote to be included in a voting round for the smart contract method specified"
      }
    }
  }
}