{
  "contractName": "TierionNetworkToken",
  "abi": [
    {
      "constant": true,
      "inputs": [],
      "name": "name",
      "outputs": [
        {
          "name": "",
          "type": "string"
        }
      ],
      "payable": false,
      "stateMutability": "view",
      "type": "function",
      "signature": "0x06fdde03"
    },
    {
      "constant": true,
      "inputs": [],
      "name": "totalSupply",
      "outputs": [
        {
          "name": "",
          "type": "uint256"
        }
      ],
      "payable": false,
      "stateMutability": "view",
      "type": "function",
      "signature": "0x18160ddd"
    },
    {
      "constant": true,
      "inputs": [],
      "name": "INITIAL_SUPPLY",
      "outputs": [
        {
          "name": "",
          "type": "uint256"
        }
      ],
      "payable": false,
      "stateMutability": "view",
      "type": "function",
      "signature": "0x2ff2e9dc"
    },
    {
      "constant": true,
      "inputs": [],
      "name": "decimals",
      "outputs": [
        {
          "name": "",
          "type": "uint8"
        }
      ],
      "payable": false,
      "stateMutability": "view",
      "type": "function",
      "signature": "0x313ce567"
    },
    {
      "constant": false,
      "inputs": [],
      "name": "unpause",
      "outputs": [],
      "payable": false,
      "stateMutability": "nonpayable",
      "type": "function",
      "signature": "0x3f4ba83a"
    },
    {
      "constant": true,
      "inputs": [
        {
          "name": "account",
          "type": "address"
        }
      ],
      "name": "isPauser",
      "outputs": [
        {
          "name": "",
          "type": "bool"
        }
      ],
      "payable": false,
      "stateMutability": "view",
      "type": "function",
      "signature": "0x46fbf68e"
    },
    {
      "constant": true,
      "inputs": [],
      "name": "coreLastMintedAtBlock",
      "outputs": [
        {
          "name": "",
          "type": "uint256"
        }
      ],
      "payable": false,
      "stateMutability": "view",
      "type": "function",
      "signature": "0x4c5f25dd"
    },
    {
      "constant": true,
      "inputs": [],
      "name": "mintAmount",
      "outputs": [
        {
          "name": "",
          "type": "uint256"
        }
      ],
      "payable": false,
      "stateMutability": "view",
      "type": "function",
      "signature": "0x5a2bcc18"
    },
    {
      "constant": true,
      "inputs": [],
      "name": "nodeLastMintedAtBlock",
      "outputs": [
        {
          "name": "",
          "type": "uint256"
        }
      ],
      "payable": false,
      "stateMutability": "view",
      "type": "function",
      "signature": "0x5a8ef28b"
    },
    {
      "constant": true,
      "inputs": [
        {
          "name": "",
          "type": "address"
        },
        {
          "name": "",
          "type": "address"
        }
      ],
      "name": "allowed",
      "outputs": [
        {
          "name": "",
          "type": "uint256"
        }
      ],
      "payable": false,
      "stateMutability": "view",
      "type": "function",
      "signature": "0x5c658165"
    },
    {
      "constant": true,
      "inputs": [],
      "name": "paused",
      "outputs": [
        {
          "name": "",
          "type": "bool"
        }
      ],
      "payable": false,
      "stateMutability": "view",
      "type": "function",
      "signature": "0x5c975abb"
    },
    {
      "constant": false,
      "inputs": [],
      "name": "renouncePauser",
      "outputs": [],
      "payable": false,
      "stateMutability": "nonpayable",
      "type": "function",
      "signature": "0x6ef8d66d"
    },
    {
      "constant": true,
      "inputs": [
        {
          "name": "_owner",
          "type": "address"
        }
      ],
      "name": "balanceOf",
      "outputs": [
        {
          "name": "balance",
          "type": "uint256"
        }
      ],
      "payable": false,
      "stateMutability": "view",
      "type": "function",
      "signature": "0x70a08231"
    },
    {
      "constant": false,
      "inputs": [],
      "name": "renounceOwnership",
      "outputs": [],
      "payable": false,
      "stateMutability": "nonpayable",
      "type": "function",
      "signature": "0x715018a6"
    },
    {
      "constant": false,
      "inputs": [
        {
          "name": "account",
          "type": "address"
        }
      ],
      "name": "addPauser",
      "outputs": [],
      "payable": false,
      "stateMutability": "nonpayable",
      "type": "function",
      "signature": "0x82dc1ec4"
    },
    {
      "constant": false,
      "inputs": [],
      "name": "pause",
      "outputs": [],
      "payable": false,
      "stateMutability": "nonpayable",
      "type": "function",
      "signature": "0x8456cb59"
    },
    {
      "constant": true,
      "inputs": [],
      "name": "owner",
      "outputs": [
        {
          "name": "",
          "type": "address"
        }
      ],
      "payable": false,
      "stateMutability": "view",
      "type": "function",
      "signature": "0x8da5cb5b"
    },
    {
      "constant": true,
      "inputs": [],
      "name": "isOwner",
      "outputs": [
        {
          "name": "",
          "type": "bool"
        }
      ],
      "payable": false,
      "stateMutability": "view",
      "type": "function",
      "signature": "0x8f32d59b"
    },
    {
      "constant": true,
      "inputs": [],
      "name": "symbol",
      "outputs": [
        {
          "name": "",
          "type": "string"
        }
      ],
      "payable": false,
      "stateMutability": "view",
      "type": "function",
      "signature": "0x95d89b41"
    },
    {
      "constant": true,
      "inputs": [],
      "name": "mintingInterval",
      "outputs": [
        {
          "name": "",
          "type": "uint256"
        }
      ],
      "payable": false,
      "stateMutability": "view",
      "type": "function",
      "signature": "0xa3059ef0"
    },
    {
      "constant": true,
      "inputs": [],
      "name": "chainpointRegistry",
      "outputs": [
        {
          "name": "",
          "type": "address"
        }
      ],
      "payable": false,
      "stateMutability": "view",
      "type": "function",
      "signature": "0xba60ad97"
    },
    {
      "constant": true,
      "inputs": [
        {
          "name": "_owner",
          "type": "address"
        },
        {
          "name": "_spender",
          "type": "address"
        }
      ],
      "name": "allowance",
      "outputs": [
        {
          "name": "remaining",
          "type": "uint256"
        }
      ],
      "payable": false,
      "stateMutability": "view",
      "type": "function",
      "signature": "0xdd62ed3e"
    },
    {
      "constant": false,
      "inputs": [
        {
          "name": "newOwner",
          "type": "address"
        }
      ],
      "name": "transferOwnership",
      "outputs": [],
      "payable": false,
      "stateMutability": "nonpayable",
      "type": "function",
      "signature": "0xf2fde38b"
    },
    {
      "inputs": [],
      "payable": false,
      "stateMutability": "nonpayable",
      "type": "constructor",
      "signature": "constructor"
    },
    {
      "anonymous": false,
      "inputs": [
        {
          "indexed": false,
          "name": "_nodes",
          "type": "address[]"
        },
        {
          "indexed": false,
          "name": "_mintAmount",
          "type": "uint256"
        },
        {
          "indexed": false,
          "name": "_blockHeight",
          "type": "uint256"
        }
      ],
      "name": "Mint",
      "type": "event",
      "signature": "0x35cc581d6103df194c8c20f437d4b065c9107097eb2ba6f9702489434e03b64c"
    },
    {
      "anonymous": false,
      "inputs": [
        {
          "indexed": false,
          "name": "_buyer",
          "type": "address"
        },
        {
          "indexed": false,
          "name": "_value",
          "type": "uint256"
        }
      ],
      "name": "UsagePurchased",
      "type": "event",
      "signature": "0x0651f693d262f8b7c2f4a40577914247c33a4eb3fa57d735c8ac49be550021cb"
    },
    {
      "anonymous": false,
      "inputs": [
        {
          "indexed": false,
          "name": "account",
          "type": "address"
        }
      ],
      "name": "Paused",
      "type": "event",
      "signature": "0x62e78cea01bee320cd4e420270b5ea74000d11b0c9f74754ebdbfc544b05a258"
    },
    {
      "anonymous": false,
      "inputs": [
        {
          "indexed": false,
          "name": "account",
          "type": "address"
        }
      ],
      "name": "Unpaused",
      "type": "event",
      "signature": "0x5db9ee0a495bf2e6ff9c91a7834c1ba4fdd244a5e8aa4e537bd38aeae4b073aa"
    },
    {
      "anonymous": false,
      "inputs": [
        {
          "indexed": true,
          "name": "account",
          "type": "address"
        }
      ],
      "name": "PauserAdded",
      "type": "event",
      "signature": "0x6719d08c1888103bea251a4ed56406bd0c3e69723c8a1686e017e7bbe159b6f8"
    },
    {
      "anonymous": false,
      "inputs": [
        {
          "indexed": true,
          "name": "account",
          "type": "address"
        }
      ],
      "name": "PauserRemoved",
      "type": "event",
      "signature": "0xcd265ebaf09df2871cc7bd4133404a235ba12eff2041bb89d9c714a2621c7c7e"
    },
    {
      "anonymous": false,
      "inputs": [
        {
          "indexed": true,
          "name": "previousOwner",
          "type": "address"
        },
        {
          "indexed": true,
          "name": "newOwner",
          "type": "address"
        }
      ],
      "name": "OwnershipTransferred",
      "type": "event",
      "signature": "0x8be0079c531659141344cd1fd0a4f28419497f9722a3daafe3b4186f6b6457e0"
    },
    {
      "anonymous": false,
      "inputs": [
        {
          "indexed": true,
          "name": "owner",
          "type": "address"
        },
        {
          "indexed": true,
          "name": "spender",
          "type": "address"
        },
        {
          "indexed": false,
          "name": "value",
          "type": "uint256"
        }
      ],
      "name": "Approval",
      "type": "event",
      "signature": "0x8c5be1e5ebec7d5bd14f71427d1e84f3dd0314c0f7b2291e5b200ac8c7c3b925"
    },
    {
      "anonymous": false,
      "inputs": [
        {
          "indexed": true,
          "name": "from",
          "type": "address"
        },
        {
          "indexed": true,
          "name": "to",
          "type": "address"
        },
        {
          "indexed": false,
          "name": "value",
          "type": "uint256"
        }
      ],
      "name": "Transfer",
      "type": "event",
      "signature": "0xddf252ad1be2c89b69c2b068fc378daa952ba7f163c4a11628f55a4df523b3ef"
    },
    {
      "constant": false,
      "inputs": [
        {
          "name": "_to",
          "type": "address"
        },
        {
          "name": "_value",
          "type": "uint256"
        }
      ],
      "name": "transfer",
      "outputs": [
        {
          "name": "",
          "type": "bool"
        }
      ],
      "payable": false,
      "stateMutability": "nonpayable",
      "type": "function",
      "signature": "0xa9059cbb"
    },
    {
      "constant": false,
      "inputs": [
        {
          "name": "_from",
          "type": "address"
        },
        {
          "name": "_to",
          "type": "address"
        },
        {
          "name": "_value",
          "type": "uint256"
        }
      ],
      "name": "transferFrom",
      "outputs": [
        {
          "name": "",
          "type": "bool"
        }
      ],
      "payable": false,
      "stateMutability": "nonpayable",
      "type": "function",
      "signature": "0x23b872dd"
    },
    {
      "constant": false,
      "inputs": [
        {
          "name": "_spender",
          "type": "address"
        },
        {
          "name": "_value",
          "type": "uint256"
        }
      ],
      "name": "approve",
      "outputs": [
        {
          "name": "",
          "type": "bool"
        }
      ],
      "payable": false,
      "stateMutability": "nonpayable",
      "type": "function",
      "signature": "0x095ea7b3"
    },
    {
      "constant": false,
      "inputs": [
        {
          "name": "_nodes",
          "type": "address[]"
        },
        {
          "name": "_hash",
          "type": "bytes32"
        },
        {
          "name": "signature1",
          "type": "bytes"
        },
        {
          "name": "signature2",
          "type": "bytes"
        },
        {
          "name": "signature3",
          "type": "bytes"
        },
        {
          "name": "signature4",
          "type": "bytes"
        },
        {
          "name": "signature5",
          "type": "bytes"
        },
        {
          "name": "signature6",
          "type": "bytes"
        }
      ],
      "name": "mint",
      "outputs": [
        {
          "name": "",
          "type": "bool"
        }
      ],
      "payable": false,
      "stateMutability": "nonpayable",
      "type": "function",
      "signature": "0x382e6fdb"
    },
    {
      "constant": false,
      "inputs": [
        {
          "name": "_value",
          "type": "uint256"
        }
      ],
      "name": "purchaseUsage",
      "outputs": [
        {
          "name": "",
          "type": "bool"
        }
      ],
      "payable": false,
      "stateMutability": "nonpayable",
      "type": "function",
      "signature": "0xb55968ec"
    },
    {
      "constant": false,
      "inputs": [
        {
          "name": "_addr",
          "type": "address"
        }
      ],
      "name": "setChainpointRegistry",
      "outputs": [
        {
          "name": "",
          "type": "bool"
        }
      ],
      "payable": false,
      "stateMutability": "nonpayable",
      "type": "function",
      "signature": "0x44ea8d44"
    },
    {
      "constant": true,
      "inputs": [
        {
          "name": "hash",
          "type": "bytes32"
        },
        {
          "name": "signature",
          "type": "bytes"
        }
      ],
      "name": "recover",
      "outputs": [
        {
          "name": "",
          "type": "address"
        }
      ],
      "payable": false,
      "stateMutability": "pure",
      "type": "function",
      "signature": "0x19045a25"
    },
    {
      "constant": true,
      "inputs": [
        {
          "name": "hash",
          "type": "bytes32"
        }
      ],
      "name": "toEthSignedMessageHash",
      "outputs": [
        {
          "name": "",
          "type": "bytes32"
        }
      ],
      "payable": false,
      "stateMutability": "pure",
      "type": "function",
      "signature": "0x918a15cf"
    }
  ],
  "bytecode": "0x60806040526040805190810160405280601581526020017f54696572696f6e204e6574776f726b20546f6b656e0000000000000000000000815250600690805190602001906200005192919062000429565b506040805190810160405280600381526020017f544e540000000000000000000000000000000000000000000000000000000000815250600790805190602001906200009f92919062000429565b5060088060006101000a81548160ff021916908360ff160217905550600860009054906101000a900460ff1660ff16600a0a633b9aca0002600955600860009054906101000a900460ff1660ff16600a0a6107d002600a55611680600b556000600c556000600d556000600e556000600f553480156200011e57600080fd5b5033600360006101000a81548173ffffffffffffffffffffffffffffffffffffffff021916908373ffffffffffffffffffffffffffffffffffffffff160217905550600360009054906101000a900473ffffffffffffffffffffffffffffffffffffffff1673ffffffffffffffffffffffffffffffffffffffff16600073ffffffffffffffffffffffffffffffffffffffff167f8be0079c531659141344cd1fd0a4f28419497f9722a3daafe3b4186f6b6457e060405160405180910390a3620001f73362000267640100000000026401000000009004565b6000600560006101000a81548160ff021916908315150217905550600954600081905550600954600160003373ffffffffffffffffffffffffffffffffffffffff1673ffffffffffffffffffffffffffffffffffffffff16815260200190815260200160002081905550620004d8565b6200028b816004620002d164010000000002620030be179091906401000000009004565b8073ffffffffffffffffffffffffffffffffffffffff167f6719d08c1888103bea251a4ed56406bd0c3e69723c8a1686e017e7bbe159b6f860405160405180910390a250565b600073ffffffffffffffffffffffffffffffffffffffff168173ffffffffffffffffffffffffffffffffffffffff16141515156200030e57600080fd5b62000329828262000394640100000000026401000000009004565b1515156200033657600080fd5b60018260000160008373ffffffffffffffffffffffffffffffffffffffff1673ffffffffffffffffffffffffffffffffffffffff16815260200190815260200160002060006101000a81548160ff0219169083151502179055505050565b60008073ffffffffffffffffffffffffffffffffffffffff168273ffffffffffffffffffffffffffffffffffffffff1614151515620003d257600080fd5b8260000160008373ffffffffffffffffffffffffffffffffffffffff1673ffffffffffffffffffffffffffffffffffffffff16815260200190815260200160002060009054906101000a900460ff16905092915050565b828054600181600116156101000203166002900490600052602060002090601f016020900481019282601f106200046c57805160ff19168380011785556200049d565b828001600101855582156200049d579182015b828111156200049c5782518255916020019190600101906200047f565b5b509050620004ac9190620004b0565b5090565b620004d591905b80821115620004d1576000816000905550600101620004b7565b5090565b90565b6131c280620004e86000396000f3fe60806040526004361061018b576000357c0100000000000000000000000000000000000000000000000000000000900463ffffffff16806306fdde0314610190578063095ea7b31461022057806318160ddd1461029357806319045a25146102be57806323b872dd146103d05780632ff2e9dc14610463578063313ce5671461048e578063382e6fdb146104bf5780633f4ba83a1461093157806344ea8d441461094857806346fbf68e146109b15780634c5f25dd14610a1a5780635a2bcc1814610a455780635a8ef28b14610a705780635c65816514610a9b5780635c975abb14610b205780636ef8d66d14610b4f57806370a0823114610b66578063715018a614610bcb57806382dc1ec414610be25780638456cb5914610c335780638da5cb5b14610c4a5780638f32d59b14610ca1578063918a15cf14610cd057806395d89b4114610d1f578063a3059ef014610daf578063a9059cbb14610dda578063b55968ec14610e4d578063ba60ad9714610ea0578063dd62ed3e14610ef7578063f2fde38b14610f7c575b600080fd5b34801561019c57600080fd5b506101a5610fcd565b6040518080602001828103825283818151815260200191508051906020019080838360005b838110156101e55780820151818401526020810190506101ca565b50505050905090810190601f1680156102125780820380516001836020036101000a031916815260200191505b509250505060405180910390f35b34801561022c57600080fd5b506102796004803603604081101561024357600080fd5b81019080803573ffffffffffffffffffffffffffffffffffffffff1690602001909291908035906020019092919050505061106b565b604051808215151515815260200191505060405180910390f35b34801561029f57600080fd5b506102a861109b565b6040518082815260200191505060405180910390f35b3480156102ca57600080fd5b5061038e600480360360408110156102e157600080fd5b81019080803590602001909291908035906020019064010000000081111561030857600080fd5b82018360208201111561031a57600080fd5b8035906020019184600183028401116401000000008311171561033c57600080fd5b91908080601f016020809104026020016040519081016040528093929190818152602001838380828437600081840152601f19601f8201169050808301925050505050505091929192905050506110a1565b604051808273ffffffffffffffffffffffffffffffffffffffff1673ffffffffffffffffffffffffffffffffffffffff16815260200191505060405180910390f35b3480156103dc57600080fd5b50610449600480360360608110156103f357600080fd5b81019080803573ffffffffffffffffffffffffffffffffffffffff169060200190929190803573ffffffffffffffffffffffffffffffffffffffff169060200190929190803590602001909291905050506110be565b604051808215151515815260200191505060405180910390f35b34801561046f57600080fd5b5061047861112c565b6040518082815260200191505060405180910390f35b34801561049a57600080fd5b506104a3611132565b604051808260ff1660ff16815260200191505060405180910390f35b3480156104cb57600080fd5b5061091760048036036101008110156104e357600080fd5b810190808035906020019064010000000081111561050057600080fd5b82018360208201111561051257600080fd5b8035906020019184602083028401116401000000008311171561053457600080fd5b919080806020026020016040519081016040528093929190818152602001838360200280828437600081840152601f19601f820116905080830192505050505050509192919290803590602001909291908035906020019064010000000081111561059e57600080fd5b8201836020820111156105b057600080fd5b803590602001918460018302840111640100000000831117156105d257600080fd5b91908080601f016020809104026020016040519081016040528093929190818152602001838380828437600081840152601f19601f8201169050808301925050505050505091929192908035906020019064010000000081111561063557600080fd5b82018360208201111561064757600080fd5b8035906020019184600183028401116401000000008311171561066957600080fd5b91908080601f016020809104026020016040519081016040528093929190818152602001838380828437600081840152601f19601f820116905080830192505050505050509192919290803590602001906401000000008111156106cc57600080fd5b8201836020820111156106de57600080fd5b8035906020019184600183028401116401000000008311171561070057600080fd5b91908080601f016020809104026020016040519081016040528093929190818152602001838380828437600081840152601f19601f8201169050808301925050505050505091929192908035906020019064010000000081111561076357600080fd5b82018360208201111561077557600080fd5b8035906020019184600183028401116401000000008311171561079757600080fd5b91908080601f016020809104026020016040519081016040528093929190818152602001838380828437600081840152601f19601f820116905080830192505050505050509192919290803590602001906401000000008111156107fa57600080fd5b82018360208201111561080c57600080fd5b8035906020019184600183028401116401000000008311171561082e57600080fd5b91908080601f016020809104026020016040519081016040528093929190818152602001838380828437600081840152601f19601f8201169050808301925050505050505091929192908035906020019064010000000081111561089157600080fd5b8201836020820111156108a357600080fd5b803590602001918460018302840111640100000000831117156108c557600080fd5b91908080601f016020809104026020016040519081016040528093929190818152602001838380828437600081840152601f19601f820116905080830192505050505050509192919290505050611145565b604051808215151515815260200191505060405180910390f35b34801561093d57600080fd5b50610946611cc7565b005b34801561095457600080fd5b506109976004803603602081101561096b57600080fd5b81019080803573ffffffffffffffffffffffffffffffffffffffff169060200190929190505050611d76565b604051808215151515815260200191505060405180910390f35b3480156109bd57600080fd5b50610a00600480360360208110156109d457600080fd5b81019080803573ffffffffffffffffffffffffffffffffffffffff169060200190929190505050611e11565b604051808215151515815260200191505060405180910390f35b348015610a2657600080fd5b50610a2f611e2e565b6040518082815260200191505060405180910390f35b348015610a5157600080fd5b50610a5a611e34565b6040518082815260200191505060405180910390f35b348015610a7c57600080fd5b50610a85611e3a565b6040518082815260200191505060405180910390f35b348015610aa757600080fd5b50610b0a60048036036040811015610abe57600080fd5b81019080803573ffffffffffffffffffffffffffffffffffffffff169060200190929190803573ffffffffffffffffffffffffffffffffffffffff169060200190929190505050611e40565b6040518082815260200191505060405180910390f35b348015610b2c57600080fd5b50610b35611e65565b604051808215151515815260200191505060405180910390f35b348015610b5b57600080fd5b50610b64611e7c565b005b348015610b7257600080fd5b50610bb560048036036020811015610b8957600080fd5b81019080803573ffffffffffffffffffffffffffffffffffffffff169060200190929190505050611e87565b6040518082815260200191505060405180910390f35b348015610bd757600080fd5b50610be0611ed0565b005b348015610bee57600080fd5b50610c3160048036036020811015610c0557600080fd5b81019080803573ffffffffffffffffffffffffffffffffffffffff169060200190929190505050611fa4565b005b348015610c3f57600080fd5b50610c48611fc4565b005b348015610c5657600080fd5b50610c5f612074565b604051808273ffffffffffffffffffffffffffffffffffffffff1673ffffffffffffffffffffffffffffffffffffffff16815260200191505060405180910390f35b348015610cad57600080fd5b50610cb661209e565b604051808215151515815260200191505060405180910390f35b348015610cdc57600080fd5b50610d0960048036036020811015610cf357600080fd5b81019080803590602001909291905050506120f6565b6040518082815260200191505060405180910390f35b348015610d2b57600080fd5b50610d34612108565b6040518080602001828103825283818151815260200191508051906020019080838360005b83811015610d74578082015181840152602081019050610d59565b50505050905090810190601f168015610da15780820380516001836020036101000a031916815260200191505b509250505060405180910390f35b348015610dbb57600080fd5b50610dc46121a6565b6040518082815260200191505060405180910390f35b348015610de657600080fd5b50610e3360048036036040811015610dfd57600080fd5b81019080803573ffffffffffffffffffffffffffffffffffffffff169060200190929190803590602001909291905050506121ac565b604051808215151515815260200191505060405180910390f35b348015610e5957600080fd5b50610e8660048036036020811015610e7057600080fd5b8101908080359060200190929190505050612218565b604051808215151515815260200191505060405180910390f35b348015610eac57600080fd5b50610eb5612298565b604051808273ffffffffffffffffffffffffffffffffffffffff1673ffffffffffffffffffffffffffffffffffffffff16815260200191505060405180910390f35b348015610f0357600080fd5b50610f6660048036036040811015610f1a57600080fd5b81019080803573ffffffffffffffffffffffffffffffffffffffff169060200190929190803573ffffffffffffffffffffffffffffffffffffffff1690602001909291905050506122be565b6040518082815260200191505060405180910390f35b348015610f8857600080fd5b50610fcb60048036036020811015610f9f57600080fd5b81019080803573ffffffffffffffffffffffffffffffffffffffff169060200190929190505050612345565b005b60068054600181600116156101000203166002900480601f0160208091040260200160405190810160405280929190818152602001828054600181600116156101000203166002900480156110635780601f1061103857610100808354040283529160200191611063565b820191906000526020600020905b81548152906001019060200180831161104657829003601f168201915b505050505081565b6000600560009054906101000a900460ff1615151561108957600080fd5b6110938383612364565b905092915050565b60005481565b60006110b682846124eb90919063ffffffff16565b905092915050565b6000600560009054906101000a900460ff161515156110dc57600080fd5b600073ffffffffffffffffffffffffffffffffffffffff168373ffffffffffffffffffffffffffffffffffffffff161415151561111857600080fd5b6111238484846125cf565b90509392505050565b60095481565b600860009054906101000a900460ff1681565b6000600560009054906101000a900460ff1615151561116357600080fd5b601060009054906101000a900473ffffffffffffffffffffffffffffffffffffffff1673ffffffffffffffffffffffffffffffffffffffff16639273cce8336040518263ffffffff167c0100000000000000000000000000000000000000000000000000000000028152600401808273ffffffffffffffffffffffffffffffffffffffff1673ffffffffffffffffffffffffffffffffffffffff16815260200191505060206040518083038186803b15801561121e57600080fd5b505afa158015611232573d6000803e3d6000fd5b505050506040513d602081101561124857600080fd5b810190808051906020019092919050505015156112f3576040517f08c379a00000000000000000000000000000000000000000000000000000000081526004018080602001828103825260288152602001807f6d757374206265206f776e6572206f7220616e2061637469766520636f72652081526020017f6f70657261746f7200000000000000000000000000000000000000000000000081525060400191505060405180910390fd5b6000600d54148061131a5750611316600b54600d5461287a90919063ffffffff16565b4310155b15156113b4576040517f08c379a00000000000000000000000000000000000000000000000000000000081526004018080602001828103825260308152602001807f6d696e74696e67206f636375727320617420746865207370656369666965642081526020017f6d696e74696e6720696e74657276616c0000000000000000000000000000000081525060400191505060405180910390fd5b6048895111151515611454576040517f08c379a00000000000000000000000000000000000000000000000000000000081526004018080602001828103825260258152602001807f6c697374206f66203732206f72206665776572206e6f6465732069732072657181526020017f756972656400000000000000000000000000000000000000000000000000000081525060400191505060405180910390fd5b611467868861289b90919063ffffffff16565b1580156114845750611482858861289b90919063ffffffff16565b155b80156114a0575061149e848861289b90919063ffffffff16565b155b80156114bc57506114ba838861289b90919063ffffffff16565b155b80156114d857506114d6828861289b90919063ffffffff16565b155b1515611572576040517f08c379a000000000000000000000000000000000000000000000000000000000815260040180806020018281038252602c8152602001807f5369676e617475726573206d757374206265207369676e65642062792064696681526020017f666572656e7420436f726573000000000000000000000000000000000000000081525060400191505060405180910390fd5b611585858761289b90919063ffffffff16565b1580156115a257506115a0848761289b90919063ffffffff16565b155b80156115be57506115bc838761289b90919063ffffffff16565b155b80156115da57506115d8828761289b90919063ffffffff16565b155b1515611674576040517f08c379a000000000000000000000000000000000000000000000000000000000815260040180806020018281038252602c8152602001807f5369676e617475726573206d757374206265207369676e65642062792064696681526020017f666572656e7420436f726573000000000000000000000000000000000000000081525060400191505060405180910390fd5b611687848661289b90919063ffffffff16565b1580156116a457506116a2838661289b90919063ffffffff16565b155b80156116c057506116be828661289b90919063ffffffff16565b155b151561175a576040517f08c379a000000000000000000000000000000000000000000000000000000000815260040180806020018281038252602c8152602001807f5369676e617475726573206d757374206265207369676e65642062792064696681526020017f666572656e7420436f726573000000000000000000000000000000000000000081525060400191505060405180910390fd5b61176d838561289b90919063ffffffff16565b15801561178a5750611788828561289b90919063ffffffff16565b155b1515611824576040517f08c379a000000000000000000000000000000000000000000000000000000000815260040180806020018281038252602c8152602001807f5369676e617475726573206d757374206265207369676e65642062792064696681526020017f666572656e7420436f726573000000000000000000000000000000000000000081525060400191505060405180910390fd5b611837828461289b90919063ffffffff16565b1515156118d2576040517f08c379a000000000000000000000000000000000000000000000000000000000815260040180806020018281038252602c8152602001807f5369676e617475726573206d757374206265207369676e65642062792064696681526020017f666572656e7420436f726573000000000000000000000000000000000000000081525060400191505060405180910390fd5b60008960405160200180828051906020019060200280838360005b838110156119085780820151818401526020810190506118ed565b50505050905001915050604051602081830303815290604052805190602001209050886119348261290a565b1415156119cf576040517f08c379a000000000000000000000000000000000000000000000000000000000815260040180806020018281038252603f8152602001807f737570706c69656420746f4574685369676e65644d657373616765486173682081526020017f646f6573206e6f7420657175616c2076616c75652063616c63756c617465640081525060400191505060405180910390fd5b6119d761316e565b60c0604051908101604052808a815260200189815260200188815260200187815260200186815260200185815250905060008090505b60068160ff161015611bdd57601060009054906101000a900473ffffffffffffffffffffffffffffffffffffffff1673ffffffffffffffffffffffffffffffffffffffff16639273cce8611a7f848460ff16600681101515611a6b57fe5b60200201518e6124eb90919063ffffffff16565b6040518263ffffffff167c0100000000000000000000000000000000000000000000000000000000028152600401808273ffffffffffffffffffffffffffffffffffffffff1673ffffffffffffffffffffffffffffffffffffffff16815260200191505060206040518083038186803b158015611afb57600080fd5b505afa158015611b0f573d6000803e3d6000fd5b505050506040513d6020811015611b2557600080fd5b81019080805190602001909291905050501515611bd0576040517f08c379a00000000000000000000000000000000000000000000000000000000081526004018080602001828103825260248152602001807f7369676e6572206973206e6f742061207374616b656420636f7265206f70657281526020017f61746f720000000000000000000000000000000000000000000000000000000081525060400191505060405180910390fd5b8080600101915050611a0d565b5042600c8190555060008090505b8b518160ff161015611c2a57611c1d8c8260ff16815181101515611c0b57fe5b90602001906020020151600a54612962565b8080600101915050611beb565b507f35cc581d6103df194c8c20f437d4b065c9107097eb2ba6f9702489434e03b64c8b600a54436040518080602001848152602001838152602001828103825285818151815260200191508051906020019060200280838360005b83811015611ca0578082015181840152602081019050611c85565b5050505090500194505050505060405180910390a160019250505098975050505050505050565b611cd033611e11565b1515611cdb57600080fd5b600560009054906101000a900460ff161515611cf657600080fd5b6000600560006101000a81548160ff0219169083151502179055507f5db9ee0a495bf2e6ff9c91a7834c1ba4fdd244a5e8aa4e537bd38aeae4b073aa33604051808273ffffffffffffffffffffffffffffffffffffffff1673ffffffffffffffffffffffffffffffffffffffff16815260200191505060405180910390a1565b6000611d8061209e565b1515611d8b57600080fd5b600073ffffffffffffffffffffffffffffffffffffffff168273ffffffffffffffffffffffffffffffffffffffff1614151515611dc757600080fd5b81601060006101000a81548173ffffffffffffffffffffffffffffffffffffffff021916908373ffffffffffffffffffffffffffffffffffffffff16021790555060019050919050565b6000611e27826004612ab890919063ffffffff16565b9050919050565b600f5481565b600a5481565b600d5481565b6002602052816000526040600020602052806000526040600020600091509150505481565b6000600560009054906101000a900460ff16905090565b611e8533612b4c565b565b6000600160008373ffffffffffffffffffffffffffffffffffffffff1673ffffffffffffffffffffffffffffffffffffffff168152602001908152602001600020549050919050565b611ed861209e565b1515611ee357600080fd5b600073ffffffffffffffffffffffffffffffffffffffff16600360009054906101000a900473ffffffffffffffffffffffffffffffffffffffff1673ffffffffffffffffffffffffffffffffffffffff167f8be0079c531659141344cd1fd0a4f28419497f9722a3daafe3b4186f6b6457e060405160405180910390a36000600360006101000a81548173ffffffffffffffffffffffffffffffffffffffff021916908373ffffffffffffffffffffffffffffffffffffffff160217905550565b611fad33611e11565b1515611fb857600080fd5b611fc181612ba6565b50565b611fcd33611e11565b1515611fd857600080fd5b600560009054906101000a900460ff16151515611ff457600080fd5b6001600560006101000a81548160ff0219169083151502179055507f62e78cea01bee320cd4e420270b5ea74000d11b0c9f74754ebdbfc544b05a25833604051808273ffffffffffffffffffffffffffffffffffffffff1673ffffffffffffffffffffffffffffffffffffffff16815260200191505060405180910390a1565b6000600360009054906101000a900473ffffffffffffffffffffffffffffffffffffffff16905090565b6000600360009054906101000a900473ffffffffffffffffffffffffffffffffffffffff1673ffffffffffffffffffffffffffffffffffffffff163373ffffffffffffffffffffffffffffffffffffffff1614905090565b60006121018261290a565b9050919050565b60078054600181600116156101000203166002900480601f01602080910402602001604051908101604052809291908181526020018280546001816001161561010002031660029004801561219e5780601f106121735761010080835404028352916020019161219e565b820191906000526020600020905b81548152906001019060200180831161218157829003601f168201915b505050505081565b600b5481565b6000600560009054906101000a900460ff161515156121ca57600080fd5b600073ffffffffffffffffffffffffffffffffffffffff168373ffffffffffffffffffffffffffffffffffffffff161415151561220657600080fd5b6122108383612c00565b905092915050565b60006122243383612d9b565b7f0651f693d262f8b7c2f4a40577914247c33a4eb3fa57d735c8ac49be550021cb3383604051808373ffffffffffffffffffffffffffffffffffffffff1673ffffffffffffffffffffffffffffffffffffffff1681526020018281526020019250505060405180910390a160019050919050565b601060009054906101000a900473ffffffffffffffffffffffffffffffffffffffff1681565b6000600260008473ffffffffffffffffffffffffffffffffffffffff1673ffffffffffffffffffffffffffffffffffffffff16815260200190815260200160002060008373ffffffffffffffffffffffffffffffffffffffff1673ffffffffffffffffffffffffffffffffffffffff16815260200190815260200160002054905092915050565b61234d61209e565b151561235857600080fd5b61236181612ef1565b50565b6000808214806123f057506000600260003373ffffffffffffffffffffffffffffffffffffffff1673ffffffffffffffffffffffffffffffffffffffff16815260200190815260200160002060008573ffffffffffffffffffffffffffffffffffffffff1673ffffffffffffffffffffffffffffffffffffffff16815260200190815260200160002054145b15156123fb57600080fd5b81600260003373ffffffffffffffffffffffffffffffffffffffff1673ffffffffffffffffffffffffffffffffffffffff16815260200190815260200160002060008573ffffffffffffffffffffffffffffffffffffffff1673ffffffffffffffffffffffffffffffffffffffff168152602001908152602001600020819055508273ffffffffffffffffffffffffffffffffffffffff163373ffffffffffffffffffffffffffffffffffffffff167f8c5be1e5ebec7d5bd14f71427d1e84f3dd0314c0f7b2291e5b200ac8c7c3b925846040518082815260200191505060405180910390a36001905092915050565b6000806000806041855114151561250857600093505050506125c9565b6020850151925060408501519150606085015160001a9050601b8160ff16101561253357601b810190505b601b8160ff161415801561254b5750601c8160ff1614155b1561255c57600093505050506125c9565b60018682858560405160008152602001604052604051808581526020018460ff1660ff1681526020018381526020018281526020019450505050506020604051602081039080840390855afa1580156125b9573d6000803e3d6000fd5b5050506020604051035193505050505b92915050565b600061262382600160008773ffffffffffffffffffffffffffffffffffffffff1673ffffffffffffffffffffffffffffffffffffffff16815260200190815260200160002054612fed90919063ffffffff16565b600160008673ffffffffffffffffffffffffffffffffffffffff1673ffffffffffffffffffffffffffffffffffffffff168152602001908152602001600020819055506126f582600260008773ffffffffffffffffffffffffffffffffffffffff1673ffffffffffffffffffffffffffffffffffffffff16815260200190815260200160002060003373ffffffffffffffffffffffffffffffffffffffff1673ffffffffffffffffffffffffffffffffffffffff16815260200190815260200160002054612fed90919063ffffffff16565b600260008673ffffffffffffffffffffffffffffffffffffffff1673ffffffffffffffffffffffffffffffffffffffff16815260200190815260200160002060003373ffffffffffffffffffffffffffffffffffffffff1673ffffffffffffffffffffffffffffffffffffffff168152602001908152602001600020819055506127c782600160008673ffffffffffffffffffffffffffffffffffffffff1673ffffffffffffffffffffffffffffffffffffffff1681526020019081526020016000205461287a90919063ffffffff16565b600160008573ffffffffffffffffffffffffffffffffffffffff1673ffffffffffffffffffffffffffffffffffffffff168152602001908152602001600020819055508273ffffffffffffffffffffffffffffffffffffffff168473ffffffffffffffffffffffffffffffffffffffff167fddf252ad1be2c89b69c2b068fc378daa952ba7f163c4a11628f55a4df523b3ef846040518082815260200191505060405180910390a3600190509392505050565b600080828401905083811015151561289157600080fd5b8091505092915050565b60008060019050835183518114600181146128b957600092506128fe565b600160208701838101602088015b6002848385100114156128f957805183511415156128e85760009650600093505b6020830192506020810190506128c7565b505050505b50508091505092915050565b60008160405160200180807f19457468657265756d205369676e6564204d6573736167653a0a333200000000815250601c01828152602001915050604051602081830303815290604052805190602001209050919050565b600073ffffffffffffffffffffffffffffffffffffffff168273ffffffffffffffffffffffffffffffffffffffff161415151561299e57600080fd5b6129b38160005461287a90919063ffffffff16565b600081905550612a0b81600160008573ffffffffffffffffffffffffffffffffffffffff1673ffffffffffffffffffffffffffffffffffffffff1681526020019081526020016000205461287a90919063ffffffff16565b600160008473ffffffffffffffffffffffffffffffffffffffff1673ffffffffffffffffffffffffffffffffffffffff168152602001908152602001600020819055508173ffffffffffffffffffffffffffffffffffffffff16600073ffffffffffffffffffffffffffffffffffffffff167fddf252ad1be2c89b69c2b068fc378daa952ba7f163c4a11628f55a4df523b3ef836040518082815260200191505060405180910390a35050565b60008073ffffffffffffffffffffffffffffffffffffffff168273ffffffffffffffffffffffffffffffffffffffff1614151515612af557600080fd5b8260000160008373ffffffffffffffffffffffffffffffffffffffff1673ffffffffffffffffffffffffffffffffffffffff16815260200190815260200160002060009054906101000a900460ff16905092915050565b612b6081600461300f90919063ffffffff16565b8073ffffffffffffffffffffffffffffffffffffffff167fcd265ebaf09df2871cc7bd4133404a235ba12eff2041bb89d9c714a2621c7c7e60405160405180910390a250565b612bba8160046130be90919063ffffffff16565b8073ffffffffffffffffffffffffffffffffffffffff167f6719d08c1888103bea251a4ed56406bd0c3e69723c8a1686e017e7bbe159b6f860405160405180910390a250565b6000612c5482600160003373ffffffffffffffffffffffffffffffffffffffff1673ffffffffffffffffffffffffffffffffffffffff16815260200190815260200160002054612fed90919063ffffffff16565b600160003373ffffffffffffffffffffffffffffffffffffffff1673ffffffffffffffffffffffffffffffffffffffff16815260200190815260200160002081905550612ce982600160008673ffffffffffffffffffffffffffffffffffffffff1673ffffffffffffffffffffffffffffffffffffffff1681526020019081526020016000205461287a90919063ffffffff16565b600160008573ffffffffffffffffffffffffffffffffffffffff1673ffffffffffffffffffffffffffffffffffffffff168152602001908152602001600020819055508273ffffffffffffffffffffffffffffffffffffffff163373ffffffffffffffffffffffffffffffffffffffff167fddf252ad1be2c89b69c2b068fc378daa952ba7f163c4a11628f55a4df523b3ef846040518082815260200191505060405180910390a36001905092915050565b600073ffffffffffffffffffffffffffffffffffffffff168273ffffffffffffffffffffffffffffffffffffffff1614151515612dd757600080fd5b612dec81600054612fed90919063ffffffff16565b600081905550612e4481600160008573ffffffffffffffffffffffffffffffffffffffff1673ffffffffffffffffffffffffffffffffffffffff16815260200190815260200160002054612fed90919063ffffffff16565b600160008473ffffffffffffffffffffffffffffffffffffffff1673ffffffffffffffffffffffffffffffffffffffff16815260200190815260200160002081905550600073ffffffffffffffffffffffffffffffffffffffff168273ffffffffffffffffffffffffffffffffffffffff167fddf252ad1be2c89b69c2b068fc378daa952ba7f163c4a11628f55a4df523b3ef836040518082815260200191505060405180910390a35050565b600073ffffffffffffffffffffffffffffffffffffffff168173ffffffffffffffffffffffffffffffffffffffff1614151515612f2d57600080fd5b8073ffffffffffffffffffffffffffffffffffffffff16600360009054906101000a900473ffffffffffffffffffffffffffffffffffffffff1673ffffffffffffffffffffffffffffffffffffffff167f8be0079c531659141344cd1fd0a4f28419497f9722a3daafe3b4186f6b6457e060405160405180910390a380600360006101000a81548173ffffffffffffffffffffffffffffffffffffffff021916908373ffffffffffffffffffffffffffffffffffffffff16021790555050565b6000828211151515612ffe57600080fd5b600082840390508091505092915050565b600073ffffffffffffffffffffffffffffffffffffffff168173ffffffffffffffffffffffffffffffffffffffff161415151561304b57600080fd5b6130558282612ab8565b151561306057600080fd5b60008260000160008373ffffffffffffffffffffffffffffffffffffffff1673ffffffffffffffffffffffffffffffffffffffff16815260200190815260200160002060006101000a81548160ff0219169083151502179055505050565b600073ffffffffffffffffffffffffffffffffffffffff168173ffffffffffffffffffffffffffffffffffffffff16141515156130fa57600080fd5b6131048282612ab8565b15151561311057600080fd5b60018260000160008373ffffffffffffffffffffffffffffffffffffffff1673ffffffffffffffffffffffffffffffffffffffff16815260200190815260200160002060006101000a81548160ff0219169083151502179055505050565b60c0604051908101604052806006905b606081526020019060019003908161317e579050509056fea165627a7a7230582017094a9d183c223bc3f7741bd85bb537471008adcece50c3017f331a1585d0fa0029",
  "source": "pragma solidity >=0.4.22 <0.6.0;\n\nimport \"openzeppelin-solidity/contracts/ownership/Ownable.sol\";\nimport \"openzeppelin-solidity/contracts/lifecycle/Pausable.sol\";\nimport \"openzeppelin-solidity/contracts/cryptography/ECDSA.sol\";\nimport \"bytes/BytesLib.sol\";\nimport \"./lib/ERC20.sol\";\nimport \"./lib/ERC20Basic.sol\";\nimport \"./lib/SafeMath.sol\";\nimport \"./ChainpointRegistry.sol\";\n\n\n/**\n * @title Basic token\n * @dev Basic version of StandardToken, with no allowances. \n */\ncontract BasicToken is ERC20Basic {\n  using SafeMath for uint256;\n\n  mapping(address => uint256) balances;\n\n  /**\n   * @dev transfer token for a specified address\n   * @param _to The address to transfer to.\n   * @param _value The amount to be transferred.\n   */\n  function transfer(address _to, uint256 _value) public returns(bool) {\n    balances[msg.sender] = balances[msg.sender].sub(_value);\n    balances[_to] = balances[_to].add(_value);\n    emit Transfer(msg.sender, _to, _value);\n    return true;\n  }\n\n  /**\n   * @dev Gets the balance of the specified address.\n   * @param _owner The address to query the the balance of. \n   * @return An uint256 representing the amount owned by the passed address.\n   */\n  function balanceOf(address _owner) public view returns(uint256 balance) {\n    return balances[_owner];\n  }\n\n}\n\n/**\n * @title Standard ERC20 token\n *\n * @dev Implementation of the basic standard token.\n * @dev https://github.com/ethereum/EIPs/issues/20\n * @dev Based on code by FirstBlood: https://github.com/Firstbloodio/token/blob/master/smart_contract/FirstBloodToken.sol\n */\ncontract StandardToken is ERC20, BasicToken {\n  using SafeMath for uint256;\n\n  mapping(address => mapping(address => uint256)) public allowed;\n\n\n  /**\n   * @dev Transfer tokens from one address to another\n   * @param _from address The address which you want to send tokens from\n   * @param _to address The address which you want to transfer to\n   * @param _value uint256 the amout of tokens to be transfered\n   */\n  function transferFrom(address _from, address _to, uint256 _value) public returns(bool) {\n    // Check is not needed because sub(_allowance, _value) will already throw if this condition is not met\n    // require (_value <= _allowance);\n    \n    balances[_from] = balances[_from].sub(_value);\n    allowed[_from][msg.sender] = allowed[_from][msg.sender].sub(_value);\n    balances[_to] = balances[_to].add(_value);\n\n    emit Transfer(_from, _to, _value);\n    \n    return true;\n  }\n\n  /**\n   * @dev Aprove the passed address to spend the specified amount of tokens on behalf of msg.sender.\n   * @param _spender The address which will spend the funds.\n   * @param _value The amount of tokens to be spent.\n   */\n  function approve(address _spender, uint256 _value) public returns(bool) {\n\n    // To change the approve amount you first have to reduce the addresses`\n    //  allowance to zero by calling `approve(_spender, 0)` if it is not\n    //  already 0 to mitigate the race condition described here:\n    //  https://github.com/ethereum/EIPs/issues/20#issuecomment-263524729\n    require((_value == 0) || (allowed[msg.sender][_spender] == 0));\n\n    allowed[msg.sender][_spender] = _value;\n    emit Approval(msg.sender, _spender, _value);\n    return true;\n  }\n\n  /**\n   * @dev Function to check the amount of tokens that an owner allowed to a spender.\n   * @param _owner address The address which owns the funds.\n   * @param _spender address The address which will spend the funds.\n   * @return A uint256 specifing the amount of tokens still avaible for the spender.\n   */\n  function allowance(address _owner, address _spender) public view returns(uint256 remaining) {\n    return allowed[_owner][_spender];\n  }\n\n}\n\n/**\n * @title Tierion Network Token\n * @dev ERC20 Tierion Network Token (TNT)\n *\n * TNT Tokens are divisible by 1e8 (100,000,000) base\n * units referred to as 'Grains'.\n *\n * TNT are displayed using 8 decimal places of precision.\n *\n * 1 TNT is equivalent to:\n *   100000000 == 1 * 10**8 == 1e8 == One Hundred Million Grains\n *\n * 1 Billion TNT (total supply) is equivalent to:\n *   100000000000000000 == 1000000000 * 10**8 == 1e17 == One Hundred Quadrillion Grains\n *\n * All initial TNT Grains are assigned to the creator of\n * this contract.\n *\n */\ncontract TierionNetworkToken is StandardToken, Ownable, Pausable {\n    using ECDSA for bytes32;\n    using BytesLib for bytes;\n    \n    string public name = 'Tierion Network Token'; // Set the token name for display\n    string public symbol = 'TNT'; // Set the token symbol for display\n    uint8 public decimals = 8; // Set the number of decimals for display\n    uint256 public INITIAL_SUPPLY = 1000000000 * 10 ** uint256(decimals); // 1 Billion TNT specified in Grains\n    uint256 public mintAmount = 2000 * 10 ** uint256(decimals); // 2000 TNT specified in Grains\n    \n    ///\n    /// Minting Parameters\n    ///\n    /// @title Minting Interval (in # of blocks)\n    uint256 public mintingInterval = 5760; // 86,400 (seconds in 1 day) / 15 (average block time in seconds)\n    /// @title Nodes Last Token Minting timestamp\n    uint256 nodeLastMintedAt = 0;\n    /// @title Nodes Last Token Minting block height\n    uint256 public nodeLastMintedAtBlock = 0;\n    /// @title Cores Last Token Minting timestamp\n    uint256 coreLastMintedAt = 0;\n    /// @title Cores Last Token Minting block height\n    uint256 public coreLastMintedAtBlock = 0;\n    \n    /// @title Chainpoint Registry\n    /// @notice Chainpoint Registry Contract\n    ChainpointRegistry public chainpointRegistry;\n  \n    ///\n    /// MODIFIERS\n    ///\n    /// @notice only Staked Core Operators or Owner can call, otherwise throw\n    modifier onlyCoreOperator() {\n        require(chainpointRegistry.isHealthyCore(msg.sender), \"must be owner or an active core operator\");\n        _;\n    }\n\n  /**\n   * @dev TierionNetworkToken Constructor\n   * Runs only on initial contract creation.\n   */\n  constructor() public {\n    totalSupply = INITIAL_SUPPLY; // Set the total supply\n    balances[msg.sender] = INITIAL_SUPPLY; // Creator address is assigned all\n  }\n  \n    ///\n    /// EVENTS \n    ///\n    /// @notice emitted on successful token minting\n    /// @param _nodes number of Node Operators that were rewarded tokens\n    /// @param _mintAmount is the total number of tokens rewarded to each Node Operator\n    /// @param _blockHeight The block height in which token minting occurred\n    event Mint(\n        address[] _nodes,\n        uint256 _mintAmount,\n        uint256 _blockHeight\n    );\n    \n    /// @notice emitted on successful purchasing of usage\n    /// @param _buyer node operator that is purchasing network usage\n    /// @param _value amount of TNT being spent on future network usage\n    event UsagePurchased(\n        address _buyer,\n        uint256 _value\n    );\n\n  /**\n   * @dev Transfer token for a specified address when not paused\n   * @param _to The address to transfer to.\n   * @param _value The amount to be transferred.\n   */\n  function transfer(address _to, uint256 _value) public whenNotPaused returns(bool) {\n    require(_to != address(0));\n    return super.transfer(_to, _value);\n  }\n\n  /**\n   * @dev Transfer tokens from one address to another when not paused\n   * @param _from address The address which you want to send tokens from\n   * @param _to address The address which you want to transfer to\n   * @param _value uint256 the amount of tokens to be transferred\n   */\n  function transferFrom(address _from, address _to, uint256 _value) public whenNotPaused returns(bool) {\n    require(_to != address(0));\n    return super.transferFrom(_from, _to, _value);\n  }\n\n  /**\n   * @dev Aprove the passed address to spend the specified amount of tokens on behalf of msg.sender when not paused.\n   * @param _spender The address which will spend the funds.\n   * @param _value The amount of tokens to be spent.\n   */\n  function approve(address _spender, uint256 _value) public whenNotPaused returns(bool) {\n    return super.approve(_spender, _value);\n  }\n  \n  /**\n   * @dev Mint tokens and send to the address provided\n   * @param _nodes The addresses of Nodes which will receive the funds.\n   * @dev only Chainpoint Core Operators can invoke this method\n   */\n  function mint(address[] memory _nodes, bytes32 _hash, bytes memory signature1, bytes memory signature2, bytes memory signature3, bytes memory signature4, bytes memory signature5, bytes memory signature6) public whenNotPaused onlyCoreOperator returns(bool) {\n      require(nodeLastMintedAtBlock == 0 || block.number >= nodeLastMintedAtBlock.add(mintingInterval), \"minting occurs at the specified minting interval\");\n      require(_nodes.length <= 72, \"list of 72 or fewer nodes is required\");\n      // Check signature uniqueness\n      require(!signature1.equal(signature2) && !signature1.equal(signature3) && !signature1.equal(signature4) && !signature1.equal(signature5) && !signature1.equal(signature6), 'Signatures must be signed by different Cores');\n      require(!signature2.equal(signature3) && !signature2.equal(signature4) && !signature2.equal(signature5) && !signature2.equal(signature6), 'Signatures must be signed by different Cores');\n      require(!signature3.equal(signature4) && !signature3.equal(signature5) && !signature3.equal(signature6), 'Signatures must be signed by different Cores');\n      require(!signature4.equal(signature5) && !signature4.equal(signature6), 'Signatures must be signed by different Cores');\n      require(!signature5.equal(signature6), 'Signatures must be signed by different Cores');\n\n      // Validate parameters provided\n      bytes32 nodesHash = keccak256(abi.encodePacked(_nodes));\n      require(nodesHash.toEthSignedMessageHash() == _hash, \"supplied toEthSignedMessageHash does not equal value calculated\");\n      \n      // Recover Signer addresses and verify they are staked Core Operators\n      bytes[6] memory signatures = [signature1, signature2, signature3, signature4, signature5, signature6];\n      for(uint8 i=0; i < signatures.length; i++) {\n          require(chainpointRegistry.isHealthyCore(_hash.recover(signatures[i])), \"signer is not a staked core operator\");\n      }\n\n      // Update LastMintedAt block & time\n      // nodeLastMintedAtBlock = block.number;\n      nodeLastMintedAt = now;\n      \n      // Iterate through list of Nodes and award tokens\n      for(uint8 i=0; i < _nodes.length; i++) {\n          _mint(_nodes[i], mintAmount);\n      }\n      \n      emit Mint(_nodes, mintAmount, block.number);\n      \n      return true;\n  }\n\n  /**\n   * @dev Purchase Usage tokens, will burn tokens and emit a UsagePurchased & Transfer event\n   * @param _value The amount of tokens to be spent.\n   * @dev Chainpoint Nodes will be invoking this method to purchase access to the Network\n   * @return Boolean indicating result of method execution\n   */\n  function purchaseUsage(uint256 _value) public returns (bool) {\n      _burn(msg.sender, _value);\n      \n      emit UsagePurchased(msg.sender, _value);\n      \n      return true;\n  }\n\n  /**\n   * @dev Sets the contract address for the Chainpoint Registry\n   * @param _addr The contract address of the Chainpoint Registry\n   * @dev Can only be invoked by contract owner\n   * @return Boolean indicating result of method execution\n   */\n  function setChainpointRegistry(address _addr) public onlyOwner returns(bool) {\n      require(_addr != address(0));\n      \n      chainpointRegistry = ChainpointRegistry(_addr);\n      \n      return true;\n  }\n\n  /**\n   * @dev Gets the balance of the specified address.\n   * @param _account The account which is burning tokens\n   * @param _value The number of tokens to burn\n   * @dev Internal function that is called within - purchaseUsage()\n   */\n  function _burn(address _account, uint256 _value) internal {\n    require(_account != address(0));\n\n    totalSupply = totalSupply.sub(_value);\n    balances[_account] = balances[_account].sub(_value);\n    \n    emit Transfer(_account, address(0), _value);\n  }\n\n  /**\n    * @dev Internal function that mints an amount of the token and credits the account provided\n    * @param _account The account that will receive the created tokens.\n    * @param _value The amount of tokens minted\n    */\n  function _mint(address _account, uint256 _value) internal {\n    require(_account != address(0));\n\n    totalSupply = totalSupply.add(_value);\n    balances[_account] = balances[_account].add(_value);\n    emit Transfer(address(0), _account, _value);\n  }\n  \n  function recover(bytes32 hash, bytes memory signature) public pure returns (address) {\n    return hash.recover(signature);\n  }\n\n  function toEthSignedMessageHash(bytes32 hash) public pure returns (bytes32) {\n    return hash.toEthSignedMessageHash();\n  }\n}\n",
  "sourcePath": "/Users/michaeliglesias/zDevelopment/Tierion/Hydra/node-registration-research/v1/contracts/TierionNetworkToken.sol",
  "compiler": {
    "name": "solc",
    "version": "0.5.0+commit.1d4f565a.Emscripten.clang"
  },
  "schemaVersion": "3.0.1",
  "updatedAt": "2019-05-07T23:16:22.469Z",
  "devdoc": {
    "details": "ERC20 Tierion Network Token (TNT) * TNT Tokens are divisible by 1e8 (100,000,000) base units referred to as 'Grains'. * TNT are displayed using 8 decimal places of precision. * 1 TNT is equivalent to:  100000000 == 1 * 10**8 == 1e8 == One Hundred Million Grains * 1 Billion TNT (total supply) is equivalent to:  100000000000000000 == 1000000000 * 10**8 == 1e17 == One Hundred Quadrillion Grains * All initial TNT Grains are assigned to the creator of this contract. ",
    "methods": {
      "allowance(address,address)": {
        "details": "Function to check the amount of tokens that an owner allowed to a spender.",
        "params": {
          "_owner": "address The address which owns the funds.",
          "_spender": "address The address which will spend the funds."
        },
        "return": "A uint256 specifing the amount of tokens still avaible for the spender."
      },
      "approve(address,uint256)": {
        "details": "Aprove the passed address to spend the specified amount of tokens on behalf of msg.sender when not paused.",
        "params": {
          "_spender": "The address which will spend the funds.",
          "_value": "The amount of tokens to be spent."
        }
      },
      "balanceOf(address)": {
        "details": "Gets the balance of the specified address.",
        "params": {
          "_owner": "The address to query the the balance of. "
        },
        "return": "An uint256 representing the amount owned by the passed address."
      },
      "constructor": {
        "details": "TierionNetworkToken Constructor Runs only on initial contract creation."
      },
      "isOwner()": {
        "return": "true if `msg.sender` is the owner of the contract."
      },
      "mint(address[],bytes32,bytes,bytes,bytes,bytes,bytes,bytes)": {
        "details": "Mint tokens and send to the address providedonly Chainpoint Core Operators can invoke this method",
        "params": {
          "_nodes": "The addresses of Nodes which will receive the funds."
        }
      },
      "owner()": {
        "return": "the address of the owner."
      },
      "pause()": {
        "details": "called by the owner to pause, triggers stopped state"
      },
      "paused()": {
        "return": "true if the contract is paused, false otherwise."
      },
      "purchaseUsage(uint256)": {
        "details": "Purchase Usage tokens, will burn tokens and emit a UsagePurchased & Transfer eventChainpoint Nodes will be invoking this method to purchase access to the Network",
        "params": {
          "_value": "The amount of tokens to be spent."
        },
        "return": "Boolean indicating result of method execution"
      },
      "renounceOwnership()": {
        "details": "Allows the current owner to relinquish control of the contract."
      },
      "setChainpointRegistry(address)": {
        "details": "Sets the contract address for the Chainpoint RegistryCan only be invoked by contract owner",
        "params": {
          "_addr": "The contract address of the Chainpoint Registry"
        },
        "return": "Boolean indicating result of method execution"
      },
      "transfer(address,uint256)": {
        "details": "Transfer token for a specified address when not paused",
        "params": {
          "_to": "The address to transfer to.",
          "_value": "The amount to be transferred."
        }
      },
      "transferFrom(address,address,uint256)": {
        "details": "Transfer tokens from one address to another when not paused",
        "params": {
          "_from": "address The address which you want to send tokens from",
          "_to": "address The address which you want to transfer to",
          "_value": "uint256 the amount of tokens to be transferred"
        }
      },
      "transferOwnership(address)": {
        "details": "Allows the current owner to transfer control of the contract to a newOwner.",
        "params": {
          "newOwner": "The address to transfer ownership to."
        }
      },
      "unpause()": {
        "details": "called by the owner to unpause, returns to normal state"
      }
    },
    "title": "Tierion Network Token"
  },
  "userdoc": {
    "methods": {
      "renounceOwnership()": {
        "notice": "Renouncing to ownership will leave the contract without an owner. It will not be possible to call the functions with the `onlyOwner` modifier anymore."
      }
    }
  }
}