{
  "contractName": "TierionNetworkToken",
  "abi": [
    {
      "constant": true,
      "inputs": [],
      "name": "name",
      "outputs": [
        {
          "name": "",
          "type": "string"
        }
      ],
      "payable": false,
      "stateMutability": "view",
      "type": "function",
      "signature": "0x06fdde03"
    },
    {
      "constant": true,
      "inputs": [],
      "name": "migrationContract",
      "outputs": [
        {
          "name": "",
          "type": "address"
        }
      ],
      "payable": false,
      "stateMutability": "view",
      "type": "function",
      "signature": "0x0fee1a20"
    },
    {
      "constant": true,
      "inputs": [],
      "name": "totalSupply",
      "outputs": [
        {
          "name": "",
          "type": "uint256"
        }
      ],
      "payable": false,
      "stateMutability": "view",
      "type": "function",
      "signature": "0x18160ddd"
    },
    {
      "constant": true,
      "inputs": [],
      "name": "INITIAL_SUPPLY",
      "outputs": [
        {
          "name": "",
          "type": "uint256"
        }
      ],
      "payable": false,
      "stateMutability": "view",
      "type": "function",
      "signature": "0x2ff2e9dc"
    },
    {
      "constant": true,
      "inputs": [],
      "name": "decimals",
      "outputs": [
        {
          "name": "",
          "type": "uint8"
        }
      ],
      "payable": false,
      "stateMutability": "view",
      "type": "function",
      "signature": "0x313ce567"
    },
    {
      "constant": false,
      "inputs": [],
      "name": "unpause",
      "outputs": [],
      "payable": false,
      "stateMutability": "nonpayable",
      "type": "function",
      "signature": "0x3f4ba83a"
    },
    {
      "constant": true,
      "inputs": [
        {
          "name": "account",
          "type": "address"
        }
      ],
      "name": "isPauser",
      "outputs": [
        {
          "name": "",
          "type": "bool"
        }
      ],
      "payable": false,
      "stateMutability": "view",
      "type": "function",
      "signature": "0x46fbf68e"
    },
    {
      "constant": true,
      "inputs": [],
      "name": "coreLastMintedAtBlock",
      "outputs": [
        {
          "name": "",
          "type": "uint256"
        }
      ],
      "payable": false,
      "stateMutability": "view",
      "type": "function",
      "signature": "0x4c5f25dd"
    },
    {
      "constant": true,
      "inputs": [],
      "name": "mintAmount",
      "outputs": [
        {
          "name": "",
          "type": "uint256"
        }
      ],
      "payable": false,
      "stateMutability": "view",
      "type": "function",
      "signature": "0x5a2bcc18"
    },
    {
      "constant": true,
      "inputs": [],
      "name": "nodeLastMintedAtBlock",
      "outputs": [
        {
          "name": "",
          "type": "uint256"
        }
      ],
      "payable": false,
      "stateMutability": "view",
      "type": "function",
      "signature": "0x5a8ef28b"
    },
    {
      "constant": true,
      "inputs": [
        {
          "name": "",
          "type": "address"
        },
        {
          "name": "",
          "type": "address"
        }
      ],
      "name": "allowed",
      "outputs": [
        {
          "name": "",
          "type": "uint256"
        }
      ],
      "payable": false,
      "stateMutability": "view",
      "type": "function",
      "signature": "0x5c658165"
    },
    {
      "constant": true,
      "inputs": [],
      "name": "paused",
      "outputs": [
        {
          "name": "",
          "type": "bool"
        }
      ],
      "payable": false,
      "stateMutability": "view",
      "type": "function",
      "signature": "0x5c975abb"
    },
    {
      "constant": false,
      "inputs": [],
      "name": "renouncePauser",
      "outputs": [],
      "payable": false,
      "stateMutability": "nonpayable",
      "type": "function",
      "signature": "0x6ef8d66d"
    },
    {
      "constant": true,
      "inputs": [
        {
          "name": "_owner",
          "type": "address"
        }
      ],
      "name": "balanceOf",
      "outputs": [
        {
          "name": "balance",
          "type": "uint256"
        }
      ],
      "payable": false,
      "stateMutability": "view",
      "type": "function",
      "signature": "0x70a08231"
    },
    {
      "constant": false,
      "inputs": [],
      "name": "renounceOwnership",
      "outputs": [],
      "payable": false,
      "stateMutability": "nonpayable",
      "type": "function",
      "signature": "0x715018a6"
    },
    {
      "constant": false,
      "inputs": [
        {
          "name": "account",
          "type": "address"
        }
      ],
      "name": "addPauser",
      "outputs": [],
      "payable": false,
      "stateMutability": "nonpayable",
      "type": "function",
      "signature": "0x82dc1ec4"
    },
    {
      "constant": false,
      "inputs": [],
      "name": "pause",
      "outputs": [],
      "payable": false,
      "stateMutability": "nonpayable",
      "type": "function",
      "signature": "0x8456cb59"
    },
    {
      "constant": true,
      "inputs": [],
      "name": "nodeLastMintedAt",
      "outputs": [
        {
          "name": "",
          "type": "uint256"
        }
      ],
      "payable": false,
      "stateMutability": "view",
      "type": "function",
      "signature": "0x898e0025"
    },
    {
      "constant": true,
      "inputs": [],
      "name": "owner",
      "outputs": [
        {
          "name": "",
          "type": "address"
        }
      ],
      "payable": false,
      "stateMutability": "view",
      "type": "function",
      "signature": "0x8da5cb5b"
    },
    {
      "constant": true,
      "inputs": [],
      "name": "isOwner",
      "outputs": [
        {
          "name": "",
          "type": "bool"
        }
      ],
      "payable": false,
      "stateMutability": "view",
      "type": "function",
      "signature": "0x8f32d59b"
    },
    {
      "constant": true,
      "inputs": [],
      "name": "symbol",
      "outputs": [
        {
          "name": "",
          "type": "string"
        }
      ],
      "payable": false,
      "stateMutability": "view",
      "type": "function",
      "signature": "0x95d89b41"
    },
    {
      "constant": true,
      "inputs": [],
      "name": "mintingInterval",
      "outputs": [
        {
          "name": "",
          "type": "uint256"
        }
      ],
      "payable": false,
      "stateMutability": "view",
      "type": "function",
      "signature": "0xa3059ef0"
    },
    {
      "constant": true,
      "inputs": [],
      "name": "chainpointRegistry",
      "outputs": [
        {
          "name": "",
          "type": "address"
        }
      ],
      "payable": false,
      "stateMutability": "view",
      "type": "function",
      "signature": "0xba60ad97"
    },
    {
      "constant": true,
      "inputs": [
        {
          "name": "_owner",
          "type": "address"
        },
        {
          "name": "_spender",
          "type": "address"
        }
      ],
      "name": "allowance",
      "outputs": [
        {
          "name": "remaining",
          "type": "uint256"
        }
      ],
      "payable": false,
      "stateMutability": "view",
      "type": "function",
      "signature": "0xdd62ed3e"
    },
    {
      "constant": true,
      "inputs": [
        {
          "name": "",
          "type": "uint256"
        },
        {
          "name": "",
          "type": "address"
        }
      ],
      "name": "coreMintingSignaturesUsed",
      "outputs": [
        {
          "name": "",
          "type": "bool"
        }
      ],
      "payable": false,
      "stateMutability": "view",
      "type": "function",
      "signature": "0xdeb29ccc"
    },
    {
      "constant": false,
      "inputs": [
        {
          "name": "newOwner",
          "type": "address"
        }
      ],
      "name": "transferOwnership",
      "outputs": [],
      "payable": false,
      "stateMutability": "nonpayable",
      "type": "function",
      "signature": "0xf2fde38b"
    },
    {
      "inputs": [
        {
          "name": "_faucetAddr",
          "type": "address"
        },
        {
          "name": "_migrationAddr",
          "type": "address"
        }
      ],
      "payable": false,
      "stateMutability": "nonpayable",
      "type": "constructor",
      "signature": "constructor"
    },
    {
      "anonymous": false,
      "inputs": [
        {
          "indexed": false,
          "name": "_nodes",
          "type": "address[]"
        },
        {
          "indexed": false,
          "name": "_mintAmount",
          "type": "uint256"
        },
        {
          "indexed": false,
          "name": "_blockHeight",
          "type": "uint256"
        }
      ],
      "name": "Mint",
      "type": "event",
      "signature": "0x35cc581d6103df194c8c20f437d4b065c9107097eb2ba6f9702489434e03b64c"
    },
    {
      "anonymous": false,
      "inputs": [
        {
          "indexed": false,
          "name": "_buyer",
          "type": "address"
        },
        {
          "indexed": false,
          "name": "_value",
          "type": "uint256"
        }
      ],
      "name": "UsagePurchased",
      "type": "event",
      "signature": "0x0651f693d262f8b7c2f4a40577914247c33a4eb3fa57d735c8ac49be550021cb"
    },
    {
      "anonymous": false,
      "inputs": [
        {
          "indexed": false,
          "name": "_recoveredSigs",
          "type": "uint256"
        },
        {
          "indexed": false,
          "name": "_majority",
          "type": "uint256"
        }
      ],
      "name": "MintCores",
      "type": "event",
      "signature": "0x824f78bf2ab7a49cec00f2870b45c4a1aeedb5fb1f2472cd63cd721c5bd55fdd"
    },
    {
      "anonymous": false,
      "inputs": [
        {
          "indexed": false,
          "name": "account",
          "type": "address"
        }
      ],
      "name": "Paused",
      "type": "event",
      "signature": "0x62e78cea01bee320cd4e420270b5ea74000d11b0c9f74754ebdbfc544b05a258"
    },
    {
      "anonymous": false,
      "inputs": [
        {
          "indexed": false,
          "name": "account",
          "type": "address"
        }
      ],
      "name": "Unpaused",
      "type": "event",
      "signature": "0x5db9ee0a495bf2e6ff9c91a7834c1ba4fdd244a5e8aa4e537bd38aeae4b073aa"
    },
    {
      "anonymous": false,
      "inputs": [
        {
          "indexed": true,
          "name": "account",
          "type": "address"
        }
      ],
      "name": "PauserAdded",
      "type": "event",
      "signature": "0x6719d08c1888103bea251a4ed56406bd0c3e69723c8a1686e017e7bbe159b6f8"
    },
    {
      "anonymous": false,
      "inputs": [
        {
          "indexed": true,
          "name": "account",
          "type": "address"
        }
      ],
      "name": "PauserRemoved",
      "type": "event",
      "signature": "0xcd265ebaf09df2871cc7bd4133404a235ba12eff2041bb89d9c714a2621c7c7e"
    },
    {
      "anonymous": false,
      "inputs": [
        {
          "indexed": true,
          "name": "previousOwner",
          "type": "address"
        },
        {
          "indexed": true,
          "name": "newOwner",
          "type": "address"
        }
      ],
      "name": "OwnershipTransferred",
      "type": "event",
      "signature": "0x8be0079c531659141344cd1fd0a4f28419497f9722a3daafe3b4186f6b6457e0"
    },
    {
      "anonymous": false,
      "inputs": [
        {
          "indexed": true,
          "name": "owner",
          "type": "address"
        },
        {
          "indexed": true,
          "name": "spender",
          "type": "address"
        },
        {
          "indexed": false,
          "name": "value",
          "type": "uint256"
        }
      ],
      "name": "Approval",
      "type": "event",
      "signature": "0x8c5be1e5ebec7d5bd14f71427d1e84f3dd0314c0f7b2291e5b200ac8c7c3b925"
    },
    {
      "anonymous": false,
      "inputs": [
        {
          "indexed": true,
          "name": "from",
          "type": "address"
        },
        {
          "indexed": true,
          "name": "to",
          "type": "address"
        },
        {
          "indexed": false,
          "name": "value",
          "type": "uint256"
        }
      ],
      "name": "Transfer",
      "type": "event",
      "signature": "0xddf252ad1be2c89b69c2b068fc378daa952ba7f163c4a11628f55a4df523b3ef"
    },
    {
      "constant": false,
      "inputs": [
        {
          "name": "_to",
          "type": "address"
        },
        {
          "name": "_value",
          "type": "uint256"
        }
      ],
      "name": "transfer",
      "outputs": [
        {
          "name": "",
          "type": "bool"
        }
      ],
      "payable": false,
      "stateMutability": "nonpayable",
      "type": "function",
      "signature": "0xa9059cbb"
    },
    {
      "constant": false,
      "inputs": [
        {
          "name": "_from",
          "type": "address"
        },
        {
          "name": "_to",
          "type": "address"
        },
        {
          "name": "_value",
          "type": "uint256"
        }
      ],
      "name": "transferFrom",
      "outputs": [
        {
          "name": "",
          "type": "bool"
        }
      ],
      "payable": false,
      "stateMutability": "nonpayable",
      "type": "function",
      "signature": "0x23b872dd"
    },
    {
      "constant": false,
      "inputs": [
        {
          "name": "_spender",
          "type": "address"
        },
        {
          "name": "_value",
          "type": "uint256"
        }
      ],
      "name": "approve",
      "outputs": [
        {
          "name": "",
          "type": "bool"
        }
      ],
      "payable": false,
      "stateMutability": "nonpayable",
      "type": "function",
      "signature": "0x095ea7b3"
    },
    {
      "constant": false,
      "inputs": [
        {
          "name": "_nodes",
          "type": "address[]"
        },
        {
          "name": "_hash",
          "type": "bytes32"
        },
        {
          "name": "signature1",
          "type": "bytes"
        },
        {
          "name": "signature2",
          "type": "bytes"
        },
        {
          "name": "signature3",
          "type": "bytes"
        },
        {
          "name": "signature4",
          "type": "bytes"
        },
        {
          "name": "signature5",
          "type": "bytes"
        },
        {
          "name": "signature6",
          "type": "bytes"
        }
      ],
      "name": "mint",
      "outputs": [
        {
          "name": "",
          "type": "bool"
        }
      ],
      "payable": false,
      "stateMutability": "nonpayable",
      "type": "function",
      "signature": "0x382e6fdb"
    },
    {
      "constant": false,
      "inputs": [
        {
          "name": "_cores",
          "type": "address[]"
        },
        {
          "name": "_hash",
          "type": "bytes32"
        },
        {
          "name": "sigs",
          "type": "bytes[126]"
        }
      ],
      "name": "mintCores",
      "outputs": [
        {
          "name": "",
          "type": "bool"
        }
      ],
      "payable": false,
      "stateMutability": "nonpayable",
      "type": "function",
      "signature": "0xcd3e4798"
    },
    {
      "constant": false,
      "inputs": [
        {
          "name": "_value",
          "type": "uint256"
        }
      ],
      "name": "purchaseUsage",
      "outputs": [
        {
          "name": "",
          "type": "bool"
        }
      ],
      "payable": false,
      "stateMutability": "nonpayable",
      "type": "function",
      "signature": "0xb55968ec"
    },
    {
      "constant": false,
      "inputs": [
        {
          "name": "_to",
          "type": "address"
        },
        {
          "name": "_amount",
          "type": "uint256"
        }
      ],
      "name": "mintForExchange",
      "outputs": [
        {
          "name": "",
          "type": "bool"
        }
      ],
      "payable": false,
      "stateMutability": "nonpayable",
      "type": "function",
      "signature": "0xdcfd2b9f"
    },
    {
      "constant": false,
      "inputs": [
        {
          "name": "_addr",
          "type": "address"
        }
      ],
      "name": "setChainpointRegistry",
      "outputs": [
        {
          "name": "",
          "type": "bool"
        }
      ],
      "payable": false,
      "stateMutability": "nonpayable",
      "type": "function",
      "signature": "0x44ea8d44"
    },
    {
      "constant": true,
      "inputs": [
        {
          "name": "hash",
          "type": "bytes32"
        },
        {
          "name": "signature",
          "type": "bytes"
        }
      ],
      "name": "recover",
      "outputs": [
        {
          "name": "",
          "type": "address"
        }
      ],
      "payable": false,
      "stateMutability": "pure",
      "type": "function",
      "signature": "0x19045a25"
    },
    {
      "constant": true,
      "inputs": [
        {
          "name": "hash",
          "type": "bytes32"
        }
      ],
      "name": "toEthSignedMessageHash",
      "outputs": [
        {
          "name": "",
          "type": "bytes32"
        }
      ],
      "payable": false,
      "stateMutability": "pure",
      "type": "function",
      "signature": "0x918a15cf"
    },
    {
      "constant": true,
      "inputs": [],
      "name": "isMigrationContract",
      "outputs": [
        {
          "name": "",
          "type": "bool"
        }
      ],
      "payable": false,
      "stateMutability": "view",
      "type": "function",
      "signature": "0x59c2ff07"
    }
  ],
  "bytecode": "0x60806040526040805190810160405280601581526020017f54696572696f6e204e6574776f726b20546f6b656e0000000000000000000000815250600690805190602001906200005192919062000544565b506040805190810160405280600381526020017f544e540000000000000000000000000000000000000000000000000000000000815250600790805190602001906200009f92919062000544565b5060088060006101000a81548160ff021916908360ff160217905550600860009054906101000a900460ff1660ff16600a0a621e848002600955600860009054906101000a900460ff1660ff16600a0a6107d002600a55611680600b556000600c556000600d556000600e556000600f553480156200011d57600080fd5b506040516040806200400b83398101806040526200013f919081019062000609565b33600360006101000a81548173ffffffffffffffffffffffffffffffffffffffff021916908373ffffffffffffffffffffffffffffffffffffffff160217905550600360009054906101000a900473ffffffffffffffffffffffffffffffffffffffff1673ffffffffffffffffffffffffffffffffffffffff16600073ffffffffffffffffffffffffffffffffffffffff167f8be0079c531659141344cd1fd0a4f28419497f9722a3daafe3b4186f6b6457e060405160405180910390a3620002173362000356640100000000026401000000009004565b6000600560006101000a81548160ff021916908315150217905550600954600081905550620002616002600954620003c06401000000000262002833179091906401000000009004565b600160008473ffffffffffffffffffffffffffffffffffffffff1673ffffffffffffffffffffffffffffffffffffffff16815260200190815260200160002081905550620002ca6002600954620003c06401000000000262002833179091906401000000009004565b600160003373ffffffffffffffffffffffffffffffffffffffff1673ffffffffffffffffffffffffffffffffffffffff1681526020019081526020016000208190555080601160006101000a81548173ffffffffffffffffffffffffffffffffffffffff021916908373ffffffffffffffffffffffffffffffffffffffff16021790555050506200067e565b6200037a816004620003ec6401000000000262002a2a179091906401000000009004565b8073ffffffffffffffffffffffffffffffffffffffff167f6719d08c1888103bea251a4ed56406bd0c3e69723c8a1686e017e7bbe159b6f860405160405180910390a250565b60008082111515620003d157600080fd5b60008284811515620003df57fe5b0490508091505092915050565b600073ffffffffffffffffffffffffffffffffffffffff168173ffffffffffffffffffffffffffffffffffffffff16141515156200042957600080fd5b620004448282620004af640100000000026401000000009004565b1515156200045157600080fd5b60018260000160008373ffffffffffffffffffffffffffffffffffffffff1673ffffffffffffffffffffffffffffffffffffffff16815260200190815260200160002060006101000a81548160ff0219169083151502179055505050565b60008073ffffffffffffffffffffffffffffffffffffffff168273ffffffffffffffffffffffffffffffffffffffff1614151515620004ed57600080fd5b8260000160008373ffffffffffffffffffffffffffffffffffffffff1673ffffffffffffffffffffffffffffffffffffffff16815260200190815260200160002060009054906101000a900460ff16905092915050565b828054600181600116156101000203166002900490600052602060002090601f016020900481019282601f106200058757805160ff1916838001178555620005b8565b82800160010185558215620005b8579182015b82811115620005b75782518255916020019190600101906200059a565b5b509050620005c79190620005cb565b5090565b620005f091905b80821115620005ec576000816000905550600101620005d2565b5090565b90565b60006200060182516200066a565b905092915050565b600080604083850312156200061d57600080fd5b60006200062d85828601620005f3565b92505060206200064085828601620005f3565b9150509250929050565b600073ffffffffffffffffffffffffffffffffffffffff82169050919050565b600062000677826200064a565b9050919050565b61397d806200068e6000396000f3fe6080604052600436106101cd576000357c0100000000000000000000000000000000000000000000000000000000900463ffffffff16806306fdde03146101d2578063095ea7b3146101fd5780630fee1a201461023a57806318160ddd1461026557806319045a251461029057806323b872dd146102cd5780632ff2e9dc1461030a578063313ce56714610335578063382e6fdb146103605780633f4ba83a1461039d57806344ea8d44146103b457806346fbf68e146103f15780634c5f25dd1461042e57806359c2ff07146104595780635a2bcc18146104845780635a8ef28b146104af5780635c658165146104da5780635c975abb146105175780636ef8d66d1461054257806370a0823114610559578063715018a61461059657806382dc1ec4146105ad5780638456cb59146105d6578063898e0025146105ed5780638da5cb5b146106185780638f32d59b14610643578063918a15cf1461066e57806395d89b41146106ab578063a3059ef0146106d6578063a9059cbb14610701578063b55968ec1461073e578063ba60ad971461077b578063cd3e4798146107a6578063dcfd2b9f146107e3578063dd62ed3e14610820578063deb29ccc1461085d578063f2fde38b1461089a575b600080fd5b3480156101de57600080fd5b506101e76108c3565b6040516101f49190613581565b60405180910390f35b34801561020957600080fd5b50610224600480360361021f9190810190612d9e565b610961565b6040516102319190613515565b60405180910390f35b34801561024657600080fd5b5061024f610991565b60405161025c919061354b565b60405180910390f35b34801561027157600080fd5b5061027a6109b7565b6040516102879190613683565b60405180910390f35b34801561029c57600080fd5b506102b760048036036102b29190810190613005565b6109bd565b6040516102c49190613478565b60405180910390f35b3480156102d957600080fd5b506102f460048036036102ef9190810190612d4f565b6109da565b6040516103019190613515565b60405180910390f35b34801561031657600080fd5b5061031f610a48565b60405161032c9190613683565b60405180910390f35b34801561034157600080fd5b5061034a610a4e565b60405161035791906136c7565b60405180910390f35b34801561036c57600080fd5b5061038760048036036103829190810190612e59565b610a61565b6040516103949190613515565b60405180910390f35b3480156103a957600080fd5b506103b26111c5565b005b3480156103c057600080fd5b506103db60048036036103d69190810190612cea565b611248565b6040516103e89190613515565b60405180910390f35b3480156103fd57600080fd5b5061041860048036036104139190810190612cea565b6112e3565b6040516104259190613515565b60405180910390f35b34801561043a57600080fd5b50610443611300565b6040516104509190613683565b60405180910390f35b34801561046557600080fd5b5061046e611306565b60405161047b9190613515565b60405180910390f35b34801561049057600080fd5b5061049961135e565b6040516104a69190613683565b60405180910390f35b3480156104bb57600080fd5b506104c4611364565b6040516104d19190613683565b60405180910390f35b3480156104e657600080fd5b5061050160048036036104fc9190810190612d13565b61136a565b60405161050e9190613683565b60405180910390f35b34801561052357600080fd5b5061052c61138f565b6040516105399190613515565b60405180910390f35b34801561054e57600080fd5b506105576113a6565b005b34801561056557600080fd5b50610580600480360361057b9190810190612cea565b6113b1565b60405161058d9190613683565b60405180910390f35b3480156105a257600080fd5b506105ab6113fa565b005b3480156105b957600080fd5b506105d460048036036105cf9190810190612cea565b6114ce565b005b3480156105e257600080fd5b506105eb6114ee565b005b3480156105f957600080fd5b50610602611572565b60405161060f9190613683565b60405180910390f35b34801561062457600080fd5b5061062d611578565b60405161063a9190613478565b60405180910390f35b34801561064f57600080fd5b506106586115a2565b6040516106659190613515565b60405180910390f35b34801561067a57600080fd5b5061069560048036036106909190810190612fdc565b6115fa565b6040516106a29190613530565b60405180910390f35b3480156106b757600080fd5b506106c061160c565b6040516106cd9190613581565b60405180910390f35b3480156106e257600080fd5b506106eb6116aa565b6040516106f89190613683565b60405180910390f35b34801561070d57600080fd5b5061072860048036036107239190810190612d9e565b6116b0565b6040516107359190613515565b60405180910390f35b34801561074a57600080fd5b5061076560048036036107609190810190613059565b61171c565b6040516107729190613515565b60405180910390f35b34801561078757600080fd5b5061079061176a565b60405161079d9190613566565b60405180910390f35b3480156107b257600080fd5b506107cd60048036036107c89190810190612dda565b611790565b6040516107da9190613515565b60405180910390f35b3480156107ef57600080fd5b5061080a60048036036108059190810190612d9e565b611bbb565b6040516108179190613515565b60405180910390f35b34801561082c57600080fd5b5061084760048036036108429190810190612d13565b611bd1565b6040516108549190613683565b60405180910390f35b34801561086957600080fd5b50610884600480360361087f9190810190613082565b611c58565b6040516108919190613515565b60405180910390f35b3480156108a657600080fd5b506108c160048036036108bc9190810190612cea565b611c87565b005b60068054600181600116156101000203166002900480601f0160208091040260200160405190810160405280929190818152602001828054600181600116156101000203166002900480156109595780601f1061092e57610100808354040283529160200191610959565b820191906000526020600020905b81548152906001019060200180831161093c57829003601f168201915b505050505081565b6000600560009054906101000a900460ff1615151561097f57600080fd5b6109898383611ca6565b905092915050565b601160009054906101000a900473ffffffffffffffffffffffffffffffffffffffff1681565b60005481565b60006109d28284611e2d90919063ffffffff16565b905092915050565b6000600560009054906101000a900460ff161515156109f857600080fd5b600073ffffffffffffffffffffffffffffffffffffffff168373ffffffffffffffffffffffffffffffffffffffff1614151515610a3457600080fd5b610a3f848484611f11565b90509392505050565b60095481565b600860009054906101000a900460ff1681565b6000600560009054906101000a900460ff16151515610a7f57600080fd5b601060009054906101000a900473ffffffffffffffffffffffffffffffffffffffff1673ffffffffffffffffffffffffffffffffffffffff16639273cce8336040518263ffffffff167c0100000000000000000000000000000000000000000000000000000000028152600401610af69190613493565b60206040518083038186803b158015610b0e57600080fd5b505afa158015610b22573d6000803e3d6000fd5b505050506040513d601f19601f82011682018060405250610b469190810190612fb3565b1515610b87576040517f08c379a0000000000000000000000000000000000000000000000000000000008152600401610b7e90613623565b60405180910390fd5b6000600d541480610bae5750610baa600b54600d546121bc90919063ffffffff16565b4310155b1515610bef576040517f08c379a0000000000000000000000000000000000000000000000000000000008152600401610be690613663565b60405180910390fd5b6048895111151515610c36576040517f08c379a0000000000000000000000000000000000000000000000000000000008152600401610c2d90613643565b60405180910390fd5b610c4986886121dd90919063ffffffff16565b158015610c665750610c6485886121dd90919063ffffffff16565b155b8015610c825750610c8084886121dd90919063ffffffff16565b155b8015610c9e5750610c9c83886121dd90919063ffffffff16565b155b8015610cba5750610cb882886121dd90919063ffffffff16565b155b1515610cfb576040517f08c379a0000000000000000000000000000000000000000000000000000000008152600401610cf2906135e3565b60405180910390fd5b610d0e85876121dd90919063ffffffff16565b158015610d2b5750610d2984876121dd90919063ffffffff16565b155b8015610d475750610d4583876121dd90919063ffffffff16565b155b8015610d635750610d6182876121dd90919063ffffffff16565b155b1515610da4576040517f08c379a0000000000000000000000000000000000000000000000000000000008152600401610d9b906135e3565b60405180910390fd5b610db784866121dd90919063ffffffff16565b158015610dd45750610dd283866121dd90919063ffffffff16565b155b8015610df05750610dee82866121dd90919063ffffffff16565b155b1515610e31576040517f08c379a0000000000000000000000000000000000000000000000000000000008152600401610e28906135e3565b60405180910390fd5b610e4483856121dd90919063ffffffff16565b158015610e615750610e5f82856121dd90919063ffffffff16565b155b1515610ea2576040517f08c379a0000000000000000000000000000000000000000000000000000000008152600401610e99906135e3565b60405180910390fd5b610eb582846121dd90919063ffffffff16565b151515610ef7576040517f08c379a0000000000000000000000000000000000000000000000000000000008152600401610eee906135e3565b60405180910390fd5b60008960405160200180828051906020019060200280838360005b83811015610f2d578082015181840152602081019050610f12565b5050505090500191505060405160208183030381529060405280519060200120905088610f598261224c565b141515610f9b576040517f08c379a0000000000000000000000000000000000000000000000000000000008152600401610f9290613603565b60405180910390fd5b610fa3612ada565b60c0604051908101604052808a815260200189815260200188815260200187815260200186815260200185815250905060008090505b60068160ff16101561112157601060009054906101000a900473ffffffffffffffffffffffffffffffffffffffff1673ffffffffffffffffffffffffffffffffffffffff16639273cce861104b848460ff1660068110151561103757fe5b60200201518e611e2d90919063ffffffff16565b6040518263ffffffff167c01000000000000000000000000000000000000000000000000000000000281526004016110839190613478565b60206040518083038186803b15801561109b57600080fd5b505afa1580156110af573d6000803e3d6000fd5b505050506040513d601f19601f820116820180604052506110d39190810190612fb3565b1515611114576040517f08c379a000000000000000000000000000000000000000000000000000000000815260040161110b906135c3565b60405180910390fd5b8080600101915050610fd9565b5043600d8190555042600c8190555060008090505b8b518160ff161015611175576111688c8260ff1681518110151561115657fe5b90602001906020020151600a546122a4565b8080600101915050611136565b507f35cc581d6103df194c8c20f437d4b065c9107097eb2ba6f9702489434e03b64c8b600a54436040516111ab939291906134d7565b60405180910390a160019250505098975050505050505050565b6111ce336112e3565b15156111d957600080fd5b600560009054906101000a900460ff1615156111f457600080fd5b6000600560006101000a81548160ff0219169083151502179055507f5db9ee0a495bf2e6ff9c91a7834c1ba4fdd244a5e8aa4e537bd38aeae4b073aa3360405161123e9190613493565b60405180910390a1565b60006112526115a2565b151561125d57600080fd5b600073ffffffffffffffffffffffffffffffffffffffff168273ffffffffffffffffffffffffffffffffffffffff161415151561129957600080fd5b81601060006101000a81548173ffffffffffffffffffffffffffffffffffffffff021916908373ffffffffffffffffffffffffffffffffffffffff16021790555060019050919050565b60006112f98260046123fa90919063ffffffff16565b9050919050565b600f5481565b6000601160009054906101000a900473ffffffffffffffffffffffffffffffffffffffff1673ffffffffffffffffffffffffffffffffffffffff163373ffffffffffffffffffffffffffffffffffffffff1614905090565b600a5481565b600d5481565b6002602052816000526040600020602052806000526040600020600091509150505481565b6000600560009054906101000a900460ff16905090565b6113af3361248e565b565b6000600160008373ffffffffffffffffffffffffffffffffffffffff1673ffffffffffffffffffffffffffffffffffffffff168152602001908152602001600020549050919050565b6114026115a2565b151561140d57600080fd5b600073ffffffffffffffffffffffffffffffffffffffff16600360009054906101000a900473ffffffffffffffffffffffffffffffffffffffff1673ffffffffffffffffffffffffffffffffffffffff167f8be0079c531659141344cd1fd0a4f28419497f9722a3daafe3b4186f6b6457e060405160405180910390a36000600360006101000a81548173ffffffffffffffffffffffffffffffffffffffff021916908373ffffffffffffffffffffffffffffffffffffffff160217905550565b6114d7336112e3565b15156114e257600080fd5b6114eb816124e8565b50565b6114f7336112e3565b151561150257600080fd5b600560009054906101000a900460ff1615151561151e57600080fd5b6001600560006101000a81548160ff0219169083151502179055507f62e78cea01bee320cd4e420270b5ea74000d11b0c9f74754ebdbfc544b05a258336040516115689190613493565b60405180910390a1565b600c5481565b6000600360009054906101000a900473ffffffffffffffffffffffffffffffffffffffff16905090565b6000600360009054906101000a900473ffffffffffffffffffffffffffffffffffffffff1673ffffffffffffffffffffffffffffffffffffffff163373ffffffffffffffffffffffffffffffffffffffff1614905090565b60006116058261224c565b9050919050565b60078054600181600116156101000203166002900480601f0160208091040260200160405190810160405280929190818152602001828054600181600116156101000203166002900480156116a25780601f10611677576101008083540402835291602001916116a2565b820191906000526020600020905b81548152906001019060200180831161168557829003601f168201915b505050505081565b600b5481565b6000600560009054906101000a900460ff161515156116ce57600080fd5b600073ffffffffffffffffffffffffffffffffffffffff168373ffffffffffffffffffffffffffffffffffffffff161415151561170a57600080fd5b6117148383612542565b905092915050565b600061172833836126dd565b7f0651f693d262f8b7c2f4a40577914247c33a4eb3fa57d735c8ac49be550021cb33836040516117599291906134ae565b60405180910390a160019050919050565b601060009054906101000a900473ffffffffffffffffffffffffffffffffffffffff1681565b6000600560009054906101000a900460ff161515156117ae57600080fd5b606060006040519080825280601f01601f1916602001820160405280156117e45781602001600182028038833980820191505090505b50905060008560405160200180828051906020019060200280838360005b8381101561181d578082015181840152602081019050611802565b50505050905001915050604051602081830303815290604052805190602001209050846118498261224c565b14151561188b576040517f08c379a0000000000000000000000000000000000000000000000000000000008152600401611882906135a3565b60405180910390fd5b600080905060006118ba60016118ac6002600661283390919063ffffffff16565b6121bc90919063ffffffff16565b905060008090505b607e8160ff161015611b2c576118f685888360ff16607e811015156118e357fe5b60200201516121dd90919063ffffffff16565b1561190057611b2c565b600061192a888360ff16607e8110151561191657fe5b60200201518a611e2d90919063ffffffff16565b9050601060009054906101000a900473ffffffffffffffffffffffffffffffffffffffff1673ffffffffffffffffffffffffffffffffffffffff16639273cce8826040518263ffffffff167c01000000000000000000000000000000000000000000000000000000000281526004016119a39190613478565b60206040518083038186803b1580156119bb57600080fd5b505afa1580156119cf573d6000803e3d6000fd5b505050506040513d601f19601f820116820180604052506119f39190810190612fb3565b1515611a34576040517f08c379a0000000000000000000000000000000000000000000000000000000008152600401611a2b906135c3565b60405180910390fd5b600015156012600043815260200190815260200160002060008373ffffffffffffffffffffffffffffffffffffffff1673ffffffffffffffffffffffffffffffffffffffff16815260200190815260200160002060009054906101000a900460ff1615151415611b1e5760016012600043815260200190815260200160002060008373ffffffffffffffffffffffffffffffffffffffff1673ffffffffffffffffffffffffffffffffffffffff16815260200190815260200160002060006101000a81548160ff021916908315150217905550611b1b6001856121bc90919063ffffffff16565b93505b5080806001019150506118c2565b5060008090505b88518160ff161015611b7257611b65898260ff16815181101515611b5357fe5b90602001906020020151600a546122a4565b8080600101915050611b33565b507f824f78bf2ab7a49cec00f2870b45c4a1aeedb5fb1f2472cd63cd721c5bd55fdd8282604051611ba492919061369e565b60405180910390a160019450505050509392505050565b6000611bc783836122a4565b6001905092915050565b6000600260008473ffffffffffffffffffffffffffffffffffffffff1673ffffffffffffffffffffffffffffffffffffffff16815260200190815260200160002060008373ffffffffffffffffffffffffffffffffffffffff1673ffffffffffffffffffffffffffffffffffffffff16815260200190815260200160002054905092915050565b60126020528160005260406000206020528060005260406000206000915091509054906101000a900460ff1681565b611c8f6115a2565b1515611c9a57600080fd5b611ca38161285d565b50565b600080821480611d3257506000600260003373ffffffffffffffffffffffffffffffffffffffff1673ffffffffffffffffffffffffffffffffffffffff16815260200190815260200160002060008573ffffffffffffffffffffffffffffffffffffffff1673ffffffffffffffffffffffffffffffffffffffff16815260200190815260200160002054145b1515611d3d57600080fd5b81600260003373ffffffffffffffffffffffffffffffffffffffff1673ffffffffffffffffffffffffffffffffffffffff16815260200190815260200160002060008573ffffffffffffffffffffffffffffffffffffffff1673ffffffffffffffffffffffffffffffffffffffff168152602001908152602001600020819055508273ffffffffffffffffffffffffffffffffffffffff163373ffffffffffffffffffffffffffffffffffffffff167f8c5be1e5ebec7d5bd14f71427d1e84f3dd0314c0f7b2291e5b200ac8c7c3b92584604051611e1b9190613683565b60405180910390a36001905092915050565b60008060008060418551141515611e4a5760009350505050611f0b565b6020850151925060408501519150606085015160001a9050601b8160ff161015611e7557601b810190505b601b8160ff1614158015611e8d5750601c8160ff1614155b15611e9e5760009350505050611f0b565b60018682858560405160008152602001604052604051808581526020018460ff1660ff1681526020018381526020018281526020019450505050506020604051602081039080840390855afa158015611efb573d6000803e3d6000fd5b5050506020604051035193505050505b92915050565b6000611f6582600160008773ffffffffffffffffffffffffffffffffffffffff1673ffffffffffffffffffffffffffffffffffffffff1681526020019081526020016000205461295990919063ffffffff16565b600160008673ffffffffffffffffffffffffffffffffffffffff1673ffffffffffffffffffffffffffffffffffffffff1681526020019081526020016000208190555061203782600260008773ffffffffffffffffffffffffffffffffffffffff1673ffffffffffffffffffffffffffffffffffffffff16815260200190815260200160002060003373ffffffffffffffffffffffffffffffffffffffff1673ffffffffffffffffffffffffffffffffffffffff1681526020019081526020016000205461295990919063ffffffff16565b600260008673ffffffffffffffffffffffffffffffffffffffff1673ffffffffffffffffffffffffffffffffffffffff16815260200190815260200160002060003373ffffffffffffffffffffffffffffffffffffffff1673ffffffffffffffffffffffffffffffffffffffff1681526020019081526020016000208190555061210982600160008673ffffffffffffffffffffffffffffffffffffffff1673ffffffffffffffffffffffffffffffffffffffff168152602001908152602001600020546121bc90919063ffffffff16565b600160008573ffffffffffffffffffffffffffffffffffffffff1673ffffffffffffffffffffffffffffffffffffffff168152602001908152602001600020819055508273ffffffffffffffffffffffffffffffffffffffff168473ffffffffffffffffffffffffffffffffffffffff167fddf252ad1be2c89b69c2b068fc378daa952ba7f163c4a11628f55a4df523b3ef846040516121a99190613683565b60405180910390a3600190509392505050565b60008082840190508381101515156121d357600080fd5b8091505092915050565b60008060019050835183518114600181146121fb5760009250612240565b600160208701838101602088015b60028483851001141561223b578051835114151561222a5760009650600093505b602083019250602081019050612209565b505050505b50508091505092915050565b60008160405160200180807f19457468657265756d205369676e6564204d6573736167653a0a333200000000815250601c01828152602001915050604051602081830303815290604052805190602001209050919050565b600073ffffffffffffffffffffffffffffffffffffffff168273ffffffffffffffffffffffffffffffffffffffff16141515156122e057600080fd5b6122f5816000546121bc90919063ffffffff16565b60008190555061234d81600160008573ffffffffffffffffffffffffffffffffffffffff1673ffffffffffffffffffffffffffffffffffffffff168152602001908152602001600020546121bc90919063ffffffff16565b600160008473ffffffffffffffffffffffffffffffffffffffff1673ffffffffffffffffffffffffffffffffffffffff168152602001908152602001600020819055508173ffffffffffffffffffffffffffffffffffffffff16600073ffffffffffffffffffffffffffffffffffffffff167fddf252ad1be2c89b69c2b068fc378daa952ba7f163c4a11628f55a4df523b3ef836040516123ee9190613683565b60405180910390a35050565b60008073ffffffffffffffffffffffffffffffffffffffff168273ffffffffffffffffffffffffffffffffffffffff161415151561243757600080fd5b8260000160008373ffffffffffffffffffffffffffffffffffffffff1673ffffffffffffffffffffffffffffffffffffffff16815260200190815260200160002060009054906101000a900460ff16905092915050565b6124a281600461297b90919063ffffffff16565b8073ffffffffffffffffffffffffffffffffffffffff167fcd265ebaf09df2871cc7bd4133404a235ba12eff2041bb89d9c714a2621c7c7e60405160405180910390a250565b6124fc816004612a2a90919063ffffffff16565b8073ffffffffffffffffffffffffffffffffffffffff167f6719d08c1888103bea251a4ed56406bd0c3e69723c8a1686e017e7bbe159b6f860405160405180910390a250565b600061259682600160003373ffffffffffffffffffffffffffffffffffffffff1673ffffffffffffffffffffffffffffffffffffffff1681526020019081526020016000205461295990919063ffffffff16565b600160003373ffffffffffffffffffffffffffffffffffffffff1673ffffffffffffffffffffffffffffffffffffffff1681526020019081526020016000208190555061262b82600160008673ffffffffffffffffffffffffffffffffffffffff1673ffffffffffffffffffffffffffffffffffffffff168152602001908152602001600020546121bc90919063ffffffff16565b600160008573ffffffffffffffffffffffffffffffffffffffff1673ffffffffffffffffffffffffffffffffffffffff168152602001908152602001600020819055508273ffffffffffffffffffffffffffffffffffffffff163373ffffffffffffffffffffffffffffffffffffffff167fddf252ad1be2c89b69c2b068fc378daa952ba7f163c4a11628f55a4df523b3ef846040516126cb9190613683565b60405180910390a36001905092915050565b600073ffffffffffffffffffffffffffffffffffffffff168273ffffffffffffffffffffffffffffffffffffffff161415151561271957600080fd5b61272e8160005461295990919063ffffffff16565b60008190555061278681600160008573ffffffffffffffffffffffffffffffffffffffff1673ffffffffffffffffffffffffffffffffffffffff1681526020019081526020016000205461295990919063ffffffff16565b600160008473ffffffffffffffffffffffffffffffffffffffff1673ffffffffffffffffffffffffffffffffffffffff16815260200190815260200160002081905550600073ffffffffffffffffffffffffffffffffffffffff168273ffffffffffffffffffffffffffffffffffffffff167fddf252ad1be2c89b69c2b068fc378daa952ba7f163c4a11628f55a4df523b3ef836040516128279190613683565b60405180910390a35050565b6000808211151561284357600080fd5b6000828481151561285057fe5b0490508091505092915050565b600073ffffffffffffffffffffffffffffffffffffffff168173ffffffffffffffffffffffffffffffffffffffff161415151561289957600080fd5b8073ffffffffffffffffffffffffffffffffffffffff16600360009054906101000a900473ffffffffffffffffffffffffffffffffffffffff1673ffffffffffffffffffffffffffffffffffffffff167f8be0079c531659141344cd1fd0a4f28419497f9722a3daafe3b4186f6b6457e060405160405180910390a380600360006101000a81548173ffffffffffffffffffffffffffffffffffffffff021916908373ffffffffffffffffffffffffffffffffffffffff16021790555050565b600082821115151561296a57600080fd5b600082840390508091505092915050565b600073ffffffffffffffffffffffffffffffffffffffff168173ffffffffffffffffffffffffffffffffffffffff16141515156129b757600080fd5b6129c182826123fa565b15156129cc57600080fd5b60008260000160008373ffffffffffffffffffffffffffffffffffffffff1673ffffffffffffffffffffffffffffffffffffffff16815260200190815260200160002060006101000a81548160ff0219169083151502179055505050565b600073ffffffffffffffffffffffffffffffffffffffff168173ffffffffffffffffffffffffffffffffffffffff1614151515612a6657600080fd5b612a7082826123fa565b151515612a7c57600080fd5b60018260000160008373ffffffffffffffffffffffffffffffffffffffff1673ffffffffffffffffffffffffffffffffffffffff16815260200190815260200160002060006101000a81548160ff0219169083151502179055505050565b60c0604051908101604052806006905b6060815260200190600190039081612aea5790505090565b6000612b0e8235613840565b905092915050565b600082601f8301121515612b2957600080fd5b8135612b3c612b378261370f565b6136e2565b91508181835260208401935060208101905083856020840282011115612b6157600080fd5b60005b83811015612b915781612b778882612b02565b845260208401935060208301925050600181019050612b64565b5050505092915050565b600082601f8301121515612bae57600080fd5b607e612bc1612bbc82613737565b6136e2565b9150818360005b83811015612bf85781358601612bde8882612c2a565b845260208401935060208301925050600181019050612bc8565b5050505092915050565b6000612c0e8251613852565b905092915050565b6000612c22823561385e565b905092915050565b600082601f8301121515612c3d57600080fd5b8135612c50612c4b82613759565b6136e2565b91508082526020830160208301858383011115612c6c57600080fd5b612c778382846138f0565b50505092915050565b600082601f8301121515612c9357600080fd5b8135612ca6612ca182613785565b6136e2565b91508082526020830160208301858383011115612cc257600080fd5b612ccd8382846138f0565b50505092915050565b6000612ce28235613868565b905092915050565b600060208284031215612cfc57600080fd5b6000612d0a84828501612b02565b91505092915050565b60008060408385031215612d2657600080fd5b6000612d3485828601612b02565b9250506020612d4585828601612b02565b9150509250929050565b600080600060608486031215612d6457600080fd5b6000612d7286828701612b02565b9350506020612d8386828701612b02565b9250506040612d9486828701612cd6565b9150509250925092565b60008060408385031215612db157600080fd5b6000612dbf85828601612b02565b9250506020612dd085828601612cd6565b9150509250929050565b600080600060608486031215612def57600080fd5b600084013567ffffffffffffffff811115612e0957600080fd5b612e1586828701612b16565b9350506020612e2686828701612c16565b925050604084013567ffffffffffffffff811115612e4357600080fd5b612e4f86828701612b9b565b9150509250925092565b600080600080600080600080610100898b031215612e7657600080fd5b600089013567ffffffffffffffff811115612e9057600080fd5b612e9c8b828c01612b16565b9850506020612ead8b828c01612c16565b975050604089013567ffffffffffffffff811115612eca57600080fd5b612ed68b828c01612c80565b965050606089013567ffffffffffffffff811115612ef357600080fd5b612eff8b828c01612c80565b955050608089013567ffffffffffffffff811115612f1c57600080fd5b612f288b828c01612c80565b94505060a089013567ffffffffffffffff811115612f4557600080fd5b612f518b828c01612c80565b93505060c089013567ffffffffffffffff811115612f6e57600080fd5b612f7a8b828c01612c80565b92505060e089013567ffffffffffffffff811115612f9757600080fd5b612fa38b828c01612c80565b9150509295985092959890939650565b600060208284031215612fc557600080fd5b6000612fd384828501612c02565b91505092915050565b600060208284031215612fee57600080fd5b6000612ffc84828501612c16565b91505092915050565b6000806040838503121561301857600080fd5b600061302685828601612c16565b925050602083013567ffffffffffffffff81111561304357600080fd5b61304f85828601612c80565b9150509250929050565b60006020828403121561306b57600080fd5b600061307984828501612cd6565b91505092915050565b6000806040838503121561309557600080fd5b60006130a385828601612cd6565b92505060206130b485828601612b02565b9150509250929050565b6130c781613872565b82525050565b6130d6816137e1565b82525050565b60006130e7826137be565b8084526020840193506130f9836137b1565b60005b8281101561312b5761310f8683516130cd565b613118826137d4565b91506020860195506001810190506130fc565b50849250505092915050565b613140816137f3565b82525050565b61314f816137ff565b82525050565b61315e81613884565b82525050565b61316d816138a8565b82525050565b600061317e826137c9565b8084526131928160208601602086016138ff565b61319b81613932565b602085010191505092915050565b6000604582527f5f6861736820737570706c69656420746f4574685369676e65644d657373616760208301527f654861736820646f6573206e6f7420657175616c2076616c75652063616c637560408301527f6c617465640000000000000000000000000000000000000000000000000000006060830152608082019050919050565b6000602482527f7369676e6572206973206e6f742061207374616b656420636f7265206f70657260208301527f61746f72000000000000000000000000000000000000000000000000000000006040830152606082019050919050565b6000602c82527f5369676e617475726573206d757374206265207369676e65642062792064696660208301527f666572656e7420436f72657300000000000000000000000000000000000000006040830152606082019050919050565b6000603f82527f737570706c69656420746f4574685369676e65644d657373616765486173682060208301527f646f6573206e6f7420657175616c2076616c75652063616c63756c61746564006040830152606082019050919050565b6000602882527f6d757374206265206f776e6572206f7220616e2061637469766520636f72652060208301527f6f70657261746f720000000000000000000000000000000000000000000000006040830152606082019050919050565b6000602582527f6c697374206f66203732206f72206665776572206e6f6465732069732072657160208301527f75697265640000000000000000000000000000000000000000000000000000006040830152606082019050919050565b6000603082527f6d696e74696e67206f636375727320617420746865207370656369666965642060208301527f6d696e74696e6720696e74657276616c000000000000000000000000000000006040830152606082019050919050565b61346381613829565b82525050565b61347281613833565b82525050565b600060208201905061348d60008301846130cd565b92915050565b60006020820190506134a860008301846130be565b92915050565b60006040820190506134c360008301856130be565b6134d0602083018461345a565b9392505050565b600060608201905081810360008301526134f181866130dc565b9050613500602083018561345a565b61350d604083018461345a565b949350505050565b600060208201905061352a6000830184613137565b92915050565b60006020820190506135456000830184613146565b92915050565b60006020820190506135606000830184613155565b92915050565b600060208201905061357b6000830184613164565b92915050565b6000602082019050818103600083015261359b8184613173565b905092915050565b600060208201905081810360008301526135bc816131a9565b9050919050565b600060208201905081810360008301526135dc8161322c565b9050919050565b600060208201905081810360008301526135fc81613289565b9050919050565b6000602082019050818103600083015261361c816132e6565b9050919050565b6000602082019050818103600083015261363c81613343565b9050919050565b6000602082019050818103600083015261365c816133a0565b9050919050565b6000602082019050818103600083015261367c816133fd565b9050919050565b6000602082019050613698600083018461345a565b92915050565b60006040820190506136b3600083018561345a565b6136c0602083018461345a565b9392505050565b60006020820190506136dc6000830184613469565b92915050565b6000604051905081810181811067ffffffffffffffff8211171561370557600080fd5b8060405250919050565b600067ffffffffffffffff82111561372657600080fd5b602082029050602081019050919050565b600067ffffffffffffffff82111561374e57600080fd5b602082029050919050565b600067ffffffffffffffff82111561377057600080fd5b601f19601f8301169050602081019050919050565b600067ffffffffffffffff82111561379c57600080fd5b601f19601f8301169050602081019050919050565b6000602082019050919050565b600081519050919050565b600081519050919050565b6000602082019050919050565b60006137ec82613809565b9050919050565b60008115159050919050565b6000819050919050565b600073ffffffffffffffffffffffffffffffffffffffff82169050919050565b6000819050919050565b600060ff82169050919050565b600061384b82613809565b9050919050565b60008115159050919050565b6000819050919050565b6000819050919050565b600061387d826138cc565b9050919050565b600061388f82613896565b9050919050565b60006138a182613809565b9050919050565b60006138b3826138ba565b9050919050565b60006138c582613809565b9050919050565b60006138d7826138de565b9050919050565b60006138e982613809565b9050919050565b82818337600083830152505050565b60005b8381101561391d578082015181840152602081019050613902565b8381111561392c576000848401525b50505050565b6000601f19601f830116905091905056fea265627a7a7230582064338c927a5209fb7b50fd14eb3ee548b43b2953262d0bdfcbc2573b6dd33d666c6578706572696d656e74616cf50037",
  "source": "pragma solidity >=0.4.22 <0.6.0;\npragma experimental ABIEncoderV2;\n\nimport \"openzeppelin-solidity/contracts/ownership/Ownable.sol\";\nimport \"openzeppelin-solidity/contracts/lifecycle/Pausable.sol\";\nimport \"openzeppelin-solidity/contracts/cryptography/ECDSA.sol\";\nimport \"bytes/BytesLib.sol\";\nimport \"./lib/ERC20.sol\";\nimport \"./lib/ERC20Basic.sol\";\nimport \"./lib/SafeMath.sol\";\nimport \"./ChainpointRegistry.sol\";\nimport \"./ChainpointMigration.sol\";\n\n/**\n * @title Basic token\n * @dev Basic version of StandardToken, with no allowances. \n */\ncontract BasicToken is ERC20Basic {\n  using SafeMath for uint256;\n\n  mapping(address => uint256) balances;\n\n  /**\n   * @dev transfer token for a specified address\n   * @param _to The address to transfer to.\n   * @param _value The amount to be transferred.\n   */\n  function transfer(address _to, uint256 _value) public returns(bool) {\n    balances[msg.sender] = balances[msg.sender].sub(_value);\n    balances[_to] = balances[_to].add(_value);\n    emit Transfer(msg.sender, _to, _value);\n    return true;\n  }\n\n  /**\n   * @dev Gets the balance of the specified address.\n   * @param _owner The address to query the the balance of. \n   * @return An uint256 representing the amount owned by the passed address.\n   */\n  function balanceOf(address _owner) public view returns(uint256 balance) {\n    return balances[_owner];\n  }\n\n}\n\n/**\n * @title Standard ERC20 token\n *\n * @dev Implementation of the basic standard token.\n * @dev https://github.com/ethereum/EIPs/issues/20\n * @dev Based on code by FirstBlood: https://github.com/Firstbloodio/token/blob/master/smart_contract/FirstBloodToken.sol\n */\ncontract StandardToken is ERC20, BasicToken {\n  using SafeMath for uint256;\n\n  mapping(address => mapping(address => uint256)) public allowed;\n\n\n  /**\n   * @dev Transfer tokens from one address to another\n   * @param _from address The address which you want to send tokens from\n   * @param _to address The address which you want to transfer to\n   * @param _value uint256 the amout of tokens to be transfered\n   */\n  function transferFrom(address _from, address _to, uint256 _value) public returns(bool) {\n    // Check is not needed because sub(_allowance, _value) will already throw if this condition is not met\n    // require (_value <= _allowance);\n    \n    balances[_from] = balances[_from].sub(_value);\n    allowed[_from][msg.sender] = allowed[_from][msg.sender].sub(_value);\n    balances[_to] = balances[_to].add(_value);\n\n    emit Transfer(_from, _to, _value);\n    \n    return true;\n  }\n\n  /**\n   * @dev Aprove the passed address to spend the specified amount of tokens on behalf of msg.sender.\n   * @param _spender The address which will spend the funds.\n   * @param _value The amount of tokens to be spent.\n   */\n  function approve(address _spender, uint256 _value) public returns(bool) {\n\n    // To change the approve amount you first have to reduce the addresses`\n    //  allowance to zero by calling `approve(_spender, 0)` if it is not\n    //  already 0 to mitigate the race condition described here:\n    //  https://github.com/ethereum/EIPs/issues/20#issuecomment-263524729\n    require((_value == 0) || (allowed[msg.sender][_spender] == 0));\n\n    allowed[msg.sender][_spender] = _value;\n    emit Approval(msg.sender, _spender, _value);\n    return true;\n  }\n\n  /**\n   * @dev Function to check the amount of tokens that an owner allowed to a spender.\n   * @param _owner address The address which owns the funds.\n   * @param _spender address The address which will spend the funds.\n   * @return A uint256 specifing the amount of tokens still avaible for the spender.\n   */\n  function allowance(address _owner, address _spender) public view returns(uint256 remaining) {\n    return allowed[_owner][_spender];\n  }\n\n}\n\n/**\n * @title Tierion Network Token\n * @dev ERC20 Tierion Network Token (TNT)\n *\n * TNT Tokens are divisible by 1e8 (100,000,000) base\n * units referred to as 'Grains'.\n *\n * TNT are displayed using 8 decimal places of precision.\n *\n * 1 TNT is equivalent to:\n *   100000000 == 1 * 10**8 == 1e8 == One Hundred Million Grains\n *\n * 1 Billion TNT (total supply) is equivalent to:\n *   100000000000000000 == 1000000000 * 10**8 == 1e17 == One Hundred Quadrillion Grains\n *\n * All initial TNT Grains are assigned to the creator of\n * this contract.\n *\n */\ncontract TierionNetworkToken is StandardToken, Ownable, Pausable {\n    using ECDSA for bytes32;\n    using BytesLib for bytes;\n    \n    string public name = 'Tierion Network Token'; // Set the token name for display\n    string public symbol = 'TNT'; // Set the token symbol for display\n    uint8 public decimals = 8; // Set the number of decimals for display\n    uint256 public INITIAL_SUPPLY = 2000000 * 10 ** uint256(decimals); // 1M TNT specified in Grains\n    uint256 public mintAmount = 2000 * 10 ** uint256(decimals); // 2000 TNT specified in Grains\n\n    ///\n    /// Minting Parameters\n    ///\n    /// @title Minting Interval (in # of blocks)\n    uint256 public mintingInterval = 5760; // 86,400 (seconds in 1 day) / 15 (average block time in seconds)\n    /// @title Nodes Last Token Minting timestamp\n    uint256 public nodeLastMintedAt = 0;\n    /// @title Nodes Last Token Minting block height\n    uint256 public nodeLastMintedAtBlock = 0;\n    /// @title Cores Last Token Minting timestamp\n    uint256 coreLastMintedAt = 0;\n    /// @title Cores Last Token Minting block height\n    uint256 public coreLastMintedAtBlock = 0;\n    \n    /// @title Chainpoint Registry\n    /// @notice Chainpoint Registry Contract\n    ChainpointRegistry public chainpointRegistry;\n\n    /// @title Chainpoint Migration\n    /// @notice Chainpoint Migration Contract\n    ChainpointMigration public migrationContract;\n\n    mapping(uint256 => mapping(address => bool)) public coreMintingSignaturesUsed;\n  \n    ///\n    /// MODIFIERS\n    ///\n    /// @notice only Staked Core Operators or Owner can call, otherwise throw\n    modifier onlyCoreOperator() {\n      require(chainpointRegistry.isHealthyCore(msg.sender), \"must be owner or an active core operator\");\n      _;\n    }\n\n    /// @notice only Staked Core Operators or Owner can call, otherwise throw\n    modifier onlyChainpointMigrationContract() {\n      require(msg.sender == address(migrationContract), \"only Migration Contract can invoke this method\");\n      _;\n    }\n\n  /**\n   * @dev TierionNetworkToken Constructor\n   * Runs only on initial contract creation.\n   */\n  constructor(address _faucetAddr, address _migrationAddr) public {\n    totalSupply = INITIAL_SUPPLY; // Set the total supply\n    balances[_faucetAddr] = INITIAL_SUPPLY.div(2); // 1M $TKNs is minted to Chainpoint Faucet\n    balances[msg.sender] = INITIAL_SUPPLY.div(2); // 1M 1M $TKNs is minted to Chainpoint/Tierion for bootstrapping Network\n\n    migrationContract = ChainpointMigration(_migrationAddr); // Set CHP Migration Contract\n  }\n  \n  ///\n  /// EVENTS \n  ///\n  /// @notice emitted on successful token minting\n  /// @param _nodes number of Node Operators that were rewarded tokens\n  /// @param _mintAmount is the total number of tokens rewarded to each Node Operator\n  /// @param _blockHeight The block height in which token minting occurred\n  event Mint(\n      address[] _nodes,\n      uint256 _mintAmount,\n      uint256 _blockHeight\n  );\n  \n  /// @notice emitted on successful purchasing of usage\n  /// @param _buyer node operator that is purchasing network usage\n  /// @param _value amount of TNT being spent on future network usage\n  event UsagePurchased(\n      address _buyer,\n      uint256 _value\n  );\n\n  event MintCores(\n    uint256 _recoveredSigs,\n    uint256 _majority\n  );\n\n  /**\n   * @dev Transfer token for a specified address when not paused\n   * @param _to The address to transfer to.\n   * @param _value The amount to be transferred.\n   */\n  function transfer(address _to, uint256 _value) public whenNotPaused returns(bool) {\n    require(_to != address(0));\n    return super.transfer(_to, _value);\n  }\n\n  /**\n   * @dev Transfer tokens from one address to another when not paused\n   * @param _from address The address which you want to send tokens from\n   * @param _to address The address which you want to transfer to\n   * @param _value uint256 the amount of tokens to be transferred\n   */\n  function transferFrom(address _from, address _to, uint256 _value) public whenNotPaused returns(bool) {\n    require(_to != address(0));\n    return super.transferFrom(_from, _to, _value);\n  }\n\n  /**\n   * @dev Aprove the passed address to spend the specified amount of tokens on behalf of msg.sender when not paused.\n   * @param _spender The address which will spend the funds.\n   * @param _value The amount of tokens to be spent.\n   */\n  function approve(address _spender, uint256 _value) public whenNotPaused returns(bool) {\n    return super.approve(_spender, _value);\n  }\n  \n  /**\n   * @dev Mint tokens and send to the address provided\n   * @param _nodes The addresses of Nodes which will receive the funds.\n   * @dev only Chainpoint Core Operators can invoke this method\n   */\n  function mint(address[] memory _nodes, bytes32 _hash, bytes memory signature1, bytes memory signature2, bytes memory signature3, bytes memory signature4, bytes memory signature5, bytes memory signature6) public whenNotPaused onlyCoreOperator returns(bool) {\n      require(nodeLastMintedAtBlock == 0 || block.number >= nodeLastMintedAtBlock.add(mintingInterval), \"minting occurs at the specified minting interval\");\n      require(_nodes.length <= 72, \"list of 72 or fewer nodes is required\");\n      // Check signature uniqueness\n      require(!signature1.equal(signature2) && !signature1.equal(signature3) && !signature1.equal(signature4) && !signature1.equal(signature5) && !signature1.equal(signature6), 'Signatures must be signed by different Cores');\n      require(!signature2.equal(signature3) && !signature2.equal(signature4) && !signature2.equal(signature5) && !signature2.equal(signature6), 'Signatures must be signed by different Cores');\n      require(!signature3.equal(signature4) && !signature3.equal(signature5) && !signature3.equal(signature6), 'Signatures must be signed by different Cores');\n      require(!signature4.equal(signature5) && !signature4.equal(signature6), 'Signatures must be signed by different Cores');\n      require(!signature5.equal(signature6), 'Signatures must be signed by different Cores');\n\n      // Validate parameters provided\n      bytes32 nodesHash = keccak256(abi.encodePacked(_nodes));\n      require(nodesHash.toEthSignedMessageHash() == _hash, \"supplied toEthSignedMessageHash does not equal value calculated\");\n      \n      // Recover Signer addresses and verify they are staked Core Operators\n      bytes[6] memory signatures = [signature1, signature2, signature3, signature4, signature5, signature6];\n      for(uint8 i=0; i < signatures.length; i++) {\n          require(chainpointRegistry.isHealthyCore(_hash.recover(signatures[i])), \"signer is not a staked core operator\");\n      }\n\n      // Update LastMintedAt block & time\n      nodeLastMintedAtBlock = block.number;\n      nodeLastMintedAt = now;\n      \n      // Iterate through list of Nodes and award tokens\n      for(uint8 i=0; i < _nodes.length; i++) {\n          _mint(_nodes[i], mintAmount);\n      }\n      \n      emit Mint(_nodes, mintAmount, block.number);\n      \n      return true;\n  }\n\n  function mintCores(address[] memory _cores, bytes32 _hash, bytes[126] memory sigs) public whenNotPaused returns (bool) {\n    bytes memory btsNull = new bytes(0);\n\n    // Validate parameters provided\n    bytes32 coresHash = keccak256(abi.encodePacked(_cores));\n    require(coresHash.toEthSignedMessageHash() == _hash, \"_hash supplied toEthSignedMessageHash does not equal value calculated\");\n\n    uint256 recoveredSigs = 0;\n    // TODO: hardcoded for now\n    uint256 majority = uint256(6).div(2).add(1);\n\n    // Recover Signer addresses and verify they are staked Core Operators\n    for(uint8 i=0; i < sigs.length; i++) {\n      if(sigs[i].equal(btsNull))\n        break;\n\n      address recoveredAddress = _hash.recover(sigs[i]);\n      require(chainpointRegistry.isHealthyCore(recoveredAddress), \"signer is not a staked core operator\");\n\n      if(coreMintingSignaturesUsed[block.number][recoveredAddress] == false) {\n        coreMintingSignaturesUsed[block.number][recoveredAddress] = true;\n\n        recoveredSigs = recoveredSigs.add(1);\n      }\n    }\n\n    // Number of valid recovered signatures must be greater than or equal to the majority before minting\n    // require(recoveredSigs >= majority, \"quorum was not reached\");\n    // Iterate through list of Nodes and award tokens\n    for(uint8 i=0; i < _cores.length; i++) {\n        _mint(_cores[i], mintAmount);\n    }\n\n    emit MintCores(recoveredSigs, majority);\n\n    return true;\n  }\n\n  /**\n   * @dev Purchase Usage tokens, will burn tokens and emit a UsagePurchased & Transfer event\n   * @param _value The amount of tokens to be spent.\n   * @dev Chainpoint Nodes will be invoking this method to purchase access to the Network\n   * @return Boolean indicating result of method execution\n   */\n  function purchaseUsage(uint256 _value) public returns (bool) {\n      _burn(msg.sender, _value);\n      \n      emit UsagePurchased(msg.sender, _value);\n      \n      return true;\n  }\n\n  /**\n   * @dev Token Migration Mint new tokens for migrator\n   * @param _amount The amount of tokens to be minted as a result of a migration.\n   * @dev TNT token holders will be invoking during token migration process\n   * @return Boolean indicating result of method execution\n   */\n  function mintForExchange(address _to, uint256 _amount) public returns (bool) {\n    _mint(_to, _amount);\n\n    // TODO: emit TokensMigrated Event\n\n    return true;\n  }\n\n  /**\n   * @dev Sets the contract address for the Chainpoint Registry\n   * @param _addr The contract address of the Chainpoint Registry\n   * @dev Can only be invoked by contract owner\n   * @return Boolean indicating result of method execution\n   */\n  function setChainpointRegistry(address _addr) public onlyOwner returns(bool) {\n      require(_addr != address(0));\n      \n      chainpointRegistry = ChainpointRegistry(_addr);\n      \n      return true;\n  }\n\n  /**\n   * @dev Gets the balance of the specified address.\n   * @param _account The account which is burning tokens\n   * @param _value The number of tokens to burn\n   * @dev Internal function that is called within - purchaseUsage()\n   */\n  function _burn(address _account, uint256 _value) internal {\n    require(_account != address(0));\n\n    totalSupply = totalSupply.sub(_value);\n    balances[_account] = balances[_account].sub(_value);\n    \n    emit Transfer(_account, address(0), _value);\n  }\n\n  /**\n    * @dev Internal function that mints an amount of the token and credits the account provided\n    * @param _account The account that will receive the created tokens.\n    * @param _value The amount of tokens minted\n    */\n  function _mint(address _account, uint256 _value) internal {\n    require(_account != address(0));\n\n    totalSupply = totalSupply.add(_value);\n    balances[_account] = balances[_account].add(_value);\n    emit Transfer(address(0), _account, _value);\n  }\n  \n  function recover(bytes32 hash, bytes memory signature) public pure returns (address) {\n    return hash.recover(signature);\n  }\n\n  function toEthSignedMessageHash(bytes32 hash) public pure returns (bytes32) {\n    return hash.toEthSignedMessageHash();\n  }\n\n  function isMigrationContract() public view returns (bool) {\n    return (msg.sender == address(migrationContract));\n  }\n}\n",
  "sourcePath": "/Users/michaeliglesias/zDevelopment/Tierion/Hydra/node-registration-research/v1/contracts/TierionNetworkToken.sol",
  "compiler": {
    "name": "solc",
    "version": "0.5.0+commit.1d4f565a.Emscripten.clang"
  },
  "schemaVersion": "3.0.1",
  "updatedAt": "2019-05-24T18:19:19.170Z",
  "devdoc": {
    "details": "ERC20 Tierion Network Token (TNT) * TNT Tokens are divisible by 1e8 (100,000,000) base units referred to as 'Grains'. * TNT are displayed using 8 decimal places of precision. * 1 TNT is equivalent to:  100000000 == 1 * 10**8 == 1e8 == One Hundred Million Grains * 1 Billion TNT (total supply) is equivalent to:  100000000000000000 == 1000000000 * 10**8 == 1e17 == One Hundred Quadrillion Grains * All initial TNT Grains are assigned to the creator of this contract. ",
    "methods": {
      "allowance(address,address)": {
        "details": "Function to check the amount of tokens that an owner allowed to a spender.",
        "params": {
          "_owner": "address The address which owns the funds.",
          "_spender": "address The address which will spend the funds."
        },
        "return": "A uint256 specifing the amount of tokens still avaible for the spender."
      },
      "approve(address,uint256)": {
        "details": "Aprove the passed address to spend the specified amount of tokens on behalf of msg.sender when not paused.",
        "params": {
          "_spender": "The address which will spend the funds.",
          "_value": "The amount of tokens to be spent."
        }
      },
      "balanceOf(address)": {
        "details": "Gets the balance of the specified address.",
        "params": {
          "_owner": "The address to query the the balance of. "
        },
        "return": "An uint256 representing the amount owned by the passed address."
      },
      "constructor": {
        "details": "TierionNetworkToken Constructor Runs only on initial contract creation."
      },
      "isOwner()": {
        "return": "true if `msg.sender` is the owner of the contract."
      },
      "mint(address[],bytes32,bytes,bytes,bytes,bytes,bytes,bytes)": {
        "details": "Mint tokens and send to the address providedonly Chainpoint Core Operators can invoke this method",
        "params": {
          "_nodes": "The addresses of Nodes which will receive the funds."
        }
      },
      "mintForExchange(address,uint256)": {
        "details": "Token Migration Mint new tokens for migratorTNT token holders will be invoking during token migration process",
        "params": {
          "_amount": "The amount of tokens to be minted as a result of a migration."
        },
        "return": "Boolean indicating result of method execution"
      },
      "owner()": {
        "return": "the address of the owner."
      },
      "pause()": {
        "details": "called by the owner to pause, triggers stopped state"
      },
      "paused()": {
        "return": "true if the contract is paused, false otherwise."
      },
      "purchaseUsage(uint256)": {
        "details": "Purchase Usage tokens, will burn tokens and emit a UsagePurchased & Transfer eventChainpoint Nodes will be invoking this method to purchase access to the Network",
        "params": {
          "_value": "The amount of tokens to be spent."
        },
        "return": "Boolean indicating result of method execution"
      },
      "renounceOwnership()": {
        "details": "Allows the current owner to relinquish control of the contract."
      },
      "setChainpointRegistry(address)": {
        "details": "Sets the contract address for the Chainpoint RegistryCan only be invoked by contract owner",
        "params": {
          "_addr": "The contract address of the Chainpoint Registry"
        },
        "return": "Boolean indicating result of method execution"
      },
      "transfer(address,uint256)": {
        "details": "Transfer token for a specified address when not paused",
        "params": {
          "_to": "The address to transfer to.",
          "_value": "The amount to be transferred."
        }
      },
      "transferFrom(address,address,uint256)": {
        "details": "Transfer tokens from one address to another when not paused",
        "params": {
          "_from": "address The address which you want to send tokens from",
          "_to": "address The address which you want to transfer to",
          "_value": "uint256 the amount of tokens to be transferred"
        }
      },
      "transferOwnership(address)": {
        "details": "Allows the current owner to transfer control of the contract to a newOwner.",
        "params": {
          "newOwner": "The address to transfer ownership to."
        }
      },
      "unpause()": {
        "details": "called by the owner to unpause, returns to normal state"
      }
    },
    "title": "Tierion Network Token"
  },
  "userdoc": {
    "methods": {
      "renounceOwnership()": {
        "notice": "Renouncing to ownership will leave the contract without an owner. It will not be possible to call the functions with the `onlyOwner` modifier anymore."
      }
    }
  }
}