{
  "contractName": "TierionNetworkToken",
  "abi": [
    {
      "constant": true,
      "inputs": [],
      "name": "name",
      "outputs": [
        {
          "name": "",
          "type": "string"
        }
      ],
      "payable": false,
      "stateMutability": "view",
      "type": "function",
      "signature": "0x06fdde03"
    },
    {
      "constant": true,
      "inputs": [],
      "name": "totalSupply",
      "outputs": [
        {
          "name": "",
          "type": "uint256"
        }
      ],
      "payable": false,
      "stateMutability": "view",
      "type": "function",
      "signature": "0x18160ddd"
    },
    {
      "constant": true,
      "inputs": [],
      "name": "INITIAL_SUPPLY",
      "outputs": [
        {
          "name": "",
          "type": "uint256"
        }
      ],
      "payable": false,
      "stateMutability": "view",
      "type": "function",
      "signature": "0x2ff2e9dc"
    },
    {
      "constant": true,
      "inputs": [],
      "name": "decimals",
      "outputs": [
        {
          "name": "",
          "type": "uint8"
        }
      ],
      "payable": false,
      "stateMutability": "view",
      "type": "function",
      "signature": "0x313ce567"
    },
    {
      "constant": false,
      "inputs": [],
      "name": "unpause",
      "outputs": [],
      "payable": false,
      "stateMutability": "nonpayable",
      "type": "function",
      "signature": "0x3f4ba83a"
    },
    {
      "constant": true,
      "inputs": [
        {
          "name": "account",
          "type": "address"
        }
      ],
      "name": "isPauser",
      "outputs": [
        {
          "name": "",
          "type": "bool"
        }
      ],
      "payable": false,
      "stateMutability": "view",
      "type": "function",
      "signature": "0x46fbf68e"
    },
    {
      "constant": true,
      "inputs": [],
      "name": "coreLastMintedAtBlock",
      "outputs": [
        {
          "name": "",
          "type": "uint256"
        }
      ],
      "payable": false,
      "stateMutability": "view",
      "type": "function",
      "signature": "0x4c5f25dd"
    },
    {
      "constant": true,
      "inputs": [],
      "name": "mintAmount",
      "outputs": [
        {
          "name": "",
          "type": "uint256"
        }
      ],
      "payable": false,
      "stateMutability": "view",
      "type": "function",
      "signature": "0x5a2bcc18"
    },
    {
      "constant": true,
      "inputs": [],
      "name": "nodeLastMintedAtBlock",
      "outputs": [
        {
          "name": "",
          "type": "uint256"
        }
      ],
      "payable": false,
      "stateMutability": "view",
      "type": "function",
      "signature": "0x5a8ef28b"
    },
    {
      "constant": true,
      "inputs": [
        {
          "name": "",
          "type": "address"
        },
        {
          "name": "",
          "type": "address"
        }
      ],
      "name": "allowed",
      "outputs": [
        {
          "name": "",
          "type": "uint256"
        }
      ],
      "payable": false,
      "stateMutability": "view",
      "type": "function",
      "signature": "0x5c658165"
    },
    {
      "constant": true,
      "inputs": [],
      "name": "paused",
      "outputs": [
        {
          "name": "",
          "type": "bool"
        }
      ],
      "payable": false,
      "stateMutability": "view",
      "type": "function",
      "signature": "0x5c975abb"
    },
    {
      "constant": false,
      "inputs": [],
      "name": "renouncePauser",
      "outputs": [],
      "payable": false,
      "stateMutability": "nonpayable",
      "type": "function",
      "signature": "0x6ef8d66d"
    },
    {
      "constant": true,
      "inputs": [
        {
          "name": "_owner",
          "type": "address"
        }
      ],
      "name": "balanceOf",
      "outputs": [
        {
          "name": "balance",
          "type": "uint256"
        }
      ],
      "payable": false,
      "stateMutability": "view",
      "type": "function",
      "signature": "0x70a08231"
    },
    {
      "constant": false,
      "inputs": [],
      "name": "renounceOwnership",
      "outputs": [],
      "payable": false,
      "stateMutability": "nonpayable",
      "type": "function",
      "signature": "0x715018a6"
    },
    {
      "constant": false,
      "inputs": [
        {
          "name": "account",
          "type": "address"
        }
      ],
      "name": "addPauser",
      "outputs": [],
      "payable": false,
      "stateMutability": "nonpayable",
      "type": "function",
      "signature": "0x82dc1ec4"
    },
    {
      "constant": false,
      "inputs": [],
      "name": "pause",
      "outputs": [],
      "payable": false,
      "stateMutability": "nonpayable",
      "type": "function",
      "signature": "0x8456cb59"
    },
    {
      "constant": true,
      "inputs": [],
      "name": "nodeLastMintedAt",
      "outputs": [
        {
          "name": "",
          "type": "uint256"
        }
      ],
      "payable": false,
      "stateMutability": "view",
      "type": "function",
      "signature": "0x898e0025"
    },
    {
      "constant": true,
      "inputs": [],
      "name": "owner",
      "outputs": [
        {
          "name": "",
          "type": "address"
        }
      ],
      "payable": false,
      "stateMutability": "view",
      "type": "function",
      "signature": "0x8da5cb5b"
    },
    {
      "constant": true,
      "inputs": [],
      "name": "isOwner",
      "outputs": [
        {
          "name": "",
          "type": "bool"
        }
      ],
      "payable": false,
      "stateMutability": "view",
      "type": "function",
      "signature": "0x8f32d59b"
    },
    {
      "constant": true,
      "inputs": [],
      "name": "symbol",
      "outputs": [
        {
          "name": "",
          "type": "string"
        }
      ],
      "payable": false,
      "stateMutability": "view",
      "type": "function",
      "signature": "0x95d89b41"
    },
    {
      "constant": true,
      "inputs": [],
      "name": "mintingInterval",
      "outputs": [
        {
          "name": "",
          "type": "uint256"
        }
      ],
      "payable": false,
      "stateMutability": "view",
      "type": "function",
      "signature": "0xa3059ef0"
    },
    {
      "constant": true,
      "inputs": [],
      "name": "chainpointRegistry",
      "outputs": [
        {
          "name": "",
          "type": "address"
        }
      ],
      "payable": false,
      "stateMutability": "view",
      "type": "function",
      "signature": "0xba60ad97"
    },
    {
      "constant": true,
      "inputs": [
        {
          "name": "_owner",
          "type": "address"
        },
        {
          "name": "_spender",
          "type": "address"
        }
      ],
      "name": "allowance",
      "outputs": [
        {
          "name": "remaining",
          "type": "uint256"
        }
      ],
      "payable": false,
      "stateMutability": "view",
      "type": "function",
      "signature": "0xdd62ed3e"
    },
    {
      "constant": false,
      "inputs": [
        {
          "name": "newOwner",
          "type": "address"
        }
      ],
      "name": "transferOwnership",
      "outputs": [],
      "payable": false,
      "stateMutability": "nonpayable",
      "type": "function",
      "signature": "0xf2fde38b"
    },
    {
      "inputs": [
        {
          "name": "_faucetAddr",
          "type": "address"
        }
      ],
      "payable": false,
      "stateMutability": "nonpayable",
      "type": "constructor",
      "signature": "constructor"
    },
    {
      "anonymous": false,
      "inputs": [
        {
          "indexed": false,
          "name": "_nodes",
          "type": "address[]"
        },
        {
          "indexed": false,
          "name": "_mintAmount",
          "type": "uint256"
        },
        {
          "indexed": false,
          "name": "_blockHeight",
          "type": "uint256"
        }
      ],
      "name": "Mint",
      "type": "event",
      "signature": "0x35cc581d6103df194c8c20f437d4b065c9107097eb2ba6f9702489434e03b64c"
    },
    {
      "anonymous": false,
      "inputs": [
        {
          "indexed": false,
          "name": "_buyer",
          "type": "address"
        },
        {
          "indexed": false,
          "name": "_value",
          "type": "uint256"
        }
      ],
      "name": "UsagePurchased",
      "type": "event",
      "signature": "0x0651f693d262f8b7c2f4a40577914247c33a4eb3fa57d735c8ac49be550021cb"
    },
    {
      "anonymous": false,
      "inputs": [
        {
          "indexed": false,
          "name": "account",
          "type": "address"
        }
      ],
      "name": "Paused",
      "type": "event",
      "signature": "0x62e78cea01bee320cd4e420270b5ea74000d11b0c9f74754ebdbfc544b05a258"
    },
    {
      "anonymous": false,
      "inputs": [
        {
          "indexed": false,
          "name": "account",
          "type": "address"
        }
      ],
      "name": "Unpaused",
      "type": "event",
      "signature": "0x5db9ee0a495bf2e6ff9c91a7834c1ba4fdd244a5e8aa4e537bd38aeae4b073aa"
    },
    {
      "anonymous": false,
      "inputs": [
        {
          "indexed": true,
          "name": "account",
          "type": "address"
        }
      ],
      "name": "PauserAdded",
      "type": "event",
      "signature": "0x6719d08c1888103bea251a4ed56406bd0c3e69723c8a1686e017e7bbe159b6f8"
    },
    {
      "anonymous": false,
      "inputs": [
        {
          "indexed": true,
          "name": "account",
          "type": "address"
        }
      ],
      "name": "PauserRemoved",
      "type": "event",
      "signature": "0xcd265ebaf09df2871cc7bd4133404a235ba12eff2041bb89d9c714a2621c7c7e"
    },
    {
      "anonymous": false,
      "inputs": [
        {
          "indexed": true,
          "name": "previousOwner",
          "type": "address"
        },
        {
          "indexed": true,
          "name": "newOwner",
          "type": "address"
        }
      ],
      "name": "OwnershipTransferred",
      "type": "event",
      "signature": "0x8be0079c531659141344cd1fd0a4f28419497f9722a3daafe3b4186f6b6457e0"
    },
    {
      "anonymous": false,
      "inputs": [
        {
          "indexed": true,
          "name": "owner",
          "type": "address"
        },
        {
          "indexed": true,
          "name": "spender",
          "type": "address"
        },
        {
          "indexed": false,
          "name": "value",
          "type": "uint256"
        }
      ],
      "name": "Approval",
      "type": "event",
      "signature": "0x8c5be1e5ebec7d5bd14f71427d1e84f3dd0314c0f7b2291e5b200ac8c7c3b925"
    },
    {
      "anonymous": false,
      "inputs": [
        {
          "indexed": true,
          "name": "from",
          "type": "address"
        },
        {
          "indexed": true,
          "name": "to",
          "type": "address"
        },
        {
          "indexed": false,
          "name": "value",
          "type": "uint256"
        }
      ],
      "name": "Transfer",
      "type": "event",
      "signature": "0xddf252ad1be2c89b69c2b068fc378daa952ba7f163c4a11628f55a4df523b3ef"
    },
    {
      "constant": false,
      "inputs": [
        {
          "name": "_to",
          "type": "address"
        },
        {
          "name": "_value",
          "type": "uint256"
        }
      ],
      "name": "transfer",
      "outputs": [
        {
          "name": "",
          "type": "bool"
        }
      ],
      "payable": false,
      "stateMutability": "nonpayable",
      "type": "function",
      "signature": "0xa9059cbb"
    },
    {
      "constant": false,
      "inputs": [
        {
          "name": "_from",
          "type": "address"
        },
        {
          "name": "_to",
          "type": "address"
        },
        {
          "name": "_value",
          "type": "uint256"
        }
      ],
      "name": "transferFrom",
      "outputs": [
        {
          "name": "",
          "type": "bool"
        }
      ],
      "payable": false,
      "stateMutability": "nonpayable",
      "type": "function",
      "signature": "0x23b872dd"
    },
    {
      "constant": false,
      "inputs": [
        {
          "name": "_spender",
          "type": "address"
        },
        {
          "name": "_value",
          "type": "uint256"
        }
      ],
      "name": "approve",
      "outputs": [
        {
          "name": "",
          "type": "bool"
        }
      ],
      "payable": false,
      "stateMutability": "nonpayable",
      "type": "function",
      "signature": "0x095ea7b3"
    },
    {
      "constant": false,
      "inputs": [
        {
          "name": "_nodes",
          "type": "address[]"
        },
        {
          "name": "_hash",
          "type": "bytes32"
        },
        {
          "name": "signature1",
          "type": "bytes"
        },
        {
          "name": "signature2",
          "type": "bytes"
        },
        {
          "name": "signature3",
          "type": "bytes"
        },
        {
          "name": "signature4",
          "type": "bytes"
        },
        {
          "name": "signature5",
          "type": "bytes"
        },
        {
          "name": "signature6",
          "type": "bytes"
        }
      ],
      "name": "mint",
      "outputs": [
        {
          "name": "",
          "type": "bool"
        }
      ],
      "payable": false,
      "stateMutability": "nonpayable",
      "type": "function",
      "signature": "0x382e6fdb"
    },
    {
      "constant": false,
      "inputs": [
        {
          "name": "_value",
          "type": "uint256"
        }
      ],
      "name": "purchaseUsage",
      "outputs": [
        {
          "name": "",
          "type": "bool"
        }
      ],
      "payable": false,
      "stateMutability": "nonpayable",
      "type": "function",
      "signature": "0xb55968ec"
    },
    {
      "constant": false,
      "inputs": [
        {
          "name": "_addr",
          "type": "address"
        }
      ],
      "name": "setChainpointRegistry",
      "outputs": [
        {
          "name": "",
          "type": "bool"
        }
      ],
      "payable": false,
      "stateMutability": "nonpayable",
      "type": "function",
      "signature": "0x44ea8d44"
    },
    {
      "constant": true,
      "inputs": [
        {
          "name": "hash",
          "type": "bytes32"
        },
        {
          "name": "signature",
          "type": "bytes"
        }
      ],
      "name": "recover",
      "outputs": [
        {
          "name": "",
          "type": "address"
        }
      ],
      "payable": false,
      "stateMutability": "pure",
      "type": "function",
      "signature": "0x19045a25"
    },
    {
      "constant": true,
      "inputs": [
        {
          "name": "hash",
          "type": "bytes32"
        }
      ],
      "name": "toEthSignedMessageHash",
      "outputs": [
        {
          "name": "",
          "type": "bytes32"
        }
      ],
      "payable": false,
      "stateMutability": "pure",
      "type": "function",
      "signature": "0x918a15cf"
    }
  ],
  "bytecode": "0x60806040526040805190810160405280601581526020017f54696572696f6e204e6574776f726b20546f6b656e000000000000000000000081525060069080519060200190620000519291906200045b565b506040805190810160405280600381526020017f544e540000000000000000000000000000000000000000000000000000000000815250600790805190602001906200009f9291906200045b565b5060088060006101000a81548160ff021916908360ff160217905550600860009054906101000a900460ff1660ff16600a0a620f424002600955600860009054906101000a900460ff1660ff16600a0a6107d002600a55611680600b556000600c556000600d556000600e556000600f553480156200011d57600080fd5b506040516020806200371f833981018060405260208110156200013f57600080fd5b810190808051906020019092919050505033600360006101000a81548173ffffffffffffffffffffffffffffffffffffffff021916908373ffffffffffffffffffffffffffffffffffffffff160217905550600360009054906101000a900473ffffffffffffffffffffffffffffffffffffffff1673ffffffffffffffffffffffffffffffffffffffff16600073ffffffffffffffffffffffffffffffffffffffff167f8be0079c531659141344cd1fd0a4f28419497f9722a3daafe3b4186f6b6457e060405160405180910390a3620002283362000299640100000000026401000000009004565b6000600560006101000a81548160ff021916908315150217905550600954600081905550600954600160008373ffffffffffffffffffffffffffffffffffffffff1673ffffffffffffffffffffffffffffffffffffffff16815260200190815260200160002081905550506200050a565b620002bd816004620003036401000000000262003101179091906401000000009004565b8073ffffffffffffffffffffffffffffffffffffffff167f6719d08c1888103bea251a4ed56406bd0c3e69723c8a1686e017e7bbe159b6f860405160405180910390a250565b600073ffffffffffffffffffffffffffffffffffffffff168173ffffffffffffffffffffffffffffffffffffffff16141515156200034057600080fd5b6200035b8282620003c6640100000000026401000000009004565b1515156200036857600080fd5b60018260000160008373ffffffffffffffffffffffffffffffffffffffff1673ffffffffffffffffffffffffffffffffffffffff16815260200190815260200160002060006101000a81548160ff0219169083151502179055505050565b60008073ffffffffffffffffffffffffffffffffffffffff168273ffffffffffffffffffffffffffffffffffffffff16141515156200040457600080fd5b8260000160008373ffffffffffffffffffffffffffffffffffffffff1673ffffffffffffffffffffffffffffffffffffffff16815260200190815260200160002060009054906101000a900460ff16905092915050565b828054600181600116156101000203166002900490600052602060002090601f016020900481019282601f106200049e57805160ff1916838001178555620004cf565b82800160010185558215620004cf579182015b82811115620004ce578251825591602001919060010190620004b1565b5b509050620004de9190620004e2565b5090565b6200050791905b8082111562000503576000816000905550600101620004e9565b5090565b90565b613205806200051a6000396000f3fe608060405260043610610196576000357c0100000000000000000000000000000000000000000000000000000000900463ffffffff16806306fdde031461019b578063095ea7b31461022b57806318160ddd1461029e57806319045a25146102c957806323b872dd146103db5780632ff2e9dc1461046e578063313ce56714610499578063382e6fdb146104ca5780633f4ba83a1461093c57806344ea8d441461095357806346fbf68e146109bc5780634c5f25dd14610a255780635a2bcc1814610a505780635a8ef28b14610a7b5780635c65816514610aa65780635c975abb14610b2b5780636ef8d66d14610b5a57806370a0823114610b71578063715018a614610bd657806382dc1ec414610bed5780638456cb5914610c3e578063898e002514610c555780638da5cb5b14610c805780638f32d59b14610cd7578063918a15cf14610d0657806395d89b4114610d55578063a3059ef014610de5578063a9059cbb14610e10578063b55968ec14610e83578063ba60ad9714610ed6578063dd62ed3e14610f2d578063f2fde38b14610fb2575b600080fd5b3480156101a757600080fd5b506101b0611003565b6040518080602001828103825283818151815260200191508051906020019080838360005b838110156101f05780820151818401526020810190506101d5565b50505050905090810190601f16801561021d5780820380516001836020036101000a031916815260200191505b509250505060405180910390f35b34801561023757600080fd5b506102846004803603604081101561024e57600080fd5b81019080803573ffffffffffffffffffffffffffffffffffffffff169060200190929190803590602001909291905050506110a1565b604051808215151515815260200191505060405180910390f35b3480156102aa57600080fd5b506102b36110d1565b6040518082815260200191505060405180910390f35b3480156102d557600080fd5b50610399600480360360408110156102ec57600080fd5b81019080803590602001909291908035906020019064010000000081111561031357600080fd5b82018360208201111561032557600080fd5b8035906020019184600183028401116401000000008311171561034757600080fd5b91908080601f016020809104026020016040519081016040528093929190818152602001838380828437600081840152601f19601f8201169050808301925050505050505091929192905050506110d7565b604051808273ffffffffffffffffffffffffffffffffffffffff1673ffffffffffffffffffffffffffffffffffffffff16815260200191505060405180910390f35b3480156103e757600080fd5b50610454600480360360608110156103fe57600080fd5b81019080803573ffffffffffffffffffffffffffffffffffffffff169060200190929190803573ffffffffffffffffffffffffffffffffffffffff169060200190929190803590602001909291905050506110f4565b604051808215151515815260200191505060405180910390f35b34801561047a57600080fd5b50610483611162565b6040518082815260200191505060405180910390f35b3480156104a557600080fd5b506104ae611168565b604051808260ff1660ff16815260200191505060405180910390f35b3480156104d657600080fd5b5061092260048036036101008110156104ee57600080fd5b810190808035906020019064010000000081111561050b57600080fd5b82018360208201111561051d57600080fd5b8035906020019184602083028401116401000000008311171561053f57600080fd5b919080806020026020016040519081016040528093929190818152602001838360200280828437600081840152601f19601f82011690508083019250505050505050919291929080359060200190929190803590602001906401000000008111156105a957600080fd5b8201836020820111156105bb57600080fd5b803590602001918460018302840111640100000000831117156105dd57600080fd5b91908080601f016020809104026020016040519081016040528093929190818152602001838380828437600081840152601f19601f8201169050808301925050505050505091929192908035906020019064010000000081111561064057600080fd5b82018360208201111561065257600080fd5b8035906020019184600183028401116401000000008311171561067457600080fd5b91908080601f016020809104026020016040519081016040528093929190818152602001838380828437600081840152601f19601f820116905080830192505050505050509192919290803590602001906401000000008111156106d757600080fd5b8201836020820111156106e957600080fd5b8035906020019184600183028401116401000000008311171561070b57600080fd5b91908080601f016020809104026020016040519081016040528093929190818152602001838380828437600081840152601f19601f8201169050808301925050505050505091929192908035906020019064010000000081111561076e57600080fd5b82018360208201111561078057600080fd5b803590602001918460018302840111640100000000831117156107a257600080fd5b91908080601f016020809104026020016040519081016040528093929190818152602001838380828437600081840152601f19601f8201169050808301925050505050505091929192908035906020019064010000000081111561080557600080fd5b82018360208201111561081757600080fd5b8035906020019184600183028401116401000000008311171561083957600080fd5b91908080601f016020809104026020016040519081016040528093929190818152602001838380828437600081840152601f19601f8201169050808301925050505050505091929192908035906020019064010000000081111561089c57600080fd5b8201836020820111156108ae57600080fd5b803590602001918460018302840111640100000000831117156108d057600080fd5b91908080601f016020809104026020016040519081016040528093929190818152602001838380828437600081840152601f19601f82011690508083019250505050505050919291929050505061117b565b604051808215151515815260200191505060405180910390f35b34801561094857600080fd5b50610951611d04565b005b34801561095f57600080fd5b506109a26004803603602081101561097657600080fd5b81019080803573ffffffffffffffffffffffffffffffffffffffff169060200190929190505050611db3565b604051808215151515815260200191505060405180910390f35b3480156109c857600080fd5b50610a0b600480360360208110156109df57600080fd5b81019080803573ffffffffffffffffffffffffffffffffffffffff169060200190929190505050611e4e565b604051808215151515815260200191505060405180910390f35b348015610a3157600080fd5b50610a3a611e6b565b6040518082815260200191505060405180910390f35b348015610a5c57600080fd5b50610a65611e71565b6040518082815260200191505060405180910390f35b348015610a8757600080fd5b50610a90611e77565b6040518082815260200191505060405180910390f35b348015610ab257600080fd5b50610b1560048036036040811015610ac957600080fd5b81019080803573ffffffffffffffffffffffffffffffffffffffff169060200190929190803573ffffffffffffffffffffffffffffffffffffffff169060200190929190505050611e7d565b6040518082815260200191505060405180910390f35b348015610b3757600080fd5b50610b40611ea2565b604051808215151515815260200191505060405180910390f35b348015610b6657600080fd5b50610b6f611eb9565b005b348015610b7d57600080fd5b50610bc060048036036020811015610b9457600080fd5b81019080803573ffffffffffffffffffffffffffffffffffffffff169060200190929190505050611ec4565b6040518082815260200191505060405180910390f35b348015610be257600080fd5b50610beb611f0d565b005b348015610bf957600080fd5b50610c3c60048036036020811015610c1057600080fd5b81019080803573ffffffffffffffffffffffffffffffffffffffff169060200190929190505050611fe1565b005b348015610c4a57600080fd5b50610c53612001565b005b348015610c6157600080fd5b50610c6a6120b1565b6040518082815260200191505060405180910390f35b348015610c8c57600080fd5b50610c956120b7565b604051808273ffffffffffffffffffffffffffffffffffffffff1673ffffffffffffffffffffffffffffffffffffffff16815260200191505060405180910390f35b348015610ce357600080fd5b50610cec6120e1565b604051808215151515815260200191505060405180910390f35b348015610d1257600080fd5b50610d3f60048036036020811015610d2957600080fd5b8101908080359060200190929190505050612139565b6040518082815260200191505060405180910390f35b348015610d6157600080fd5b50610d6a61214b565b6040518080602001828103825283818151815260200191508051906020019080838360005b83811015610daa578082015181840152602081019050610d8f565b50505050905090810190601f168015610dd75780820380516001836020036101000a031916815260200191505b509250505060405180910390f35b348015610df157600080fd5b50610dfa6121e9565b6040518082815260200191505060405180910390f35b348015610e1c57600080fd5b50610e6960048036036040811015610e3357600080fd5b81019080803573ffffffffffffffffffffffffffffffffffffffff169060200190929190803590602001909291905050506121ef565b604051808215151515815260200191505060405180910390f35b348015610e8f57600080fd5b50610ebc60048036036020811015610ea657600080fd5b810190808035906020019092919050505061225b565b604051808215151515815260200191505060405180910390f35b348015610ee257600080fd5b50610eeb6122db565b604051808273ffffffffffffffffffffffffffffffffffffffff1673ffffffffffffffffffffffffffffffffffffffff16815260200191505060405180910390f35b348015610f3957600080fd5b50610f9c60048036036040811015610f5057600080fd5b81019080803573ffffffffffffffffffffffffffffffffffffffff169060200190929190803573ffffffffffffffffffffffffffffffffffffffff169060200190929190505050612301565b6040518082815260200191505060405180910390f35b348015610fbe57600080fd5b5061100160048036036020811015610fd557600080fd5b81019080803573ffffffffffffffffffffffffffffffffffffffff169060200190929190505050612388565b005b60068054600181600116156101000203166002900480601f0160208091040260200160405190810160405280929190818152602001828054600181600116156101000203166002900480156110995780601f1061106e57610100808354040283529160200191611099565b820191906000526020600020905b81548152906001019060200180831161107c57829003601f168201915b505050505081565b6000600560009054906101000a900460ff161515156110bf57600080fd5b6110c983836123a7565b905092915050565b60005481565b60006110ec828461252e90919063ffffffff16565b905092915050565b6000600560009054906101000a900460ff1615151561111257600080fd5b600073ffffffffffffffffffffffffffffffffffffffff168373ffffffffffffffffffffffffffffffffffffffff161415151561114e57600080fd5b611159848484612612565b90509392505050565b60095481565b600860009054906101000a900460ff1681565b6000600560009054906101000a900460ff1615151561119957600080fd5b601060009054906101000a900473ffffffffffffffffffffffffffffffffffffffff1673ffffffffffffffffffffffffffffffffffffffff16639273cce8336040518263ffffffff167c0100000000000000000000000000000000000000000000000000000000028152600401808273ffffffffffffffffffffffffffffffffffffffff1673ffffffffffffffffffffffffffffffffffffffff16815260200191505060206040518083038186803b15801561125457600080fd5b505afa158015611268573d6000803e3d6000fd5b505050506040513d602081101561127e57600080fd5b81019080805190602001909291905050501515611329576040517f08c379a00000000000000000000000000000000000000000000000000000000081526004018080602001828103825260288152602001807f6d757374206265206f776e6572206f7220616e2061637469766520636f72652081526020017f6f70657261746f7200000000000000000000000000000000000000000000000081525060400191505060405180910390fd5b6000600d541480611350575061134c600b54600d546128bd90919063ffffffff16565b4310155b15156113ea576040517f08c379a00000000000000000000000000000000000000000000000000000000081526004018080602001828103825260308152602001807f6d696e74696e67206f636375727320617420746865207370656369666965642081526020017f6d696e74696e6720696e74657276616c0000000000000000000000000000000081525060400191505060405180910390fd5b604889511115151561148a576040517f08c379a00000000000000000000000000000000000000000000000000000000081526004018080602001828103825260258152602001807f6c697374206f66203732206f72206665776572206e6f6465732069732072657181526020017f756972656400000000000000000000000000000000000000000000000000000081525060400191505060405180910390fd5b61149d86886128de90919063ffffffff16565b1580156114ba57506114b885886128de90919063ffffffff16565b155b80156114d657506114d484886128de90919063ffffffff16565b155b80156114f257506114f083886128de90919063ffffffff16565b155b801561150e575061150c82886128de90919063ffffffff16565b155b15156115a8576040517f08c379a000000000000000000000000000000000000000000000000000000000815260040180806020018281038252602c8152602001807f5369676e617475726573206d757374206265207369676e65642062792064696681526020017f666572656e7420436f726573000000000000000000000000000000000000000081525060400191505060405180910390fd5b6115bb85876128de90919063ffffffff16565b1580156115d857506115d684876128de90919063ffffffff16565b155b80156115f457506115f283876128de90919063ffffffff16565b155b8015611610575061160e82876128de90919063ffffffff16565b155b15156116aa576040517f08c379a000000000000000000000000000000000000000000000000000000000815260040180806020018281038252602c8152602001807f5369676e617475726573206d757374206265207369676e65642062792064696681526020017f666572656e7420436f726573000000000000000000000000000000000000000081525060400191505060405180910390fd5b6116bd84866128de90919063ffffffff16565b1580156116da57506116d883866128de90919063ffffffff16565b155b80156116f657506116f482866128de90919063ffffffff16565b155b1515611790576040517f08c379a000000000000000000000000000000000000000000000000000000000815260040180806020018281038252602c8152602001807f5369676e617475726573206d757374206265207369676e65642062792064696681526020017f666572656e7420436f726573000000000000000000000000000000000000000081525060400191505060405180910390fd5b6117a383856128de90919063ffffffff16565b1580156117c057506117be82856128de90919063ffffffff16565b155b151561185a576040517f08c379a000000000000000000000000000000000000000000000000000000000815260040180806020018281038252602c8152602001807f5369676e617475726573206d757374206265207369676e65642062792064696681526020017f666572656e7420436f726573000000000000000000000000000000000000000081525060400191505060405180910390fd5b61186d82846128de90919063ffffffff16565b151515611908576040517f08c379a000000000000000000000000000000000000000000000000000000000815260040180806020018281038252602c8152602001807f5369676e617475726573206d757374206265207369676e65642062792064696681526020017f666572656e7420436f726573000000000000000000000000000000000000000081525060400191505060405180910390fd5b60008960405160200180828051906020019060200280838360005b8381101561193e578082015181840152602081019050611923565b505050509050019150506040516020818303038152906040528051906020012090508861196a8261294d565b141515611a05576040517f08c379a000000000000000000000000000000000000000000000000000000000815260040180806020018281038252603f8152602001807f737570706c69656420746f4574685369676e65644d657373616765486173682081526020017f646f6573206e6f7420657175616c2076616c75652063616c63756c617465640081525060400191505060405180910390fd5b611a0d6131b1565b60c0604051908101604052808a815260200189815260200188815260200187815260200186815260200185815250905060008090505b60068160ff161015611c1357601060009054906101000a900473ffffffffffffffffffffffffffffffffffffffff1673ffffffffffffffffffffffffffffffffffffffff16639273cce8611ab5848460ff16600681101515611aa157fe5b60200201518e61252e90919063ffffffff16565b6040518263ffffffff167c0100000000000000000000000000000000000000000000000000000000028152600401808273ffffffffffffffffffffffffffffffffffffffff1673ffffffffffffffffffffffffffffffffffffffff16815260200191505060206040518083038186803b158015611b3157600080fd5b505afa158015611b45573d6000803e3d6000fd5b505050506040513d6020811015611b5b57600080fd5b81019080805190602001909291905050501515611c06576040517f08c379a00000000000000000000000000000000000000000000000000000000081526004018080602001828103825260248152602001807f7369676e6572206973206e6f742061207374616b656420636f7265206f70657281526020017f61746f720000000000000000000000000000000000000000000000000000000081525060400191505060405180910390fd5b8080600101915050611a43565b5043600d8190555042600c8190555060008090505b8b518160ff161015611c6757611c5a8c8260ff16815181101515611c4857fe5b90602001906020020151600a546129a5565b8080600101915050611c28565b507f35cc581d6103df194c8c20f437d4b065c9107097eb2ba6f9702489434e03b64c8b600a54436040518080602001848152602001838152602001828103825285818151815260200191508051906020019060200280838360005b83811015611cdd578082015181840152602081019050611cc2565b5050505090500194505050505060405180910390a160019250505098975050505050505050565b611d0d33611e4e565b1515611d1857600080fd5b600560009054906101000a900460ff161515611d3357600080fd5b6000600560006101000a81548160ff0219169083151502179055507f5db9ee0a495bf2e6ff9c91a7834c1ba4fdd244a5e8aa4e537bd38aeae4b073aa33604051808273ffffffffffffffffffffffffffffffffffffffff1673ffffffffffffffffffffffffffffffffffffffff16815260200191505060405180910390a1565b6000611dbd6120e1565b1515611dc857600080fd5b600073ffffffffffffffffffffffffffffffffffffffff168273ffffffffffffffffffffffffffffffffffffffff1614151515611e0457600080fd5b81601060006101000a81548173ffffffffffffffffffffffffffffffffffffffff021916908373ffffffffffffffffffffffffffffffffffffffff16021790555060019050919050565b6000611e64826004612afb90919063ffffffff16565b9050919050565b600f5481565b600a5481565b600d5481565b6002602052816000526040600020602052806000526040600020600091509150505481565b6000600560009054906101000a900460ff16905090565b611ec233612b8f565b565b6000600160008373ffffffffffffffffffffffffffffffffffffffff1673ffffffffffffffffffffffffffffffffffffffff168152602001908152602001600020549050919050565b611f156120e1565b1515611f2057600080fd5b600073ffffffffffffffffffffffffffffffffffffffff16600360009054906101000a900473ffffffffffffffffffffffffffffffffffffffff1673ffffffffffffffffffffffffffffffffffffffff167f8be0079c531659141344cd1fd0a4f28419497f9722a3daafe3b4186f6b6457e060405160405180910390a36000600360006101000a81548173ffffffffffffffffffffffffffffffffffffffff021916908373ffffffffffffffffffffffffffffffffffffffff160217905550565b611fea33611e4e565b1515611ff557600080fd5b611ffe81612be9565b50565b61200a33611e4e565b151561201557600080fd5b600560009054906101000a900460ff1615151561203157600080fd5b6001600560006101000a81548160ff0219169083151502179055507f62e78cea01bee320cd4e420270b5ea74000d11b0c9f74754ebdbfc544b05a25833604051808273ffffffffffffffffffffffffffffffffffffffff1673ffffffffffffffffffffffffffffffffffffffff16815260200191505060405180910390a1565b600c5481565b6000600360009054906101000a900473ffffffffffffffffffffffffffffffffffffffff16905090565b6000600360009054906101000a900473ffffffffffffffffffffffffffffffffffffffff1673ffffffffffffffffffffffffffffffffffffffff163373ffffffffffffffffffffffffffffffffffffffff1614905090565b60006121448261294d565b9050919050565b60078054600181600116156101000203166002900480601f0160208091040260200160405190810160405280929190818152602001828054600181600116156101000203166002900480156121e15780601f106121b6576101008083540402835291602001916121e1565b820191906000526020600020905b8154815290600101906020018083116121c457829003601f168201915b505050505081565b600b5481565b6000600560009054906101000a900460ff1615151561220d57600080fd5b600073ffffffffffffffffffffffffffffffffffffffff168373ffffffffffffffffffffffffffffffffffffffff161415151561224957600080fd5b6122538383612c43565b905092915050565b60006122673383612dde565b7f0651f693d262f8b7c2f4a40577914247c33a4eb3fa57d735c8ac49be550021cb3383604051808373ffffffffffffffffffffffffffffffffffffffff1673ffffffffffffffffffffffffffffffffffffffff1681526020018281526020019250505060405180910390a160019050919050565b601060009054906101000a900473ffffffffffffffffffffffffffffffffffffffff1681565b6000600260008473ffffffffffffffffffffffffffffffffffffffff1673ffffffffffffffffffffffffffffffffffffffff16815260200190815260200160002060008373ffffffffffffffffffffffffffffffffffffffff1673ffffffffffffffffffffffffffffffffffffffff16815260200190815260200160002054905092915050565b6123906120e1565b151561239b57600080fd5b6123a481612f34565b50565b60008082148061243357506000600260003373ffffffffffffffffffffffffffffffffffffffff1673ffffffffffffffffffffffffffffffffffffffff16815260200190815260200160002060008573ffffffffffffffffffffffffffffffffffffffff1673ffffffffffffffffffffffffffffffffffffffff16815260200190815260200160002054145b151561243e57600080fd5b81600260003373ffffffffffffffffffffffffffffffffffffffff1673ffffffffffffffffffffffffffffffffffffffff16815260200190815260200160002060008573ffffffffffffffffffffffffffffffffffffffff1673ffffffffffffffffffffffffffffffffffffffff168152602001908152602001600020819055508273ffffffffffffffffffffffffffffffffffffffff163373ffffffffffffffffffffffffffffffffffffffff167f8c5be1e5ebec7d5bd14f71427d1e84f3dd0314c0f7b2291e5b200ac8c7c3b925846040518082815260200191505060405180910390a36001905092915050565b6000806000806041855114151561254b576000935050505061260c565b6020850151925060408501519150606085015160001a9050601b8160ff16101561257657601b810190505b601b8160ff161415801561258e5750601c8160ff1614155b1561259f576000935050505061260c565b60018682858560405160008152602001604052604051808581526020018460ff1660ff1681526020018381526020018281526020019450505050506020604051602081039080840390855afa1580156125fc573d6000803e3d6000fd5b5050506020604051035193505050505b92915050565b600061266682600160008773ffffffffffffffffffffffffffffffffffffffff1673ffffffffffffffffffffffffffffffffffffffff1681526020019081526020016000205461303090919063ffffffff16565b600160008673ffffffffffffffffffffffffffffffffffffffff1673ffffffffffffffffffffffffffffffffffffffff1681526020019081526020016000208190555061273882600260008773ffffffffffffffffffffffffffffffffffffffff1673ffffffffffffffffffffffffffffffffffffffff16815260200190815260200160002060003373ffffffffffffffffffffffffffffffffffffffff1673ffffffffffffffffffffffffffffffffffffffff1681526020019081526020016000205461303090919063ffffffff16565b600260008673ffffffffffffffffffffffffffffffffffffffff1673ffffffffffffffffffffffffffffffffffffffff16815260200190815260200160002060003373ffffffffffffffffffffffffffffffffffffffff1673ffffffffffffffffffffffffffffffffffffffff1681526020019081526020016000208190555061280a82600160008673ffffffffffffffffffffffffffffffffffffffff1673ffffffffffffffffffffffffffffffffffffffff168152602001908152602001600020546128bd90919063ffffffff16565b600160008573ffffffffffffffffffffffffffffffffffffffff1673ffffffffffffffffffffffffffffffffffffffff168152602001908152602001600020819055508273ffffffffffffffffffffffffffffffffffffffff168473ffffffffffffffffffffffffffffffffffffffff167fddf252ad1be2c89b69c2b068fc378daa952ba7f163c4a11628f55a4df523b3ef846040518082815260200191505060405180910390a3600190509392505050565b60008082840190508381101515156128d457600080fd5b8091505092915050565b60008060019050835183518114600181146128fc5760009250612941565b600160208701838101602088015b60028483851001141561293c578051835114151561292b5760009650600093505b60208301925060208101905061290a565b505050505b50508091505092915050565b60008160405160200180807f19457468657265756d205369676e6564204d6573736167653a0a333200000000815250601c01828152602001915050604051602081830303815290604052805190602001209050919050565b600073ffffffffffffffffffffffffffffffffffffffff168273ffffffffffffffffffffffffffffffffffffffff16141515156129e157600080fd5b6129f6816000546128bd90919063ffffffff16565b600081905550612a4e81600160008573ffffffffffffffffffffffffffffffffffffffff1673ffffffffffffffffffffffffffffffffffffffff168152602001908152602001600020546128bd90919063ffffffff16565b600160008473ffffffffffffffffffffffffffffffffffffffff1673ffffffffffffffffffffffffffffffffffffffff168152602001908152602001600020819055508173ffffffffffffffffffffffffffffffffffffffff16600073ffffffffffffffffffffffffffffffffffffffff167fddf252ad1be2c89b69c2b068fc378daa952ba7f163c4a11628f55a4df523b3ef836040518082815260200191505060405180910390a35050565b60008073ffffffffffffffffffffffffffffffffffffffff168273ffffffffffffffffffffffffffffffffffffffff1614151515612b3857600080fd5b8260000160008373ffffffffffffffffffffffffffffffffffffffff1673ffffffffffffffffffffffffffffffffffffffff16815260200190815260200160002060009054906101000a900460ff16905092915050565b612ba381600461305290919063ffffffff16565b8073ffffffffffffffffffffffffffffffffffffffff167fcd265ebaf09df2871cc7bd4133404a235ba12eff2041bb89d9c714a2621c7c7e60405160405180910390a250565b612bfd81600461310190919063ffffffff16565b8073ffffffffffffffffffffffffffffffffffffffff167f6719d08c1888103bea251a4ed56406bd0c3e69723c8a1686e017e7bbe159b6f860405160405180910390a250565b6000612c9782600160003373ffffffffffffffffffffffffffffffffffffffff1673ffffffffffffffffffffffffffffffffffffffff1681526020019081526020016000205461303090919063ffffffff16565b600160003373ffffffffffffffffffffffffffffffffffffffff1673ffffffffffffffffffffffffffffffffffffffff16815260200190815260200160002081905550612d2c82600160008673ffffffffffffffffffffffffffffffffffffffff1673ffffffffffffffffffffffffffffffffffffffff168152602001908152602001600020546128bd90919063ffffffff16565b600160008573ffffffffffffffffffffffffffffffffffffffff1673ffffffffffffffffffffffffffffffffffffffff168152602001908152602001600020819055508273ffffffffffffffffffffffffffffffffffffffff163373ffffffffffffffffffffffffffffffffffffffff167fddf252ad1be2c89b69c2b068fc378daa952ba7f163c4a11628f55a4df523b3ef846040518082815260200191505060405180910390a36001905092915050565b600073ffffffffffffffffffffffffffffffffffffffff168273ffffffffffffffffffffffffffffffffffffffff1614151515612e1a57600080fd5b612e2f8160005461303090919063ffffffff16565b600081905550612e8781600160008573ffffffffffffffffffffffffffffffffffffffff1673ffffffffffffffffffffffffffffffffffffffff1681526020019081526020016000205461303090919063ffffffff16565b600160008473ffffffffffffffffffffffffffffffffffffffff1673ffffffffffffffffffffffffffffffffffffffff16815260200190815260200160002081905550600073ffffffffffffffffffffffffffffffffffffffff168273ffffffffffffffffffffffffffffffffffffffff167fddf252ad1be2c89b69c2b068fc378daa952ba7f163c4a11628f55a4df523b3ef836040518082815260200191505060405180910390a35050565b600073ffffffffffffffffffffffffffffffffffffffff168173ffffffffffffffffffffffffffffffffffffffff1614151515612f7057600080fd5b8073ffffffffffffffffffffffffffffffffffffffff16600360009054906101000a900473ffffffffffffffffffffffffffffffffffffffff1673ffffffffffffffffffffffffffffffffffffffff167f8be0079c531659141344cd1fd0a4f28419497f9722a3daafe3b4186f6b6457e060405160405180910390a380600360006101000a81548173ffffffffffffffffffffffffffffffffffffffff021916908373ffffffffffffffffffffffffffffffffffffffff16021790555050565b600082821115151561304157600080fd5b600082840390508091505092915050565b600073ffffffffffffffffffffffffffffffffffffffff168173ffffffffffffffffffffffffffffffffffffffff161415151561308e57600080fd5b6130988282612afb565b15156130a357600080fd5b60008260000160008373ffffffffffffffffffffffffffffffffffffffff1673ffffffffffffffffffffffffffffffffffffffff16815260200190815260200160002060006101000a81548160ff0219169083151502179055505050565b600073ffffffffffffffffffffffffffffffffffffffff168173ffffffffffffffffffffffffffffffffffffffff161415151561313d57600080fd5b6131478282612afb565b15151561315357600080fd5b60018260000160008373ffffffffffffffffffffffffffffffffffffffff1673ffffffffffffffffffffffffffffffffffffffff16815260200190815260200160002060006101000a81548160ff0219169083151502179055505050565b60c0604051908101604052806006905b60608152602001906001900390816131c1579050509056fea165627a7a72305820615544e989b245a539f71ad01f0f82878c8a7513dc895fa186ab6f6f85e6b3fb0029",
  "source": "pragma solidity >=0.4.22 <0.6.0;\n\nimport \"openzeppelin-solidity/contracts/ownership/Ownable.sol\";\nimport \"openzeppelin-solidity/contracts/lifecycle/Pausable.sol\";\nimport \"openzeppelin-solidity/contracts/cryptography/ECDSA.sol\";\nimport \"bytes/BytesLib.sol\";\nimport \"./lib/ERC20.sol\";\nimport \"./lib/ERC20Basic.sol\";\nimport \"./lib/SafeMath.sol\";\nimport \"./ChainpointRegistry.sol\";\n\n\n/**\n * @title Basic token\n * @dev Basic version of StandardToken, with no allowances. \n */\ncontract BasicToken is ERC20Basic {\n  using SafeMath for uint256;\n\n  mapping(address => uint256) balances;\n\n  /**\n   * @dev transfer token for a specified address\n   * @param _to The address to transfer to.\n   * @param _value The amount to be transferred.\n   */\n  function transfer(address _to, uint256 _value) public returns(bool) {\n    balances[msg.sender] = balances[msg.sender].sub(_value);\n    balances[_to] = balances[_to].add(_value);\n    emit Transfer(msg.sender, _to, _value);\n    return true;\n  }\n\n  /**\n   * @dev Gets the balance of the specified address.\n   * @param _owner The address to query the the balance of. \n   * @return An uint256 representing the amount owned by the passed address.\n   */\n  function balanceOf(address _owner) public view returns(uint256 balance) {\n    return balances[_owner];\n  }\n\n}\n\n/**\n * @title Standard ERC20 token\n *\n * @dev Implementation of the basic standard token.\n * @dev https://github.com/ethereum/EIPs/issues/20\n * @dev Based on code by FirstBlood: https://github.com/Firstbloodio/token/blob/master/smart_contract/FirstBloodToken.sol\n */\ncontract StandardToken is ERC20, BasicToken {\n  using SafeMath for uint256;\n\n  mapping(address => mapping(address => uint256)) public allowed;\n\n\n  /**\n   * @dev Transfer tokens from one address to another\n   * @param _from address The address which you want to send tokens from\n   * @param _to address The address which you want to transfer to\n   * @param _value uint256 the amout of tokens to be transfered\n   */\n  function transferFrom(address _from, address _to, uint256 _value) public returns(bool) {\n    // Check is not needed because sub(_allowance, _value) will already throw if this condition is not met\n    // require (_value <= _allowance);\n    \n    balances[_from] = balances[_from].sub(_value);\n    allowed[_from][msg.sender] = allowed[_from][msg.sender].sub(_value);\n    balances[_to] = balances[_to].add(_value);\n\n    emit Transfer(_from, _to, _value);\n    \n    return true;\n  }\n\n  /**\n   * @dev Aprove the passed address to spend the specified amount of tokens on behalf of msg.sender.\n   * @param _spender The address which will spend the funds.\n   * @param _value The amount of tokens to be spent.\n   */\n  function approve(address _spender, uint256 _value) public returns(bool) {\n\n    // To change the approve amount you first have to reduce the addresses`\n    //  allowance to zero by calling `approve(_spender, 0)` if it is not\n    //  already 0 to mitigate the race condition described here:\n    //  https://github.com/ethereum/EIPs/issues/20#issuecomment-263524729\n    require((_value == 0) || (allowed[msg.sender][_spender] == 0));\n\n    allowed[msg.sender][_spender] = _value;\n    emit Approval(msg.sender, _spender, _value);\n    return true;\n  }\n\n  /**\n   * @dev Function to check the amount of tokens that an owner allowed to a spender.\n   * @param _owner address The address which owns the funds.\n   * @param _spender address The address which will spend the funds.\n   * @return A uint256 specifing the amount of tokens still avaible for the spender.\n   */\n  function allowance(address _owner, address _spender) public view returns(uint256 remaining) {\n    return allowed[_owner][_spender];\n  }\n\n}\n\n/**\n * @title Tierion Network Token\n * @dev ERC20 Tierion Network Token (TNT)\n *\n * TNT Tokens are divisible by 1e8 (100,000,000) base\n * units referred to as 'Grains'.\n *\n * TNT are displayed using 8 decimal places of precision.\n *\n * 1 TNT is equivalent to:\n *   100000000 == 1 * 10**8 == 1e8 == One Hundred Million Grains\n *\n * 1 Billion TNT (total supply) is equivalent to:\n *   100000000000000000 == 1000000000 * 10**8 == 1e17 == One Hundred Quadrillion Grains\n *\n * All initial TNT Grains are assigned to the creator of\n * this contract.\n *\n */\ncontract TierionNetworkToken is StandardToken, Ownable, Pausable {\n    using ECDSA for bytes32;\n    using BytesLib for bytes;\n    \n    string public name = 'Tierion Network Token'; // Set the token name for display\n    string public symbol = 'TNT'; // Set the token symbol for display\n    uint8 public decimals = 8; // Set the number of decimals for display\n    uint256 public INITIAL_SUPPLY = 1000000 * 10 ** uint256(decimals); // 1M TNT specified in Grains\n    uint256 public mintAmount = 2000 * 10 ** uint256(decimals); // 2000 TNT specified in Grains\n    \n    ///\n    /// Minting Parameters\n    ///\n    /// @title Minting Interval (in # of blocks)\n    uint256 public mintingInterval = 5760; // 86,400 (seconds in 1 day) / 15 (average block time in seconds)\n    /// @title Nodes Last Token Minting timestamp\n    uint256 public nodeLastMintedAt = 0;\n    /// @title Nodes Last Token Minting block height\n    uint256 public nodeLastMintedAtBlock = 0;\n    /// @title Cores Last Token Minting timestamp\n    uint256 coreLastMintedAt = 0;\n    /// @title Cores Last Token Minting block height\n    uint256 public coreLastMintedAtBlock = 0;\n    \n    /// @title Chainpoint Registry\n    /// @notice Chainpoint Registry Contract\n    ChainpointRegistry public chainpointRegistry;\n  \n    ///\n    /// MODIFIERS\n    ///\n    /// @notice only Staked Core Operators or Owner can call, otherwise throw\n    modifier onlyCoreOperator() {\n        require(chainpointRegistry.isHealthyCore(msg.sender), \"must be owner or an active core operator\");\n        _;\n    }\n\n  /**\n   * @dev TierionNetworkToken Constructor\n   * Runs only on initial contract creation.\n   */\n  constructor(address _faucetAddr) public {\n    totalSupply = INITIAL_SUPPLY; // Set the total supply\n    balances[_faucetAddr] = INITIAL_SUPPLY; // INITIAL_SUPPLY is minted to Chainpoint Faucet\n  }\n  \n  ///\n  /// EVENTS \n  ///\n  /// @notice emitted on successful token minting\n  /// @param _nodes number of Node Operators that were rewarded tokens\n  /// @param _mintAmount is the total number of tokens rewarded to each Node Operator\n  /// @param _blockHeight The block height in which token minting occurred\n  event Mint(\n      address[] _nodes,\n      uint256 _mintAmount,\n      uint256 _blockHeight\n  );\n  \n  /// @notice emitted on successful purchasing of usage\n  /// @param _buyer node operator that is purchasing network usage\n  /// @param _value amount of TNT being spent on future network usage\n  event UsagePurchased(\n      address _buyer,\n      uint256 _value\n  );\n\n  /**\n   * @dev Transfer token for a specified address when not paused\n   * @param _to The address to transfer to.\n   * @param _value The amount to be transferred.\n   */\n  function transfer(address _to, uint256 _value) public whenNotPaused returns(bool) {\n    require(_to != address(0));\n    return super.transfer(_to, _value);\n  }\n\n  /**\n   * @dev Transfer tokens from one address to another when not paused\n   * @param _from address The address which you want to send tokens from\n   * @param _to address The address which you want to transfer to\n   * @param _value uint256 the amount of tokens to be transferred\n   */\n  function transferFrom(address _from, address _to, uint256 _value) public whenNotPaused returns(bool) {\n    require(_to != address(0));\n    return super.transferFrom(_from, _to, _value);\n  }\n\n  /**\n   * @dev Aprove the passed address to spend the specified amount of tokens on behalf of msg.sender when not paused.\n   * @param _spender The address which will spend the funds.\n   * @param _value The amount of tokens to be spent.\n   */\n  function approve(address _spender, uint256 _value) public whenNotPaused returns(bool) {\n    return super.approve(_spender, _value);\n  }\n  \n  /**\n   * @dev Mint tokens and send to the address provided\n   * @param _nodes The addresses of Nodes which will receive the funds.\n   * @dev only Chainpoint Core Operators can invoke this method\n   */\n  function mint(address[] memory _nodes, bytes32 _hash, bytes memory signature1, bytes memory signature2, bytes memory signature3, bytes memory signature4, bytes memory signature5, bytes memory signature6) public whenNotPaused onlyCoreOperator returns(bool) {\n      require(nodeLastMintedAtBlock == 0 || block.number >= nodeLastMintedAtBlock.add(mintingInterval), \"minting occurs at the specified minting interval\");\n      require(_nodes.length <= 72, \"list of 72 or fewer nodes is required\");\n      // Check signature uniqueness\n      require(!signature1.equal(signature2) && !signature1.equal(signature3) && !signature1.equal(signature4) && !signature1.equal(signature5) && !signature1.equal(signature6), 'Signatures must be signed by different Cores');\n      require(!signature2.equal(signature3) && !signature2.equal(signature4) && !signature2.equal(signature5) && !signature2.equal(signature6), 'Signatures must be signed by different Cores');\n      require(!signature3.equal(signature4) && !signature3.equal(signature5) && !signature3.equal(signature6), 'Signatures must be signed by different Cores');\n      require(!signature4.equal(signature5) && !signature4.equal(signature6), 'Signatures must be signed by different Cores');\n      require(!signature5.equal(signature6), 'Signatures must be signed by different Cores');\n\n      // Validate parameters provided\n      bytes32 nodesHash = keccak256(abi.encodePacked(_nodes));\n      require(nodesHash.toEthSignedMessageHash() == _hash, \"supplied toEthSignedMessageHash does not equal value calculated\");\n      \n      // Recover Signer addresses and verify they are staked Core Operators\n      bytes[6] memory signatures = [signature1, signature2, signature3, signature4, signature5, signature6];\n      for(uint8 i=0; i < signatures.length; i++) {\n          require(chainpointRegistry.isHealthyCore(_hash.recover(signatures[i])), \"signer is not a staked core operator\");\n      }\n\n      // Update LastMintedAt block & time\n      nodeLastMintedAtBlock = block.number;\n      nodeLastMintedAt = now;\n      \n      // Iterate through list of Nodes and award tokens\n      for(uint8 i=0; i < _nodes.length; i++) {\n          _mint(_nodes[i], mintAmount);\n      }\n      \n      emit Mint(_nodes, mintAmount, block.number);\n      \n      return true;\n  }\n\n  /**\n   * @dev Purchase Usage tokens, will burn tokens and emit a UsagePurchased & Transfer event\n   * @param _value The amount of tokens to be spent.\n   * @dev Chainpoint Nodes will be invoking this method to purchase access to the Network\n   * @return Boolean indicating result of method execution\n   */\n  function purchaseUsage(uint256 _value) public returns (bool) {\n      _burn(msg.sender, _value);\n      \n      emit UsagePurchased(msg.sender, _value);\n      \n      return true;\n  }\n\n  /**\n   * @dev Sets the contract address for the Chainpoint Registry\n   * @param _addr The contract address of the Chainpoint Registry\n   * @dev Can only be invoked by contract owner\n   * @return Boolean indicating result of method execution\n   */\n  function setChainpointRegistry(address _addr) public onlyOwner returns(bool) {\n      require(_addr != address(0));\n      \n      chainpointRegistry = ChainpointRegistry(_addr);\n      \n      return true;\n  }\n\n  /**\n   * @dev Gets the balance of the specified address.\n   * @param _account The account which is burning tokens\n   * @param _value The number of tokens to burn\n   * @dev Internal function that is called within - purchaseUsage()\n   */\n  function _burn(address _account, uint256 _value) internal {\n    require(_account != address(0));\n\n    totalSupply = totalSupply.sub(_value);\n    balances[_account] = balances[_account].sub(_value);\n    \n    emit Transfer(_account, address(0), _value);\n  }\n\n  /**\n    * @dev Internal function that mints an amount of the token and credits the account provided\n    * @param _account The account that will receive the created tokens.\n    * @param _value The amount of tokens minted\n    */\n  function _mint(address _account, uint256 _value) internal {\n    require(_account != address(0));\n\n    totalSupply = totalSupply.add(_value);\n    balances[_account] = balances[_account].add(_value);\n    emit Transfer(address(0), _account, _value);\n  }\n  \n  function recover(bytes32 hash, bytes memory signature) public pure returns (address) {\n    return hash.recover(signature);\n  }\n\n  function toEthSignedMessageHash(bytes32 hash) public pure returns (bytes32) {\n    return hash.toEthSignedMessageHash();\n  }\n}\n",
  "sourcePath": "/Users/michaeliglesias/zDevelopment/Tierion/Hydra/node-registration-research/v1/contracts/TierionNetworkToken.sol",
  "compiler": {
    "name": "solc",
    "version": "0.5.0+commit.1d4f565a.Emscripten.clang"
  },
  "schemaVersion": "3.0.1",
  "updatedAt": "2019-05-13T15:53:21.594Z",
  "devdoc": {
    "details": "ERC20 Tierion Network Token (TNT) * TNT Tokens are divisible by 1e8 (100,000,000) base units referred to as 'Grains'. * TNT are displayed using 8 decimal places of precision. * 1 TNT is equivalent to:  100000000 == 1 * 10**8 == 1e8 == One Hundred Million Grains * 1 Billion TNT (total supply) is equivalent to:  100000000000000000 == 1000000000 * 10**8 == 1e17 == One Hundred Quadrillion Grains * All initial TNT Grains are assigned to the creator of this contract. ",
    "methods": {
      "allowance(address,address)": {
        "details": "Function to check the amount of tokens that an owner allowed to a spender.",
        "params": {
          "_owner": "address The address which owns the funds.",
          "_spender": "address The address which will spend the funds."
        },
        "return": "A uint256 specifing the amount of tokens still avaible for the spender."
      },
      "approve(address,uint256)": {
        "details": "Aprove the passed address to spend the specified amount of tokens on behalf of msg.sender when not paused.",
        "params": {
          "_spender": "The address which will spend the funds.",
          "_value": "The amount of tokens to be spent."
        }
      },
      "balanceOf(address)": {
        "details": "Gets the balance of the specified address.",
        "params": {
          "_owner": "The address to query the the balance of. "
        },
        "return": "An uint256 representing the amount owned by the passed address."
      },
      "constructor": {
        "details": "TierionNetworkToken Constructor Runs only on initial contract creation."
      },
      "isOwner()": {
        "return": "true if `msg.sender` is the owner of the contract."
      },
      "mint(address[],bytes32,bytes,bytes,bytes,bytes,bytes,bytes)": {
        "details": "Mint tokens and send to the address providedonly Chainpoint Core Operators can invoke this method",
        "params": {
          "_nodes": "The addresses of Nodes which will receive the funds."
        }
      },
      "owner()": {
        "return": "the address of the owner."
      },
      "pause()": {
        "details": "called by the owner to pause, triggers stopped state"
      },
      "paused()": {
        "return": "true if the contract is paused, false otherwise."
      },
      "purchaseUsage(uint256)": {
        "details": "Purchase Usage tokens, will burn tokens and emit a UsagePurchased & Transfer eventChainpoint Nodes will be invoking this method to purchase access to the Network",
        "params": {
          "_value": "The amount of tokens to be spent."
        },
        "return": "Boolean indicating result of method execution"
      },
      "renounceOwnership()": {
        "details": "Allows the current owner to relinquish control of the contract."
      },
      "setChainpointRegistry(address)": {
        "details": "Sets the contract address for the Chainpoint RegistryCan only be invoked by contract owner",
        "params": {
          "_addr": "The contract address of the Chainpoint Registry"
        },
        "return": "Boolean indicating result of method execution"
      },
      "transfer(address,uint256)": {
        "details": "Transfer token for a specified address when not paused",
        "params": {
          "_to": "The address to transfer to.",
          "_value": "The amount to be transferred."
        }
      },
      "transferFrom(address,address,uint256)": {
        "details": "Transfer tokens from one address to another when not paused",
        "params": {
          "_from": "address The address which you want to send tokens from",
          "_to": "address The address which you want to transfer to",
          "_value": "uint256 the amount of tokens to be transferred"
        }
      },
      "transferOwnership(address)": {
        "details": "Allows the current owner to transfer control of the contract to a newOwner.",
        "params": {
          "newOwner": "The address to transfer ownership to."
        }
      },
      "unpause()": {
        "details": "called by the owner to unpause, returns to normal state"
      }
    },
    "title": "Tierion Network Token"
  },
  "userdoc": {
    "methods": {
      "renounceOwnership()": {
        "notice": "Renouncing to ownership will leave the contract without an owner. It will not be possible to call the functions with the `onlyOwner` modifier anymore."
      }
    }
  }
}