{
  "contractName": "TierionNetworkToken",
  "abi": [
    {
      "constant": true,
      "inputs": [],
      "name": "name",
      "outputs": [
        {
          "name": "",
          "type": "string"
        }
      ],
      "payable": false,
      "stateMutability": "view",
      "type": "function",
      "signature": "0x06fdde03"
    },
    {
      "constant": true,
      "inputs": [],
      "name": "migrationContract",
      "outputs": [
        {
          "name": "",
          "type": "address"
        }
      ],
      "payable": false,
      "stateMutability": "view",
      "type": "function",
      "signature": "0x0fee1a20"
    },
    {
      "constant": true,
      "inputs": [],
      "name": "totalSupply",
      "outputs": [
        {
          "name": "",
          "type": "uint256"
        }
      ],
      "payable": false,
      "stateMutability": "view",
      "type": "function",
      "signature": "0x18160ddd"
    },
    {
      "constant": true,
      "inputs": [],
      "name": "INITIAL_SUPPLY",
      "outputs": [
        {
          "name": "",
          "type": "uint256"
        }
      ],
      "payable": false,
      "stateMutability": "view",
      "type": "function",
      "signature": "0x2ff2e9dc"
    },
    {
      "constant": true,
      "inputs": [],
      "name": "decimals",
      "outputs": [
        {
          "name": "",
          "type": "uint8"
        }
      ],
      "payable": false,
      "stateMutability": "view",
      "type": "function",
      "signature": "0x313ce567"
    },
    {
      "constant": false,
      "inputs": [],
      "name": "unpause",
      "outputs": [],
      "payable": false,
      "stateMutability": "nonpayable",
      "type": "function",
      "signature": "0x3f4ba83a"
    },
    {
      "constant": true,
      "inputs": [
        {
          "name": "account",
          "type": "address"
        }
      ],
      "name": "isPauser",
      "outputs": [
        {
          "name": "",
          "type": "bool"
        }
      ],
      "payable": false,
      "stateMutability": "view",
      "type": "function",
      "signature": "0x46fbf68e"
    },
    {
      "constant": true,
      "inputs": [],
      "name": "coreLastMintedAtBlock",
      "outputs": [
        {
          "name": "",
          "type": "uint256"
        }
      ],
      "payable": false,
      "stateMutability": "view",
      "type": "function",
      "signature": "0x4c5f25dd"
    },
    {
      "constant": true,
      "inputs": [],
      "name": "mintAmount",
      "outputs": [
        {
          "name": "",
          "type": "uint256"
        }
      ],
      "payable": false,
      "stateMutability": "view",
      "type": "function",
      "signature": "0x5a2bcc18"
    },
    {
      "constant": true,
      "inputs": [],
      "name": "nodeLastMintedAtBlock",
      "outputs": [
        {
          "name": "",
          "type": "uint256"
        }
      ],
      "payable": false,
      "stateMutability": "view",
      "type": "function",
      "signature": "0x5a8ef28b"
    },
    {
      "constant": true,
      "inputs": [
        {
          "name": "",
          "type": "address"
        },
        {
          "name": "",
          "type": "address"
        }
      ],
      "name": "allowed",
      "outputs": [
        {
          "name": "",
          "type": "uint256"
        }
      ],
      "payable": false,
      "stateMutability": "view",
      "type": "function",
      "signature": "0x5c658165"
    },
    {
      "constant": true,
      "inputs": [],
      "name": "paused",
      "outputs": [
        {
          "name": "",
          "type": "bool"
        }
      ],
      "payable": false,
      "stateMutability": "view",
      "type": "function",
      "signature": "0x5c975abb"
    },
    {
      "constant": false,
      "inputs": [],
      "name": "renouncePauser",
      "outputs": [],
      "payable": false,
      "stateMutability": "nonpayable",
      "type": "function",
      "signature": "0x6ef8d66d"
    },
    {
      "constant": true,
      "inputs": [
        {
          "name": "_owner",
          "type": "address"
        }
      ],
      "name": "balanceOf",
      "outputs": [
        {
          "name": "balance",
          "type": "uint256"
        }
      ],
      "payable": false,
      "stateMutability": "view",
      "type": "function",
      "signature": "0x70a08231"
    },
    {
      "constant": false,
      "inputs": [],
      "name": "renounceOwnership",
      "outputs": [],
      "payable": false,
      "stateMutability": "nonpayable",
      "type": "function",
      "signature": "0x715018a6"
    },
    {
      "constant": false,
      "inputs": [
        {
          "name": "account",
          "type": "address"
        }
      ],
      "name": "addPauser",
      "outputs": [],
      "payable": false,
      "stateMutability": "nonpayable",
      "type": "function",
      "signature": "0x82dc1ec4"
    },
    {
      "constant": false,
      "inputs": [],
      "name": "pause",
      "outputs": [],
      "payable": false,
      "stateMutability": "nonpayable",
      "type": "function",
      "signature": "0x8456cb59"
    },
    {
      "constant": true,
      "inputs": [],
      "name": "nodeLastMintedAt",
      "outputs": [
        {
          "name": "",
          "type": "uint256"
        }
      ],
      "payable": false,
      "stateMutability": "view",
      "type": "function",
      "signature": "0x898e0025"
    },
    {
      "constant": true,
      "inputs": [],
      "name": "owner",
      "outputs": [
        {
          "name": "",
          "type": "address"
        }
      ],
      "payable": false,
      "stateMutability": "view",
      "type": "function",
      "signature": "0x8da5cb5b"
    },
    {
      "constant": true,
      "inputs": [],
      "name": "isOwner",
      "outputs": [
        {
          "name": "",
          "type": "bool"
        }
      ],
      "payable": false,
      "stateMutability": "view",
      "type": "function",
      "signature": "0x8f32d59b"
    },
    {
      "constant": true,
      "inputs": [],
      "name": "symbol",
      "outputs": [
        {
          "name": "",
          "type": "string"
        }
      ],
      "payable": false,
      "stateMutability": "view",
      "type": "function",
      "signature": "0x95d89b41"
    },
    {
      "constant": true,
      "inputs": [],
      "name": "mintingInterval",
      "outputs": [
        {
          "name": "",
          "type": "uint256"
        }
      ],
      "payable": false,
      "stateMutability": "view",
      "type": "function",
      "signature": "0xa3059ef0"
    },
    {
      "constant": true,
      "inputs": [],
      "name": "chainpointRegistry",
      "outputs": [
        {
          "name": "",
          "type": "address"
        }
      ],
      "payable": false,
      "stateMutability": "view",
      "type": "function",
      "signature": "0xba60ad97"
    },
    {
      "constant": true,
      "inputs": [
        {
          "name": "_owner",
          "type": "address"
        },
        {
          "name": "_spender",
          "type": "address"
        }
      ],
      "name": "allowance",
      "outputs": [
        {
          "name": "remaining",
          "type": "uint256"
        }
      ],
      "payable": false,
      "stateMutability": "view",
      "type": "function",
      "signature": "0xdd62ed3e"
    },
    {
      "constant": false,
      "inputs": [
        {
          "name": "newOwner",
          "type": "address"
        }
      ],
      "name": "transferOwnership",
      "outputs": [],
      "payable": false,
      "stateMutability": "nonpayable",
      "type": "function",
      "signature": "0xf2fde38b"
    },
    {
      "inputs": [
        {
          "name": "_faucetAddr",
          "type": "address"
        },
        {
          "name": "_migrationAddr",
          "type": "address"
        }
      ],
      "payable": false,
      "stateMutability": "nonpayable",
      "type": "constructor",
      "signature": "constructor"
    },
    {
      "anonymous": false,
      "inputs": [
        {
          "indexed": false,
          "name": "_nodes",
          "type": "address[]"
        },
        {
          "indexed": false,
          "name": "_mintAmount",
          "type": "uint256"
        },
        {
          "indexed": false,
          "name": "_blockHeight",
          "type": "uint256"
        }
      ],
      "name": "Mint",
      "type": "event",
      "signature": "0x35cc581d6103df194c8c20f437d4b065c9107097eb2ba6f9702489434e03b64c"
    },
    {
      "anonymous": false,
      "inputs": [
        {
          "indexed": false,
          "name": "_buyer",
          "type": "address"
        },
        {
          "indexed": false,
          "name": "_value",
          "type": "uint256"
        }
      ],
      "name": "UsagePurchased",
      "type": "event",
      "signature": "0x0651f693d262f8b7c2f4a40577914247c33a4eb3fa57d735c8ac49be550021cb"
    },
    {
      "anonymous": false,
      "inputs": [
        {
          "indexed": false,
          "name": "_recoveredSigs",
          "type": "uint256"
        },
        {
          "indexed": false,
          "name": "_majority",
          "type": "uint256"
        }
      ],
      "name": "MintCores",
      "type": "event",
      "signature": "0x824f78bf2ab7a49cec00f2870b45c4a1aeedb5fb1f2472cd63cd721c5bd55fdd"
    },
    {
      "anonymous": false,
      "inputs": [
        {
          "indexed": false,
          "name": "account",
          "type": "address"
        }
      ],
      "name": "Paused",
      "type": "event",
      "signature": "0x62e78cea01bee320cd4e420270b5ea74000d11b0c9f74754ebdbfc544b05a258"
    },
    {
      "anonymous": false,
      "inputs": [
        {
          "indexed": false,
          "name": "account",
          "type": "address"
        }
      ],
      "name": "Unpaused",
      "type": "event",
      "signature": "0x5db9ee0a495bf2e6ff9c91a7834c1ba4fdd244a5e8aa4e537bd38aeae4b073aa"
    },
    {
      "anonymous": false,
      "inputs": [
        {
          "indexed": true,
          "name": "account",
          "type": "address"
        }
      ],
      "name": "PauserAdded",
      "type": "event",
      "signature": "0x6719d08c1888103bea251a4ed56406bd0c3e69723c8a1686e017e7bbe159b6f8"
    },
    {
      "anonymous": false,
      "inputs": [
        {
          "indexed": true,
          "name": "account",
          "type": "address"
        }
      ],
      "name": "PauserRemoved",
      "type": "event",
      "signature": "0xcd265ebaf09df2871cc7bd4133404a235ba12eff2041bb89d9c714a2621c7c7e"
    },
    {
      "anonymous": false,
      "inputs": [
        {
          "indexed": true,
          "name": "previousOwner",
          "type": "address"
        },
        {
          "indexed": true,
          "name": "newOwner",
          "type": "address"
        }
      ],
      "name": "OwnershipTransferred",
      "type": "event",
      "signature": "0x8be0079c531659141344cd1fd0a4f28419497f9722a3daafe3b4186f6b6457e0"
    },
    {
      "anonymous": false,
      "inputs": [
        {
          "indexed": true,
          "name": "owner",
          "type": "address"
        },
        {
          "indexed": true,
          "name": "spender",
          "type": "address"
        },
        {
          "indexed": false,
          "name": "value",
          "type": "uint256"
        }
      ],
      "name": "Approval",
      "type": "event",
      "signature": "0x8c5be1e5ebec7d5bd14f71427d1e84f3dd0314c0f7b2291e5b200ac8c7c3b925"
    },
    {
      "anonymous": false,
      "inputs": [
        {
          "indexed": true,
          "name": "from",
          "type": "address"
        },
        {
          "indexed": true,
          "name": "to",
          "type": "address"
        },
        {
          "indexed": false,
          "name": "value",
          "type": "uint256"
        }
      ],
      "name": "Transfer",
      "type": "event",
      "signature": "0xddf252ad1be2c89b69c2b068fc378daa952ba7f163c4a11628f55a4df523b3ef"
    },
    {
      "constant": false,
      "inputs": [
        {
          "name": "_to",
          "type": "address"
        },
        {
          "name": "_value",
          "type": "uint256"
        }
      ],
      "name": "transfer",
      "outputs": [
        {
          "name": "",
          "type": "bool"
        }
      ],
      "payable": false,
      "stateMutability": "nonpayable",
      "type": "function",
      "signature": "0xa9059cbb"
    },
    {
      "constant": false,
      "inputs": [
        {
          "name": "_from",
          "type": "address"
        },
        {
          "name": "_to",
          "type": "address"
        },
        {
          "name": "_value",
          "type": "uint256"
        }
      ],
      "name": "transferFrom",
      "outputs": [
        {
          "name": "",
          "type": "bool"
        }
      ],
      "payable": false,
      "stateMutability": "nonpayable",
      "type": "function",
      "signature": "0x23b872dd"
    },
    {
      "constant": false,
      "inputs": [
        {
          "name": "_spender",
          "type": "address"
        },
        {
          "name": "_value",
          "type": "uint256"
        }
      ],
      "name": "approve",
      "outputs": [
        {
          "name": "",
          "type": "bool"
        }
      ],
      "payable": false,
      "stateMutability": "nonpayable",
      "type": "function",
      "signature": "0x095ea7b3"
    },
    {
      "constant": false,
      "inputs": [
        {
          "name": "_nodes",
          "type": "address[]"
        },
        {
          "name": "_hash",
          "type": "bytes32"
        },
        {
          "name": "signature1",
          "type": "bytes"
        },
        {
          "name": "signature2",
          "type": "bytes"
        },
        {
          "name": "signature3",
          "type": "bytes"
        },
        {
          "name": "signature4",
          "type": "bytes"
        },
        {
          "name": "signature5",
          "type": "bytes"
        },
        {
          "name": "signature6",
          "type": "bytes"
        }
      ],
      "name": "mint",
      "outputs": [
        {
          "name": "",
          "type": "bool"
        }
      ],
      "payable": false,
      "stateMutability": "nonpayable",
      "type": "function",
      "signature": "0x382e6fdb"
    },
    {
      "constant": false,
      "inputs": [
        {
          "name": "_cores",
          "type": "address[]"
        },
        {
          "name": "_hash",
          "type": "bytes32"
        },
        {
          "name": "sigs",
          "type": "bytes[2]"
        }
      ],
      "name": "mintCores",
      "outputs": [
        {
          "name": "",
          "type": "bool"
        }
      ],
      "payable": false,
      "stateMutability": "nonpayable",
      "type": "function",
      "signature": "0xfc7f8231"
    },
    {
      "constant": false,
      "inputs": [
        {
          "name": "_value",
          "type": "uint256"
        }
      ],
      "name": "purchaseUsage",
      "outputs": [
        {
          "name": "",
          "type": "bool"
        }
      ],
      "payable": false,
      "stateMutability": "nonpayable",
      "type": "function",
      "signature": "0xb55968ec"
    },
    {
      "constant": false,
      "inputs": [
        {
          "name": "_to",
          "type": "address"
        },
        {
          "name": "_amount",
          "type": "uint256"
        }
      ],
      "name": "mintForExchange",
      "outputs": [
        {
          "name": "",
          "type": "bool"
        }
      ],
      "payable": false,
      "stateMutability": "nonpayable",
      "type": "function",
      "signature": "0xdcfd2b9f"
    },
    {
      "constant": false,
      "inputs": [
        {
          "name": "_addr",
          "type": "address"
        }
      ],
      "name": "setChainpointRegistry",
      "outputs": [
        {
          "name": "",
          "type": "bool"
        }
      ],
      "payable": false,
      "stateMutability": "nonpayable",
      "type": "function",
      "signature": "0x44ea8d44"
    },
    {
      "constant": true,
      "inputs": [
        {
          "name": "hash",
          "type": "bytes32"
        },
        {
          "name": "signature",
          "type": "bytes"
        }
      ],
      "name": "recover",
      "outputs": [
        {
          "name": "",
          "type": "address"
        }
      ],
      "payable": false,
      "stateMutability": "pure",
      "type": "function",
      "signature": "0x19045a25"
    },
    {
      "constant": true,
      "inputs": [
        {
          "name": "hash",
          "type": "bytes32"
        }
      ],
      "name": "toEthSignedMessageHash",
      "outputs": [
        {
          "name": "",
          "type": "bytes32"
        }
      ],
      "payable": false,
      "stateMutability": "pure",
      "type": "function",
      "signature": "0x918a15cf"
    },
    {
      "constant": true,
      "inputs": [],
      "name": "isMigrationContract",
      "outputs": [
        {
          "name": "",
          "type": "bool"
        }
      ],
      "payable": false,
      "stateMutability": "view",
      "type": "function",
      "signature": "0x59c2ff07"
    },
    {
      "constant": true,
      "inputs": [],
      "name": "quickMaths",
      "outputs": [
        {
          "name": "",
          "type": "uint256"
        }
      ],
      "payable": false,
      "stateMutability": "pure",
      "type": "function",
      "signature": "0x43200a2e"
    }
  ],
  "bytecode": "0x60806040526040805190810160405280601581526020017f54696572696f6e204e6574776f726b20546f6b656e0000000000000000000000815250600690805190602001906200005192919062000544565b506040805190810160405280600381526020017f544e540000000000000000000000000000000000000000000000000000000000815250600790805190602001906200009f92919062000544565b5060088060006101000a81548160ff021916908360ff160217905550600860009054906101000a900460ff1660ff16600a0a621e848002600955600860009054906101000a900460ff1660ff16600a0a6107d002600a55611680600b556000600c556000600d556000600e556000600f553480156200011d57600080fd5b5060405160408062003d0283398101806040526200013f919081019062000609565b33600360006101000a81548173ffffffffffffffffffffffffffffffffffffffff021916908373ffffffffffffffffffffffffffffffffffffffff160217905550600360009054906101000a900473ffffffffffffffffffffffffffffffffffffffff1673ffffffffffffffffffffffffffffffffffffffff16600073ffffffffffffffffffffffffffffffffffffffff167f8be0079c531659141344cd1fd0a4f28419497f9722a3daafe3b4186f6b6457e060405160405180910390a3620002173362000356640100000000026401000000009004565b6000600560006101000a81548160ff021916908315150217905550600954600081905550620002616002600954620003c0640100000000026200212d179091906401000000009004565b600160008473ffffffffffffffffffffffffffffffffffffffff1673ffffffffffffffffffffffffffffffffffffffff16815260200190815260200160002081905550620002ca6002600954620003c0640100000000026200212d179091906401000000009004565b600160003373ffffffffffffffffffffffffffffffffffffffff1673ffffffffffffffffffffffffffffffffffffffff1681526020019081526020016000208190555080601160006101000a81548173ffffffffffffffffffffffffffffffffffffffff021916908373ffffffffffffffffffffffffffffffffffffffff16021790555050506200067e565b6200037a816004620003ec640100000000026200275d179091906401000000009004565b8073ffffffffffffffffffffffffffffffffffffffff167f6719d08c1888103bea251a4ed56406bd0c3e69723c8a1686e017e7bbe159b6f860405160405180910390a250565b60008082111515620003d157600080fd5b60008284811515620003df57fe5b0490508091505092915050565b600073ffffffffffffffffffffffffffffffffffffffff168173ffffffffffffffffffffffffffffffffffffffff16141515156200042957600080fd5b620004448282620004af640100000000026401000000009004565b1515156200045157600080fd5b60018260000160008373ffffffffffffffffffffffffffffffffffffffff1673ffffffffffffffffffffffffffffffffffffffff16815260200190815260200160002060006101000a81548160ff0219169083151502179055505050565b60008073ffffffffffffffffffffffffffffffffffffffff168273ffffffffffffffffffffffffffffffffffffffff1614151515620004ed57600080fd5b8260000160008373ffffffffffffffffffffffffffffffffffffffff1673ffffffffffffffffffffffffffffffffffffffff16815260200190815260200160002060009054906101000a900460ff16905092915050565b828054600181600116156101000203166002900490600052602060002090601f016020900481019282601f106200058757805160ff1916838001178555620005b8565b82800160010185558215620005b8579182015b82811115620005b75782518255916020019190600101906200059a565b5b509050620005c79190620005cb565b5090565b620005f091905b80821115620005ec576000816000905550600101620005d2565b5090565b90565b60006200060182516200066a565b905092915050565b600080604083850312156200061d57600080fd5b60006200062d85828601620005f3565b92505060206200064085828601620005f3565b9150509250929050565b600073ffffffffffffffffffffffffffffffffffffffff82169050919050565b600062000677826200064a565b9050919050565b613674806200068e6000396000f3fe6080604052600436106101cd576000357c0100000000000000000000000000000000000000000000000000000000900463ffffffff16806306fdde03146101d2578063095ea7b3146101fd5780630fee1a201461023a57806318160ddd1461026557806319045a251461029057806323b872dd146102cd5780632ff2e9dc1461030a578063313ce56714610335578063382e6fdb146103605780633f4ba83a1461039d57806343200a2e146103b457806344ea8d44146103df57806346fbf68e1461041c5780634c5f25dd1461045957806359c2ff07146104845780635a2bcc18146104af5780635a8ef28b146104da5780635c658165146105055780635c975abb146105425780636ef8d66d1461056d57806370a0823114610584578063715018a6146105c157806382dc1ec4146105d85780638456cb5914610601578063898e0025146106185780638da5cb5b146106435780638f32d59b1461066e578063918a15cf1461069957806395d89b41146106d6578063a3059ef014610701578063a9059cbb1461072c578063b55968ec14610769578063ba60ad97146107a6578063dcfd2b9f146107d1578063dd62ed3e1461080e578063f2fde38b1461084b578063fc7f823114610874575b600080fd5b3480156101de57600080fd5b506101e76108b1565b6040516101f49190613278565b60405180910390f35b34801561020957600080fd5b50610224600480360361021f9190810190612ad1565b61094f565b604051610231919061320c565b60405180910390f35b34801561024657600080fd5b5061024f61097f565b60405161025c9190613242565b60405180910390f35b34801561027157600080fd5b5061027a6109a5565b604051610287919061337a565b60405180910390f35b34801561029c57600080fd5b506102b760048036036102b29190810190612d38565b6109ab565b6040516102c4919061316f565b60405180910390f35b3480156102d957600080fd5b506102f460048036036102ef9190810190612a82565b6109c8565b604051610301919061320c565b60405180910390f35b34801561031657600080fd5b5061031f610a36565b60405161032c919061337a565b60405180910390f35b34801561034157600080fd5b5061034a610a3c565b60405161035791906133be565b60405180910390f35b34801561036c57600080fd5b5061038760048036036103829190810190612b8c565b610a4f565b604051610394919061320c565b60405180910390f35b3480156103a957600080fd5b506103b26111b3565b005b3480156103c057600080fd5b506103c9611236565b6040516103d6919061337a565b60405180910390f35b3480156103eb57600080fd5b5061040660048036036104019190810190612a1d565b611265565b604051610413919061320c565b60405180910390f35b34801561042857600080fd5b50610443600480360361043e9190810190612a1d565b611300565b604051610450919061320c565b60405180910390f35b34801561046557600080fd5b5061046e61131d565b60405161047b919061337a565b60405180910390f35b34801561049057600080fd5b50610499611323565b6040516104a6919061320c565b60405180910390f35b3480156104bb57600080fd5b506104c461137b565b6040516104d1919061337a565b60405180910390f35b3480156104e657600080fd5b506104ef611381565b6040516104fc919061337a565b60405180910390f35b34801561051157600080fd5b5061052c60048036036105279190810190612a46565b611387565b604051610539919061337a565b60405180910390f35b34801561054e57600080fd5b506105576113ac565b604051610564919061320c565b60405180910390f35b34801561057957600080fd5b506105826113c3565b005b34801561059057600080fd5b506105ab60048036036105a69190810190612a1d565b6113ce565b6040516105b8919061337a565b60405180910390f35b3480156105cd57600080fd5b506105d6611417565b005b3480156105e457600080fd5b506105ff60048036036105fa9190810190612a1d565b6114eb565b005b34801561060d57600080fd5b5061061661150b565b005b34801561062457600080fd5b5061062d61158f565b60405161063a919061337a565b60405180910390f35b34801561064f57600080fd5b50610658611595565b604051610665919061316f565b60405180910390f35b34801561067a57600080fd5b506106836115bf565b604051610690919061320c565b60405180910390f35b3480156106a557600080fd5b506106c060048036036106bb9190810190612d0f565b611617565b6040516106cd9190613227565b60405180910390f35b3480156106e257600080fd5b506106eb611629565b6040516106f89190613278565b60405180910390f35b34801561070d57600080fd5b506107166116c7565b604051610723919061337a565b60405180910390f35b34801561073857600080fd5b50610753600480360361074e9190810190612ad1565b6116cd565b604051610760919061320c565b60405180910390f35b34801561077557600080fd5b50610790600480360361078b9190810190612d8c565b611739565b60405161079d919061320c565b60405180910390f35b3480156107b257600080fd5b506107bb611787565b6040516107c8919061325d565b60405180910390f35b3480156107dd57600080fd5b506107f860048036036107f39190810190612ad1565b6117ad565b604051610805919061320c565b60405180910390f35b34801561081a57600080fd5b5061083560048036036108309190810190612a46565b6117c3565b604051610842919061337a565b60405180910390f35b34801561085757600080fd5b50610872600480360361086d9190810190612a1d565b61184a565b005b34801561088057600080fd5b5061089b60048036036108969190810190612b0d565b611869565b6040516108a8919061320c565b60405180910390f35b60068054600181600116156101000203166002900480601f0160208091040260200160405190810160405280929190818152602001828054600181600116156101000203166002900480156109475780601f1061091c57610100808354040283529160200191610947565b820191906000526020600020905b81548152906001019060200180831161092a57829003601f168201915b505050505081565b6000600560009054906101000a900460ff1615151561096d57600080fd5b61097783836119d9565b905092915050565b601160009054906101000a900473ffffffffffffffffffffffffffffffffffffffff1681565b60005481565b60006109c08284611b6090919063ffffffff16565b905092915050565b6000600560009054906101000a900460ff161515156109e657600080fd5b600073ffffffffffffffffffffffffffffffffffffffff168373ffffffffffffffffffffffffffffffffffffffff1614151515610a2257600080fd5b610a2d848484611c44565b90509392505050565b60095481565b600860009054906101000a900460ff1681565b6000600560009054906101000a900460ff16151515610a6d57600080fd5b601060009054906101000a900473ffffffffffffffffffffffffffffffffffffffff1673ffffffffffffffffffffffffffffffffffffffff16639273cce8336040518263ffffffff167c0100000000000000000000000000000000000000000000000000000000028152600401610ae4919061318a565b60206040518083038186803b158015610afc57600080fd5b505afa158015610b10573d6000803e3d6000fd5b505050506040513d601f19601f82011682018060405250610b349190810190612ce6565b1515610b75576040517f08c379a0000000000000000000000000000000000000000000000000000000008152600401610b6c9061331a565b60405180910390fd5b6000600d541480610b9c5750610b98600b54600d54611eef90919063ffffffff16565b4310155b1515610bdd576040517f08c379a0000000000000000000000000000000000000000000000000000000008152600401610bd49061335a565b60405180910390fd5b6048895111151515610c24576040517f08c379a0000000000000000000000000000000000000000000000000000000008152600401610c1b9061333a565b60405180910390fd5b610c378688611f1090919063ffffffff16565b158015610c545750610c528588611f1090919063ffffffff16565b155b8015610c705750610c6e8488611f1090919063ffffffff16565b155b8015610c8c5750610c8a8388611f1090919063ffffffff16565b155b8015610ca85750610ca68288611f1090919063ffffffff16565b155b1515610ce9576040517f08c379a0000000000000000000000000000000000000000000000000000000008152600401610ce0906132da565b60405180910390fd5b610cfc8587611f1090919063ffffffff16565b158015610d195750610d178487611f1090919063ffffffff16565b155b8015610d355750610d338387611f1090919063ffffffff16565b155b8015610d515750610d4f8287611f1090919063ffffffff16565b155b1515610d92576040517f08c379a0000000000000000000000000000000000000000000000000000000008152600401610d89906132da565b60405180910390fd5b610da58486611f1090919063ffffffff16565b158015610dc25750610dc08386611f1090919063ffffffff16565b155b8015610dde5750610ddc8286611f1090919063ffffffff16565b155b1515610e1f576040517f08c379a0000000000000000000000000000000000000000000000000000000008152600401610e16906132da565b60405180910390fd5b610e328385611f1090919063ffffffff16565b158015610e4f5750610e4d8285611f1090919063ffffffff16565b155b1515610e90576040517f08c379a0000000000000000000000000000000000000000000000000000000008152600401610e87906132da565b60405180910390fd5b610ea38284611f1090919063ffffffff16565b151515610ee5576040517f08c379a0000000000000000000000000000000000000000000000000000000008152600401610edc906132da565b60405180910390fd5b60008960405160200180828051906020019060200280838360005b83811015610f1b578082015181840152602081019050610f00565b5050505090500191505060405160208183030381529060405280519060200120905088610f4782611f7f565b141515610f89576040517f08c379a0000000000000000000000000000000000000000000000000000000008152600401610f80906132fa565b60405180910390fd5b610f9161280d565b60c0604051908101604052808a815260200189815260200188815260200187815260200186815260200185815250905060008090505b60068160ff16101561110f57601060009054906101000a900473ffffffffffffffffffffffffffffffffffffffff1673ffffffffffffffffffffffffffffffffffffffff16639273cce8611039848460ff1660068110151561102557fe5b60200201518e611b6090919063ffffffff16565b6040518263ffffffff167c0100000000000000000000000000000000000000000000000000000000028152600401611071919061316f565b60206040518083038186803b15801561108957600080fd5b505afa15801561109d573d6000803e3d6000fd5b505050506040513d601f19601f820116820180604052506110c19190810190612ce6565b1515611102576040517f08c379a00000000000000000000000000000000000000000000000000000000081526004016110f9906132ba565b60405180910390fd5b8080600101915050610fc7565b5043600d8190555042600c8190555060008090505b8b518160ff161015611163576111568c8260ff1681518110151561114457fe5b90602001906020020151600a54611fd7565b8080600101915050611124565b507f35cc581d6103df194c8c20f437d4b065c9107097eb2ba6f9702489434e03b64c8b600a5443604051611199939291906131ce565b60405180910390a160019250505098975050505050505050565b6111bc33611300565b15156111c757600080fd5b600560009054906101000a900460ff1615156111e257600080fd5b6000600560006101000a81548160ff0219169083151502179055507f5db9ee0a495bf2e6ff9c91a7834c1ba4fdd244a5e8aa4e537bd38aeae4b073aa3360405161122c919061318a565b60405180910390a1565b600061126060016112526002600661212d90919063ffffffff16565b611eef90919063ffffffff16565b905090565b600061126f6115bf565b151561127a57600080fd5b600073ffffffffffffffffffffffffffffffffffffffff168273ffffffffffffffffffffffffffffffffffffffff16141515156112b657600080fd5b81601060006101000a81548173ffffffffffffffffffffffffffffffffffffffff021916908373ffffffffffffffffffffffffffffffffffffffff16021790555060019050919050565b600061131682600461215790919063ffffffff16565b9050919050565b600f5481565b6000601160009054906101000a900473ffffffffffffffffffffffffffffffffffffffff1673ffffffffffffffffffffffffffffffffffffffff163373ffffffffffffffffffffffffffffffffffffffff1614905090565b600a5481565b600d5481565b6002602052816000526040600020602052806000526040600020600091509150505481565b6000600560009054906101000a900460ff16905090565b6113cc336121eb565b565b6000600160008373ffffffffffffffffffffffffffffffffffffffff1673ffffffffffffffffffffffffffffffffffffffff168152602001908152602001600020549050919050565b61141f6115bf565b151561142a57600080fd5b600073ffffffffffffffffffffffffffffffffffffffff16600360009054906101000a900473ffffffffffffffffffffffffffffffffffffffff1673ffffffffffffffffffffffffffffffffffffffff167f8be0079c531659141344cd1fd0a4f28419497f9722a3daafe3b4186f6b6457e060405160405180910390a36000600360006101000a81548173ffffffffffffffffffffffffffffffffffffffff021916908373ffffffffffffffffffffffffffffffffffffffff160217905550565b6114f433611300565b15156114ff57600080fd5b61150881612245565b50565b61151433611300565b151561151f57600080fd5b600560009054906101000a900460ff1615151561153b57600080fd5b6001600560006101000a81548160ff0219169083151502179055507f62e78cea01bee320cd4e420270b5ea74000d11b0c9f74754ebdbfc544b05a25833604051611585919061318a565b60405180910390a1565b600c5481565b6000600360009054906101000a900473ffffffffffffffffffffffffffffffffffffffff16905090565b6000600360009054906101000a900473ffffffffffffffffffffffffffffffffffffffff1673ffffffffffffffffffffffffffffffffffffffff163373ffffffffffffffffffffffffffffffffffffffff1614905090565b600061162282611f7f565b9050919050565b60078054600181600116156101000203166002900480601f0160208091040260200160405190810160405280929190818152602001828054600181600116156101000203166002900480156116bf5780601f10611694576101008083540402835291602001916116bf565b820191906000526020600020905b8154815290600101906020018083116116a257829003601f168201915b505050505081565b600b5481565b6000600560009054906101000a900460ff161515156116eb57600080fd5b600073ffffffffffffffffffffffffffffffffffffffff168373ffffffffffffffffffffffffffffffffffffffff161415151561172757600080fd5b611731838361229f565b905092915050565b6000611745338361243a565b7f0651f693d262f8b7c2f4a40577914247c33a4eb3fa57d735c8ac49be550021cb33836040516117769291906131a5565b60405180910390a160019050919050565b601060009054906101000a900473ffffffffffffffffffffffffffffffffffffffff1681565b60006117b98383611fd7565b6001905092915050565b6000600260008473ffffffffffffffffffffffffffffffffffffffff1673ffffffffffffffffffffffffffffffffffffffff16815260200190815260200160002060008373ffffffffffffffffffffffffffffffffffffffff1673ffffffffffffffffffffffffffffffffffffffff16815260200190815260200160002054905092915050565b6118526115bf565b151561185d57600080fd5b61186681612590565b50565b6000600560009054906101000a900460ff1615151561188757600080fd5b60008460405160200180828051906020019060200280838360005b838110156118bd5780820151818401526020810190506118a2565b50505050905001915050604051602081830303815290604052805190602001209050836118e982611f7f565b14151561192b576040517f08c379a00000000000000000000000000000000000000000000000000000000081526004016119229061329a565b60405180910390fd5b6000809050600061195a600161194c6002600661212d90919063ffffffff16565b611eef90919063ffffffff16565b905060008090505b60028160ff16101561199157611982600184611eef90919063ffffffff16565b92508080600101915050611962565b507f824f78bf2ab7a49cec00f2870b45c4a1aeedb5fb1f2472cd63cd721c5bd55fdd82826040516119c3929190613395565b60405180910390a1600193505050509392505050565b600080821480611a6557506000600260003373ffffffffffffffffffffffffffffffffffffffff1673ffffffffffffffffffffffffffffffffffffffff16815260200190815260200160002060008573ffffffffffffffffffffffffffffffffffffffff1673ffffffffffffffffffffffffffffffffffffffff16815260200190815260200160002054145b1515611a7057600080fd5b81600260003373ffffffffffffffffffffffffffffffffffffffff1673ffffffffffffffffffffffffffffffffffffffff16815260200190815260200160002060008573ffffffffffffffffffffffffffffffffffffffff1673ffffffffffffffffffffffffffffffffffffffff168152602001908152602001600020819055508273ffffffffffffffffffffffffffffffffffffffff163373ffffffffffffffffffffffffffffffffffffffff167f8c5be1e5ebec7d5bd14f71427d1e84f3dd0314c0f7b2291e5b200ac8c7c3b92584604051611b4e919061337a565b60405180910390a36001905092915050565b60008060008060418551141515611b7d5760009350505050611c3e565b6020850151925060408501519150606085015160001a9050601b8160ff161015611ba857601b810190505b601b8160ff1614158015611bc05750601c8160ff1614155b15611bd15760009350505050611c3e565b60018682858560405160008152602001604052604051808581526020018460ff1660ff1681526020018381526020018281526020019450505050506020604051602081039080840390855afa158015611c2e573d6000803e3d6000fd5b5050506020604051035193505050505b92915050565b6000611c9882600160008773ffffffffffffffffffffffffffffffffffffffff1673ffffffffffffffffffffffffffffffffffffffff1681526020019081526020016000205461268c90919063ffffffff16565b600160008673ffffffffffffffffffffffffffffffffffffffff1673ffffffffffffffffffffffffffffffffffffffff16815260200190815260200160002081905550611d6a82600260008773ffffffffffffffffffffffffffffffffffffffff1673ffffffffffffffffffffffffffffffffffffffff16815260200190815260200160002060003373ffffffffffffffffffffffffffffffffffffffff1673ffffffffffffffffffffffffffffffffffffffff1681526020019081526020016000205461268c90919063ffffffff16565b600260008673ffffffffffffffffffffffffffffffffffffffff1673ffffffffffffffffffffffffffffffffffffffff16815260200190815260200160002060003373ffffffffffffffffffffffffffffffffffffffff1673ffffffffffffffffffffffffffffffffffffffff16815260200190815260200160002081905550611e3c82600160008673ffffffffffffffffffffffffffffffffffffffff1673ffffffffffffffffffffffffffffffffffffffff16815260200190815260200160002054611eef90919063ffffffff16565b600160008573ffffffffffffffffffffffffffffffffffffffff1673ffffffffffffffffffffffffffffffffffffffff168152602001908152602001600020819055508273ffffffffffffffffffffffffffffffffffffffff168473ffffffffffffffffffffffffffffffffffffffff167fddf252ad1be2c89b69c2b068fc378daa952ba7f163c4a11628f55a4df523b3ef84604051611edc919061337a565b60405180910390a3600190509392505050565b6000808284019050838110151515611f0657600080fd5b8091505092915050565b6000806001905083518351811460018114611f2e5760009250611f73565b600160208701838101602088015b600284838510011415611f6e5780518351141515611f5d5760009650600093505b602083019250602081019050611f3c565b505050505b50508091505092915050565b60008160405160200180807f19457468657265756d205369676e6564204d6573736167653a0a333200000000815250601c01828152602001915050604051602081830303815290604052805190602001209050919050565b600073ffffffffffffffffffffffffffffffffffffffff168273ffffffffffffffffffffffffffffffffffffffff161415151561201357600080fd5b61202881600054611eef90919063ffffffff16565b60008190555061208081600160008573ffffffffffffffffffffffffffffffffffffffff1673ffffffffffffffffffffffffffffffffffffffff16815260200190815260200160002054611eef90919063ffffffff16565b600160008473ffffffffffffffffffffffffffffffffffffffff1673ffffffffffffffffffffffffffffffffffffffff168152602001908152602001600020819055508173ffffffffffffffffffffffffffffffffffffffff16600073ffffffffffffffffffffffffffffffffffffffff167fddf252ad1be2c89b69c2b068fc378daa952ba7f163c4a11628f55a4df523b3ef83604051612121919061337a565b60405180910390a35050565b6000808211151561213d57600080fd5b6000828481151561214a57fe5b0490508091505092915050565b60008073ffffffffffffffffffffffffffffffffffffffff168273ffffffffffffffffffffffffffffffffffffffff161415151561219457600080fd5b8260000160008373ffffffffffffffffffffffffffffffffffffffff1673ffffffffffffffffffffffffffffffffffffffff16815260200190815260200160002060009054906101000a900460ff16905092915050565b6121ff8160046126ae90919063ffffffff16565b8073ffffffffffffffffffffffffffffffffffffffff167fcd265ebaf09df2871cc7bd4133404a235ba12eff2041bb89d9c714a2621c7c7e60405160405180910390a250565b61225981600461275d90919063ffffffff16565b8073ffffffffffffffffffffffffffffffffffffffff167f6719d08c1888103bea251a4ed56406bd0c3e69723c8a1686e017e7bbe159b6f860405160405180910390a250565b60006122f382600160003373ffffffffffffffffffffffffffffffffffffffff1673ffffffffffffffffffffffffffffffffffffffff1681526020019081526020016000205461268c90919063ffffffff16565b600160003373ffffffffffffffffffffffffffffffffffffffff1673ffffffffffffffffffffffffffffffffffffffff1681526020019081526020016000208190555061238882600160008673ffffffffffffffffffffffffffffffffffffffff1673ffffffffffffffffffffffffffffffffffffffff16815260200190815260200160002054611eef90919063ffffffff16565b600160008573ffffffffffffffffffffffffffffffffffffffff1673ffffffffffffffffffffffffffffffffffffffff168152602001908152602001600020819055508273ffffffffffffffffffffffffffffffffffffffff163373ffffffffffffffffffffffffffffffffffffffff167fddf252ad1be2c89b69c2b068fc378daa952ba7f163c4a11628f55a4df523b3ef84604051612428919061337a565b60405180910390a36001905092915050565b600073ffffffffffffffffffffffffffffffffffffffff168273ffffffffffffffffffffffffffffffffffffffff161415151561247657600080fd5b61248b8160005461268c90919063ffffffff16565b6000819055506124e381600160008573ffffffffffffffffffffffffffffffffffffffff1673ffffffffffffffffffffffffffffffffffffffff1681526020019081526020016000205461268c90919063ffffffff16565b600160008473ffffffffffffffffffffffffffffffffffffffff1673ffffffffffffffffffffffffffffffffffffffff16815260200190815260200160002081905550600073ffffffffffffffffffffffffffffffffffffffff168273ffffffffffffffffffffffffffffffffffffffff167fddf252ad1be2c89b69c2b068fc378daa952ba7f163c4a11628f55a4df523b3ef83604051612584919061337a565b60405180910390a35050565b600073ffffffffffffffffffffffffffffffffffffffff168173ffffffffffffffffffffffffffffffffffffffff16141515156125cc57600080fd5b8073ffffffffffffffffffffffffffffffffffffffff16600360009054906101000a900473ffffffffffffffffffffffffffffffffffffffff1673ffffffffffffffffffffffffffffffffffffffff167f8be0079c531659141344cd1fd0a4f28419497f9722a3daafe3b4186f6b6457e060405160405180910390a380600360006101000a81548173ffffffffffffffffffffffffffffffffffffffff021916908373ffffffffffffffffffffffffffffffffffffffff16021790555050565b600082821115151561269d57600080fd5b600082840390508091505092915050565b600073ffffffffffffffffffffffffffffffffffffffff168173ffffffffffffffffffffffffffffffffffffffff16141515156126ea57600080fd5b6126f48282612157565b15156126ff57600080fd5b60008260000160008373ffffffffffffffffffffffffffffffffffffffff1673ffffffffffffffffffffffffffffffffffffffff16815260200190815260200160002060006101000a81548160ff0219169083151502179055505050565b600073ffffffffffffffffffffffffffffffffffffffff168173ffffffffffffffffffffffffffffffffffffffff161415151561279957600080fd5b6127a38282612157565b1515156127af57600080fd5b60018260000160008373ffffffffffffffffffffffffffffffffffffffff1673ffffffffffffffffffffffffffffffffffffffff16815260200190815260200160002060006101000a81548160ff0219169083151502179055505050565b60c0604051908101604052806006905b606081526020019060019003908161281d5790505090565b60006128418235613537565b905092915050565b600082601f830112151561285c57600080fd5b813561286f61286a82613406565b6133d9565b9150818183526020840193506020810190508385602084028201111561289457600080fd5b60005b838110156128c457816128aa8882612835565b845260208401935060208301925050600181019050612897565b5050505092915050565b600082601f83011215156128e157600080fd5b60026128f46128ef8261342e565b6133d9565b9150818360005b8381101561292b5781358601612911888261295d565b8452602084019350602083019250506001810190506128fb565b5050505092915050565b60006129418251613549565b905092915050565b60006129558235613555565b905092915050565b600082601f830112151561297057600080fd5b813561298361297e82613450565b6133d9565b9150808252602083016020830185838301111561299f57600080fd5b6129aa8382846135e7565b50505092915050565b600082601f83011215156129c657600080fd5b81356129d96129d48261347c565b6133d9565b915080825260208301602083018583830111156129f557600080fd5b612a008382846135e7565b50505092915050565b6000612a15823561355f565b905092915050565b600060208284031215612a2f57600080fd5b6000612a3d84828501612835565b91505092915050565b60008060408385031215612a5957600080fd5b6000612a6785828601612835565b9250506020612a7885828601612835565b9150509250929050565b600080600060608486031215612a9757600080fd5b6000612aa586828701612835565b9350506020612ab686828701612835565b9250506040612ac786828701612a09565b9150509250925092565b60008060408385031215612ae457600080fd5b6000612af285828601612835565b9250506020612b0385828601612a09565b9150509250929050565b600080600060608486031215612b2257600080fd5b600084013567ffffffffffffffff811115612b3c57600080fd5b612b4886828701612849565b9350506020612b5986828701612949565b925050604084013567ffffffffffffffff811115612b7657600080fd5b612b82868287016128ce565b9150509250925092565b600080600080600080600080610100898b031215612ba957600080fd5b600089013567ffffffffffffffff811115612bc357600080fd5b612bcf8b828c01612849565b9850506020612be08b828c01612949565b975050604089013567ffffffffffffffff811115612bfd57600080fd5b612c098b828c016129b3565b965050606089013567ffffffffffffffff811115612c2657600080fd5b612c328b828c016129b3565b955050608089013567ffffffffffffffff811115612c4f57600080fd5b612c5b8b828c016129b3565b94505060a089013567ffffffffffffffff811115612c7857600080fd5b612c848b828c016129b3565b93505060c089013567ffffffffffffffff811115612ca157600080fd5b612cad8b828c016129b3565b92505060e089013567ffffffffffffffff811115612cca57600080fd5b612cd68b828c016129b3565b9150509295985092959890939650565b600060208284031215612cf857600080fd5b6000612d0684828501612935565b91505092915050565b600060208284031215612d2157600080fd5b6000612d2f84828501612949565b91505092915050565b60008060408385031215612d4b57600080fd5b6000612d5985828601612949565b925050602083013567ffffffffffffffff811115612d7657600080fd5b612d82858286016129b3565b9150509250929050565b600060208284031215612d9e57600080fd5b6000612dac84828501612a09565b91505092915050565b612dbe81613569565b82525050565b612dcd816134d8565b82525050565b6000612dde826134b5565b808452602084019350612df0836134a8565b60005b82811015612e2257612e06868351612dc4565b612e0f826134cb565b9150602086019550600181019050612df3565b50849250505092915050565b612e37816134ea565b82525050565b612e46816134f6565b82525050565b612e558161357b565b82525050565b612e648161359f565b82525050565b6000612e75826134c0565b808452612e898160208601602086016135f6565b612e9281613629565b602085010191505092915050565b6000604582527f5f6861736820737570706c69656420746f4574685369676e65644d657373616760208301527f654861736820646f6573206e6f7420657175616c2076616c75652063616c637560408301527f6c617465640000000000000000000000000000000000000000000000000000006060830152608082019050919050565b6000602482527f7369676e6572206973206e6f742061207374616b656420636f7265206f70657260208301527f61746f72000000000000000000000000000000000000000000000000000000006040830152606082019050919050565b6000602c82527f5369676e617475726573206d757374206265207369676e65642062792064696660208301527f666572656e7420436f72657300000000000000000000000000000000000000006040830152606082019050919050565b6000603f82527f737570706c69656420746f4574685369676e65644d657373616765486173682060208301527f646f6573206e6f7420657175616c2076616c75652063616c63756c61746564006040830152606082019050919050565b6000602882527f6d757374206265206f776e6572206f7220616e2061637469766520636f72652060208301527f6f70657261746f720000000000000000000000000000000000000000000000006040830152606082019050919050565b6000602582527f6c697374206f66203732206f72206665776572206e6f6465732069732072657160208301527f75697265640000000000000000000000000000000000000000000000000000006040830152606082019050919050565b6000603082527f6d696e74696e67206f636375727320617420746865207370656369666965642060208301527f6d696e74696e6720696e74657276616c000000000000000000000000000000006040830152606082019050919050565b61315a81613520565b82525050565b6131698161352a565b82525050565b60006020820190506131846000830184612dc4565b92915050565b600060208201905061319f6000830184612db5565b92915050565b60006040820190506131ba6000830185612db5565b6131c76020830184613151565b9392505050565b600060608201905081810360008301526131e88186612dd3565b90506131f76020830185613151565b6132046040830184613151565b949350505050565b60006020820190506132216000830184612e2e565b92915050565b600060208201905061323c6000830184612e3d565b92915050565b60006020820190506132576000830184612e4c565b92915050565b60006020820190506132726000830184612e5b565b92915050565b600060208201905081810360008301526132928184612e6a565b905092915050565b600060208201905081810360008301526132b381612ea0565b9050919050565b600060208201905081810360008301526132d381612f23565b9050919050565b600060208201905081810360008301526132f381612f80565b9050919050565b6000602082019050818103600083015261331381612fdd565b9050919050565b600060208201905081810360008301526133338161303a565b9050919050565b6000602082019050818103600083015261335381613097565b9050919050565b60006020820190508181036000830152613373816130f4565b9050919050565b600060208201905061338f6000830184613151565b92915050565b60006040820190506133aa6000830185613151565b6133b76020830184613151565b9392505050565b60006020820190506133d36000830184613160565b92915050565b6000604051905081810181811067ffffffffffffffff821117156133fc57600080fd5b8060405250919050565b600067ffffffffffffffff82111561341d57600080fd5b602082029050602081019050919050565b600067ffffffffffffffff82111561344557600080fd5b602082029050919050565b600067ffffffffffffffff82111561346757600080fd5b601f19601f8301169050602081019050919050565b600067ffffffffffffffff82111561349357600080fd5b601f19601f8301169050602081019050919050565b6000602082019050919050565b600081519050919050565b600081519050919050565b6000602082019050919050565b60006134e382613500565b9050919050565b60008115159050919050565b6000819050919050565b600073ffffffffffffffffffffffffffffffffffffffff82169050919050565b6000819050919050565b600060ff82169050919050565b600061354282613500565b9050919050565b60008115159050919050565b6000819050919050565b6000819050919050565b6000613574826135c3565b9050919050565b60006135868261358d565b9050919050565b600061359882613500565b9050919050565b60006135aa826135b1565b9050919050565b60006135bc82613500565b9050919050565b60006135ce826135d5565b9050919050565b60006135e082613500565b9050919050565b82818337600083830152505050565b60005b838110156136145780820151818401526020810190506135f9565b83811115613623576000848401525b50505050565b6000601f19601f830116905091905056fea265627a7a723058206d06ca395310b61a2cb9d0da34e228fb278ab39600529903471faca74db440c26c6578706572696d656e74616cf50037",
  "source": "pragma solidity >=0.4.22 <0.6.0;\npragma experimental ABIEncoderV2;\n\nimport \"openzeppelin-solidity/contracts/ownership/Ownable.sol\";\nimport \"openzeppelin-solidity/contracts/lifecycle/Pausable.sol\";\nimport \"openzeppelin-solidity/contracts/cryptography/ECDSA.sol\";\nimport \"bytes/BytesLib.sol\";\nimport \"./lib/ERC20.sol\";\nimport \"./lib/ERC20Basic.sol\";\nimport \"./lib/SafeMath.sol\";\nimport \"./ChainpointRegistry.sol\";\nimport \"./ChainpointMigration.sol\";\n\n/**\n * @title Basic token\n * @dev Basic version of StandardToken, with no allowances. \n */\ncontract BasicToken is ERC20Basic {\n  using SafeMath for uint256;\n\n  mapping(address => uint256) balances;\n\n  /**\n   * @dev transfer token for a specified address\n   * @param _to The address to transfer to.\n   * @param _value The amount to be transferred.\n   */\n  function transfer(address _to, uint256 _value) public returns(bool) {\n    balances[msg.sender] = balances[msg.sender].sub(_value);\n    balances[_to] = balances[_to].add(_value);\n    emit Transfer(msg.sender, _to, _value);\n    return true;\n  }\n\n  /**\n   * @dev Gets the balance of the specified address.\n   * @param _owner The address to query the the balance of. \n   * @return An uint256 representing the amount owned by the passed address.\n   */\n  function balanceOf(address _owner) public view returns(uint256 balance) {\n    return balances[_owner];\n  }\n\n}\n\n/**\n * @title Standard ERC20 token\n *\n * @dev Implementation of the basic standard token.\n * @dev https://github.com/ethereum/EIPs/issues/20\n * @dev Based on code by FirstBlood: https://github.com/Firstbloodio/token/blob/master/smart_contract/FirstBloodToken.sol\n */\ncontract StandardToken is ERC20, BasicToken {\n  using SafeMath for uint256;\n\n  mapping(address => mapping(address => uint256)) public allowed;\n\n\n  /**\n   * @dev Transfer tokens from one address to another\n   * @param _from address The address which you want to send tokens from\n   * @param _to address The address which you want to transfer to\n   * @param _value uint256 the amout of tokens to be transfered\n   */\n  function transferFrom(address _from, address _to, uint256 _value) public returns(bool) {\n    // Check is not needed because sub(_allowance, _value) will already throw if this condition is not met\n    // require (_value <= _allowance);\n    \n    balances[_from] = balances[_from].sub(_value);\n    allowed[_from][msg.sender] = allowed[_from][msg.sender].sub(_value);\n    balances[_to] = balances[_to].add(_value);\n\n    emit Transfer(_from, _to, _value);\n    \n    return true;\n  }\n\n  /**\n   * @dev Aprove the passed address to spend the specified amount of tokens on behalf of msg.sender.\n   * @param _spender The address which will spend the funds.\n   * @param _value The amount of tokens to be spent.\n   */\n  function approve(address _spender, uint256 _value) public returns(bool) {\n\n    // To change the approve amount you first have to reduce the addresses`\n    //  allowance to zero by calling `approve(_spender, 0)` if it is not\n    //  already 0 to mitigate the race condition described here:\n    //  https://github.com/ethereum/EIPs/issues/20#issuecomment-263524729\n    require((_value == 0) || (allowed[msg.sender][_spender] == 0));\n\n    allowed[msg.sender][_spender] = _value;\n    emit Approval(msg.sender, _spender, _value);\n    return true;\n  }\n\n  /**\n   * @dev Function to check the amount of tokens that an owner allowed to a spender.\n   * @param _owner address The address which owns the funds.\n   * @param _spender address The address which will spend the funds.\n   * @return A uint256 specifing the amount of tokens still avaible for the spender.\n   */\n  function allowance(address _owner, address _spender) public view returns(uint256 remaining) {\n    return allowed[_owner][_spender];\n  }\n\n}\n\n/**\n * @title Tierion Network Token\n * @dev ERC20 Tierion Network Token (TNT)\n *\n * TNT Tokens are divisible by 1e8 (100,000,000) base\n * units referred to as 'Grains'.\n *\n * TNT are displayed using 8 decimal places of precision.\n *\n * 1 TNT is equivalent to:\n *   100000000 == 1 * 10**8 == 1e8 == One Hundred Million Grains\n *\n * 1 Billion TNT (total supply) is equivalent to:\n *   100000000000000000 == 1000000000 * 10**8 == 1e17 == One Hundred Quadrillion Grains\n *\n * All initial TNT Grains are assigned to the creator of\n * this contract.\n *\n */\ncontract TierionNetworkToken is StandardToken, Ownable, Pausable {\n    using ECDSA for bytes32;\n    using BytesLib for bytes;\n    \n    string public name = 'Tierion Network Token'; // Set the token name for display\n    string public symbol = 'TNT'; // Set the token symbol for display\n    uint8 public decimals = 8; // Set the number of decimals for display\n    uint256 public INITIAL_SUPPLY = 2000000 * 10 ** uint256(decimals); // 1M TNT specified in Grains\n    uint256 public mintAmount = 2000 * 10 ** uint256(decimals); // 2000 TNT specified in Grains\n    \n    ///\n    /// Minting Parameters\n    ///\n    /// @title Minting Interval (in # of blocks)\n    uint256 public mintingInterval = 5760; // 86,400 (seconds in 1 day) / 15 (average block time in seconds)\n    /// @title Nodes Last Token Minting timestamp\n    uint256 public nodeLastMintedAt = 0;\n    /// @title Nodes Last Token Minting block height\n    uint256 public nodeLastMintedAtBlock = 0;\n    /// @title Cores Last Token Minting timestamp\n    uint256 coreLastMintedAt = 0;\n    /// @title Cores Last Token Minting block height\n    uint256 public coreLastMintedAtBlock = 0;\n    \n    /// @title Chainpoint Registry\n    /// @notice Chainpoint Registry Contract\n    ChainpointRegistry public chainpointRegistry;\n\n    /// @title Chainpoint Migration\n    /// @notice Chainpoint Migration Contract\n    ChainpointMigration public migrationContract;\n  \n    ///\n    /// MODIFIERS\n    ///\n    /// @notice only Staked Core Operators or Owner can call, otherwise throw\n    modifier onlyCoreOperator() {\n      require(chainpointRegistry.isHealthyCore(msg.sender), \"must be owner or an active core operator\");\n      _;\n    }\n\n    /// @notice only Staked Core Operators or Owner can call, otherwise throw\n    modifier onlyChainpointMigrationContract() {\n      require(msg.sender == address(migrationContract), \"only Migration Contract can invoke this method\");\n      _;\n    }\n\n  /**\n   * @dev TierionNetworkToken Constructor\n   * Runs only on initial contract creation.\n   */\n  constructor(address _faucetAddr, address _migrationAddr) public {\n    totalSupply = INITIAL_SUPPLY; // Set the total supply\n    balances[_faucetAddr] = INITIAL_SUPPLY.div(2); // 1M $TKNs is minted to Chainpoint Faucet\n    balances[msg.sender] = INITIAL_SUPPLY.div(2); // 1M 1M $TKNs is minted to Chainpoint/Tierion for bootstrapping Network\n\n    migrationContract = ChainpointMigration(_migrationAddr); // Set CHP Migration Contract\n  }\n  \n  ///\n  /// EVENTS \n  ///\n  /// @notice emitted on successful token minting\n  /// @param _nodes number of Node Operators that were rewarded tokens\n  /// @param _mintAmount is the total number of tokens rewarded to each Node Operator\n  /// @param _blockHeight The block height in which token minting occurred\n  event Mint(\n      address[] _nodes,\n      uint256 _mintAmount,\n      uint256 _blockHeight\n  );\n  \n  /// @notice emitted on successful purchasing of usage\n  /// @param _buyer node operator that is purchasing network usage\n  /// @param _value amount of TNT being spent on future network usage\n  event UsagePurchased(\n      address _buyer,\n      uint256 _value\n  );\n\n  event MintCores(\n    uint256 _recoveredSigs,\n    uint256 _majority\n  );\n\n  /**\n   * @dev Transfer token for a specified address when not paused\n   * @param _to The address to transfer to.\n   * @param _value The amount to be transferred.\n   */\n  function transfer(address _to, uint256 _value) public whenNotPaused returns(bool) {\n    require(_to != address(0));\n    return super.transfer(_to, _value);\n  }\n\n  /**\n   * @dev Transfer tokens from one address to another when not paused\n   * @param _from address The address which you want to send tokens from\n   * @param _to address The address which you want to transfer to\n   * @param _value uint256 the amount of tokens to be transferred\n   */\n  function transferFrom(address _from, address _to, uint256 _value) public whenNotPaused returns(bool) {\n    require(_to != address(0));\n    return super.transferFrom(_from, _to, _value);\n  }\n\n  /**\n   * @dev Aprove the passed address to spend the specified amount of tokens on behalf of msg.sender when not paused.\n   * @param _spender The address which will spend the funds.\n   * @param _value The amount of tokens to be spent.\n   */\n  function approve(address _spender, uint256 _value) public whenNotPaused returns(bool) {\n    return super.approve(_spender, _value);\n  }\n  \n  /**\n   * @dev Mint tokens and send to the address provided\n   * @param _nodes The addresses of Nodes which will receive the funds.\n   * @dev only Chainpoint Core Operators can invoke this method\n   */\n  function mint(address[] memory _nodes, bytes32 _hash, bytes memory signature1, bytes memory signature2, bytes memory signature3, bytes memory signature4, bytes memory signature5, bytes memory signature6) public whenNotPaused onlyCoreOperator returns(bool) {\n      require(nodeLastMintedAtBlock == 0 || block.number >= nodeLastMintedAtBlock.add(mintingInterval), \"minting occurs at the specified minting interval\");\n      require(_nodes.length <= 72, \"list of 72 or fewer nodes is required\");\n      // Check signature uniqueness\n      require(!signature1.equal(signature2) && !signature1.equal(signature3) && !signature1.equal(signature4) && !signature1.equal(signature5) && !signature1.equal(signature6), 'Signatures must be signed by different Cores');\n      require(!signature2.equal(signature3) && !signature2.equal(signature4) && !signature2.equal(signature5) && !signature2.equal(signature6), 'Signatures must be signed by different Cores');\n      require(!signature3.equal(signature4) && !signature3.equal(signature5) && !signature3.equal(signature6), 'Signatures must be signed by different Cores');\n      require(!signature4.equal(signature5) && !signature4.equal(signature6), 'Signatures must be signed by different Cores');\n      require(!signature5.equal(signature6), 'Signatures must be signed by different Cores');\n\n      // Validate parameters provided\n      bytes32 nodesHash = keccak256(abi.encodePacked(_nodes));\n      require(nodesHash.toEthSignedMessageHash() == _hash, \"supplied toEthSignedMessageHash does not equal value calculated\");\n      \n      // Recover Signer addresses and verify they are staked Core Operators\n      bytes[6] memory signatures = [signature1, signature2, signature3, signature4, signature5, signature6];\n      for(uint8 i=0; i < signatures.length; i++) {\n          require(chainpointRegistry.isHealthyCore(_hash.recover(signatures[i])), \"signer is not a staked core operator\");\n      }\n\n      // Update LastMintedAt block & time\n      nodeLastMintedAtBlock = block.number;\n      nodeLastMintedAt = now;\n      \n      // Iterate through list of Nodes and award tokens\n      for(uint8 i=0; i < _nodes.length; i++) {\n          _mint(_nodes[i], mintAmount);\n      }\n      \n      emit Mint(_nodes, mintAmount, block.number);\n      \n      return true;\n  }\n\n  function mintCores(address[] memory _cores, bytes32 _hash, bytes[2] memory sigs) public whenNotPaused returns (bool) {\n    // Validate parameters provided\n    bytes32 coresHash = keccak256(abi.encodePacked(_cores));\n    require(coresHash.toEthSignedMessageHash() == _hash, \"_hash supplied toEthSignedMessageHash does not equal value calculated\");\n\n    uint256 recoveredSigs = 0;\n    // TODO: hardcoded for now\n    uint256 majority = uint256(6).div(2).add(1);\n\n    // Recover Signer addresses and verify they are staked Core Operators\n    for(uint8 i=0; i < sigs.length; i++) {\n      recoveredSigs = recoveredSigs.add(1);\n    }\n\n    // require(recoveredSigs >= majority, \"quorum was not reached\");\n\n    emit MintCores(recoveredSigs, majority);\n\n    return true;\n  }\n\n  /**\n   * @dev Purchase Usage tokens, will burn tokens and emit a UsagePurchased & Transfer event\n   * @param _value The amount of tokens to be spent.\n   * @dev Chainpoint Nodes will be invoking this method to purchase access to the Network\n   * @return Boolean indicating result of method execution\n   */\n  function purchaseUsage(uint256 _value) public returns (bool) {\n      _burn(msg.sender, _value);\n      \n      emit UsagePurchased(msg.sender, _value);\n      \n      return true;\n  }\n\n  /**\n   * @dev Token Migration Mint new tokens for migrator\n   * @param _amount The amount of tokens to be minted as a result of a migration.\n   * @dev TNT token holders will be invoking during token migration process\n   * @return Boolean indicating result of method execution\n   */\n  function mintForExchange(address _to, uint256 _amount) public returns (bool) {\n    _mint(_to, _amount);\n\n    // TODO: emit TokensMigrated Event\n\n    return true;\n  }\n\n  /**\n   * @dev Sets the contract address for the Chainpoint Registry\n   * @param _addr The contract address of the Chainpoint Registry\n   * @dev Can only be invoked by contract owner\n   * @return Boolean indicating result of method execution\n   */\n  function setChainpointRegistry(address _addr) public onlyOwner returns(bool) {\n      require(_addr != address(0));\n      \n      chainpointRegistry = ChainpointRegistry(_addr);\n      \n      return true;\n  }\n\n  /**\n   * @dev Gets the balance of the specified address.\n   * @param _account The account which is burning tokens\n   * @param _value The number of tokens to burn\n   * @dev Internal function that is called within - purchaseUsage()\n   */\n  function _burn(address _account, uint256 _value) internal {\n    require(_account != address(0));\n\n    totalSupply = totalSupply.sub(_value);\n    balances[_account] = balances[_account].sub(_value);\n    \n    emit Transfer(_account, address(0), _value);\n  }\n\n  /**\n    * @dev Internal function that mints an amount of the token and credits the account provided\n    * @param _account The account that will receive the created tokens.\n    * @param _value The amount of tokens minted\n    */\n  function _mint(address _account, uint256 _value) internal {\n    require(_account != address(0));\n\n    totalSupply = totalSupply.add(_value);\n    balances[_account] = balances[_account].add(_value);\n    emit Transfer(address(0), _account, _value);\n  }\n  \n  function recover(bytes32 hash, bytes memory signature) public pure returns (address) {\n    return hash.recover(signature);\n  }\n\n  function toEthSignedMessageHash(bytes32 hash) public pure returns (bytes32) {\n    return hash.toEthSignedMessageHash();\n  }\n\n  function isMigrationContract() public view returns (bool) {\n    return (msg.sender == address(migrationContract));\n  }\n\n  function quickMaths() public pure returns (uint256) {\n    return uint256(6).div(2).add(1);\n  }\n}\n",
  "sourcePath": "/Users/michaeliglesias/zDevelopment/Tierion/Hydra/node-registration-research/v1/contracts/TierionNetworkToken.sol",
  "compiler": {
    "name": "solc",
    "version": "0.5.0+commit.1d4f565a.Emscripten.clang"
  },
  "schemaVersion": "3.0.1",
  "updatedAt": "2019-05-23T20:38:46.316Z",
  "devdoc": {
    "details": "ERC20 Tierion Network Token (TNT) * TNT Tokens are divisible by 1e8 (100,000,000) base units referred to as 'Grains'. * TNT are displayed using 8 decimal places of precision. * 1 TNT is equivalent to:  100000000 == 1 * 10**8 == 1e8 == One Hundred Million Grains * 1 Billion TNT (total supply) is equivalent to:  100000000000000000 == 1000000000 * 10**8 == 1e17 == One Hundred Quadrillion Grains * All initial TNT Grains are assigned to the creator of this contract. ",
    "methods": {
      "allowance(address,address)": {
        "details": "Function to check the amount of tokens that an owner allowed to a spender.",
        "params": {
          "_owner": "address The address which owns the funds.",
          "_spender": "address The address which will spend the funds."
        },
        "return": "A uint256 specifing the amount of tokens still avaible for the spender."
      },
      "approve(address,uint256)": {
        "details": "Aprove the passed address to spend the specified amount of tokens on behalf of msg.sender when not paused.",
        "params": {
          "_spender": "The address which will spend the funds.",
          "_value": "The amount of tokens to be spent."
        }
      },
      "balanceOf(address)": {
        "details": "Gets the balance of the specified address.",
        "params": {
          "_owner": "The address to query the the balance of. "
        },
        "return": "An uint256 representing the amount owned by the passed address."
      },
      "constructor": {
        "details": "TierionNetworkToken Constructor Runs only on initial contract creation."
      },
      "isOwner()": {
        "return": "true if `msg.sender` is the owner of the contract."
      },
      "mint(address[],bytes32,bytes,bytes,bytes,bytes,bytes,bytes)": {
        "details": "Mint tokens and send to the address providedonly Chainpoint Core Operators can invoke this method",
        "params": {
          "_nodes": "The addresses of Nodes which will receive the funds."
        }
      },
      "mintForExchange(address,uint256)": {
        "details": "Token Migration Mint new tokens for migratorTNT token holders will be invoking during token migration process",
        "params": {
          "_amount": "The amount of tokens to be minted as a result of a migration."
        },
        "return": "Boolean indicating result of method execution"
      },
      "owner()": {
        "return": "the address of the owner."
      },
      "pause()": {
        "details": "called by the owner to pause, triggers stopped state"
      },
      "paused()": {
        "return": "true if the contract is paused, false otherwise."
      },
      "purchaseUsage(uint256)": {
        "details": "Purchase Usage tokens, will burn tokens and emit a UsagePurchased & Transfer eventChainpoint Nodes will be invoking this method to purchase access to the Network",
        "params": {
          "_value": "The amount of tokens to be spent."
        },
        "return": "Boolean indicating result of method execution"
      },
      "renounceOwnership()": {
        "details": "Allows the current owner to relinquish control of the contract."
      },
      "setChainpointRegistry(address)": {
        "details": "Sets the contract address for the Chainpoint RegistryCan only be invoked by contract owner",
        "params": {
          "_addr": "The contract address of the Chainpoint Registry"
        },
        "return": "Boolean indicating result of method execution"
      },
      "transfer(address,uint256)": {
        "details": "Transfer token for a specified address when not paused",
        "params": {
          "_to": "The address to transfer to.",
          "_value": "The amount to be transferred."
        }
      },
      "transferFrom(address,address,uint256)": {
        "details": "Transfer tokens from one address to another when not paused",
        "params": {
          "_from": "address The address which you want to send tokens from",
          "_to": "address The address which you want to transfer to",
          "_value": "uint256 the amount of tokens to be transferred"
        }
      },
      "transferOwnership(address)": {
        "details": "Allows the current owner to transfer control of the contract to a newOwner.",
        "params": {
          "newOwner": "The address to transfer ownership to."
        }
      },
      "unpause()": {
        "details": "called by the owner to unpause, returns to normal state"
      }
    },
    "title": "Tierion Network Token"
  },
  "userdoc": {
    "methods": {
      "renounceOwnership()": {
        "notice": "Renouncing to ownership will leave the contract without an owner. It will not be possible to call the functions with the `onlyOwner` modifier anymore."
      }
    }
  }
}